:020000040800F2
:1000000000500020250200082B0200082F020008E3
:10001000470200084B0200086302000800000000CD
:100020000000000000000000000000007B0200084B
:100030007F02000800000000830200083D24000841
:100040002102000821020008210200082102000804
:1000500021020008210200082102000821020008F4
:1000600021020008210200082102000821020008E4
:1000700021020008210200082102000821020008D4
:1000800021020008210200082102000821020008C4
:1000900021020008210200082102000821020008B4
:1000A00021020008210200082102000821020008A4
:1000B000ED2D00082102000821020008210200089D
:1000C00021020008292D0008ED290008210200085E
:1000D0002102000821020008210200082102000874
:1000E000210200082102000821020008000000008F
:1000F0000000000000000000000000000000000000
:1001000000000000000000005FF808F100B583B0B7
:1001100002F07AF9304B314A1360314A1360314BA7
:10012000314A32498B4204D21168196004330432D7
:10013000F7E72A4B1A682E4B9A4200D0FEE7284B6D
:100140001A682C4B9A42F9D1234B2B4A13602B4A45
:1001500013602B4B02E000221A600433294A9342B9
:10016000F9D3254B1B6813B9244B1B6803B1FEE779
:1001700002F056F9694601A800F0CAF8224C234B58
:10018000E41AA4100025AC4214DC214C214BE41AE3
:10019000A4100025AC4213DC0099019802F064FF22
:1001A00005461D4C1D4BE41AA410002C0EDC2846FD
:1001B00000F086F8154B53F8253098470135E2E7F3
:1001C000144B53F8253098470135E3E7013C134BB6
:1001D00053F824309847E8E7BABADECA0000002096
:1001E0001802002000000020306C00081C020020D3
:1001F00078563412325476981C020020680400208D
:100200001C0200206C040020BC020008BC02000894
:10021000BC020008BC020008BC020008BC020008C6
:1002200000BEFEE708B5FFF771FF00BEFEE71EF057
:10023000040F0CBFEFF30880EFF309807146124AF8
:10024000104700BEFEE700BEFEE71EF0040F0CBF25
:10025000EFF30880EFF3098071460C4A104700BEA7
:10026000FEE71EF0040F0CBFEFF30880EFF30980E8
:100270007146074A104700BEFEE700BEFEE700BE1B
:10028000FEE700BEFEE77047430200085F02000879
:0402900077020008E9
:10029400306C0008000000201C020020306C0008B4
:1002A40000000000000000001C0200206C0400207C
:0802B400000000000000000042
:1002C000FEE708B50120FFF7FBFF000008B5034675
:1002D0000C4A12685AB10B4A1068033323F0030327
:1002E0000344094A934206D8064A136008BD054AEA
:1002F00006491160EFE703F0A9FE0C2303604FF0FD
:10030000FF30F3E720020020004C00206C040020A6
:1003100001230360014B0B60704700BF0400002005
:1003200008B5FFF7CEFF000082B0002301930093D1
:100330002C4A136843F4803313602A4B1B6803F480
:1003400000330093019B01330193009B1BB9019B78
:10035000B3F5A06FF1D1234B1B6813F4003F06D017
:1003600001230093009B012B04D002B070470023AF
:100370000093F7E71C4B1A6842F010021A601A68E3
:1003800022F003021A601A6842F002021A60A3F512
:1003900080535A685A605A685A605A6842F48062B8
:1003A0005A605A6822F47C125A605A6842F4E81281
:1003B0005A601A6842F080721A600A4B1B6813F088
:1003C000007FFAD0074B5A6822F003025A605A683D
:1003D00042F002025A60034B5B6803F00C03082BE7
:1003E000F9D1C2E7001002400020024008B5FFF733
:1003F0009BFF08BD08B5104B1A6842F001021A6055
:1004000059680E4A0A405A601A6822F0847222F42F
:1004100080321A601A6822F480221A605A6822F424
:10042000FE025A604FF41F029A60FFF7DFFF044B91
:100430004FF000629A6008BD001002400000FFF813
:1004400000ED00E01F4B5B6803F00C03042B15D09C
:10045000082B17D01BB11C4B1C4A1A6002E01A4B28
:100460001A4A1A60174B5B68C3F30313184AD35C2C
:10047000DAB215490B68D3400B607047124B134A30
:100480001A60EFE70F4A53685268C3F3834302339D
:1004900012F4803F0AD00B4A526812F4003F0BD08E
:1004A0000C4A02FB03F3084A1360DBE7094A02FB2C
:1004B00003F3054A1360D5E7044A02FB03F3024A3B
:1004C0001360CFE7001002401C00002000127A00E9
:1004D0000C00002000093D0010B50446B0F5E06FA7
:1004E0000FD0B0F5C06F0CD0B0F5A06F09D0B0F54B
:1004F000806F06D0B0F5407F03D063210448FFF73A
:100500000FFF44F0BF6444F40034024BDC6010BDC4
:100510009865000800ED00E010B50446C378012B93
:1005200012D863780F2B14D8A3780F2B16D8E37842
:10053000CBB9237803F01F015B0901228A402033E5
:10054000184941F8232010BD75211748FFF7E8FE30
:10055000E7E776211448FFF7E3FEE5E77721124845
:10056000FFF7DEFEE3E7114BDA68D243C2F3022263
:10057000C2F104000F2323FA02F261788140A378CC
:1005800013400B431B012278DBB206490A4482F870
:100590000033237803F01F005B090122824041F8F9
:1005A0002320D0E700E100E09865000800ED00E0BE
:1005B00010B504461C4B98420BD003F5806398425B
:1005C00007D003F5A053984203D0BC211748FFF78A
:1005D000A7FE154B9C4206D0154B9C420ED0154BE6
:1005E0009C4216D010BD01214FF4007001F012F9A9
:1005F00000214FF4007001F00DF9F3E701214FF4F1
:10060000806001F007F900214FF4806001F002F9E9
:10061000E8E701214FF4004001F0FCF800214FF41D
:10062000004001F0F7F8DDE700240140C065000854
:1006300000280140003C014038B505460C46484BB7
:1006400098420BD003F58063984207D003F5A0537E
:10065000984203D0E5214348FFF762FE2368D3B1F7
:10066000B3F5803F17D0B3F5003F14D0B3F5403F4A
:1006700011D0B3F5802F0ED0B3F5A02F0BD0B3F56A
:10068000C02F08D0B3F5E02F05D0B3F5002F02D06E
:10069000B3F5102F46D12379012B48D86379012B6C
:1006A0004AD8A368A3B1B3F5003F11D0B3F5802FAA
:1006B0000ED0B3F5C02F0BD0B3F5002F08D0B3F593
:1006C000202F05D0B3F5402F02D0B3F5602F38D1DD
:1006D000E36813B1B3F5006F38D1237C013BDBB283
:1006E0000F2B38D86A6822F4702222F480722368B3
:1006F000217943EA012313436B60AB681A4A1A401D
:10070000E368A1680B43617943EA41031343AB609B
:10071000EB6A23F47003227C013AD2B243EA02531B
:10072000EB6238BDE6210F48FFF7FAFDB3E7E7219A
:100730000C48FFF7F5FDB1E7E8210A48FFF7F0FDA7
:10074000AFE7E9210748FFF7EBFDC1E7EA210548DC
:10075000FFF7E6FDC1E7EB210248FFF7E1FDC1E746
:1007600000240140C0650008FDF7F1FF38B50446DC
:100770000D46114B98420CD003F58063984208D087
:1007800003F5A053984204D04FF49A710B48FFF739
:10079000C7FD012D05D855B9A36823F00103A36057
:1007A00038BD40F235110548FFF7BAFDF3E7A368FD
:1007B00043F00103A360F3E700240140C065000893
:1007C00038B504460D460F4B984208D003F5C05388
:1007D000984204D040F24D110B48FFF7A1FD012DC6
:1007E00005D855B9A36823F48073A36038BD4FF4CE
:1007F000A7710548FFF794FDF3E7A36843F48073FE
:10080000A360F3E700240140C065000810B504466A
:100810000A4B98420CD003F58063984208D003F548
:10082000A053984204D04FF4C2710548FFF778FDF9
:10083000A36843F00803A36010BD00BF002401407B
:10084000C065000810B504460B4B98420CD003F568
:100850008063984208D003F5A053984204D04FF427
:10086000C9710648FFF75CFDA36813F0080F01D1BA
:10087000002010BD0120FCE700240140C0650008F5
:1008800010B504460A4B98420CD003F58063984299
:1008900008D003F5A053984204D04FF4D571054811
:1008A000FFF73EFDA36843F00403A36010BD00BF43
:1008B00000240140C065000810B504460B4B984267
:1008C0000CD003F58063984208D003F5A0539842FA
:1008D00004D04FF4DC710648FFF722FDA36813F043
:1008E000040F01D1002010BD0120FCE700240140CD
:1008F000C065000838B504460D46114B98420CD02F
:1009000003F58063984208D003F5A053984204D0C1
:100910004FF4E9710B48FFF703FD012D05D855B9D8
:10092000A36823F4A003A36038BD40F2D3110548A7
:10093000FFF7F6FCF3E7A36843F4A003A360F3E733
:1009400000240140C0650008F8B505460E4614466F
:100950001F46374B98420CD003F58063984208D06D
:1009600003F5A053984204D04FF416713148FFF7B5
:10097000D7FC112E24D8631EDBB20F2B26D8072FED
:100980002AD8092E2ED9EA68A6F10A0303EB4303FD
:100990000721994022EA01029F401743EF60062C8D
:1009A0002BD90C2C36D9EB6A0D3C04EB84041F22A6
:1009B000A24023EA020306FA04F41C43EC6228E096
:1009C00040F259211B48FFF7ABFCD4E740F25A2113
:1009D0001848FFF7A5FCD2E740F25B211548FFF766
:1009E0009FFCCEE72B6906EB460107228A4023EAEB
:1009F00002038F401F432F61D1E76B6B013C04EB77
:100A000084041F22A24023EA020306FA04F41C43D2
:100A10006C63F8BD2B6B073C04EB84041F22A240DF
:100A200023EA020306FA04F41C432C63F1E700BF37
:100A300000240140C065000810B504464F4B9842A1
:100A400025D01433984222D0143398421FD0143347
:100A500098421CD01433984219D01433984216D0BF
:100A60001433984213D003F5627398420FD01433B5
:100A700098420CD01433984209D01433984206D0CF
:100A80001433984203D06F213D48FFF749FC236897
:100A900023F001031B041B0C23600023236063600D
:100AA000A360E360354B9C4226D0364B9C4229D054
:100AB000354B9C422CD0354B9C422FD0344B9C4222
:100AC00032D0344B9C4235D0334B9C4238D0334BE0
:100AD0009C423BD0324B9C423ED0324B9C4241D058
:100AE000314B9C4244D0314B9C420AD1304A53682E
:100AF00043F47023536004E02E4A536843F00F031D
:100B0000536010BD2B4A536843F0F0035360F8E77D
:100B1000284A536843F470635360F2E7254A5368E8
:100B200043F470435360ECE7224A536843F4702364
:100B30005360E6E71F4A536843F470035360E0E7ED
:100B40001C4A536843F070635360DAE7184A5368ED
:100B500043F00F035360D4E7154A536843F0F003A2
:100B60005360CEE7124A536843F470635360C8E79A
:100B70000F4A536843F470435360C2E708000240D1
:100B8000F06500081C0002403000024044000240B2
:100B9000580002406C0002408000024008040240FD
:100BA0001C04024030040240440402405804024045
:100BB000000402400000024038B505460C46574B81
:100BC000984225D01433984222D0143398421FD033
:100BD000143398421CD01433984219D014339842DD
:100BE00016D01433984213D003F5627398420FD095
:100BF000143398420CD01433984209D014339842DD
:100C000006D01433984203D0CF214548FFF788FB24
:100C1000A368102B01D0002B53D1E368013B4FF6A2
:100C2000FE72934252D82369402B01D0002B52D13F
:100C30006369802B01D0002B52D1A3692BB1B3F58E
:100C4000807F02D0B3F5007F4FD1E3692BB1B3F5BC
:100C5000806F02D0B3F5006F4CD1236A202B01D0F6
:100C6000002B4CD1636AB3F5405F07D0B3F5005F4A
:100C700004D0B3F5805F01D0002B45D1A36AB3F552
:100C8000804F01D0002B44D12A6822F4FF4222F089
:100C90007002A368216A0B4321690B4361690B430E
:100CA000A1690B43E1690B43616A0B43A16A0B43E2
:100CB00013432B60E3686B602368AB606368EB6091
:100CC00038BDD0211648FFF72BFBA6E7D1211448E9
:100CD000FFF726FBA7E7D2211148FFF721FBA7E783
:100CE000D3210F48FFF71CFBA7E7D4210C48FFF7DF
:100CF00017FBAAE7D5210A48FFF712FBADE7D6217B
:100D00000748FFF70DFBADE7D7210548FFF708FBC4
:100D1000B4E7D8210248FFF703FBB5E7080002401B
:100D2000F065000838B504460D461F4B984226D0A2
:100D30001433984223D01433984220D0143398426D
:100D40001DD0143398421AD01433984217D014335C
:100D5000984214D003F56273984210D0143398422D
:100D60000DD0143398420AD01433984207D014336C
:100D7000984204D040F229110C48FFF7D1FA012D16
:100D800007D865B9236823F001031B041B0C2360FB
:100D900038BD4FF495710548FFF7C2FAF1E72368B3
:100DA00043F001032360F3E708000240F065000808
:100DB000F8B505460C46494B98421BD003F58063B5
:100DC000984217D003F58063984213D003F58063EF
:100DD00098420FD003F5806398420BD003F58063EF
:100DE000984207D003F58063984203D0B2213C4873
:100DF000FFF796FAE3786BB1042B0BD0282B09D0C0
:100E0000482B07D0142B05D0102B03D01C2B01D05E
:100E1000182B14D12388BBB1E37803F00F063046BA
:100E200013F0100F06D0A378013BDBB2022B10D8D1
:100E3000A078304323785BB32E68002310E0B32101
:100E40002748FFF76DFAE5E7B4212548FFF768FA70
:100E5000E2E7BB212248FFF763FAE9E76A61013361
:100E6000072B14D801229A40218832EA0101F6D1D9
:100E700099000F278F4026EA070600FA01F10E437A
:100E8000E1782829EAD04829E9D12A61E7E72E60EC
:100E90002388FF2B20D96E68002303E06A6116E0E7
:100EA0002A610133072B16D803F1080101228A4079
:100EB000218832EA0101F4D199000F278F4026EAF8
:100EC000070600FA01F10E43E1782829E6D0E1781F
:100ED0004829E6D1E4E76E60F8BD00BF0008014094
:100EE0002066000838B504460D462A4B98421CD0AF
:100EF00003F58063984218D003F58063984214D0BC
:100F000003F58063984210D003F5806398420CD0BB
:100F100003F58063984208D003F58063984204D0BB
:100F20004FF48F711C48FFF7FBF96B1E9BB2012B2E
:100F300023D9042D21D0082D1FD0102D1DD0202DF8
:100F40001BD0402D19D0802D17D0B5F5807F14D03F
:100F5000B5F5007F11D0B5F5806F0ED0B5F5006FF7
:100F60000BD0B5F5805F08D0B5F5005F05D0B5F5BD
:100F7000804F02D0B5F5004F04D1A3681D4207D1C0
:100F8000002038BD40F21F110348FFF7C9F9F4E70C
:100F90000120F6E7000801402066000838B5044645
:100FA0000D46144B98421CD003F58063984218D02C
:100FB00003F58063984214D003F58063984210D003
:100FC00003F5806398420CD003F58063984208D003
:100FD00003F58063984204D040F269110648FFF798
:100FE0009FF90DB1256138BD4FF4B5710248FFF787
:100FF00097F9F7E7000801402066000838B5044675
:101000000D46144B98421CD003F58063984218D0CB
:1010100003F58063984214D003F58063984210D0A2
:1010200003F5806398420CD003F58063984208D0A2
:1010300003F58063984204D040F279110648FFF727
:101040006FF90DB1656138BD4FF4BD710248FFF70E
:1010500067F9F7E7000801402066000838B5044644
:101060000D46431E012B40F29080042800F08D8035
:10107000082800F08A80644B984200F08680203374
:10108000984200F08280614B98427ED08033984233
:101090007BD05F4B984278D003F58073984274D030
:1010A00003F58073984270D05A4B98426DD003F587
:1010B0008063984269D0B0F5805F66D0B0F5EA1FD2
:1010C00063D0B0F5EB1F60D0B0F5004F5DD0524B50
:1010D00098425AD00133984257D00233984254D0A4
:1010E0000433984251D0083398424ED0B0F1201FBB
:1010F0004BD03033984248D0484B984245D003F506
:101100008073984241D003F5007398423DD0444B20
:1011100098423AD003F57063984236D0B0F5011F7B
:1011200033D0404B984230D0013398422DD0023317
:1011300098422AD00433984227D00833984224D0CA
:101140001033984221D0203398421ED04033984229
:101150001BD08033984218D003F58073984214D086
:1011600003F50073984210D003F5806398420CD0C9
:1011700003F50063984208D003F58053984204D0E9
:1011800040F22A212848FFF7CBF8012D16D8002C71
:101190001ADB264B5B68C4F30340A2B204F440118F
:1011A000B1F5401F13D014F4801F21D0032101FAA0
:1011B00000F023EA000343F070630FE040F22B21BC
:1011C0001948FFF7ADF8E2E7184BDB69E3E723F0D6
:1011D00070631648416821F0706141601DB1610D76
:1011E00009018A401343002C0BDB104A536038BDC1
:1011F000610D090102FA01F123EA010343F0706372
:10120000ECE70A4AD361F2E7100014004000160030
:101210000001180000081A00010020000001300041
:10122000001120000100008020660008000001403D
:1012300010B50446114B984207D003F580639842DD
:1012400003D0A5210E48FFF76BF80C4B9C420AD047
:1012500001214FF4800000F003FB00214FF48000D7
:1012600000F0FEFA10BD01214FF4001000F0F8FA72
:1012700000214FF4001000F0F3FAF3E700540040AF
:1012800054660008F0B587B004460D46554B9842A9
:1012900007D003F58063984203D0C6215248FFF778
:1012A0003FF82B68013B514A934257D8AB881BB19A
:1012B000022B01D00A2B56D1EB88B3F5804F03D017
:1012C0004BF6FF72934253D12B89B3F5806F54D202
:1012D0006B89B3F5806F01D0002B53D1AB89B3F587
:1012E000804F02D0B3F5404F51D1A688B6B226F058
:1012F0003F06B6B201A800F0BDF903983C4AA2FB34
:101300000032920C97B23E43A680218889B221F028
:10131000010189B221802B6836498B423CD85B00A1
:10132000B0FBF3F39BB2032B00D8042301372784CF
:10133000A383238843F00103238023889BB223F4F3
:10134000816323F00203AA8869890A431343238037
:10135000AB892A891343238107B0F0BDC7212248F6
:10136000FEF7DEFFA2E7C8211F48FEF7D9FFA3E77B
:10137000C9211D48FEF7D4FFA6E7CA211A48FEF787
:10138000CFFFA5E7CB211848FEF7CAFFA6E7CC217F
:101390001548FEF7C5FFA8E7EE884BF6FF718E42B1
:1013A0001AD003EB830303EB8303B0FBF3F39BB28D
:1013B00043F48043C3F30B0109B943F0010343F441
:1013C00000434FF4967102FB01F20B4981FB0212BC
:1013D000921101322284ABE703EB4303B0FBF3F33A
:1013E0009BB2E7E700540040546600087F1A0600ED
:1013F00083DE1B43A0860100D34D621038B504463E
:101400000D46104B984208D003F58063984204D0F3
:101410004FF4A9710C48FEF783FF012D07D865B979
:1014200023889BB223F001039BB2238038BD40F296
:1014300053110548FEF774FFF1E7238843F00103D9
:101440002380F3E7005400405466000870B504465A
:101450000D461646134B984208D003F58063984218
:1014600004D04FF40F711048FEF75AFF012E0FD829
:1014700025F4E0639BB203B925B940F23E210A4846
:10148000FEF74EFF56B9A38823EA0505A58070BD77
:1014900040F23D210448FEF743FFE9E7A3881D43DE
:1014A000A580F4E7005400405466000838B50546AE
:1014B0000C46074B984208D003F58063984204D04D
:1014C00040F255210348FEF72BFFA4B22C8238BD11
:1014D000005400405466000810B50446074B98427B
:1014E00008D003F58063984204D040F2622104489A
:1014F000FEF716FF208AC0B210BD00BF00540040A6
:101500005466000810B50446094B984208D003F50C
:101510008063984204D040F267410648FEF700FF1E
:10152000A08A238B40EA034020F07F4010BD00BF1B
:10153000005400405466000838B505460C46284B58
:10154000984208D003F58063984204D040F20F51CE
:101550002448FEF7E5FE244B9C422BD0A3F58043A4
:101560009C4227D0A3F540539C4223D0A3F50063AF
:101570009C421FD0A3F580639C421BD0A3F500734F
:101580009C4217D0B4F1012F14D0184B9C4211D0BB
:10159000403B9C420ED0164B9C420BD0083B9C42D9
:1015A00008D0043B9C4205D0023B9C4202D0013B48
:1015B0009C420AD1AB8803EA144303F4E063AA8A8D
:1015C000144208D04BB9002006E04FF4A261054850
:1015D000FEF7A6FEEEE7002038BD0120FCE700BFC5
:1015E000005400405466000800800001800000069E
:1015F0001000000238B505460C460E4B984208D044
:1016000003F58063984204D040F24A510A48FEF73D
:1016100087FE42F2FF031C4200D124B940F24B5135
:101620000548FEF77DFE24F07F44E443A4B2AC827B
:1016300038BD00BF005400405466000810B5044691
:1016400068B1B0F5804F0AD0B0F5004F07D0B0F5C3
:10165000404F04D040F202310448FEF761FE044AD4
:10166000536823F440431C43546010BD8466000853
:101670000010024010B4294B5B6803F00C03042BEC
:101680002BD0082B2CD013B1254B036001E0244B49
:10169000036022494B68C3F30313224CE35CDAB2C4
:1016A0000368D34043604A68C2F30222A25CD2B20C
:1016B00023FA02F282604A68C2F3C222A25CD2B26A
:1016C000D340C3604A68C2F3813217498A5CD2B200
:1016D000B3FBF2F3036110BC7047114B0360D8E712
:1016E0000E4A53685268C3F38343023312F4803FB7
:1016F00009D00A4A526812F4003F09D00B4A02FB93
:1017000003F30360C5E7094A02FB03F30360C0E784
:10171000034A02FB03F30360BBE700BF0010024073
:1017200000127A00240000202000002000093D0063
:1017300038B504460D4620F4AA6323F0070303B925
:1017400020B940F22B410B48FEF7EAFD012D06D8E7
:101750005DB9094A536923EA0404546138BD40F273
:101760002C410448FEF7DCFDF2E7034A53691C43B1
:101770005461F3E7846600080010024038B504465F
:101780000D460E4B034003B920B940F24A410C48C4
:10179000FEF7C6FD012D06D85DB90A4A936923EA12
:1017A0000404946138BD40F24B410548FEF7B8FD92
:1017B000F2E7044A93691C439461F3E70200C0FF17
:1017C000846600080010024038B504460D460E4BF2
:1017D000184200D120B940F269410C48FEF7A0FD43
:1017E000012D06D85DB90A4AD36923EA0404D461FD
:1017F00038BD40F26A410548FEF792FDF2E7044A1F
:10180000D3691C43D461F3E7003601818466000884
:101810000010024038B504460D460E4B034003B994
:1018200020B940F2A4410C48FEF77AFD012D06D8FC
:101830005DB90A4AD36823EA0404D46038BD40F293
:10184000A5410548FEF76CFDF2E7044AD3681C4346
:10185000D460F3E70200C0FF846600080010024075
:1018600038B504460D460E4B184200D120B940F25F
:10187000C3410C48FEF754FD012D06D85DB90A4A54
:10188000136923EA0404146138BD40F2C4410548D9
:10189000FEF746FDF2E7044A13691C431461F3E7BF
:1018A00000360181846600080010024010B504462D
:1018B000944B984242D0B0F1804F3FD0A3F594337F
:1018C00098423BD003F58063984237D003F580639C
:1018D000984233D003F5806398422FD003F580639C
:1018E00098422BD003F59033984227D003F5C0538C
:1018F000984223D003F5806398421FD003F580639C
:1019000098421BD0A3F59E33984217D003F580630D
:10191000984213D003F5806398420FD003F59033BB
:1019200098420BD003F58063984207D003F580639B
:10193000984203D07D217448FEF7F2FC714B9C4223
:1019400040D0B4F1804F48D0704B9C424ED0704B89
:101950009C4254D06F4B9C425AD06F4B9C4260D0FB
:101960006E4B9C4266D06E4B9C426CD06D4B9C4241
:1019700074D06D4B9C427CD06C4B9C4200F08480B8
:101980006B4B9C4200F08B806A4B9C4200F0908035
:10199000694B9C4200F09580684B9C4200F09C8013
:1019A000674B9C4200F0A380664B9C4214D10121FE
:1019B0004FF48020FFF72EFF00214FF48020FFF727
:1019C00029FF09E001214FF40060FFF723FF002108
:1019D0004FF40060FFF71EFF10BD01210846FFF71E
:1019E0003FFF00210120FFF73BFFF5E70121022027
:1019F000FFF736FF00210220FFF732FFECE701215D
:101A00000420FFF72DFF00210420FFF729FFE3E763
:101A100001210820FFF724FF00210820FFF720FF05
:101A2000DAE701211020FFF71BFF00211020FFF74C
:101A300017FFD1E701212020FFF712FF002120200E
:101A4000FFF70EFFC8E701214FF40050FFF7E2FE59
:101A500000214FF40050FFF7DDFEBDE701214FF4F8
:101A60000020FFF7D7FE00214FF40020FFF7D2FE41
:101A7000B2E701214FF48010FFF7CCFE00214FF4B4
:101A80008010FFF7C7FEA7E701214FF40010FFF712
:101A9000C1FE00214FF40010FFF7BCFE9CE70121BE
:101AA0004020FFF7DDFE00214020FFF7D9FE93E73D
:101AB00001218020FFF7D4FE00218020FFF7D0FE17
:101AC0008AE701214FF48070FFF7CAFE00214FF42E
:101AD0008070FFF7C5FE7FE701214FF48030FFF7EC
:101AE00099FE00214FF48030FFF794FE74E7012146
:101AF0004FF40030FFF78EFE00214FF40030FFF767
:101B000089FE69E7002C0140B4660008000400402B
:101B100000080040000C004000100040001400408D
:101B200000340140004C014000500140005401408D
:101B300000180040001C0040002000400040014010
:101B4000004401400048014038B504460D46534B5F
:101B5000984242D0B0F1804F3FD0A3F594339842E1
:101B60003BD003F58063984237D003F580639842F9
:101B700033D003F5806398422FD003F580639842F9
:101B80002BD003F59033984227D003F5C0539842E9
:101B900023D003F5806398421FD003F580639842F9
:101BA0001BD0A3F59E33984217D003F5806398426B
:101BB00013D003F5806398420FD003F59033984219
:101BC0000BD003F58063984207D003F580639842F9
:101BD00003D0E7213248FEF7A3FB6B883BB1102B03
:101BE00005D0202B03D0402B01D0602B4CD1EB88AB
:101BF0002BB1B3F5807F02D0B3F5007F49D12388A4
:101C00009BB2264A944212D002F5006294420ED052
:101C1000B4F1804F0BD0A2F59832944207D002F570
:101C20008062944203D002F58062944203D123F093
:101C300070036A8813431B4A944208D002F58062FD
:101C4000944204D023F440739BB2EA881343238068
:101C5000AB88A3852B882385104B9C420FD003F5BE
:101C600000639C420BD003F540639C4207D003F510
:101C700080639C4203D003F580639C4201D12B7AA0
:101C800023860123A38238BDE8210548FEF748FBDF
:101C9000ADE7E9210248FEF743FBB0E7002C014025
:101CA000B4660008001000402DE9F04104460D46DE
:101CB0003F4B984217D0B0F1804F14D0A3F5943326
:101CC000984210D003F5806398420CD003F58063EE
:101CD000984208D003F59433984204D04FF404712D
:101CE0003448FEF71DFB2B884BB1102B07D0202B5F
:101CF00005D0302B03D0602B01D0702B40D16B88E6
:101D0000012B43D82B890BB1022B45D1238C9BB2DD
:101D100023F480539BB22384268CB6B2B4F804809B
:101D20001FFA88F8A78BBFB227F4E6472B881B025F
:101D30009BB21F4326F400562B891B039BB23343EF
:101D40006E883603B6B21E43194B9C4203D003F58E
:101D500000639C420BD1AB89B3F5807F00D00BBBF5
:101D600028F48048AB899B019BB248EA0308A4F899
:101D70000480A783EB88A4F840302684BDE8F08176
:101D800040F211210B48FEF7CBFAB8E740F21221DE
:101D90000848FEF7C5FAB5E740F213210548FEF7FB
:101DA000BFFAB3E74FF40C710248FEF7B9FAD7E770
:101DB000002C0140B4660008002303804380838028
:101DC000C380038143818381C381704738B5044652
:101DD0000D462E4B984243D0B0F1804F40D0A3F532
:101DE000943398423CD003F58063984238D003F591
:101DF0008063984234D003F58063984230D003F575
:101E0000806398422CD003F59033984228D003F594
:101E1000C053984224D003F58063984220D003F544
:101E2000806398421CD0A3F59E33984218D003F5E6
:101E30008063984214D003F58063984210D003F574
:101E4000903398420CD003F58063984208D003F594
:101E50008063984204D040F229310D48FEF760FAC1
:101E6000012D07D865B923889BB223F001039BB2EB
:101E7000238038BD40F22A310548FEF751FAF1E7D8
:101E8000238843F001032380F3E700BF002C0140C7
:101E9000B466000838B504460D46174B984214D076
:101EA00003F50063984210D003F5406398420CD0CC
:101EB00003F58063984208D003F58063984204D00C
:101EC00040F242310D48FEF72BFA012D07D865B9D3
:101ED000B4F84430C3F30E03A4F8443038BD40F2E4
:101EE00043310648FEF71CFAF1E7B4F8443043F4F6
:101EF0000043A4F84430F1E7002C0140B466000828
:101F000070B504460D461646304B984243D0B0F1AA
:101F1000804F40D0A3F5943398423CD003F58063C2
:101F2000984238D003F58063984234D003F580633B
:101F3000984230D003F5806398422CD003F590335B
:101F4000984228D003F5C053984224D003F580630B
:101F5000984220D003F5806398421CD0A3F59E33AD
:101F6000984218D003F58063984214D003F580633B
:101F7000984210D003F5903398420CD003F580635B
:101F8000984208D003F58063984204D040F26B3148
:101F90000F48FEF7C5F915F47F4F00D125B94FF46E
:101FA0005B710B48FEF7BCF9012E05D856B9A38921
:101FB00023EA0505A58170BD40F26D310448FEF7A6
:101FC000AFF9F3E7A3891D43A581F4E7002C014095
:101FD000B466000810B50446164B984223D0B0F101
:101FE000804F20D0A3F5943398421CD003F5806332
:101FF000984218D003F58063984214D003F59433C7
:10200000984210D003F5C05398420CD0A3F59A33F0
:10201000984208D003F59433984204D04FF4787175
:102020000548FEF77DF923899BB223F007039BB295
:10203000238110BD002C0140B466000838B5044669
:102040000D462E4B984243D0B0F1804F40D0A3F5BF
:10205000943398423CD003F58063984238D003F51E
:102060008063984234D003F58063984230D003F502
:10207000806398422CD003F59033984228D003F522
:10208000C053984224D003F58063984220D003F5D2
:10209000806398421CD0A3F59E33984218D003F574
:1020A0008063984214D003F58063984210D003F502
:1020B000903398420CD003F58063984208D003F522
:1020C0008063984204D040F284510D48FEF728F90D
:1020D000012D07D865B923889BB223F080039BB2FA
:1020E000238038BD40F285510548FEF719F9F1E724
:1020F000238843F080032380F3E700BF002C0140D6
:10210000B466000838B505460C46164B984217D001
:10211000B0F1804F14D0A3F59433984210D003F55A
:10212000806398420CD003F58063984208D003F591
:102130009433984204D040F232610B48FEF7F0F835
:10214000082C00D044B9A98B89B221F40061240283
:10215000A4B22143A98338BD40F233610248FEF79F
:10216000DFF8F0E7002C0140B466000838B50446FB
:102170000D460F4B984217D0B0F1804F14D0A3F505
:102180009433984210D003F5806398420CD003F545
:102190008063984208D003F59433984204D040F607
:1021A0002C110448FEF7BCF8A4F8405038BD00BF1D
:1021B000002C0140B466000838B505460C462A4B91
:1021C000984243D0B0F1804F40D0A3F59433984269
:1021D0003CD003F58063984238D003F58063984281
:1021E00034D003F58063984230D003F58063984281
:1021F0002CD003F59033984228D003F5C053984271
:1022000024D003F58063984220D003F58063984280
:102210001CD0A3F59E33984218D003F580639842F2
:1022200014D003F58063984210D003F590339842A0
:102230000CD003F58063984208D003F58063984280
:1022400004D040F636210948FEF76AF814F4614FCD
:1022500000D124B940F637210448FEF761F8E44381
:10226000A4B22C8238BD00BF002C0140B466000827
:1022700038B504460D46344B984243D0B0F1804FF8
:1022800040D0A3F5943398423CD003F58063984244
:1022900038D003F58063984234D003F580639842C8
:1022A00030D003F5806398422CD003F590339842E8
:1022B00028D003F5C053984224D003F58063984298
:1022C00020D003F5806398421CD0A3F59E3398423A
:1022D00018D003F58063984214D003F580639842C8
:1022E00010D003F5903398420CD003F580639842E8
:1022F00008D003F58063984204D040F65821134873
:10230000FEF70EF86B1E9BB2012B0BD9042D09D0E2
:10231000082D07D0102D05D0202D03D0402D01D041
:10232000802D07D1228AA3892B40154208D04BB9B2
:10233000002006E040F659210448FDF7F1FFF1E7DF
:10234000002038BD0120FCE7002C0140B4660008E5
:1023500038B505460C462A4B984243D0B0F1804F21
:1023600040D0A3F5943398423CD003F58063984263
:1023700038D003F58063984234D003F580639842E7
:1023800030D003F5806398422CD003F59033984207
:1023900028D003F5C053984224D003F580639842B7
:1023A00020D003F5806398421CD0A3F59E33984259
:1023B00018D003F58063984214D003F580639842E7
:1023C00010D003F5903398420CD003F58063984207
:1023D00008D003F58063984204D040F68221094872
:1023E000FDF79EFF14F47F4F00D124B940F68321FE
:1023F0000448FDF795FFE443A4B22C8238BD00BF2A
:10240000002C0140B466000808B5FDF7F3FF024A4E
:10241000024B9A6008BD00BF0000000800ED00E01C
:1024200008B5FEF70FF808BD034B1B681BB1024A45
:102430001368013B13607047E402002008B5FFF702
:10244000F3FF08BD10B504460022134606E004EB76
:102450004300204931F810100A4401331F2BF6DDE8
:10246000C2F34F121C4B002143F82410AF2006E0AA
:1024700001F084FB184B43F8240010BD1846B0F55A
:10248000967F0CDA431C154931F813109142F5D8A8
:10249000124931F810109142EAD21846EFE70020B5
:1024A00006E001F06BFB0C4B43F82400E5E718460F
:1024B000B3280CDC431C094931F813109142F6D8BB
:1024C000064931F810109142EBD21846F0E700208F
:1024D000D3E700BF1C03002034000020E46600089E
:1024E00070B594B001210846FFF722F9594C2046F7
:1024F000FEF7A2FA584B0993584B0A9300260B9605
:1025000040230C930D9680230E934FF480730F930A
:102510004FF480631093202311934FF400531293D0
:10252000139609A92046FEF747FB01212046FEF736
:10253000F9FB01214FF40070FFF720F9484C2046C9
:10254000FEF736F8049601258DF814508DF81550D5
:1025500007964FF46023069302268DF8206004A9A5
:102560002046FEF769F84FF40040FFF767F80723AD
:102570002A4608212046FEF7E7F9072332460921BB
:102580002046FEF7E1F929462046FEF719F92946CB
:102590002046FEF7EBF82046FEF738F93048FEF704
:1025A00051F90028FAD12E48FEF76AF92C48FEF7B7
:1025B00083F90028FAD101212948FEF79BF901216E
:1025C0002448FEF7AFFB01210846FFF7FDF84FF462
:1025D000C060FDF781FF1C238DF80C3000258DF8BD
:1025E0000D5004238DF80E3001248DF80F4003A800
:1025F000FDF792FF4FF08040FFF758F94FF0804011
:10260000FFF7E8FC40F2CF23ADF80030ADF80650FC
:10261000ADF802506423ADF8043069464FF08040B5
:10262000FFF792FA21464FF08040FFF7C5FD29469B
:102630004FF08040FFF702FD224621464FF08040D8
:10264000FFF75EFC21464FF08040FFF7BFFB14B060
:1026500070BD00BF080002404C2401401C03002054
:1026600000240140074B00229A6107490A6007498C
:102670000A6007490A60074A9A60074ADA60074A0F
:102680001A617047A4030020DC0300209C03002093
:10269000D40300200000A0419C50883900BC3E4576
:1026A0002DE9F04782B0644F386800F049FE0022FF
:1026B000624B00F0E9FF80468946CDE900897868E1
:1026C00000F03EFE00225D4B00F0DEFF04460D46AA
:1026D00002460B464046494600F0F4FC01F044F93E
:1026E0000646386900F04EFE4FA3D3E9002300F000
:1026F000A1FE80468946524F386800F043FE0246EC
:102700000B462046294600F0DDFC02460B464046BB
:10271000494600F08FFE80468946DFF83CA1DAF892
:10272000000000F02FFE42A3D3E9002300F082FE58
:1027300002460B464046494600F0C6FC01F014F93B
:102740008046CAF800002046294601F00DF938609D
:102750003C49304601F022FC00283FD13A4930463E
:1027600001F0FEFB002841D100220023DDE9000139
:1027700001F0C8F8002839D1344B93F900302BB15F
:10278000334B00221A60314B00221A702A4CA16888
:10279000304601F047FA81462D4D2968304601F058
:1027A00039F907462860E16801F03CFA01464846DD
:1027B00001F030F9414601F02BF90446254901F0BA
:1027C000EDFBC0B10021304601F0E8FB40B33146DB
:1027D000384601F01DF928601E4C03E01B4B012216
:1027E0001A701C4C204602B0BDE8F087174B01223E
:1027F0001A700024F6E70021204601F0B1FB002802
:10280000F0D00021304601F0ABFB08B90024E9E725
:102810003146384601F0FCF80D4B18600024E1E722
:102820000C4CDFE7AFF30080A09999999999A93FE3
:10283000666666666666EE3FA403002000002440DC
:102840003402002000002041000020C1300200209E
:102850003C02002000007F432802002008B5002031
:10286000FFF71EFF01F0A4FBC0F34700104B1870E8
:10287000104A13780133DBB213707E2B0FD9134645
:1028800000221A7028B14FF480510B48FEF786FBE6
:1028900007E04FF480510848FEF7B0FB01E0984292
:1028A00000D908BD4FF480510348FEF7A7FBF8E7B5
:1028B000E802002032020020000C014000B583B085
:1028C00001210520FEF75AFF4FF40063ADF80430F4
:1028D00018238DF8073003238DF8063001A903482B
:1028E000FEF766FA03B05DF804FB00BF0008014084
:1028F00000B583B001210820FEF740FF0323ADF8A7
:10290000043000238DF8073001A90348FEF750FA80
:1029100003B05DF804FB00BF000C014000B583B0BC
:1029200021238DF8043001238DF805308DF8063011
:102930008DF8073001A8FDF7EFFD03B05DF804FB4B
:1029400010B586B001210820FEF718FF4FF4406350
:10295000ADF8143003238DF816301C238DF8173092
:1029600005A92048FEF724FA01214FF48000FEF764
:102970002BFF01214FF48000FEF726FF01214FF4C9
:102980008000FEF76DFF00214FF48000FEF768FF26
:10299000154C2046FEF74CFC0223ADF808304BF6F0
:1029A000FF73ADF80A307823ADF80C304FF4806334
:1029B000ADF80E304FF48043ADF8103006A949F65B
:1029C000404341F8143D2046FEF75CFC01212046BF
:1029D000FEF714FD01224FF4C0612046FEF736FDDC
:1029E00006B010BD000C01400058004008B50B496E
:1029F0000B48FEF7A1FD30B94FF001210848FEF762
:102A00009BFD28B908BD05490548FEF7F3FDF3E72E
:102A10004FF001210248FEF7EDFDF3E7000400014D
:102A20000058004070B588B0FFF748FF01214FF40F
:102A30000060FEF7A3FE44F61F63ADF8183047238D
:102A4000ADF814300025ADF81A50ADF816508DF8D9
:102A50001C50164C05A92046FFF776F801A8FFF791
:102A6000ABF96023ADF804300126ADF806604FF4F1
:102A70007A73ADF80A30ADF80C50ADF8105001A9DA
:102A80002046FFF711F908212046FFF73BFB3146AE
:102A90002046FFF7D3FA31462046FFF7FBF93146CF
:102AA0002046FFF793F908B070BD00BF002C01402D
:102AB00008B581B20148FFF759FB08BD002C014061
:102AC000F0B585B0054600228A422BDA1446AB5693
:102AD000742B19D0502B27D04B2B32D0492B41D0FF
:102AE000442B50D0462B5FD0622B76D0672B00F062
:102AF0008380472B00F0B080682B00F0C480772BD8
:102B000000F0D4800132DFE7501C284401F099FA2C
:102B1000024600EB80014B0067490B60674968483B
:102B200001F09AFA05B0F0BD501C284401F089FA72
:102B30000446FFF7BDFF22466049614801F08CFA68
:102B4000F0E7501C284401F079FA00F00DFF5A4BD1
:102B5000986000F017FC02460B465A49584801F0AD
:102B60007BFADFE7501C284401F068FA00F0FCFE15
:102B7000514BD86000F006FC02460B4651495048C4
:102B800001F06AFACEE7501C284401F057FA00F031
:102B9000EBFE494B186100F0F5FB02460B46494934
:102BA000474801F059FABDE7AB1893F90160303E90
:102BB000D01C284401F045FA024636B93E4BD86194
:102BC0003E493F4801F048FAACE7012E02D03A4BAB
:102BD000D862F5E7384B5862F2E7501C284401F000
:102BE00030FA024600EB80014B0037490B60334955
:102BF000334801F031FA95E7344E4FF480413046C6
:102C0000FEF770F947004FF400513046FEF76AF9BD
:102C10000743601C284401F014FAC0B2032881D88D
:102C2000254B5968284B5868294AA2FB0143DB0809
:102C3000A2FB0042D20802EB82056C00001B02904E
:102C4000019203EB83004200891A00913A46214920
:102C50001B4801F001FA65E7501C284401F0F1F926
:102C6000C0B203283FF65EAF174B5968184AA2FB63
:102C70000132D20802EB82004300CB1A16491048F9
:102C800001F0EAF94EE7114C4FF480412046FEF77F
:102C900029F945004FF400512046FEF723F945EA93
:102CA00000020E49064801F0D7F93BE70C490448F9
:102CB00001F0D2F936E700BFA40300204069000804
:102CC0004402002048690008EC020020000801408E
:102CD000CDCCCCCC54690008686900087469000840
:102CE0007C69000838B53B280CD00E4B1A68511C83
:102CF00019601A44107201225A603C2901DD002239
:102D00001A6038BD074C2368591C216023440025F4
:102D10001D720223636004F10800FFF7D1FE6560B5
:102D20002560EEE7E003002038B52D48FEF7EAFB0A
:102D300010F0020F15D010F0800F04D1284B0022A4
:102D40009A821A8338BD274C274D2B68E15C2448B2
:102D5000FEF7ACFB2B68E35C002BEFD10022227066
:102D6000ECE710F0800F12D010F0040FE6D11E4CEB
:102D70002368013323601B4DE95C1948FEF796FB7D
:102D80002368EB5C002BD9D100222A70D6E700F033
:102D90005003502B0ED010F0400F17D110F0100F31
:102DA000CCD00F4A138843F4805313800E4B00227B
:102DB0001A60C3E70A4C2046FEF78EFB40B2FFF7CD
:102DC00091FF238843F480532380B7E70448FEF73C
:102DD00083FB40B20828B1D0FFF784FFAEE700BF05
:102DE0000058004044020020C402002010B5012118
:102DF0004FF08040FFF73CFA00B910BD0020FFF70C
:102E000021FB594900F00EFF584C01F0F7F86060C3
:102E10000120FFF717FB544900F004FF01F0EEF822
:102E2000534B586063682BB3514B5B6843B34F4BB4
:102E30005B68B3F5167F29D94FF480714D48FEF7D2
:102E4000ADF84A4BDB69C72B26DC4F2B4CDD4A4BD8
:102E50001A6801321A60494B83FB0213A3EBE27339
:102E600003EB43039A4239D14FF400714148FEF716
:102E700095F816E04FF480514148FEF7BFF8D3E7CC
:102E80004FF400513E48FEF7B9F8D0E74FF4807197
:102E90003848FEF7B3F8D4E74FF400713548FEF731
:102EA0007DF8324BDB6A2BB34FF480613148FEF77B
:102EB00075F82F4B5B6843B12D4A126893421FD9B6
:102EC0004FF400512E48FEF799F8284B5B68EBB998
:102ED00001214FF08040FFF73BFA8EE74FF400717D
:102EE0002448FEF78BF8DCE74FF400712148FEF729
:102EF00085F8D6E74FF480611E48FEF77FF8D8E7E3
:102F00004FF400511E48FEF749F8DEE7FFF7A6FC34
:102F1000164B1B680A2B03D91A490A6801320A604A
:102F2000184A116842F210729142D1DD154A00210F
:102F300011600E4A52689B1A642BC9D9124B1B6848
:102F4000D31A1E2B09D811490B6801330B60012BD2
:102F500006DD0B460021196002E00C4B00211960D0
:102F6000094B1A60B4E700BF00002041A403002011
:102F7000EC02002000080140CC02002056555555B7
:102F8000000C0140D4020020D0020020C802002022
:102F9000F0B583B001210820FEF7F0FB10278DF873
:102FA000077003268DF8066002AD4FF4405325F8F4
:102FB000043D194C29462046FDF7FAFE4FF4805196
:102FC0002046FEF71BF84FF400512046FEF716F896
:102FD00001210420FEF7D2FB8DF807708DF8066002
:102FE0004FF4E063ADF80430A4F580642946204630
:102FF000FDF7DEFE4FF480712046FDF7FFFF4FF432
:1030000000712046FDF7FAFF4FF480612046FDF77E
:10301000F5FF03B0F0BD00BF000C014000B583B068
:1030200001210420FEF7AAFB01210C48FEF716F847
:1030300001210B48FEF712F848238DF807300323CF
:103040008DF8063002A94FF4C04321F8043D05482D
:10305000FDF7AEFE03B05DF804FB00BF00023000D8
:10306000000430000008014010B5FFF757FCFFF7DF
:10307000D9FCFFF73DFCFFF78BFFFFF731FAFFF7B5
:103080005FFCFFF7EFFA0A4B00241C60DC625C6215
:10309000DC610849084800F0DFFF002CFDD1044A3C
:1030A0001268782AF9D9FFF7B9FF0124F5E700BFC4
:1030B000A40300208C6900084402002081F0004134
:1030C00002E000BF83F0004330B54FEA41044FEA0D
:1030D000430594EA050F08BF90EA020F1FBF54EAA8
:1030E000000C55EA020C7FEA645C7FEA655C00F044
:1030F000E2804FEA5454D4EB5555B8BF6D420CDD15
:103100002C4480EA020281EA030382EA000083EA97
:10311000010180EA020281EA0303362D88BF30BD37
:1031200011F0004F4FEA01314FF4801C4CEA11318D
:1031300002D0404261EB410113F0004F4FEA0333EC
:103140004CEA133302D0524263EB430394EA050F77
:1031500000F0A780A4F10104D5F1200E0DDB02FAE6
:103160000EFC22FA05F2801841F1000103FA0EF27A
:10317000801843FA05F359410EE0A5F120050EF140
:10318000200E012A03FA0EFC28BF4CF0020C43FA71
:1031900005F3C01851EBE37101F0004507D54FF07E
:1031A000000EDCF1000C7EEB00006EEB0101B1F5CE
:1031B000801F1BD3B1F5001F0CD349085FEA300014
:1031C0004FEA3C0C04F101044FEA445212F5800F1F
:1031D00080F09A80BCF1004F08BF5FEA500C50F1BC
:1031E000000041EB045141EA050130BD5FEA4C0C9F
:1031F000404141EB010111F4801FA4F10104E9D128
:1032000091F0000F04BF01460020B1FA81F308BF1E
:103210002033A3F10B03B3F120020CDA0C3208DDEA
:1032200002F1140CC2F10C0201FA0CF021FA02F1C5
:103230000CE002F11402D8BFC2F1200C01FA02F135
:1032400020FA0CFCDCBF41EA0C019040E41AA2BF5A
:1032500001EB0451294330BD6FEA04041F3C1CDA22
:103260000C340EDC04F11404C4F1200220FA04F042
:1032700001FA02F340EA030021FA04F345EA0301EC
:1032800030BDC4F10C04C4F1200220FA02F001FAAE
:1032900004F340EA0300294630BD21FA04F0294630
:1032A00030BD94F0000F83F4801306BF81F48011C9
:1032B0000134013D4EE77FEA645C18BF7FEA655C3C
:1032C00029D094EA050F08BF90EA020F05D054EA0E
:1032D000000C04BF1946104630BD91EA030F1EBF13
:1032E0000021002030BD5FEA545C05D14000494117
:1032F00028BF41F0004130BD14F580043CBF01F50A
:10330000801130BD01F0004545F0FE4141F47001EF
:103310004FF0000030BD7FEA645C1ABF19461046CA
:103320007FEA655C1CBF0B46024650EA013406BFCB
:1033300052EA033591EA030F41F4002130BD00BF8A
:1033400090F0000F04BF0021704730B54FF4806447
:1033500004F132044FF000054FF0000150E700BFC8
:1033600090F0000F04BF0021704730B54FF4806427
:1033700004F1320410F0004548BF40424FF0000114
:103380003EE700BF42004FEAE2014FEA31014FEA57
:1033900002701FBF12F07F4393F07F4F81F06051A6
:1033A000704732F07F4208BF704793F07F4F04BFF1
:1033B00041F40021704730B54FF4607401F00045CE
:1033C00021F000411CE700BF50EA010208BF70472E
:1033D00030B54FF000050AE050EA010208BF70471F
:1033E00030B511F0004502D5404261EB41014FF488
:1033F000806404F132045FEA915C3FF4D8AE4FF090
:1034000003025FEADC0C18BF03325FEADC0C18BF72
:10341000033202EBDC02C2F1200300FA03FC20FAC3
:1034200002F001FA03FE40EA0E0021FA02F1144410
:10343000BDE600BF70B54FF0FF0C4CF4E06C1CEA29
:1034400011541DBF1CEA135594EA0C0F95EA0C0F9A
:1034500000F0DEF82C4481EA030621EA4C5123EA0D
:103460004C5350EA013518BF52EA033541F480113C
:1034700043F4801338D0A0FB02CE4FF00005E1FBEF
:1034800002E506F00042E0FB03E54FF00006E1FB39
:1034900003569CF0000F18BF4EF0010EA4F1FF047C
:1034A000B6F5007F64F5407404D25FEA4E0E6D41BC
:1034B00046EB060642EAC62141EA55514FEAC520CD
:1034C00040EA5E504FEACE2EB4F1FD0C88BFBCF549
:1034D000E06F1ED8BEF1004F08BF5FEA500E50F1FA
:1034E000000041EB045170BD06F0004646EA0101C0
:1034F00040EA020081EA0301B4EB5C04C2BFD4EBF2
:103500000C0541EA045170BD41F480114FF0000EEA
:10351000013C00F3AB8014F1360FDEBF002001F058
:10352000004170BDC4F10004203C35DA0C341BDCD2
:1035300004F11404C4F1200500FA05F320FA04F0A4
:1035400001FA05F240EA020001F0004221F00041D8
:1035500010EBD37021FA04F642EB06015EEA430E4B
:1035600008BF20EAD37070BDC4F10C04C4F120057B
:1035700000FA04F320FA05F001FA04F240EA02002E
:1035800001F0004110EBD37041F100015EEA430EFF
:1035900008BF20EAD37070BDC4F1200500FA05F21F
:1035A0004EEA020E20FA04F301FA05F243EA02039E
:1035B00021FA04F001F0004121FA04F220EA0200AD
:1035C00000EBD3705EEA430E08BF20EAD37070BDF3
:1035D00094F0000F0FD101F00046400041EB0101D3
:1035E00011F4801F08BF013CF7D041EA060195F0B5
:1035F000000F18BF704703F00046520043EB03036F
:1036000013F4801F08BF013DF7D043EA060370475B
:1036100094EA0C0F0CEA135518BF95EA0C0F0CD066
:1036200050EA410618BF52EA4306D1D181EA0301AC
:1036300001F000414FF0000070BD50EA410606BFA6
:103640001046194652EA430619D094EA0C0F02D1EB
:1036500050EA013613D195EA0C0F05D152EA033630
:103660001CBF104619460AD181EA030101F000414E
:1036700041F0FE4141F470014FF0000070BD41F097
:10368000FE4141F4780170BD70B54FF0FF0C4CF471
:10369000E06C1CEA11541DBF1CEA135594EA0C0F90
:1036A00095EA0C0F00F0A7F8A4EB050481EA030EDD
:1036B00052EA03354FEA013100F088804FEA0333C4
:1036C0004FF0805545EA131343EA12634FEA022292
:1036D00045EA111545EA10654FEA00260EF0004153
:1036E0009D4208BF964244F1FD0404F5407402D2A5
:1036F0005B084FEA3202B61A65EB03055B084FEA36
:1037000032024FF480104FF4002CB6EB020E75EB32
:10371000030E22BFB61A754640EA0C005B084FEA5A
:103720003202B6EB020E75EB030E22BFB61A7546D7
:1037300040EA5C005B084FEA3202B6EB020E75EB22
:10374000030E22BFB61A754640EA9C005B084FEA9A
:103750003202B6EB020E75EB030E22BFB61A7546A7
:1037600040EADC0055EA060E18D04FEA051545EA96
:1037700016754FEA06164FEAC30343EA52734FEA3F
:10378000C2025FEA1C1CC0D111F4801F0BD141EAB8
:1037900000014FF000004FF0004CB6E711F4801F1D
:1037A00004BF01430020B4F1FD0C88BFBCF5E06FFD
:1037B0003FF6AFAEB5EB030C04BFB6EB020C5FEA0D
:1037C000500C50F1000041EB045170BD0EF0004E62
:1037D0004EEA113114EB5C04C2BFD4EB0C0541EA94
:1037E000045170BD41F480114FF0000E013C90E691
:1037F00045EA060E8DE60CEA135594EA0C0F08BF55
:1038000095EA0C0F3FF43BAF94EA0C0F0AD150EA53
:1038100001347FF434AF95EA0C0F7FF425AF1046E6
:1038200019462CE795EA0C0F06D152EA03353FF40E
:10383000FDAE1046194622E750EA410618BF52EA8B
:1038400043067FF4C5AE50EA41047FF40DAF52EA5F
:1038500043057FF4EBAE12E74FF0FF3C06E000BFFC
:103860004FF0010C02E000BF4FF0010C4DF804CD09
:103870004FEA410C7FEA6C5C4FEA430C18BF7FEAC9
:103880006C5C1BD001B050EA410C0CBF52EA430CF7
:1038900091EA030F02BF90EA020F0020704710F177
:1038A000000F91EA030F58BF994208BF90422CBF06
:1038B000D8176FEAE37040F0010070474FEA410CFF
:1038C0007FEA6C5C02D150EA013C07D14FEA430C1D
:1038D0007FEA6C5CD6D152EA033CD3D05DF8040B8E
:1038E000704700BF8446104662468C4619466346C0
:1038F00000E000BF01B5FFF7B7FF002848BF10F197
:10390000000F01BD4DF808EDFFF7F4FF0CBF0120DB
:1039100000205DF808FB00BF4DF808EDFFF7EAFF57
:1039200034BF012000205DF808FB00BF4DF808ED12
:10393000FFF7E0FF94BF012000205DF808FB00BF07
:103940004DF808EDFFF7CEFF94BF012000205DF891
:1039500008FB00BF4DF808EDFFF7C4FF34BF01209E
:1039600000205DF808FB00BF4FEA4102B2F1E043DE
:1039700024BFB3F5001CDCF1FE5C0DD901F0004C56
:103980004FEAC0024CEA5070B2F1004F40EB8300A6
:1039900008BF20F00100704711F0804F21D113F1D2
:1039A0003872BCBF01F00040704741F480114FEA0B
:1039B0005252C2F11802C2F1200C10FA0CF320FA94
:1039C00002F018BF40F001004FEAC1234FEAD323B1
:1039D00003FA0CFC40EA0C0023FA02F34FEA43031B
:1039E000CCE77FEA625307D150EA01331EBF4FF0A4
:1039F000FE4040F44000704701F0004040F0FE40BF
:103A000040F40000704700BF80F0004002E000BFBB
:103A100081F0004142001FBF5FEA410392EA030FB9
:103A20007FEA226C7FEA236C6AD04FEA1262D2EB03
:103A30001363C1BFD218414048404140B8BF5B4208
:103A4000192B88BF704710F0004F40F4000020F0A1
:103A50007F4018BF404211F0004F41F4000121F0B7
:103A60007F4118BF494292EA030F3FD0A2F1010201
:103A700041FA03FC10EB0C00C3F1200301FA03F13F
:103A800000F0004302D5494260EB4000B0F5000F62
:103A900013D3B0F1807F06D340084FEA310102F121
:103AA0000102FE2A51D2B1F1004F40EBC25008BFD3
:103AB00020F0010040EA03007047490040EB00009D
:103AC00010F4000FA2F10102EDD1B0FA80FCACF1CC
:103AD000080CB2EB0C0200FA0CF0AABF00EBC250CB
:103AE00052421843BCBFD0401843704792F0000FB9
:103AF00081F4000106BF80F400000132013BB5E70C
:103B00004FEA41037FEA226C18BF7FEA236C21D081
:103B100092EA030F04D092F0000F08BF08467047E6
:103B200090EA010F1CBF0020704712F07F4F04D1B4
:103B3000400028BF40F00040704712F100723CBFC7
:103B400000F50000704700F0004343F0FE4040F4F1
:103B5000000070477FEA226216BF08467FEA2363AF
:103B60000146420206BF5FEA412390EA010F40F49A
:103B7000800070474FF0000304E000BF10F00043E6
:103B800048BF40425FEA000C08BF704743F09643CD
:103B900001464FF000001CE050EA010208BF7047E8
:103BA0004FF000030AE000BF50EA010208BF70476F
:103BB00011F0004302D5404261EB41015FEA010C84
:103BC00002BF84460146002043F0B64308BFA3F17C
:103BD0008053A3F50003BCFA8CF2083AA3EBC2535E
:103BE00010DB01FA02FC634400FA02FCC2F120027D
:103BF000BCF1004F20FA02F243EB020008BF20F0B4
:103C00000100704702F1200201FA02FCC2F1200219
:103C100050EA4C0021FA02F243EB020008BF20EA0E
:103C2000DC7070474FF0FF0C1CEAD0521EBF1CEA3C
:103C3000D15392EA0C0F93EA0C0F6FD01A4480EA2A
:103C4000010C400218BF5FEA41211ED04FF0006313
:103C500043EA501043EA5111A0FB01310CF000403F
:103C6000B1F5000F3EBF490041EAD3715B0040EA65
:103C7000010062F17F02FD2A1DD8B3F1004F40EB35
:103C8000C25008BF20F00100704790F0000F0CF008
:103C9000004C08BF49024CEA502040EA51207F3ACC
:103CA000C2BFD2F1FF0340EAC250704740F40000A7
:103CB0004FF00003013A5DDC12F1190FDCBF00F098
:103CC00000407047C2F10002410021FA02F1C2F146
:103CD000200200FA02FC5FEA310040F1000053EAE2
:103CE0004C0308BF20EADC70704792F0000F00F030
:103CF000004C02BF400010F4000F013AF9D040EA36
:103D00000C0093F0000F01F0004C02BF490011F4C9
:103D1000000F013BF9D041EA0C018FE70CEAD153C7
:103D200092EA0C0F18BF93EA0C0F0AD030F0004C47
:103D300018BF31F0004CD8D180EA010000F00040FB
:103D4000704790F0000F17BF90F0004F084691F0B9
:103D5000000F91F0004F14D092EA0C0F01D14202F3
:103D60000FD193EA0C0F03D14B0218BF084608D1BC
:103D700080EA010000F0004040F0FE4040F4000006
:103D8000704740F0FE4040F4400070474FF0FF0C99
:103D90001CEAD0521EBF1CEAD15392EA0C0F93EAE0
:103DA0000C0F69D0A2EB030280EA010C49024FEA32
:103DB000402037D04FF0805343EA111143EA1013EB
:103DC0000CF000408B4238BF5B0042F17D024FF4A3
:103DD000000C8B4224BF5B1A40EA0C00B3EB510F7E
:103DE00024BFA3EB510340EA5C00B3EB910F24BF67
:103DF000A3EB910340EA9C00B3EBD10F24BFA3EBEC
:103E0000D10340EADC001B0118BF5FEA1C1CE0D1B3
:103E1000FD2A3FF650AF8B4240EBC25008BF20F066
:103E2000010070470CF0004C4CEA50207F32C2BFBA
:103E3000D2F1FF0340EAC250704740F400004FF057
:103E40000003013A37E792F0000F00F0004C02BF88
:103E5000400010F4000F013AF9D040EA0C0093F052
:103E6000000F01F0004C02BF490011F4000F013BAC
:103E7000F9D041EA0C0195E70CEAD15392EA0C0F14
:103E800008D142027FF47DAF93EA0C0F7FF470AF4C
:103E9000084676E793EA0C0F04D14B023FF44CAF8F
:103EA00008466EE730F0004C18BF31F0004CCAD124
:103EB00030F000427FF45CAF31F000437FF43CAF60
:103EC0005FE700BF4FF0FF3C06E000BF4FF0010C82
:103ED00002E000BF4FF0010C4DF804CD4FEA400264
:103EE0004FEA41037FEA226C18BF7FEA236C11D0AE
:103EF00001B052EA530C18BF90EA010F58BFB2EB61
:103F0000030088BFC81738BF6FEAE17018BF40F0E0
:103F1000010070477FEA226C02D15FEA402C05D194
:103F20007FEA236CE4D15FEA412CE1D05DF8040B19
:103F3000704700BF844608466146FFE70FB5FFF7AC
:103F4000C9FF002848BF10F1000F0FBD4DF808ED64
:103F5000FFF7F4FF0CBF012000205DF808FB00BF55
:103F60004DF808EDFFF7EAFF34BF012000205DF8AF
:103F700008FB00BF4DF808EDFFF7E0FF94BF0120FC
:103F800000205DF808FB00BF4DF808EDFFF7D2FFF9
:103F900094BF012000205DF808FB00BF4DF808ED3C
:103FA000FFF7C8FF34BF012000205DF808FB00BF09
:103FB0004FEA4002B2F1FE4F0FD34FF09E03B3EB36
:103FC00012620DD94FEA002343F0004310F0004F76
:103FD00023FA02F018BF404270474FF000007047CC
:103FE00012F1610F01D1420205D110F0004008BF6B
:103FF0006FF0004070474FF00000704742000ED253
:10400000B2F1FE4F0BD34FF09E03B3EB126209D413
:104010004FEA002343F0004323FA02F070474FF0C9
:104020000000704712F1610F01D1420202D14FF03E
:10403000FF3070474FF00000704700BF002100F0D4
:104040004FBE0A22002100F0D9BE0000014B1868C3
:10405000704700BF480000200EB46FF0004100B56B
:104060009CB01DAB02900690079104910848094945
:1040700053F8042B0591006802A9019301F0D8FEC2
:104080000022029B1A701CB05DF804EB03B070476D
:10409000480000200802FFFF2DE9F0410F4690463E
:1040A00001F0D6FC04460D46B8F1000F11D0C7F35D
:1040B0000A53C3F16B03002B0BDD00241B0503F136
:1040C0007F5505F5401522462B46FFF7B3F9044608
:1040D0000D4620462946BDE8F081000000000000A2
:1040E0002DE9F04F1F460023A1B0834638460E4607
:1040F00017921C9301F0C3F98046006802F028F97A
:104100004FF0000904464FF0000A1B961B9B1A78DB
:104110000D2A32D8092A36D2002A3ED000230D9328
:104120001B9D2B78302B40F0AC806B78582B01D046
:10413000782B67D10D9B029701931CAB0093894AA2
:104140001DAB1BA9584600F0BFFE10F00704064641
:1041500005D0062C2BD1002301351B950D93179B01
:10416000002B40F0A6850D9BE3B14A460AF10043BF
:104170001046194621B0BDE8F08F2B2A15D02D2A04
:1041800004D0202ACAD101331B93BFE701220D922C
:104190005A1C1B925B78002BC2D1179B1B96002BDD
:1041A00040F085854A465346E2E70022EFE71C9A35
:1041B0003AB135211EA801F03EFD1C99584601F088
:1041C000B1F9013C042C06D8DFE804F00A03141707
:1041D0000A00DDE91E9A3107C1D54AF0004ABEE760
:1041E0001D9ADDE91E9302F2334223F4801343EA61
:1041F000025AF0E7DFF870A1EDE76FF0004A4FF0E8
:10420000FF39E8E71B9B5A1C1B925B78302BF9D0D7
:10421000002BA4D0012300250A2207931B9B06959F
:10422000089304951B980778A7F13003D9B20929A0
:1042300029D92246D8F8001002F092F8002831D08F
:1042400000203B460246049C0590652B01D0452B7F
:1042500014D124B910B9079B002B9ED000241B9EBB
:10426000731C1B9373782B2B78D02D2B70D04FF0B1
:10427000000CA3F13007092F7CD91B964FF0000EDC
:104280009AE00023C7E7049901300829D7BF0699AF
:1042900002FB053502FB01330693049B1B9001339F
:1042A0000493BFE71B9B1A191B92049A1B5D002AFB
:1042B00037D00246049CA3F13001092913D901210A
:1042C0000591C2E71B9B01305A1C1B925B78302B77
:1042D000F8D0A3F13102082A00F2F0841B9A089268
:1042E000024600200446B3F1300E00F1010112D065
:1042F0000A440A27214600EB040C8C4513D12118EF
:10430000082904F10104044419DC0A21069B01FB7D
:1043100003E3069300211B9B581C1B905B78084607
:10432000C9E70498D3E7082901F1010103DC069BE2
:104330007B430693E1E71029D8BF7D43DDE7102CCE
:10434000DCBF0A2101FB05E5E4E70123059381E7D2
:104350004FF0010CB31C1B93B3788AE74FF0000CAD
:10436000F8E700BFA06900080000F07F1B9B5F1CFE
:104370001B975B78302BF9D0A3F13107082F3FF65C
:104380007DAFA3F1300E1B9B09931B9B5F1C1B97FA
:104390005B78A3F13008B8F1090F37D909997F1A72
:1043A000082F44F61F6737DCBE45A8BFBE46BCF1E8
:1043B000000F01D0CEF1000E002C51D100287FF467
:1043C000CEAE079A002A7FF4CAAE059A002A7FF47F
:1043D000E4AE4E2B27D021DC492B7FF4DEAEA4497E
:1043E0001BA800F0A5FF00283FF4D7AE1B9BA149F6
:1043F000013B1BA81B9300F09BFF10B91B9B0133D3
:104400001B93DFF884A24FF00009A8E60A2101FB04
:104410000E3EAEF1300EB8E7BE46C8E7692BDED0DF
:104420006E2B7FF4BAAE94491BA800F081FF0028E0
:104430003FF4B3AE1B9B1B78282B0ED11EAA8F49CD
:104440001BA800F089FF052807D11F9BDDF8789095
:1044500043F0FF4A4AF4E00A81E6DFF834A2D2E7EB
:10446000AEEB02030793049B0698002B08BF23467C
:10447000102C0493A046A8BF4FF01008FEF760FF71
:10448000092C81468A4613DC079B002B3FF467AE5C
:10449000079B7EDD162B65DC794A02EBC30E4A468C
:1044A000DEE900015346FEF7C5FF81468A4656E61F
:1044B000734B03EBC80353E91223FEF7BBFF064619
:1044C00028460F46FEF73CFF02460B46304639466B
:1044D000FEF7FAFD0F2C81468A46D5DD079BA4EB3B
:1044E00008089844B8F1000F40F39A8018F00F03C1
:1044F0000AD063494A4601EBC301D1E900015346A2
:10450000FEF798FF81468A4638F00F0877D0B8F555
:104510009A7F4BDD4FF00008CDF81080CDF8208059
:10452000CDF8188022234FF00009DFF85CA1CBF80A
:104530000030089B002B3FF412AE1C99584600F047
:10454000F1FF0699584600F0EDFF0499584600F037
:10455000E9FF0899584600F0E5FF4146584600F04B
:10456000E1FFFCE5079AC4F125039342B6DB444D15
:10457000C4F10F0405EBC4014A46D1E900015346DA
:10458000FEF758FF079B1C1B05EBC405D5E900236C
:1045900089E713F1160FA1DB394A4846A2EBC302A3
:1045A000D2E900235146FFF76FF87EE70023484623
:1045B00051461D46334E4FEA2818B8F1010F21DC51
:1045C0000BB181468A462F4BAAF1547A03EBC505FD
:1045D0004A46D5E900015346FEF72CFF2A4B0A460E
:1045E0000B402A4981468B4294D8A1F580118B4219
:1045F00086BF4FF0FF39DFF89CA002F1547A002308
:1046000005937BE018F0010F06D006EBC503D3E954
:104610000023FEF70FFF012301354FEA6808CCE7BE
:10462000EDD0C8F1000818F00F020AD0144B48462C
:1046300003EBC2035146D3E90023FFF725F8814677
:104640008A465FEA2818DAD0B8F11F0F24DD4FF050
:104650000008CDF81080CDF82080CDF818802223F6
:104660004FF000094FF0000ACBF8003061E700BFBF
:1046700094690008976900089D690008B4690008FA
:10468000286A0008006A00080000F07F0000A07C93
:104690000000F8FFFFFFEF7F18F0100318BF6A2338
:1046A0004846059351460023A14DB8F1000F00F391
:1046B00013810BB181468A46059BBBB1CAF30A53ED
:1046C000C3F16B03002B514610DD1F2B40F310810B
:1046D000342BD8BF4FF0FF324FF00009CFBF4FF05F
:1046E0005C7A203B02FA03F303EA010A002200236A
:1046F00048465146FFF706F90028A8D1069B049AC0
:10470000009308992346584600F05EFF0890002861
:104710003FF400AF079A079B002AC3F10003A8BF2C
:1047200000234FF000080E9322EAE2731693CDF8AF
:104730001080089B5846596800F0C0FE069000287B
:104740003FF4F0AE089B0C301A6903F10C01023201
:10475000920000F0A8FE1EAB01931DAB00934A46E9
:1047600053465846CDE90A9A01F0E8F91C90002812
:104770003FF4D8AE0121584600F0B2FF0490034642
:1047800000283FF4CFAE1D9D1E9A002DABBF0E9B9F
:10479000169BEE185C1B059BA8BF169CA5EB03059A
:1047A0001544644B05F1FF35B8BF0E9E9D42C2F122
:1047B000360280F2AF805B1B1F2BA2EB03024FF08F
:1047C000010700F39C80002507FA03F30F93B71845
:1047D000059BBE4214441C443346A8BF3B46A3423B
:1047E000A8BF2346002BC2BFFF1AE41AF61A0E9B7D
:1047F000BBB11A460499584601F010F804900028FD
:104800003FF490AE01461C9A584600F072FF0990A2
:1048100000283FF487AE1C99584600F083FE099BA0
:104820001C93002F7ADC079B002B08DD169A069953
:10483000584600F0F3FF069000283FF473AE002CBA
:1048400008DD22460699584601F036F80690002801
:104850003FF468AE002E08DD32460499584601F058
:104860002BF8049000283FF45DAE069A1C99584638
:1048700001F090F8804600283FF454AE0024C3684D
:104880000499C4600C9301F06BF8A04254DA0C9BBD
:10489000F3B9B9F1000F1BD1CAF31303C3B92AF05E
:1048A00000431B0D1B05B3F1D66F11D9D8F8143096
:1048B0001BB9D8F81030012B0ADD414601225846B9
:1048C00000F0FAFF0499804601F04AF8002868DCFD
:1048D000059B002B72D130E618F0010F04D0D5E90A
:1048E0000023FEF7A7FD01234FEA68080835DCE640
:1048F0004FF0FF3202FA03F303EA0909F6E6C5F1C5
:104900007F4505F57F0505F57B45E23507FA05F599
:104910000F975CE7012300250F9358E73A461C994F
:10492000584600F0C9FF1C9000287FF47CAFF9E5E1
:10493000C869000802FCFFFFCDF824A040F0898080
:104940000C9ACAF3130342B3AF4A934256D1059B64
:104950004846EBB15346AD4A4FF0FF311A40B2F131
:10496000D46F18D8120DC2F16B0301FA03F3984209
:1049700044D1A74B099A9A4202D101303FF4D2ADFB
:10498000A24B099A4FF000091A4002F5801A9FE7DE
:104990004FF0FF33EBE70B46E9E77BBBB9F1000FC4
:1049A0002CD105995346994AF1B102EA0A01B1F1B5
:1049B000D66F19DCB1F15C7F7FF751AE0023954AC9
:1049C0004846CDE914325146DDE91423FEF732FDA5
:1049D00081468A4600297FF4B0AD00287FF4ADAD52
:1049E0002223CBF80030A8E51340A3F580136FEA2B
:1049F000135A4FF0FF396FEA0A5A69E79DB1099BD4
:104A00001D423FF465AF0C9B059A4846514673B171
:104A1000FFF742FB02460B46DDE90A01FEF754FBB5
:104A200081468A4654E70F9B13EA090FE9E7FFF72F
:104A300033FB02460B46DDE90A01FEF743FB002289
:104A4000002381468A46FEF75DFF00287FF407AE0B
:104A50003EE70499404601F0C0F800224FF0804341
:104A600006460F46FEF762FF002875D00C9B002B10
:104A700047D00026684F684D099B23F000431B0D6B
:104A80001B050F930F9A654B9A4240F0CF80DDE9EA
:104A90000A23CDE91423099B4846A3F1547A5146D1
:104AA00000F0D6FF02460B4630463946FEF7C2FC00
:104AB0004A465346FEF708FB0B465449584A1940EC
:104AC000914281465ED90B9B02F15472934203D10D
:104AD0000A9B01333FF426AD4FF0FF39DFF830A1D8
:104AE0001C99584600F01EFD0699584600F01AFD24
:104AF0000499584600F016FD4146584600F012FD54
:104B000017E6B9F1000F19D1099BC3F31303E3B9F9
:104B10000022414B30463946FEF7FEFEC8B900225E
:104B2000404B30463946FEF785FC04460D4605F1FC
:104B3000004318941993DDE918679DE7B9F1010F57
:104B400003D1099B002B3FF48AAD0026364F002489
:104B500091E70C9C334DEAE7324B00223046394650
:104B6000FEF768FC0C9B04460D4633B901F1004387
:104B700010901193DDE910677EE702460B46CDE900
:104B80001023F7E703F1547A059B002BA8D12AF0F4
:104B900000431B0D0F9A1B059A425646A0D1294689
:104BA000204601F0B1FCFEF7DBFB0B46024629462E
:104BB0002046FEF787FA0C9B04460D4633B9B9F13F
:104BC000000F03D1CAF31306002E6AD00AA3D3E95B
:104BD000002320462946FEF79FFE00287FF4ADAC57
:104BE00007A3D3E9002320462946FEF7B3FE002899
:104BF0003FF476AFA1E400BF9535A094FFFFDF3FFF
:104C000035E5AF350000E03FFFFF0F000000F07F0B
:104C1000FFFFEF7F000050390000F03F0000E07F11
:104C2000FFFF9F7C0000E03F0000F0BF059B13B337
:104C30000F9BB3F1D46F1ED825A3D3E900232046E0
:104C40002946FEF773FE90B12946204601F084FC08
:104C5000002808BF0120FEF773FB0C9B04460D469D
:104C6000D3B901F1004312901393DDE912670F9A53
:104C700007F1D6639F1ADDE90A0100F0E9FE02465A
:104C80000B4630463946FEF7D5FBDDE90A23FEF731
:104C90001BFA81468A4677E702460B46CDE9122386
:104CA000E3E70DA3D3E90023FEF736FE9FE70023D9
:104CB0000D931B9B179A1360FFF755BA652B4FF0A6
:104CC00000023FF442AB012114460591FFF7BFBA41
:104CD0000000C0FFFFFFDF419535A094FFFFCF3FED
:104CE000064B10B41C68064A236A002B08BF134603
:104CF0000A460146204610BCFFF7F2B948000020E2
:104D0000AC0000202DE9F0478046894692461E46B9
:104D10000F463D46089815F8014B00F0ADFB2044C6
:104D2000437813F0080332D12D2C32D101227C7844
:104D3000BD1C002E5DD0102E09D1302C07D12B7850
:104D400003F0DF03582B4FD110266C780235002A70
:104D500014BF4FF000416FF000410027B1FBF6FC9B
:104D6000384606FB1C1EA4F13003092B17D81C463D
:104D7000A64223DD7B1C07D084451CD301D1A64568
:104D800019DB012700FB064015F8014BEBE72F4626
:104D9000BFE72B2C04BFBD1C7C781A46C9E7A4F1E1
:104DA0004103192B01D8373CE2E7A4F16103192B29
:104DB00004D8573CDCE74FF0FF37E5E77B1C08D110
:104DC00022230846C8F80030BAF1000F07D1BDE829
:104DD000F08702B14042BAF1000FF8D00FB105F1EF
:104DE000FF39CAF80090F2E73024002EAFD1082630
:104DF000ADE7302CA3D00A26A9E70000084B37B551
:104E00001C68084D236A002B08BF2B4600931346ED
:104E10000A4601462046FFF775FF03B030BD00BFCC
:104E200048000020AC000020F0B506694B119E42FE
:104E300000F1140431DD11F01F0104EB860604EBD0
:104E4000830208D12146B2420B4611D252F8043BEC
:104E500041F8043BF7E754F823502346C1F1200CF6
:104E6000CD400432B24217460DD31D6005B1043364
:104E7000A342A3EB040208BF00234FEAA20202618F
:104E800008BF4361F0BD3F6807FA0CF73D4343F8A4
:104E9000045B52F8045BCD40E4E72346E8E7A0F169
:104EA0003003092B02D82038C0B27047A0F161034B
:104EB000052B01D84738F7E7A0F14103052B01D8AE
:104EC0002738F1E7002070472DE9F04F8BB00290B2
:104ED00016988A469046069300F0D1FA03684FF080
:104EE000000B1846039301F033FA039B019003442F
:104EF00013F8013C0793DAF8003002331F4613F829
:104F0000010B30286CD0FFF7CAFF044600286AD195
:104F1000019A0399384601F023FA002866D1019BD3
:104F2000F85CFE18FFF7BBFF002862D03346187804
:104F30001F46302803F10103F9D0FFF7B0FFB0FAA4
:104F400080F534464FF0010B6D093A46164630782D
:104F50000132FFF7A4FF0028F8D1019A03993046E7
:104F600001F0FEF950B954B9019BF41822461646D7
:104F700030780132FFF793FF0028F8D10CB1A41B61
:104F8000A4003378502B01D0702B40D173782B2B99
:104F900031D02D2B33D04FF00009711C0878FFF76A
:104FA0007EFF431EDBB2182B31D8A0F1100211F89E
:104FB000010FFFF774FF431EDBB2182B22D9B9F1A2
:104FC000000F00D052421444CAF800100DB3BBF1D8
:104FD000000F0CBF0627002738460BB0BDE8F08F46
:104FE0000BF1010B8AE700252C46AEE73E46012572
:104FF000C7E70446FBE74FF00009B11CCEE74FF0CE
:105000000109FAE70A2303FB0202103ACFE731460F
:10501000DAE72946F31B013B072B49DC029800F035
:105020004DFA4FF0000B0546DA46019B00F11409DA
:10503000C3F10103CDF810900893B7423BD3049815
:1050400040F804ABA0EB09008010286147015046EE
:1050500000F0F8FAD8F800603F1AB74264DDBF1BD1
:105060003946284600F001FE824678B14FF0010A29
:105070007B1E591103F01F0259F821100AFA02F29F
:105080000A4203D0534546DC4FF0020A394628460F
:10509000FFF7CAFE3C44D8F80830A34252DA29464A
:1050A000029800F03FFA0023149AA327136093E7B5
:1050B00001315B10B0E7731E0593079A16F8013CA7
:1050C000934218D0BBF1200F07D1049BC3F800A076
:1050D0004FF0000AD3460433049316F8010CFFF78F
:1050E000DEFE00F00F0000FA0BF04AEA000A0BF1B6
:1050F000040B059B0DE0059B089A1344BB42E1D3CA
:105100001846019A0399099301F02AF9099B00288E
:10511000D8D11E4691E7B91E284600F0A6FD00280A
:10512000B2D04FF0030AB1E709DAF71B29463A4635
:10513000029800F0C1FB0546E41B00F114094FF092
:10514000000AA8E7D8F80400A0426BDD041BA642C1
:105150002EDCD8F80C30022B22D0032B24D0012BCC
:1051600015D1A64213D1012E0BDCD8F80430069AD3
:105170006227136001232B61C9F80030149B1D6066
:105180002AE7711E284600F070FD0028EDD129465F
:10519000029800F0C7F90023149A502713601BE708
:1051A000159B002BE1D0F2E7159B002BDDD1EEE73C
:1051B000671EBAF1000F32D127B13946284600F0F8
:1051C00054FD824601237A1107F01F0703FA07F7FF
:1051D00059F8223021461F424FF00207284618BFD7
:1051E0004AF0020A361BFFF71FFED8F80440BAF156
:1051F000000F48D0D8F80C30022B15D0032B17D055
:10520000012B09D11AF0020F06D0D9F800304AEA72
:10521000030A1AF0010F0ED147F0100733E04FF0E8
:10522000010ACFE70127E2E7159BC3F101031593BC
:10523000159B002BF0D04FF0000CD5F8109005F125
:1052400014034FEA890A03EB0A01184653F8042BAA
:10525000B2F1FF3F1CD001320260022F05F11403AE
:1052600038D1D8F80020013AB2420AD10122711196
:1052700053F8213006F01F0602FA06F61E4218BF48
:10528000174647F02007149B1D60069B1C60A3E691
:10529000994243F804CCD8D8AB68994512DB6968C9
:1052A0000298013100F00AF983462A6905F10C01E0
:1052B000023292000C3000F0F6F82946029800F015
:1052C00031F95D462B695A1C2A61012205EB8303E3
:1052D0005A61C2E72A694A450BDD01212846FFF7DA
:1052E000A3FDD8F808300134A342FFF6D8AE012759
:1052F000C7E716F01F06FAD09A445AF8040C00F0DB
:10530000A1F9C6F12006B042E7DBF0E7C2F10802DE
:10531000920070B5C2F120064368046803FA06F5EE
:105320002C43D340046040F8043F8842F4D370BD5E
:1053300030B50368013311F8014B14B90360012043
:1053400030BD13F8012BA2F14105192D98BF203271
:10535000A242F0D00020F3E72DE9F04F00250B68C2
:1053600082465F1102EB870713F01F0318BF043753
:105370003E1F9046B1463446AB4687B00168019364
:1053800047F8045C02954A784B1C039342B31046DD
:1053900005910492FFF783FD002843D1049A0599F3
:1053A000202A18D8029B9B4513DD4C4506D2072DB9
:1053B00004DC2A4649462046FFF7A8FF444544D965
:1053C0000023A4F1040944F8043C1D464C46CDF8E2
:1053D00008B00399D7E7292A4AD10231CAF8001048
:1053E000BBF1000F44D04C4506D2072D04DC2A4601
:1053F00049462046FFF78AFF444528D9434654F8DA
:10540000042BA64243F8042BF9D2002243F8042BC4
:105410009E42FBD233681BB9464527D10123336036
:10542000052026E00135082D0BF1010B06DD444572
:10543000CFD90023012544F8043C043C226800F045
:105440000F0040EA02102060C3E70825C1E7019B76
:10545000002BDFD04FF0FF32C3F1200322FA03F319
:1054600057F8042C1A4047F8042CD3E7043ED1E740
:10547000042007B0BDE8F08FD0F8EC007047F030A2
:10548000704782B001B901A942B14BB113780B60EA
:105490001278101C18BF012002B070471046FBE7BD
:1054A0006FF00100F8E710B5431E0A44914200D1A5
:1054B00010BD11F8014B03F8014FF7E770B5456ACD
:1054C00004460E463DB9102000F06AFF6062C0E954
:1054D00001550560C560656AEB6883B1636ADB6886
:1054E00053F82600B8B9012101FA06F56A1D9200A9
:1054F000204600F0DBFB60B1C0E901650EE021222F
:105500000421204600F0D2FB636AE860DB68002BD0
:10551000E4D1002070BD026843F826200023C0E9D2
:105520000333F7E770B5446A06460D463CB91020D0
:1055300000F036FF7062C0E901440460C4603DB110
:10554000736A6A68DB6853F82210296043F82250B6
:1055500070BD2DE9F0411F4606460C4600230D693B
:1055600001F1140CDCF80000013381B202FB01717F
:10557000000C0F0C02FB007089B201EB00419D4250
:105580004FEA10474CF8041BECDCD7B1A368AB42E0
:1055900012DC616830460131FFF790FF80462269D6
:1055A00004F10C01023292000C30FFF77CFF21461F
:1055B0003046FFF7B7FF444604EB850301355F61D2
:1055C00025612046BDE8F0812DE9F8431546092202
:1055D0001F4608330C4693FBF2F3064601220021D6
:1055E0009A4220DB3046FFF769FF089B092D436193
:1055F0004FF00103036119DD04F10908C1462C4491
:1056000019F8013B0146303B0A223046FFF7A1FF63
:10561000A145F5D108EB0504083C2D1B6319BB42DD
:1056200007DBBDE8F88352000131D9E70A340925C8
:10563000F3E714F8013B0146303B0A223046FFF7FE
:1056400088FFEBE7020C12040346B2B903041020F2
:1056500013F07F4F04BF1B02083013F0704F04BFDC
:105660001B01043013F0404F04BF9B000230002B9D
:1056700006DB5B0003D5013070470020E8E72020FF
:1056800070470368014613F007020BD0DA0723D4F2
:10569000980749BF5B089B0801200B605CBF0B604B
:1056A0000220704798B2A8B910201B0C13F0FF0F0E
:1056B00004BF1B0A08301A0704BF1B0904309A07ED
:1056C00004BF9B080230DA0702D45B0806D0013021
:1056D0000B6070471046E9E70020704720207047B4
:1056E00010B50C460121FFF7E9FE01224461026179
:1056F00010BD2DE9F74F14460A69236988469A427E
:10570000BEBF0B46A0461C46D8F81070D4F81090C7
:10571000D8F80830D8F8041007EB0906B342B8BF30
:105720000131FFF7CBFE00F114052B46002205EBFB
:10573000860E734516D304F1140208F1140102EB2E
:10574000890301EB87070093009B019293420CD8D9
:10575000002E03DD5EF8043D002B5DD0066103B032
:10576000BDE8F08F43F8042BE3E7B2F800B0BBF1DB
:10577000000F23D08946AC464FF0000859F8044B7F
:10578000DCF800A0A3B21FFA8AFA0BFB03A34FEACE
:10579000144ADCF8004043444FEA14480BFB0A84E7
:1057A000E24604EB13449BB243EA04434F454FEAFD
:1057B00014484AF8043B2BD8CCF80480019B0432EF
:1057C000B3F802A0BAF1000F20D08946A8464FF0E6
:1057D000000B2B68B9F800C0B8F802409BB20AFB76
:1057E0000C44C4465C4443EA04434CF8043B59F877
:1057F000043BB8F804B01B0C0AFB03B34F4503EBA2
:1058000014434FEA134B05D8C8F8043004359BE71E
:10581000D446B3E7E046DDE7013E99E72DE9F843DA
:10582000154612F0030206460F4607D0214C013AF6
:10583000002354F82220FFF78CFE0746AD1035D028
:10584000746A3CB9102000F0ABFD7062C0E90144FD
:105850000460C460D6F82480D8F808404CB940F2FF
:1058600071213046FFF73CFF00230446C8F80800CA
:1058700003604FF00008EB070AD539462246304650
:10588000FFF737FF814639463046FFF74BFE4F465C
:105890006D100BD0206838B9224621463046FFF7FC
:1058A00028FF2060C0F800800446E4E73846BDE8E1
:1058B000F88300BFF06A00082DE9F0470C46074660
:1058C000164623694FEA621A0AEB03094968A3687E
:1058D00009F10105AB4232DB3846FFF7EFFD00234B
:1058E00080461A4600F1140153452BDB20692AEA51
:1058F000EA7A04F1140316F01F0201EB8A0103EBAC
:10590000800C25D00020C2F1200E8A461E689640E9
:1059100030434AF8040B53F8040B9C4520FA0EF070
:1059200014D8486008B109F10205013D3846C8F8AD
:1059300010502146FFF7F6FD4046BDE8F0870131E3
:105940005B00C7E741F823200133CDE75146DCE790
:10595000043953F8042B9C4541F8042FF9D8E4E7A7
:1059600003690A6930B59B1A0CD1920014301431C6
:105970008418114454F8045D51F8042D954203D065
:1059800005D30123184630BDA042F3D3FAE74FF008
:10599000FF33F7E72DE9F0470D4607461146284645
:1059A0001446FFF7DDFF061E08D131463846FFF7E3
:1059B00085FD0123C0E90436BDE8F087A4BF234676
:1059C0002C4638466168A6BF1D4600260126FFF713
:1059D00075FD4FF0000EC6602B69266904F11402B4
:1059E00005F1140902EB860709EB830800F11401A5
:1059F00052F804AB59F8045B1FFA8AF37344ACB253
:105A00001B1B2C0CC4EB1A4404EB23449BB24FEA3F
:105A1000244EC84543EA0444944641F8044BE7D871
:105A2000BC4504D351F8043D83B10661C4E75CF87A
:105A3000044BA2B27244131403EB144392B242EA31
:105A400003424FEA234E41F8042BE9E7013EE9E720
:105A5000104B0B40A3F15073002B02DD00201946C0
:105A600070475B421B15132B4FF000004FF00001F5
:105A700004DC4FF4002242FA03F170470122143B88
:105A80001E2BCEBF1346C3F11F0302FA03F31846C1
:105A9000704700BF0000F07F2DE9F843076900F16F
:105AA000140909EB870757F8046CA7F1040830467E
:105AB000FFF7C8FDC0F120030A280B601E4917DC60
:105AC000C14528BF0022C0F10B0C26FA0CF338BFE9
:105AD00057F8082C43EA010500F1150306FA03F311
