:020000040800F2
:1000000000500020250200082B0200082F020008E3
:10001000470200084B0200086302000800000000CD
:100020000000000000000000000000007B0200084B
:100030007F0200080000000083020008691F00081A
:100040002102000821020008210200082102000804
:1000500021020008210200082102000821020008F4
:1000600021020008210200082102000821020008E4
:1000700021020008210200082102000821020008D4
:1000800021020008210200082102000821020008C4
:1000900021020008210200082102000821020008B4
:1000A00021020008210200082102000821020008A4
:1000B0009126000821020008210200082102000800
:1000C00021020008CD250008DD23000821020008D8
:1000D0002102000821020008210200082102000874
:1000E000210200082102000821020008000000008F
:1000F0000000000000000000000000000000000000
:1001000000000000000000005FF808F100B583B0B7
:1001100001F010FF304B314A1360314A1360314B0C
:10012000314A32498B4204D21168196004330432D7
:10013000F7E72A4B1A682E4B9A4200D0FEE7284B6D
:100140001A682C4B9A42F9D1234B2B4A13602B4A45
:1001500013602B4B02E000221A600433294A9342B9
:10016000F9D3254B1B6813B9244B1B6803B1FEE779
:1001700001F0ECFE694601A800F0C8F8224C234BC0
:10018000E41AA4100025AC4214DC214C214BE41AE3
:10019000A4100025AC4213DC0099019802F0C8FBC2
:1001A00005461D4C1D4BE41AA410002C0EDC2846FD
:1001B00000F084F8154B53F8253098470135E2E7F5
:1001C000144B53F8253098470135E3E7013C134BB6
:1001D00053F824309847E8E7BABADECA0000002096
:1001E0001802002000000020203D00081C02002012
:1001F00078563412325476981C02002010040020E5
:100200001C02002014040020BC020008BC020008EC
:10021000BC020008BC020008BC020008BC020008C6
:1002200000BEFEE708B5FFF771FF00BEFEE71EF057
:10023000040F0CBFEFF30880EFF309807146124AF8
:10024000104700BEFEE700BEFEE71EF0040F0CBF25
:10025000EFF30880EFF3098071460C4A104700BEA7
:10026000FEE71EF0040F0CBFEFF30880EFF30980E8
:100270007146074A104700BEFEE700BEFEE700BE1B
:10028000FEE700BEFEE77047430200085F02000879
:0402900077020008E9
:10029400203D0008000000201C020020203D000832
:1002A40000000000000000001C02002014040020D4
:0802B400000000000000000042
:1002BC00FEE708B50120FFF7FBFF000008B5034679
:1002CC000C4A12685AB10B4A1068033323F003032B
:1002DC000344094A934206D8064A136008BD054AEE
:1002EC0006491160EFE702F0BDFD0C2303604FF0EF
:1002FC00FF30F3E720020020004C00201404002003
:10030C0001230360014B0B60704700BF0400002009
:10031C0008B5FFF7CEFF000082B0002301930093D5
:10032C002C4A136843F4803313602A4B1B6803F484
:10033C0000330093019B01330193009B1BB9019B7C
:10034C00B3F5A06FF1D1234B1B6813F4003F06D01B
:10035C0001230093009B012B04D002B070470023B3
:10036C000093F7E71C4B1A6842F010021A601A68E7
:10037C0022F003021A601A6842F002021A60A3F516
:10038C0080535A685A605A685A605A6842F48062BC
:10039C005A605A6822F47C125A605A6842F4E81285
:1003AC005A601A6842F080721A600A4B1B6813F08C
:1003BC00007FFAD0074B5A6822F003025A605A6841
:1003CC0042F002025A60034B5B6803F00C03082BEB
:1003DC00F9D1C2E7001002400020024008B5FFF737
:1003EC009BFF08BD08B5104B1A6842F001021A6059
:1003FC0059680E4A0A405A601A6822F0847222F434
:10040C0080321A601A6822F480221A605A6822F428
:10041C00FE025A604FF41F029A60FFF7DFFF044B95
:10042C004FF000629A6008BD001002400000FFF817
:10043C0000ED00E01F4B5B6803F00C03042B15D0A0
:10044C00082B17D01BB11C4B1C4A1A6002E01A4B2C
:10045C001A4A1A60174B5B68C3F30313184AD35C30
:10046C00DAB215490B68D3400B607047124B134A34
:10047C001A60EFE70F4A53685268C3F383430233A1
:10048C0012F4803F0AD00B4A526812F4003F0BD092
:10049C000C4A02FB03F3084A1360DBE7094A02FB30
:1004AC0003F3054A1360D5E7044A02FB03F3024A3F
:1004BC001360CFE7001002401C00002000127A00ED
:1004CC000C00002000093D0010B50446B0F5E06FAB
:1004DC000FD0B0F5C06F0CD0B0F5A06F09D0B0F54F
:1004EC00806F06D0B0F5407F03D063210448FFF73E
:1004FC000FFF44F0BF6444F40034024BDC6010BDC9
:10050C000C38000800ED00E010B50446C378012B50
:10051C0012D863780F2B14D8A3780F2B16D8E37846
:10052C00CBB9237803F01F015B0901228A402033E9
:10053C00184941F8232010BD75211748FFF7E8FE34
:10054C00E7E776211448FFF7E3FEE5E77721124849
:10055C00FFF7DEFEE3E7114BDA68D243C2F3022267
:10056C00C2F104000F2323FA02F261788140A378D0
:10057C0013400B431B012278DBB206490A4482F874
:10058C000033237803F01F005B090122824041F8FD
:10059C002320D0E700E100E00C38000800ED00E07B
:1005AC0010B504461C4B98420BD003F5806398425F
:1005BC0007D003F5A053984203D0BC211748FFF78E
:1005CC00A7FE154B9C4206D0154B9C420ED0154BEA
:1005DC009C4216D010BD01214FF4007000F0CCFFEE
:1005EC0000214FF4007000F0C7FFF3E701214FF436
:1005FC00806000F0C1FF00214FF4806000F0BCFF70
:10060C00E8E701214FF4004000F0B6FF00214FF461
:10061C00004000F0B1FFDDE7002401403438000851
:10062C0000280140003C014038B505460C46484BBB
:10063C0098420BD003F58063984207D003F5A05382
:10064C00984203D0E5214348FFF762FE2368D3B1FB
:10065C00B3F5803F17D0B3F5003F14D0B3F5403F4E
:10066C0011D0B3F5802F0ED0B3F5A02F0BD0B3F56E
:10067C00C02F08D0B3F5E02F05D0B3F5002F02D072
:10068C00B3F5102F46D12379012B48D86379012B70
:10069C004AD8A368A3B1B3F5003F11D0B3F5802FAE
:1006AC000ED0B3F5C02F0BD0B3F5002F08D0B3F597
:1006BC00202F05D0B3F5402F02D0B3F5602F38D1E1
:1006CC00E36813B1B3F5006F38D1237C013BDBB287
:1006DC000F2B38D86A6822F4702222F480722368B7
:1006EC00217943EA012313436B60AB681A4A1A4021
:1006FC00E368A1680B43617943EA41031343AB60A0
:10070C00EB6A23F47003227C013AD2B243EA02531F
:10071C00EB6238BDE6210F48FFF7FAFDB3E7E7219E
:10072C000C48FFF7F5FDB1E7E8210A48FFF7F0FDAB
:10073C00AFE7E9210748FFF7EBFDC1E7EA210548E0
:10074C00FFF7E6FDC1E7EB210248FFF7E1FDC1E74A
:10075C000024014034380008FDF7F1FF38B5044699
:10076C000D46114B98420CD003F58063984208D08B
:10077C0003F5A053984204D04FF49A710B48FFF73D
:10078C00C7FD012D05D855B9A36823F00103A3605B
:10079C0038BD40F235110548FFF7BAFDF3E7A36801
:1007AC0043F00103A360F3E7002401403438000850
:1007BC0038B504460D460F4B984208D003F5C0538C
:1007CC00984204D040F24D110B48FFF7A1FD012DCA
:1007DC0005D855B9A36823F48073A36038BD4FF4D2
:1007EC00A7710548FFF794FDF3E7A36843F4807302
:1007FC00A360F3E7002401403438000810B5044628
:10080C000A4B98420CD003F58063984208D003F54C
:10081C00A053984204D04FF4C2710548FFF778FDFD
:10082C00A36843F00803A36010BD00BF002401407F
:10083C003438000810B504460B4B98420CD003F525
:10084C008063984208D003F5A053984204D04FF42B
:10085C00C9710648FFF75CFDA36813F0080F01D1BE
:10086C00002010BD0120FCE70024014034380008B2
:10087C0010B504460A4B98420CD003F5806398429D
:10088C0008D003F5A053984204D04FF4D571054815
:10089C00FFF73EFDA36843F00403A36010BD00BF47
:1008AC00002401403438000810B504460B4B984224
:1008BC000CD003F58063984208D003F5A0539842FE
:1008CC0004D04FF4DC710648FFF722FDA36813F047
:1008DC00040F01D1002010BD0120FCE700240140D1
:1008EC003438000838B504460D46114B98420CD0EC
:1008FC0003F58063984208D003F5A053984204D0C6
:10090C004FF4E9710B48FFF703FD012D05D855B9DC
:10091C00A36823F4A003A36038BD40F2D3110548AB
:10092C00FFF7F6FCF3E7A36843F4A003A360F3E737
:10093C000024014034380008F8B505460E4614462C
:10094C001F46374B98420CD003F58063984208D071
:10095C0003F5A053984204D04FF416713148FFF7B9
:10096C00D7FC112E24D8631EDBB20F2B26D8072FF1
:10097C002AD8092E2ED9EA68A6F10A0303EB430301
:10098C000721994022EA01029F401743EF60062C91
:10099C002BD90C2C36D9EB6A0D3C04EB84041F22AA
:1009AC00A24023EA020306FA04F41C43EC6228E09A
:1009BC0040F259211B48FFF7ABFCD4E740F25A2117
:1009CC001848FFF7A5FCD2E740F25B211548FFF76A
:1009DC009FFCCEE72B6906EB460107228A4023EAEF
:1009EC0002038F401F432F61D1E76B6B013C04EB7B
:1009FC0084041F22A24023EA020306FA04F41C43D7
:100A0C006C63F8BD2B6B073C04EB84041F22A240E3
:100A1C0023EA020306FA04F41C432C63F1E700BF3B
:100A2C00002401403438000810B504464F4B98425E
:100A3C0025D01433984222D0143398421FD014334B
:100A4C0098421CD01433984219D01433984216D0C3
:100A5C001433984213D003F5627398420FD01433B9
:100A6C0098420CD01433984209D01433984206D0D3
:100A7C001433984203D06F213D48FFF749FC23689B
:100A8C0023F001031B041B0C236000232360636011
:100A9C00A360E360354B9C4226D0364B9C4229D058
:100AAC00354B9C422CD0354B9C422FD0344B9C4226
:100ABC0032D0344B9C4235D0334B9C4238D0334BE4
:100ACC009C423BD0324B9C423ED0324B9C4241D05C
:100ADC00314B9C4244D0314B9C420AD1304A536832
:100AEC0043F47023536004E02E4A536843F00F0321
:100AFC00536010BD2B4A536843F0F0035360F8E782
:100B0C00284A536843F470635360F2E7254A5368EC
:100B1C0043F470435360ECE7224A536843F4702368
:100B2C005360E6E71F4A536843F470035360E0E7F1
:100B3C001C4A536843F070635360DAE7184A5368F1
:100B4C0043F00F035360D4E7154A536843F0F003A6
:100B5C005360CEE7124A536843F470635360C8E79E
:100B6C000F4A536843F470435360C2E708000240D5
:100B7C00643800081C00024030000240440002406F
:100B8C00580002406C000240800002400804024001
:100B9C001C04024030040240440402405804024049
:100BAC00000402400000024038B505460C46574B85
:100BBC00984225D01433984222D0143398421FD037
:100BCC00143398421CD01433984219D014339842E1
:100BDC0016D01433984213D003F5627398420FD099
:100BEC00143398420CD01433984209D014339842E1
:100BFC0006D01433984203D0CF214548FFF788FB29
:100C0C00A368102B01D0002B53D1E368013B4FF6A6
:100C1C00FE72934252D82369402B01D0002B52D143
:100C2C006369802B01D0002B52D1A3692BB1B3F592
:100C3C00807F02D0B3F5007F4FD1E3692BB1B3F5C0
:100C4C00806F02D0B3F5006F4CD1236A202B01D0FA
:100C5C00002B4CD1636AB3F5405F07D0B3F5005F4E
:100C6C0004D0B3F5805F01D0002B45D1A36AB3F556
:100C7C00804F01D0002B44D12A6822F4FF4222F08D
:100C8C007002A368216A0B4321690B4361690B4312
:100C9C00A1690B43E1690B43616A0B43A16A0B43E6
:100CAC0013432B60E3686B602368AB606368EB6095
:100CBC0038BDD0211648FFF72BFBA6E7D1211448ED
:100CCC00FFF726FBA7E7D2211148FFF721FBA7E787
:100CDC00D3210F48FFF71CFBA7E7D4210C48FFF7E3
:100CEC0017FBAAE7D5210A48FFF712FBADE7D6217F
:100CFC000748FFF70DFBADE7D7210548FFF708FBC9
:100D0C00B4E7D8210248FFF703FBB5E7080002401F
:100D1C006438000838B504460D461F4B984226D05F
:100D2C001433984223D01433984220D01433984271
:100D3C001DD0143398421AD01433984217D0143360
:100D4C00984214D003F56273984210D01433984231
:100D5C000DD0143398420AD01433984207D0143370
:100D6C00984204D040F229110C48FFF7D1FA012D1A
:100D7C0007D865B9236823F001031B041B0C2360FF
:100D8C0038BD4FF495710548FFF7C2FAF1E72368B7
:100D9C0043F001032360F3E70800024064380008C5
:100DAC00F8B505460C46494B98421BD003F58063B9
:100DBC00984217D003F58063984213D003F58063F3
:100DCC0098420FD003F5806398420BD003F58063F3
:100DDC00984207D003F58063984203D0B2213C4877
:100DEC00FFF796FAE3786BB1042B0BD0282B09D0C4
:100DFC00482B07D0142B05D0102B03D01C2B01D063
:100E0C00182B14D12388BBB1E37803F00F063046BE
:100E1C0013F0100F06D0A378013BDBB2022B10D8D5
:100E2C00A078304323785BB32E68002310E0B32105
:100E3C002748FFF76DFAE5E7B4212548FFF768FA74
:100E4C00E2E7BB212248FFF763FAE9E76A61013365
:100E5C00072B14D801229A40218832EA0101F6D1DD
:100E6C0099000F278F4026EA070600FA01F10E437E
:100E7C00E1782829EAD04829E9D12A61E7E72E60F0
:100E8C002388FF2B20D96E68002303E06A6116E0EB
:100E9C002A610133072B16D803F1080101228A407D
:100EAC00218832EA0101F4D199000F278F4026EAFC
:100EBC00070600FA01F10E43E1782829E6D0E17823
:100ECC004829E6D1E4E76E60F8BD00BF0008014098
:100EDC009438000838B504460D46144B98421CD083
:100EEC0003F58063984218D003F58063984214D0C0
:100EFC0003F58063984210D003F5806398420CD0C0
:100F0C0003F58063984208D003F58063984204D0BF
:100F1C0040F269110648FFF7FBF90DB1256138BDA8
:100F2C004FF4B5710248FFF7F3F9F7E700080140F9
:100F3C009438000838B504460D46144B98421CD022
:100F4C0003F58063984218D003F58063984214D05F
:100F5C0003F58063984210D003F5806398420CD05F
:100F6C0003F58063984208D003F58063984204D05F
:100F7C0040F279110648FFF7CBF90DB1656138BD28
:100F8C004FF4BD710248FFF7C3F9F7E700080140C1
:100F9C009438000810B50446114B984207D003F55D
:100FAC008063984203D0A5210E48FFF7B1F90C4B92
:100FBC009C420AD001214FF4800000F003FB002179
:100FCC004FF4800000F0FEFA10BD01214FF4001028
:100FDC0000F0F8FA00214FF4001000F0F3FAF3E7F8
:100FEC0000540040C8380008F0B587B004460D46E0
:100FFC00554B984207D003F58063984203D0C62125
:10100C005248FFF785F92B68013B514A934257D858
:10101C00AB881BB1022B01D00A2B56D1EB88B3F550
:10102C00804F03D04BF6FF72934253D12B89B3F50B
:10103C00806F54D26B89B3F5806F01D0002B53D1E4
:10104C00AB89B3F5804F02D0B3F5404F51D1A68890
:10105C00B6B226F03F06B6B201A800F0BDF903986F
:10106C003C4AA2FB0032920C97B23E43A6802188E8
:10107C0089B221F0010189B221802B6836498B425B
:10108C003CD85B00B0FBF3F39BB2032B00D80423DA
:10109C0001372784A383238843F00103238023880B
:1010AC009BB223F4816323F00203AA8869890A4363
:1010BC0013432380AB892A891343238107B0F0BDE6
:1010CC00C7212248FFF724F9A2E7C8211F48FFF7E0
:1010DC001FF9A3E7C9211D48FFF71AF9A6E7CA2192
:1010EC001A48FFF715F9A5E7CB211848FFF710F9B7
:1010FC00A6E7CC211548FFF70BF9A8E7EE884BF6CD
:10110C00FF718E421AD003EB830303EB8303B0FB16
:10111C00F3F39BB243F48043C3F30B0109B943F0DF
:10112C00010343F400434FF4967102FB01F20B49A7
:10113C0081FB0212921101322284ABE703EB4303D1
:10114C00B0FBF3F39BB2E7E700540040C83800084B
:10115C007F1A060083DE1B43A0860100D34D62106C
:10116C0038B504460D46104B984208D003F5806301
:10117C00984204D04FF4A9710C48FFF7C9F8012D1F
:10118C0007D865B923889BB223F001039BB2238057
:10119C0038BD40F253110548FFF7BAF8F1E7238840
:1011AC0043F001032380F3E700540040C8380008E3
:1011BC0070B504460D461646134B984208D003F5FD
:1011CC008063984204D04FF40F711048FFF7A0F8D9
:1011DC00012E0FD825F4E0639BB203B925B940F278
:1011EC003E210A48FFF794F856B9A38823EA05056F
:1011FC00A58070BD40F23D210448FFF789F8E9E76E
:10120C00A3881D43A580F4E700540040C8380008AB
:10121C0038B505460C46074B984208D003F5806359
:10122C00984204D040F255210348FFF771F8A4B25C
:10123C002C8238BD00540040C838000810B5044654
:10124C00074B984208D003F58063984204D040F2D3
:10125C0062210448FFF75CF8208AC0B210BD00BFC1
:10126C0000540040C838000810B50446094B984299
:10127C0008D003F58063984204D040F267410648D9
:10128C00FFF746F8A08A238B40EA034020F07F400A
:10129C0010BD00BF00540040C838000838B50546E2
:1012AC000C46284B984208D003F58063984204D032
:1012BC0040F20F512448FFF72BF8244B9C422BD0C3
:1012CC00A3F580439C4227D0A3F540539C4223D0E6
:1012DC00A3F500639C421FD0A3F580639C421BD0F6
:1012EC00A3F500739C4217D0B4F1012F14D0184B06
:1012FC009C4211D0403B9C420ED0164B9C420BD0D2
:10130C00083B9C4208D0043B9C4205D0023B9C42CB
:10131C0002D0013B9C420AD1AB8803EA144303F48C
:10132C00E063AA8A144208D04BB9002006E04FF4BF
:10133C00A2610548FEF7ECFFEEE7002038BD012066
:10134C00FCE700BF00540040C838000800800001D2
:10135C00800000061000000238B505460C460E4B06
:10136C00984208D003F58063984204D040F24A5169
:10137C000A48FEF7CDFF42F2FF031C4200D124B90C
:10138C0040F24B510548FEF7C3FF24F07F44E44381
:10139C00A4B2AC8238BD00BF00540040C83800086D
:1013AC0010B5044668B1B0F5804F0AD0B0F5004FC7
:1013BC0007D0B0F5404F04D040F202310448FEF79C
:1013CC00A7FF044A536823F440431C43546010BDE8
:1013DC00F83800080010024010B4294B5B6803F089
:1013EC000C03042B2BD0082B2CD013B1254B0360F2
:1013FC0001E0244B036022494B68C3F30313224CD6
:10140C00E35CDAB20368D34043604A68C2F3022259
:10141C00A25CD2B223FA02F282604A68C2F3C22200
:10142C00A25CD2B2D340C3604A68C2F3813217497E
:10143C008A5CD2B2B3FBF2F3036110BC7047114B60
:10144C000360D8E70E4A53685268C3F383430233F0
:10145C0012F4803F09D00A4A526812F4003F09D0B6
:10146C000B4A02FB03F30360C5E7094A02FB03F3D3
:10147C000360C0E7034A02FB03F30360BBE700BF52
:10148C000010024000127A002400002020000020EE
:10149C0000093D0038B504460D4620F4AA6323F03C
:1014AC00070303B920B940F22B410B48FEF730FF7C
:1014BC00012D06D85DB9094A536923EA0404546125
:1014CC0038BD40F22C410448FEF722FFF2E7034AF4
:1014DC0053691C435461F3E7F838000800100240CC
:1014EC0038B504460D460E4B034003B920B940F203
:1014FC004A410C48FEF70CFF012D06D85DB90A4A8B
:10150C00936923EA0404946138BD40F24B410548C9
:10151C00FEF7FEFEF2E7044A93691C439461F3E77D
:10152C000200C0FFF83800080010024038B504462D
:10153C000D460E4B184200D120B940F269410C48BF
:10154C00FEF7E6FE012D06D85DB90A4AD36923EAF7
:10155C000404D46138BD40F26A410548FEF7D8FE58
:10156C00F2E7044AD3691C43D461F3E700360181E6
:10157C00F83800080010024038B504460D460E4BF2
:10158C00034003B920B940F2A4410C48FEF7C0FE59
:10159C00012D06D85DB90A4AD36823EA0404D46045
:1015AC0038BD40F2A5410548FEF7B2FEF2E7044A09
:1015BC00D3681C43D460F3E70200C0FFF83800087E
:1015CC000010024038B504460D460E4B184200D1AF
:1015DC0020B940F2C3410C48FEF79AFE012D06D803
:1015EC005DB90A4A136923EA0404146138BD40F258
:1015FC00C4410548FEF78CFEF2E7044A13691C430C
:10160C001461F3E700360181F8380008001002403D
:10161C0010B50446944B984242D0B0F1804F3FD065
:10162C00A3F5943398423BD003F58063984237D0AE
:10163C0003F58063984233D003F5806398422FD032
:10164C0003F5806398422BD003F59033984227D052
:10165C0003F5C053984223D003F5806398421FD002
:10166C0003F5806398421BD0A3F59E33984217D0A4
:10167C0003F58063984213D003F5806398420FD032
:10168C0003F5903398420BD003F58063984207D052
:10169C0003F58063984203D07D217448FEF738FE31
:1016AC00714B9C4240D0B4F1804F48D0704B9C425F
:1016BC004ED0704B9C4254D06F4B9C425AD06F4BC7
:1016CC009C4260D06E4B9C4266D06E4B9C426CD060
:1016DC006D4B9C4274D06D4B9C427CD06C4B9C42AD
:1016EC0000F084806B4B9C4200F08B806A4B9C42D8
:1016FC0000F09080694B9C4200F09580684B9C42B6
:10170C0000F09C80674B9C4200F0A380664B9C428F
:10171C0014D101214FF48020FFF72EFF00214FF44C
:10172C008020FFF729FF09E001214FF40060FFF74B
:10173C0023FF00214FF40060FFF71EFF10BD0121B5
:10174C000846FFF73FFF00210120FFF73BFFF5E7BD
:10175C0001210220FFF736FF00210220FFF732FFA4
:10176C00ECE701210420FFF72DFF00210420FFF7F7
:10177C0029FFE3E701210820FFF724FF00210820BF
:10178C00FFF720FFDAE701211020FFF71BFF0021F4
:10179C001020FFF717FFD1E701212020FFF712FFE0
:1017AC0000212020FFF70EFFC8E701214FF4005065
:1017BC00FFF7E2FE00214FF40050FFF7DDFEBDE71E
:1017CC0001214FF40020FFF7D7FE00214FF4002039
:1017DC00FFF7D2FEB2E701214FF48010FFF7CCFEE9
:1017EC0000214FF48010FFF7C7FEA7E701214FF44B
:1017FC000010FFF7C1FE00214FF40010FFF7BCFEF4
:10180C009CE701214020FFF7DDFE00214020FFF77F
:10181C00D9FE93E701218020FFF7D4FE0021802020
:10182C00FFF7D0FE8AE701214FF48070FFF7CAFE64
:10183C0000214FF48070FFF7C5FE7FE701214FF4C4
:10184C008030FFF799FE00214FF48030FFF794FEB3
:10185C0074E701214FF40030FFF78EFE00214FF4A6
:10186C000030FFF789FE69E7002C01402839000899
:10187C000004004000080040000C00400010004034
:10188C000014004000340140004C01400050014065
:10189C000054014000180040001C00400020004093
:1018AC0000400140004401400048014038B5044666
:1018BC000D46534B984242D0B0F1804F3FD0A3F528
:1018CC00943398423BD003F58063984237D003F5AC
:1018DC008063984233D003F5806398422FD003F590
:1018EC00806398422BD003F59033984227D003F5B0
:1018FC00C053984223D003F5806398421FD003F560
:10190C00806398421BD0A3F59E33984217D003F501
:10191C008063984213D003F5806398420FD003F58F
:10192C00903398420BD003F58063984207D003F5AF
:10193C008063984203D0E7213248FEF7E9FC6B88BC
:10194C003BB1102B05D0202B03D0402B01D0602BAA
:10195C004CD1EB882BB1B3F5807F02D0B3F5007F6F
:10196C0049D123889BB2264A944212D002F50062D8
:10197C0094420ED0B4F1804F0BD0A2F59832944221
:10198C0007D002F58062944203D002F58062944243
:10199C0003D123F070036A8813431B4A944208D086
:1019AC0002F58062944204D023F440739BB2EA881F
:1019BC0013432380AB88A3852B882385104B9C4233
:1019CC000FD003F500639C420BD003F540639C429F
:1019DC0007D003F580639C4203D003F580639C42DF
:1019EC0001D12B7A23860123A38238BDE821054837
:1019FC00FEF78EFCADE7E9210248FEF789FCB0E763
:101A0C00002C0140283900080010004038B504466D
:101A1C000D462E4B984243D0B0F1804F40D0A3F5E9
:101A2C00943398423CD003F58063984238D003F548
:101A3C008063984234D003F58063984230D003F52C
:101A4C00806398422CD003F59033984228D003F54C
:101A5C00C053984224D003F58063984220D003F5FC
:101A6C00806398421CD0A3F59E33984218D003F59E
:101A7C008063984214D003F58063984210D003F52C
:101A8C00903398420CD003F58063984208D003F54C
:101A9C008063984204D040F229310D48FEF738FC9F
:101AAC00012D07D865B923889BB223F001039BB2A3
:101ABC00238038BD40F22A310548FEF729FCF1E7B6
:101ACC00238843F001032380F3E700BF002C01407F
:101ADC002839000870B504460D461646304B98421E
:101AEC0043D0B0F1804F40D0A3F5943398423CD012
:101AFC0003F58063984238D003F58063984234D064
:101B0C0003F58063984230D003F5806398422CD063
:101B1C0003F59033984228D003F5C053984224D053
:101B2C0003F58063984220D003F5806398421CD063
:101B3C00A3F59E33984218D003F58063984214D0D5
:101B4C0003F58063984210D003F5903398420CD083
:101B5C0003F58063984208D003F58063984204D063
:101B6C0040F26B310F48FEF7D3FB15F47F4F00D1D9
:101B7C0025B94FF45B710B48FEF7CAFB012E05D853
:101B8C0056B9A38923EA0505A58170BD40F26D31D4
:101B9C000448FEF7BDFBF3E7A3891D43A581F4E7D9
:101BAC00002C01402839000810B50446164B984209
:101BBC0023D0B0F1804F20D0A3F5943398421CD0A1
:101BCC0003F58063984218D003F58063984214D0D3
:101BDC0003F59433984210D003F5C05398420CD0BF
:101BEC00A3F59A33984208D003F59433984204D065
:101BFC004FF478710548FEF78BFB23899BB223F0D9
:101C0C0007039BB2238110BD002C0140283900082A
:101C1C0038B504460D462E4B984243D0B0F1804F58
:101C2C0040D0A3F5943398423CD003F5806398429E
:101C3C0038D003F58063984234D003F58063984222
:101C4C0030D003F5806398422CD003F59033984242
:101C5C0028D003F5C053984224D003F580639842F2
:101C6C0020D003F5806398421CD0A3F59E33984294
:101C7C0018D003F58063984214D003F58063984222
:101C8C0010D003F5903398420CD003F58063984242
:101C9C0008D003F58063984204D040F284510D487B
:101CAC00FEF736FB012D07D865B923889BB223F0CC
:101CBC0080039BB2238038BD40F285510548FEF766
:101CCC0027FBF1E7238843F080032380F3E700BF71
:101CDC00002C01402839000838B505460C462A4B23
:101CEC00984243D0B0F1804F40D0A3F59433984242
:101CFC003CD003F58063984238D003F5806398425A
:101D0C0034D003F58063984230D003F58063984259
:101D1C002CD003F59033984228D003F5C053984249
:101D2C0024D003F58063984220D003F58063984259
:101D3C001CD0A3F59E33984218D003F580639842CB
:101D4C0014D003F58063984210D003F59033984279
:101D5C000CD003F58063984208D003F58063984259
:101D6C0004D040F636210948FEF7D2FA14F4614F3C
:101D7C0000D124B940F637210448FEF7C9FAE443F0
:101D8C00A4B22C8238BD00BF002C014028390008B9
:101D9C0038B504460D46344B984243D0B0F1804FD1
:101DAC0040D0A3F5943398423CD003F5806398421D
:101DBC0038D003F58063984234D003F580639842A1
:101DCC0030D003F5806398422CD003F590339842C1
:101DDC0028D003F5C053984224D003F58063984271
:101DEC0020D003F5806398421CD0A3F59E33984213
:101DFC0018D003F58063984214D003F580639842A1
:101E0C0010D003F5903398420CD003F580639842C0
:101E1C0008D003F58063984204D040F6582113484B
:101E2C00FEF776FA6B1E9BB2012B0BD9042D09D051
:101E3C00082D07D0102D05D0202D03D0402D01D01A
:101E4C00802D07D1228AA3892B40154208D04BB98B
:101E5C00002006E040F659210448FEF759FAF1E754
:101E6C00002038BD0120FCE7002C01402839000877
:101E7C0038B505460C462A4B984243D0B0F1804FFA
:101E8C0040D0A3F5943398423CD003F5806398423C
:101E9C0038D003F58063984234D003F580639842C0
:101EAC0030D003F5806398422CD003F590339842E0
:101EBC0028D003F5C053984224D003F58063984290
:101ECC0020D003F5806398421CD0A3F59E33984232
:101EDC0018D003F58063984214D003F580639842C0
:101EEC0010D003F5903398420CD003F580639842E0
:101EFC0008D003F58063984204D040F6822109484B
:101F0C00FEF706FA14F47F4F00D124B940F6832172
:101F1C000448FEF7FDF9E443A4B22C8238BD00BF9F
:101F2C00002C01402839000808B5FEF75BFA024A7C
:101F3C00024B9A6008BD00BF0000000800ED00E0F5
:101F4C0008B5FEF777FA08BD034B1B681BB1024AB4
:101F5C001368013B13607047C802002008B5FFF7F7
:101F6C00F3FF08BD10B504460022134606E004EB4F
:101F7C004300204931F810100A4401331F2BF6DDC1
:101F8C00C2F34F121C4B002143F82410AF2006E083
:101F9C0000F0A0FD184B43F8240010BD1846B0F516
:101FAC00967F0CDA431C154931F813109142F5D881
:101FBC00124931F810109142EAD21846EFE700208E
:101FCC0006E000F087FD0C4B43F82400E5E71846CB
:101FDC00B3280CDC431C094931F813109142F6D894
:101FEC00064931F810109142EBD21846F0E7002068
:101FFC00D3E700BFE002002034000020583900086D
:10200C0070B594B001210846FFF744FA594C2046AC
:10201C00FEF70AFD584B0993584B0A9300260B9672
:10202C0040230C930D9680230E934FF480730F93E3
:10203C004FF480631093202311934FF400531293A9
:10204C00139609A92046FEF7AFFD01212046FEF7A5
:10205C0061FE01214FF40070FFF742FA484C204614
:10206C00FEF79EFA049601258DF814508DF8155044
:10207C0007964FF46023069302268DF8206004A97E
:10208C002046FEF7D1FA4FF40040FFF789F90723F9
:10209C002A4608212046FEF74FFC07233246092129
:1020AC002046FEF749FC29462046FEF781FB2946CF
:1020BC002046FEF753FB2046FEF7A0FB3048FEF708
:1020CC00B9FB0028FAD12E48FEF7D2FB2C48FEF7BC
:1020DC00EBFB0028FAD101212948FEF703FC012172
:1020EC002448FEF717FE01210846FFF71FFA4FF4AC
:1020FC00C060FEF7E9F91C238DF80C3000258DF833
:10210C000D5004238DF80E3001248DF80F4003A8D8
:10211C00FEF7FAF94FF08040FFF77AFA4FF0804063
:10212C00FFF742FD40F2CF23ADF80030ADF806507A
:10213C00ADF802506423ADF8043069464FF080408E
:10214C00FFF7B4FB21464FF08040FFF7C5FD294651
:10215C004FF08040FFF75CFD224621464FF0804057
:10216C00FFF7B8FC21464FF08040FFF74FFC14B04E
:10217C0070BD00BF080002404C240140E00200206A
:10218C0000240140074B0022DA6007490A60074926
:10219C000A6007490A6019221A7201225A72322205
:1021AC009A727047680300208403002060030020AB
:1021BC007C030020F0B4414B5A681B689A4205D24C
:1021CC00991A642934D93D496420C8609A422DD3A8
:1021DC00D31A322B62D83A4A1360384C227A3949D6
:1021EC0009685D1A607A00FB03F005FB0200A27A15
:1021FC00A3EB4104344D2D682C4404FB02023348FC
:10220C0002603348046822440260642A4ADD0246B4
:10221C00642010602E4A1268002A4BDBC2F1640263
:10222C002648C260284A1160264A1360F0BC7047E9
:10223C0023480160214E307A224C24680F1B757A9A
:10224C0005FB01F507FB0055B07AA1EB44061E4FC8
:10225C003F683E4406FB00501C4D28601C4D2E6808
:10226C003044286064280DDD284664250560184834
:10227C00006800280EDB114DE8601348046011481B
:10228C000160A3E710F1640FF1DA11486FF06305F8
:10229C000560ECE74042094DE860EEE7074B002291
:1022AC00DA60C3E712F1640FB4DA094A6FF0630025
:1022BC001060AFE764320148C260B3E768030020E6
:1022CC0084030020600300207C0300208003002096
:1022DC006403002000B583B001210820FFF700F94A
:1022EC000323ADF8043000238DF8073001A903480F
:1022FC00FEF756FD03B05DF804FB00BF000C014077
:10230C0000B583B021238DF8043001238DF80530FE
:10231C008DF806308DF8073001A8FEF7F5F803B0FC
:10232C005DF804FB10B586B001210820FFF7D8F842
:10233C004FF44063ADF8143003238DF816301C2392
:10234C008DF8173005A92048FEF72AFD01214FF41E
:10235C008000FFF7EBF801214FF48000FFF7E6F85F
:10236C0001214FF48000FFF72DF900214FF480007C
:10237C00FFF728F9154C2046FEF70CFE0023ADF8AC
:10238C0008304BF6FF73ADF80A307823ADF80C30FB
:10239C004FF48063ADF80E304FF48043ADF810303D
:1023AC0006A949F6404341F8143D2046FEF71CFEB1
:1023BC0001212046FEF7D4FE01224FF4C0612046D5
:1023CC00FEF7F6FE06B010BD000C014000580040B0
:1023DC0008B50B490B48FEF761FF30B94FF00121EE
:1023EC000848FEF75BFF28B908BD05490548FEF70C
:1023FC00B3FFF3E74FF001210248FEF7ADFFF3E71F
:10240C00000400010058004000228A4280F2A6809D
:10241C0070B582B014468356742B13D04B2B20D03E
:10242C00492B29D0442B32D0462B3BD0622B50D099
:10243C00672B5CD0472B7BD0682B10D001328A42A3
:10244C00E8DB0CE00134204400F008FD00EB8000D8
:10245C004300434A13604349434800F009FD02B06E
:10246C0070BD0134204400F0F9FC3D4B18723D491D
:10247C003D4800F0FDFCF2E70134204400F0EEFC96
:10248C00374B58723749384800F0F2FCE7E7013413
:10249C00204400F0E3FC324B98723249324800F091
:1024AC00E7FCDCE7831893F90130302B0AD00334B6
:1024BC00204400F0D3FC2A4B98742A492A4800F097
:1024CC00D7FCCCE70334204400F0C8FC244B187430
:1024DC00F3E70134204400F0C1FC00EB8000430022
:1024EC00224A13601F49204800F0C2FCB7E70134B0
:1024FC00204400F0B3FCC0B20328B0D8184B5C6881
:10250C001A4B58681A49A1FB0432D20802EB820517
:10251C006B00A1FB0051C90801EB81067500401B43
:10252C0001900091E31A13490F4800F0A1FC96E7C3
:10253C000134204400F092FCC0B203288FD80B4B1E
:10254C0059680B4AA2FB0132D20802EB820043000D
:10255C00CB1A0949044800F08BFC80E7704700BF98
:10256C0068030020B43B000828020020CC020020A5
:10257C00CDCCCCCCB83B0008CC3B000838B53B28C4
:10258C000CD00E4B1A68511C19601A44107201229F
:10259C005A603C2901DD00221A6038BD074C2368C3
:1025AC00591C2160234400251D720223636004F131
:1025BC000800FFF729FF65602560EEE7880300201F
:1025CC0038B52D48FEF750FE10F0020F15D010F064
:1025DC00800F04D1284B00229A821A8338BD274CD5
:1025EC00274D2B68E15C2448FEF712FE2B68E35C58
:1025FC00002BEFD100222270ECE710F0800F12D0EC
:10260C0010F0040FE6D11E4C2368013323601B4DE0
:10261C00E95C1948FEF7FCFD2368EB5C002BD9D173
:10262C0000222A70D6E700F05003502B0ED010F089
:10263C00400F17D110F0100FCCD00F4A138843F471
:10264C00805313800E4B00221A60C3E70A4C2046BD
:10265C00FEF7F4FD40B2FFF791FF238843F480535B
:10266C002380B7E70448FEF7E9FD40B20828B1D053
:10267C00FFF784FFAEE700BF00580040280200209F
:10268C00A802002010B501214FF08040FFF780FB1D
:10269C0000B910BD0020FFF765FC754900F06EFA1B
:1026AC00744C00F0BBFB60600120FFF75BFC7049D1
:1026BC0000F064FA00F0B2FB6F4B586063682BB308
:1026CC006D4B5B6843B36B4B5B68B3F5167F29D9D5
:1026DC004FF480716948FEF7FDFB664B1B7CC72BE2
:1026EC0026D84F2B56D9664B1A6801321A60654BA7
:1026FC0083FB0213A3EBE27303EB43039A4243D134
:10270C004FF400715D48FEF7E5FB16E04FF4805185
:10271C005D48FEF70FFCD3E74FF400515A48FEF723
:10272C0009FCD0E74FF480715448FEF703FCD4E762
:10273C004FF400715148FEF7CDFB4E4B5B68B3F57F
:10274C00167F07D84B4B1B7C502B03D8494B9B7CDB
:10275C00502B25D94FF480614848FEF7BBFB464B04
:10276C005B6843B1444A126893421FD94FF400513D
:10277C004548FEF7DFFB3F4B5B68EBB901214FF09F
:10278C008040FFF775FB84E74FF400713B48FEF780
:10279C00D1FBD2E74FF400713848FEF7CBFBCCE706
:1027AC004FF480613548FEF7C5FBD8E74FF4005174
:1027BC003548FEF78FFBDEE7FFF7FCFC2D4B1B6863
:1027CC000A2B03D931490A6801320A602F4A116871
:1027DC0042F2107291421BDD2C4A00211160254AF5
:1027EC0052689B1A642B13D9294B1B68D31A1E2BC6
:1027FC0009D828490B6801330B60012B06DD0B4609
:10280C000021196002E0234B00211960204B1A6053
:10281C00184BDB68632B16D8DBB1164AD27A93427D
:10282C001DD90132134BDA724FF480511648FEF762
:10283C0051FB104BDB7A642BA0D84FF4805112481B
:10284C00FEF778FB9AE74FF480510F48FEF742FBF6
:10285C0094E74FF480510C48FEF76CFB8EE7013285
:10286C00044BDA724FF480510748FEF763FBE0E744
:10287C000000204168030020CC0200200008014029
:10288C00B002002056555555000C0140B8020020EE
:10289C00B4020020AC020020F0B583B00121082066
:1028AC00FEF71EFE10278DF8077003268DF80660C4
:1028BC0002AD4FF4405325F8043D194C29462046EF
:1028CC00FEF76EFA4FF480512046FEF733FB4FF4BF
:1028DC0000512046FEF72EFB01210420FEF700FEDE
:1028EC008DF807708DF806604FF4E063ADF8043096
:1028FC00A4F5806429462046FEF752FA4FF4807105
:10290C002046FEF717FB4FF400712046FEF712FB32
:10291C004FF480612046FEF70DFB03B0F0BD00BF05
:10292C00000C014008B5FFF7EBFCFFF7D3FCFFF7F9
:10293C00B3FFFFF765FBFFF7F5FCFFF723FC054B37
:10294C0000221A609A741A740349044800F090FA31
:10295C00FEE700BF68030020D83B000828020020D7
:10296C0080F0004002E000BF81F0004142001FBF38
:10297C005FEA410392EA030F7FEA226C7FEA236C41
:10298C006AD04FEA1262D2EB1363C1BFD218414036
:10299C0048404140B8BF5B42192B88BF704710F0CC
:1029AC00004F40F4000020F07F4018BF404211F06F
:1029BC00004F41F4000121F07F4118BF494292EAD7
:1029CC00030F3FD0A2F1010241FA03FC10EB0C0003
:1029DC00C3F1200301FA03F100F0004302D5494290
:1029EC0060EB4000B0F5000F13D3B0F1807F06D33D
:1029FC0040084FEA310102F10102FE2A51D2B1F135
:102A0C00004F40EBC25008BF20F0010040EA030029
:102A1C007047490040EB000010F4000FA2F10102D6
:102A2C00EDD1B0FA80FCACF1080CB2EB0C0200FA60
:102A3C000CF0AABF00EBC25052421843BCBFD040AE
:102A4C001843704792F0000F81F4000106BF80F428
:102A5C0000000132013BB5E74FEA41037FEA226CEB
:102A6C0018BF7FEA236C21D092EA030F04D092F0B6
:102A7C00000F08BF0846704790EA010F1CBF0020EA
:102A8C00704712F07F4F04D1400028BF40F0004047
:102A9C00704712F100723CBF00F50000704700F067
:102AAC00004343F0FE4040F4000070477FEA22628E
:102ABC0016BF08467FEA23630146420206BF5FEA5F
:102ACC00412390EA010F40F4800070474FF000035F
:102ADC0004E000BF10F0004348BF40425FEA000C26
:102AEC0008BF704743F0964301464FF000001CE0CE
:102AFC0050EA010208BF70474FF000030AE000BF24
:102B0C0050EA010208BF704711F0004302D5404261
:102B1C0061EB41015FEA010C02BF844601460020D3
:102B2C0043F0B64308BFA3F18053A3F50003BCFAEE
:102B3C008CF2083AA3EBC25310DB01FA02FC63449B
:102B4C0000FA02FCC2F12002BCF1004F20FA02F2A2
:102B5C0043EB020008BF20F00100704702F1200295
:102B6C0001FA02FCC2F1200250EA4C0021FA02F2F6
:102B7C0043EB020008BF20EADC7070474FF0FF0CFB
:102B8C001CEAD0521EBF1CEAD15392EA0C0F93EAF6
:102B9C000C0F6FD01A4480EA010C400218BF5FEA98
:102BAC0041211ED04FF0006343EA501043EA51110B
:102BBC00A0FB01310CF00040B1F5000F3EBF490005
:102BCC0041EAD3715B0040EA010062F17F02FD2A09
:102BDC001DD8B3F1004F40EBC25008BF20F00100EC
:102BEC00704790F0000F0CF0004C08BF49024CEA03
:102BFC00502040EA51207F3AC2BFD2F1FF0340EA95
:102C0C00C250704740F400004FF00003013A5DDC05
:102C1C0012F1190FDCBF00F000407047C2F1000246
:102C2C00410021FA02F1C2F1200200FA02FC5FEA33
:102C3C00310040F1000053EA4C0308BF20EADC707D
:102C4C00704792F0000F00F0004C02BF400010F4EF
:102C5C00000F013AF9D040EA0C0093F0000F01F09C
:102C6C00004C02BF490011F4000F013BF9D041EABE
:102C7C000C018FE70CEAD15392EA0C0F18BF93EAC0
:102C8C000C0F0AD030F0004C18BF31F0004CD8D1EA
:102C9C0080EA010000F00040704790F0000F17BF71
:102CAC0090F0004F084691F0000F91F0004F14D0B7
:102CBC0092EA0C0F01D142020FD193EA0C0F03D10F
:102CCC004B0218BF084608D180EA010000F0004012
:102CDC0040F0FE4040F40000704740F0FE4040F4ED
:102CEC00400070474FF0FF0C1CEAD0521EBF1CEA8C
:102CFC00D15392EA0C0F93EA0C0F69D0A2EB0302AA
:102D0C0080EA010C49024FEA402037D04FF0805343
:102D1C0043EA111143EA10130CF000408B4238BF08
:102D2C005B0042F17D024FF4000C8B4224BF5B1A16
:102D3C0040EA0C00B3EB510F24BFA3EB510340EA64
:102D4C005C00B3EB910F24BFA3EB910340EA9C0012
:102D5C00B3EBD10F24BFA3EBD10340EADC001B0182
:102D6C0018BF5FEA1C1CE0D1FD2A3FF650AF8B4226
:102D7C0040EBC25008BF20F0010070470CF0004C33
:102D8C004CEA50207F32C2BFD2F1FF0340EAC2505E
:102D9C00704740F400004FF00003013A37E792F01F
:102DAC00000F00F0004C02BF400010F4000F013A7D
:102DBC00F9D040EA0C0093F0000F01F0004C02BF78
:102DCC00490011F4000F013BF9D041EA0C0195E7E1
:102DDC000CEAD15392EA0C0F08D142027FF47DAF7A
:102DEC0093EA0C0F7FF470AF084676E793EA0C0F6A
:102DFC0004D14B023FF44CAF08466EE730F0004C68
:102E0C0018BF31F0004CCAD130F000427FF45CAFF7
:102E1C0031F000437FF43CAF5FE700BF42000ED2BD
:102E2C00B2F1FE4F0BD34FF09E03B3EB126209D4F9
:102E3C004FEA002343F0004323FA02F070474FF0AF
:102E4C000000704712F1610F01D1420202D14FF024
:102E5C00FF3070474FF00000704700BF0A2200217E
:102E6C0000F0A2B8014B1868704700BF4800002062
:102E7C000EB46FF0004100B59CB01DAB02900690F3
:102E8C00079104910848094953F8042B05910068EF
:102E9C0002A9019300F00EF90022029B1A701CB0DB
:102EAC005DF804EB03B07047480000200802FFFFF8
:102EBC002DE9F0478046894692461E460F463D4610
:102ECC00089815F8014B00F085F82044437813F06E
:102EDC00080332D12D2C32D101227C78BD1C002E5E
:102EEC005DD0102E09D1302C07D12B7803F0DF03E5
:102EFC00582B4FD110266C780235002A14BF4FF096
:102F0C0000416FF000410027B1FBF6FC384606FB90
:102F1C001C1EA4F13003092B17D81C46A64223DD36
:102F2C007B1C07D084451CD301D1A64519DB012796
:102F3C0000FB064015F8014BEBE72F46BFE72B2CA7
:102F4C0004BFBD1C7C781A46C9E7A4F14103192BB8
:102F5C0001D8373CE2E7A4F16103192B04D8573CA4
:102F6C00DCE74FF0FF37E5E77B1C08D1222308464E
:102F7C00C8F80030BAF1000F07D1BDE8F08702B1F4
:102F8C004042BAF1000FF8D00FB105F1FF39CAF881
:102F9C000090F2E73024002EAFD10826ADE7302C9C
:102FAC00A3D00A26A9E70000084B37B51C68084DCA
:102FBC00236A002B08BF2B46009313460A46014692
:102FCC002046FFF775FF03B030BD00BF480000205E
:102FDC00AC000020D0F8EC00704782B001B901A918
:102FEC0042B14BB113780B601278101C18BF012042
:102FFC0002B070471046FBE76FF00100F8E72DE9CF
:10300C00F0478E6882469E420C469046994637D8C9
:10301C008A8912F4906F31D00223256809696F1ADE
:10302C00656905EB450595FBF3F509F101033B4497
:10303C009D4238BF1D46530530D5294600F046FB4E
:10304C00064650B90C234FF0FF30CAF80030A38964
:10305C0043F04003A381BDE8F0873A46216900F0B4
:10306C00C4FAA38923F4906343F08003A3812661FF
:10307C003E4426604E466561ED1BA5604E4500D969
:10308C004E4632464146206800F0BAFAA36800204A
:10309C009B1BA36023681E442660DCE72A4600F0D5
:1030AC006FFB06460028E2D12169504600F0C2FAB7
:1030BC00C8E700002DE9F04F1D468B899DB01F0617
:1030CC0080460C4616460FD50B696BB9402100F0B3
:1030DC00FDFA2060206128B90C23C8F800304FF0AD
:1030EC00FF30C8E0402363610023099320238DF84F
:1030FC00293030234FF0010B8DF82A3003953746D9
:10310C003D4615F8013B0BB1252B3ED1B7EB060A1A
:10311C000BD05346324621464046FFF770FF013034
:10312C0000F0A480099B534409933B78002B00F0DA
:10313C009D8000234FF0FF32CDE9052304930793C4
:10314C008DF853301A932F46052217F8011B50485F
:10315C0000F03DFA049BD0B9D90644BF20228DF86B
:10316C0053201A0744BF2B228DF853202A782A2A81
:10317C0015D02F4600200A25079A394611F8013B35
:10318C00303B092B4DD9B8B10FE02F46B8E7404A78
:10319C003D46801A0BFA00F018430490D3E7039ACB
:1031AC00111D12680391002A01DB079204E05242C0
:1031BC0043F00203079204933B782E2B0CD17B78BF
:1031CC002A2B33D1039B02371A1D1B680392002B49
:1031DC00B8BF4FF0FF3305932E4D032239782846A4
:1031EC0000F0F5F938B14023401B03FA00F0049BC2
:1031FC000137034304933978062227487E1C8DF847
:10320C00281000F0E4F9002838D0244B13BB039BA2
:10321C00073323F0070308330393099B4B440993AB
:10322C006DE705FB023201200F46A6E700230A25B5
:10323C00194601370593384610F8012B303A092A04
:10324C0003D9002BC8D00591C6E705FB012101234A
:10325C000746F0E703AB00932246114B04A9404606
:10326C00AFF30080B0F1FF3F8146D6D1A3895B0656
:10327C003FF535AF09981DB0BDE8F08F03AB009357
:10328C002246074B04A9404600F082F8EAE700BF4B
:10329C00EA3B0008F03B0008F43B0008000000008B
:1032AC000B3000082DE9F04791461F468A680B69E0
:1032BC0006469342B8BF1346C9F8003091F8432034
:1032CC000C46DDF8208012B10133C9F800302368B8
:1032DC00990642BFD9F800300233C9F8003025688E
:1032EC0015F0060507D104F1190AE368D9F8002096
:1032FC009B1AAB4229DC94F843302268003318BF88
:10330C00012392062ED404F1430239463046C047BD
:10331C00013021D02368E56803F00603042B18BFA5
:10332C000025D9F800204FF0000908BFAD1AA3689A
:10333C00226908BF25EAE5759342C4BF9B1AED18B4
:10334C001A344D451AD1002008E001235246394663
:10335C003046C047013003D14FF0FF30BDE8F08755
:10336C000135C2E73020E11881F843005A1C94F86B
:10337C0045102244023382F84310C4E7012322464D
:10338C0039463046C0470130E6D009F10109D8E78B
:10339C002DE9F04301F1430C0C46097E85B06E29F2
:1033AC001746064698460C9A00F0B38022D863293B
:1033BC0036D00AD8002900F0B980582900F0838053
:1033CC0004F1420584F8421032E0642901D06929E5
:1033DC00F6D120681368050603F104012AD51B6891
:1033EC001160002B03DA2D225B4284F843206F48D6
:1033FC000A2239E0732900F09D8008D86F2920D06B
:10340C007029DDD1236843F02003236003E0752984
:10341C0017D07829D4D17823654884F8453055E005
:10342C00136804F14205191D1B68116084F84230C1
:10343C0001238CE01B6810F0400F116018BF1BB209
:10344C00CFE713682568181D1060280601D51B6886
:10345C0002E06806FBD51B886F2914BF0A220822DC
:10346C005248002184F843106568002DA560C0F215
:10347C009580216821F004012160002B3DD1002DA5
:10348C0040F08E806546082A0BD12368DB0708D5EF
:10349C00236962689A42DEBF302305F8013C05F1CE
:1034AC00FF35ACEB05032361CDF800803B4603AA46
:1034BC0021463046FFF7F6FE01304DD14FF0FF307C
:1034CC0005B0BDE8F083394884F8451013682168CD
:1034DC001D1D1B6815600A060BD5CA0744BF41F0B9
:1034EC00200121601BB9226822F0200222601022E8
:1034FC00B7E74D0648BF9BB2EFE76546B3FBF2F169
:10350C0002FB1133C35C05F8013D0B460029F5D1D4
:10351C00B9E713682568181D6169106028061B68D7
:10352C0001D5196002E06A06FBD5198000236546B7
:10353C002361B9E71368191D11601D6862680021C9
:10354C00284600F044F808B1401B606063682361B2
:10355C00002384F84330A7E723692A4639463046CE
:10356C00C0470130AAD023689B0713D4E068039BA3
:10357C009842B8BF1846A3E701234A46394630465D
:10358C00C04701309AD00135E368039A9B1AAB42CD
:10359C00F2DCEBE7002504F11909F5E7002BACD1BF
:1035AC00037804F1420584F842306CE7FB3B0008D9
:1035BC000C3C000849B1FF2A8BBF8A230A700360B8
:1035CC00012088BF4FF0FF3070470846704710B598
:1035DC00C9B202449042034601D1002303E01C7897
:1035EC0001308C42F6D1184610BD10B5431E0A446A
:1035FC00914200D110BD11F8014B03F8014FF7E7D0
:10360C00884210B501EB020307D8421E99420AD03A
:10361C0011F8014B02F8014FF8E78342F5D98118F4
:10362C00D21AD34200D110BD13F8014D01F8014D4F
:10363C00F7E7000038B50546002943D051F8043CA3
:10364C000C1F002BB8BFE41800F0D0F81E4A13680A
:10365C00104633B9636014602846BDE8384000F06A
:10366C00C6B8A3420BD921686218934201BF1A68ED
:10367C005B685218226063600460EDE713465A6879
:10368C000AB1A242FAD919685818A0420BD1206885
:10369C000144581882421960DED110685268014406
:1036AC0019605A60D8E702D90C232B60D4E7206844
:1036BC0021188A4201BF11685268091821606260A2
:1036CC005C60C9E738BD00BFBC02002070B5CD1CE2
:1036DC0025F0030508350C2D38BF0C25002D0646AA
:1036EC0001DBA94203D90C233360002070BD00F02C
:1036FC007DF8214A1468214691B9204C23681BB9E6
:10370C00304600F063F820602946304600F05EF841
:10371C00431C24D10C233046336000F068F8E4E7F6
:10372C000B685B1B18D40B2B0FD90B60CC18CD502E
:10373C00304600F05CF804F10B00231D20F007006C
:10374C00C31AD3D05A42E250D0E74B688C4216BF12
:10375C00636013600C46EBE70C464968CCE7C41C6D
:10376C0024F00304A04205D0211A304600F02EF8B4
:10377C000130CFD02560DBE7BC020020C002002066
:10378C00F8B5074614460E4621B9BDE8F840114677
:10379C00FFF79CBF22B9FFF74DFF25462846F8BD21
:1037AC0000F026F8A0420FD221463846FFF78EFFD4
:1037BC0005460028F2D031462246FFF716FF314667
:1037CC003846FFF737FFE9E73546E7E738B500231A
:1037DC00054C054608462360FCF770FD431C02D1DE
:1037EC00236803B12B6038BDC402002070477047BA
:1037FC0051F8043C181F002BBCBF0B58C018704765
:10380C002E2E2F73797374656D2F7372632F7374EF
:10381C006D333266312D7374647065726970682F04
:10382C006D6973632E6300002E2E2F73797374658C
:10383C006D2F7372632F73746D333266312D737405
:10384C00647065726970682F73746D3332663130D1
:10385C00785F6164632E63002E2E2F737973746509
:10386C006D2F7372632F73746D333266312D7374D5
:10387C00647065726970682F73746D3332663130A1
:10388C00785F646D612E63002E2E2F7379737465CF
:10389C006D2F7372632F73746D333266312D7374A5
:1038AC00647065726970682F73746D333266313071
:1038BC00785F6770696F2E63000000002E2E2F73E7
:1038CC00797374656D2F7372632F73746D333266F5
:1038DC00312D7374647065726970682F73746D33F5
:1038EC0032663130785F6932632E63002E2E2F736F
:1038FC00797374656D2F7372632F73746D333266C5
:10390C00312D7374647065726970682F73746D33C4
:10391C0032663130785F7263632E63002E2E2F7304
:10392C00797374656D2F7372632F73746D33326694
:10393C00312D7374647065726970682F73746D3394
:10394C0032663130785F74696D2E6300C60FC30F19
:10395C00C00FBD0FB90FB60FB30FAF0FAB0FA70F43
:10396C00A30F9E0F990F950F900F8B0F850F800F44
:10397C007A0F740F6D0F660F5F0F580F500F480FB3
:10398C00400F360F300F290F220F190F100F070F92
:10399C00FC0EF20EE60EDB0ECE0EC10EB40EA60E13
:1039AC00990E8B0E7E0E780E720E630E540E450E13
:1039BC00350E260E160E050EF50DE30DD20DC00DAF
:1039CC00AD0D990D850D6F0D650D5B0D460D300D13
:1039DC001A0D030DEC0CD40CBC0CA40C8B0C730C3E
:1039EC00590C400C330C270C0E0CF50BDC0BC20BDA
:1039FC00A90B8F0B750B5B0B400B250B080BEC0A03
:103A0C00CE0ABF0AB00A900A700A510A330A150A84
:103A1C00F709DA09CB09BC099F0981096309440933
:103A2C0025090509E408C208A0089208840875084D
:103A3C00660848082A080A08FA07EB07CB07AC0700
:103A4C008C076D074F073207240716070807FB067C
:103A5C00E106C306A6068A066F0655063C06230633
:103A6C000B06F305DB05C305AB05920579055F0570
:103A7C0044052B051205F904E204CB04B504A0049B
:103A8C008C047804650453044204310421040B04AF
:103A9C00F603E203CF03BD03AC039C038C037C034E
:103AAC006C035D033D032D031D030E030003F202A3
:103ABC00E402D702C902BD02B002A40298028C0231
:103ACC00810275026A025F02520247023C02320214
:103ADC0028021F0217020E020602FD01F501ED017C
:103AEC00E401DB01D101CA01C301BC01B401AC0189
:103AFC00A4019C0194018C0185017D01760170016A
:103B0C00690164015D01570151014C0146014001FD
:103B1C003A01350130012A01250120011B01160152
:103B2C0011010D01090104010001FB00F700F30074
:103B3C00EE00EA00E600E200DE00DB00D700D40075
:103B4C00D000CD00CA00C700C400C100BE00BB003D
:103B5C00B800B500B200AE00AC00AA00A600A400EC
:103B6C00A2009F009D009A0098009600930091007F
:103B7C008E008C0089008800860084008200800002
:103B8C007E007B007A007800760074007200710071
:103B9C006F006D006C006A006900670065006400CE
:103BAC00620060005D0000006F6B0A00543A2564EF
:103BBC002E256420423A25642E25640A000000005C
:103BCC00543A25642E256420430A0000543A3030C0
:103BDC00430A00004300504F534958002E00232D38
:103BEC00302B2000686C4C006566674546470030FA
:103BFC003132333435363738394142434445460047
:103C0C003031323334353637383961626364656646
:103C1C0000002020202020202020202828282828B0
:103C2C002020202020202020202020202020202088
:103C3C0020208810101010101010101010101010E0
:103C4C0010100404040404040404040410101010E0
:103C5C00101010414141414141010101010101019B
:103C6C00010101010101010101010101011010100B
:103C7C00101010424242424242020202020202026E
:103C8C0002020202020202020202020202101010DE
:103C9C0010200000000000000000000000000000E8
:103CAC000000000000000000000000000000000008
:103CBC0000000000000000000000000000000000F8
:103CCC0000000000000000000000000000000000E8
:103CDC0000000000000000000000000000000000D8
:103CEC0000000000000000000000000000000000C8
:103CFC0000000000000000000000000000000000B8
:103D0C0000000000000000000000000000000000A7
:023D1C000000A5
:103D20007856341224020020000000000000000039
:103D300000000000010203040607080900A24A046B
:103D4000020406080000000001020304010203044B
:103D50000607080900008042000000000000000083
:103D600000000000000000004C00002000000000E7
:103D70000000000000000000000000000000000043
:103D80000000000000000000000000000000000033
:103D90000000000000000000000000000000000023
:103DA0000000000000000000000000000000000013
:103DB0000000000000000000000000000000000003
:103DC00000000000000000000000000043000000B0
:103DD00000000000000000000000000000000000E3
:103DE0000000000000000000000000004300000090
:103DF00000000000000000000000000000000000C3
:103E0000000000000000000000000000430000006F
:103E100000000000000000000000000000000000A2
:103E2000000000000000000000000000430000004F
:103E30000000000000000000000000000000000082
:103E4000000000000000000000000000430000002F
:103E50000000000000000000000000000000000062
:103E6000000000000000000000000000430000000F
:103E70000000000000000000000000000000000042
:103E800000000000000000000000000043000000EF
:103E90000000000000000000000000000000000022
:103EA000000000000000000000000000C135000814
:103EB000E72F0008000000001D3C0008E83B000858
:103EC000EF3B0008EF3B0008EF3B0008EF3B00082A
:103ED000EF3B0008EF3B0008EF3B0008EF3B00081A
:103EE000EF3B0008FFFFFFFFFFFFFFFFFFFFFFFFAC
:103EF000FFFF00000100415343494900000000005A
:103F000000000000000000000000000000000000B1
:103F10000000000000004153434949000000000038
:103F20000000000000000000000000000000000091
:0C3F3000000000000000000032547698F1
:040000050800010DE1
:00000001FF
