:020000040800F2
:10000000B0180020957300089502000897020008B8
:100010009B0200089F020008A302000800000000E5
:10002000000000000000000000000000A70200081F
:10003000A902000800000000AB020008AD020008A1
:10004000AF730008AF730008AF730008AF73000808
:10005000AF730008AF730008AF730008AF730008F8
:10006000AF730008AF730008AF730008AF730008E8
:10007000AF730008AF730008AF730008AF730008D8
:10008000AF730008AF730008AF730008AF730008C8
:10009000AF730008AF730008AF730008AF730008B8
:1000A000AF730008AF730008AF730008AF730008A8
:1000B000AF730008AF730008AF730008AF73000898
:1000C000AF730008AF730008AF730008AF73000888
:1000D000AF730008AF730008AF7300088D300008DD
:1000E000AF730008AF730008AF730008AF73000868
:1000F000AF730008AF730008AF730008AF73000858
:10010000AF730008AF730008AF730008AF73000847
:10011000AF730008AF730008AF730008AF73000837
:10012000AF730008AF730008AF730008AF73000827
:1001300000F002F800F03FF80AA090E8000C8244BA
:100140008344AAF10107DA4501D100F034F8AFF297
:10015000090EBAE80F0013F0010F18BFFB1A43F0A5
:10016000010318471476000034760000103A24BFCB
:1001700078C878C1FAD8520724BF30C830C144BF0C
:1001800004680C607047000000230024002500264E
:10019000103A28BF78C1FBD8520728BF30C148BFEA
:1001A0000B607047782907F05781002070471FB512
:1001B0001FBD10B510BD07F047FA1146FFF7F7FF56
:1001C00000F01EF807F065FA03B4FFF7F2FF03BC76
:1001D00002F0FEFE30BF72B662B680F30888704748
:1001E000EFF30980704780F309887047EFF30880C8
:1001F000704780F30888704740BA7047C0BA7047AC
:1002000010B54FF4A06005F06BFB02F007FE4FF451
:10021000E13002F0ECFE41F2883002F03CFE09A031
:1002200007F0DAF800F0FCF900F09AF928B10BA019
:1002300007F0D2F8164800F03BF800F04BF8002029
:1002400010BD0000476F696E6720746F20626F6F8A
:1002500074202E2E2E200D0A00000000464154204E
:10026000696E6974206661696C202C20626F6F74FE
:10027000696E672066726F6D206F6C6420666972AC
:100280006D77617265202E2E2E200D0A0000000071
:1002900000800008704700BFFEE700BFFEE700BF18
:1002A000FEE700BFFEE770477047704770470000E9
:1002B00010B50446206849490840B0F1005F08D1F4
:1002C0006068474908602068FFF787FF4448006876
:1002D000804710BDF8B543A007F07EF8012249A180
:1002E0004C4801F0E2FC0446002C52D14AA007F031
:1002F00073F84FF4967002F0CEFD4D4D6B46AA1484
:100300004C49444801F0A9FD044624B14AA007F035
:1003100063F80120F8BD0098082801D20120F9E710
:1003200015E044492846009A00F0B0F906460EB19F
:100330003046EFE7009805446B464FF400723D49A4
:10034000344801F08AFD04460CB10120E2E7009830
:100350000028E6D12F4801F0CDFF04460CB1012062
:10036000D8E73BA13CA002F09CFB10B13EA007F0F7
:1003700033F82F4941A007F02FF82D48FFF798FFD9
:1003800006E04FF4FA6002F086FD45A007F024F87D
:10039000F7E7274946A007F01FF82548FFF788FF31
:1003A0000020B7E72DE9F047044688469146B4F1AE
:1003B000006F02D94FF0006001E04FF00050054699
:1003C000661B3146284605F0C2FA67682068FFF7C9
:1003D00010FFB8470120BDE8F08700000000FE2FA5
:1003E00018000020426F6F74204669726D77617249
:1003F0006520636865636B696E67202E2E2E200D65
:100400000A000000303A2F6669726D776172652EBE
:1004100062696E00840000204C6F6164696E672021
:100420006669726D77617265202E2E2E0D0A0000AE
:1004300000800008A80200206669726D776172650D
:100440002072656164206661696C200D0A000000FD
:100450006F6C642E62696E006669726D7761726599
:100460002E62696E000000004261642072656E6158
:100470006D65202E2E2E0D0A00000000426F6F7455
:10048000696E672066726F6D206E6577206669728F
:100490006D7761726520307825782E2E2E0D0A003A
:1004A000426F6F74206661696C2E2E2E0D0A00005B
:1004B000426F6F74696E672066726F6D206F6C6437
:1004C000206669726D7761726520307825782E2EEE
:1004D0002E2E2E0D0A00000038B50A222EA1324819
:1004E00001F0E3FB04460CB1012038BD6B460D2240
:1004F0002EA12D4801F09AFD04460CB10120F4E72D
:10050000294801F0F7FE04460CB10120EDE7012275
:1005100021A1254801F0C9FB04460CB10120E4E704
:100520006B460D222549204801F097FC04460CB18A
:100530000120DAE71C4801F0DDFE04460CB1012081
:10054000D3E71E4919A006F0B3FF20B11CA006F0A6
:1005500043FF0120C9E71DA006F03EFF0020C4E7CD
:1005600070B51DA006F038FF002000F0DBF805464E
:1005700025B11FA006F030FF012070BD22490020E8
:1005800001F080FB044624B120A006F025FF0120E5
:10059000F3E70020F1E70000303A2F68656C6C6FDC
:1005A0002E74787400000000D806002048656C6C3A
:1005B0006F20576F726C640A00000000FC08002076
:1005C000666174206661696C0D0A000066617420C2
:1005D000676F6F640D0A0000496E697469616C6928
:1005E0007A696E67206469736B2E2E2E0D0A0000E7
:1005F000496E697469616C697A65206469736B20FE
:100600006661696C0D0A0000A80400204D6F756ECC
:100610007420736463617264206661696C0D0A0002
:1006200010B505F014FB002010BD2DE9F041044683
:100630000F46C4F30A0040B9204605F04DFB0646BC
:10064000042E02D00120BDE8F081C4F30A0104F5B4
:100650000060451A09E0284605F03EFB0646042ED8
:1006600001D00120EFE705F50065E019A842F2D8B6
:10067000254606E02868B0F1FF3F01D00120E2E7FF
:100680002D1DE019A842F5D80020DCE72DE9F04740
:1006900006468946154629463046FFF7C6FF10B183
:1006A0000120BDE8F087C84600240BE058F824106C
:1006B00006EB840005F0E0FB0746042F01D0012083
:1006C000EFE7641CB4EB950FF0D3002408E056F874
:1006D000240058F82410884201D00120E1E7641C6E
:1006E000B4EB950FF3D30020DBE710B54FF40061B6
:1006F0000A4802F011FD0446042C01D0012010BD6F
:100700004FF4006205490648FFF7C0FF0446042C79
:1007100001D00120F3E70020F1E700000C090020E0
:100720000000070870B50546002442A006F054FEFC
:1007300004F08CFF044634B104F044FEFF2004F0C2
:100740003BFE04F044FE0CB1012070BD0020FCE72C
:100750000146002070472DE9F04105460E46174638
:100760001C464FF0000805B914B90420BDE8F0811B
:1007700022463946304605F033F88046B8F1000F7E
:1007800006D004F01FFEFF2004F016FE04F01FFE4A
:10079000B8F1000F01D10020E8E70120E6E72DE9DC
:1007A000F04105460E4617461C464FF0000805B9B5
:1007B00014B90420BDE8F08122463946304605F0E0
:1007C00047F88046B8F1000F01D10020F2E7012080
:1007D000F0E72DE9F04106460F46154616B1002018
:1007E000BDE8F08137B1012F1AD0022F0FD0032FAF
:1007F0001BD111E000201649086004F010FE08B972
:10080000002400E001240120114908600FE04FF4AA
:100810000070288000240AE008202880002406E0D8
:1008200004F0D9FE2860002401E0042400BF00BFCA
:100830002046D5E7496E697469616C697A696E67AB
:1008400020736463617264202E2E2E0D0A00000056
:10085000900121424FF00F30704770B503460C46AF
:1008600003E014F8015B03F8015B151EA2F101021D
:10087000F7D170BD30B5034601E003F8011B141E2B
:10088000A2F10102F9D130BDF0B503461C460D4678
:10089000002000BF161EA2F1010207D014F8017B50
:1008A00015F801CBA7EB0C06301EF3D0F0BD0246C5
:1008B00000E0521C107810B110788842F9D11078FD
:1008C00070472DE9F04104460D46E66AAE422FD04E
:1008D000207908B360780123324604F13001FFF734
:1008E0005EFF10B10120BDE8F08100202071A169F8
:1008F000206A0844B0420FD9E7780AE0A0690644AC
:1009000060780123324604F13001FFF748FF781E7A
:10091000C7B2012FF2DC00BF55B1607801232A462F
:1009200004F13001FFF717FF08B10120DBE7E562B2
:100930000020D8E770B5044600212046FFF7C1FF2C
:100940000546002D59D1207803284FD1A07A0028E0
:100950004CD00020E0624FF40072002104F130001E
:10096000FFF788FF552184F82E12AA2184F82F1250
:10097000522084F83000522131200155612132206B
:100980000155412133200155722184F8141284F855
:100990001512412184F81612612184F81712217C66
:1009A00084F81812208A010A84F819122069010CAF
:1009B00084F81A122069010E84F81B12217B84F836
:1009C0001C12A089010A84F81D12E068010C84F849
:1009D0001E12E068010E84F81F126078012304F1F2
:1009E00030016269FFF7DBFE0020A0726078002210
:1009F0001146FFF7EEFE00B10125284670BD2DE936
:100A0000F04105460C46022C02D3E869A04202D808
:100A10000120BDE8F0812F6A2878012804D002283F
:100A20002AD0032870D140E0264606EB560607EB95
:100A300056212846FFF745FF00B165E0C6F30801DF
:100A400005F1300010F80180761C07EB562128468E
:100A5000FFF737FF00B157E0C6F3080105F130009A
:100A6000405C48EA002804F0010010B14FEA181079
:100A7000CFE7C8F30B00CCE707EB14212846FFF7BC
:100A800020FF00B140E040F2FF1000EA440105F110
:100A90003000415C40F2FF1000EA440205F13000F2
:100AA0001044407841EA0020B3E707EBD411284610
:100AB000FFF707FF00B127E040F2FF1000EA8401D2
:100AC00005F130000844C078010640F2FF1000EA4A
:100AD000840205F130001044807841EA004140F280
:100AE000FF1000EA840205F130001044407841EA2A
:100AF000002040F2FF1101EA840205F13001895C17
:100B0000084320F0704084E700BF4FF0FF3080E7DB
:100B10002DE9F04705460C461646022C02D3E8693B
:100B2000A04201D8022793E0D5F820A02878012818
:100B300004D0022841D003287DD157E0A04608EB1D
:100B400058080AEB58212846FFF7BBFE074607B1B5
:100B50007BE0C8F3080105F1300001EB000904F067
:100B6000010028B1F1B299F8000061F31F1000E014
:100B7000304689F8000008F10108012028710AEBCD
:100B800058212846FFF79DFE074607B15DE0C8F3F0
:100B9000080105F1300001EB000904F0010010B17B
:100BA000C6F3071006E099F8000000F0F000C6F365
:100BB0000321084389F8000047E00AEB1421284686
:100BC000FFF77FFE074607B13FE040F2FF1000EA63
:100BD000440205F130008654310A40F2FF1000EA69
:100BE000440205F13000104441702EE00AEBD411AC
:100BF0002846FFF766FE074607B126E040F2FF10E1
:100C000000EA840205F130008654310A40F2FF10F8
:100C100000EA840205F1300010444170310C40F2CA
:100C2000FF1000EA840205F1300010448170310E9B
:100C300040F2FF1000E006E000EA840205F1300017
:100C40001044C17001E0022700BF00BF01202871DD
:100C50003846BDE8F0872DE9F04104460E46022EE5
:100C600002D3E069B04201D8022725E000271FE047
:100C700031462046FFF7C3FE054605B91BE0012DAE
:100C800001D1022717E0681C08B9012713E00022F0
:100C900031462046FFF73CFF074607B10BE02069CD
:100CA000401C20B12069401C20610120A0722E460A
:100CB000E069B042DCD800BF3846BDE8F0812DE9DC
:100CC000F04705468846D5F81C90B8F1000F05D1CD
:100CD000EE680EB14E4510D301260EE0414628467F
:100CE000FFF78DFE0746022F02D20120BDE8F087F4
:100CF0004F4501D23846F9E74646344600BF641CEA
:100D00004C4504D30224B44201D90020EEE7214629
:100D10002846FFF774FE074607B909E0781C08B1BA
:100D2000012F01D13846E1E7B442E8D10020DDE7E8
:100D300000BF6FF0704221462846FFF7E9FE10B170
:100D40004FF0FF30D2E7B8F1000F08D022464146FD
:100D50002846FFF7DDFE10B14FF0FF30C6E7EC602C
:100D60002869401C20B12869401E28610120A87212
:100D70002046BBE70246891ED069801E884201D802
:100D8000002070479378906A01FB0300F9E72DE992
:100D9000F04104460E46E680A568012D03D0206888
:100DA000C069A84202D80220BDE8F0812DB92068B0
:100DB0000078032801D12068456A65B9E56020689C
:100DC0000089B04201DC0220EEE72068406A00EBB7
:100DD0001610206120E020688078070112E0294683
:100DE0002068FFF70CFE0546681C08B90120DBE708
:100DF000022D03D32068C069A84201D80220D3E79E
:100E0000F01B86B2BE42EADAE56029462068FFF7A9
:100E1000B1FF00EB161020612068303006F00F01A2
:100E200000EB411060610020BEE72DE9F04104466F
:100E30008846E088401C86B20EB1206910B90420B3
:100E4000BDE8F08106F00F0000286FD12069401C3A
:100E50002061E06828B920680089B04266DC04207F
:100E6000EEE720688078401E00EA161000285DD169
:100E7000E1682068FFF7C3FD0546012D01D8022077
:100E8000DEE7681C08B90120DAE72068C069A842DB
:100E900046D8B8F1000F01D10420D1E7E1682068FD
:100EA000FFF70DFF05460DB90720C9E7012D01D158
:100EB0000220C5E7681C08B90120C1E700212068AD
:100EC000FFF7FFFC08B10120BAE7216801F130000B
:100ED0004FF400720021FFF7CDFC29462068FFF790
:100EE00049FF2168C862002710E0012021680871CD
:100EF00000212068FFF7E5FC08B10120A0E7206889
:100F0000C06A401C2168C862781CC7B2206880781B
:100F1000B842EADC2068C06AC01B2168C86200BF12
:100F2000E56029462068FFF725FF2061E6802068FC
:100F3000303006F00F0100EB4110606100207FE7C8
:100F40002DE9F04107460C46207800F0BF00401E16
:100F500000EB800101EBC008002600BFF849895D65
:100F6000615CF74A925D2244527841EA022002F025
:100F7000F6F80546B8F1FF0F08DA414608F1010816
:100F800037F8110002F0EBF8A84202D00020BDE8CB
:100F9000F081701C06460D2801DA002DDED10120FB
:100FA000F5E770B50346087800F03F00401E00EBFF
:100FB000800606EBC002002400BFFF2A01DB0020F0
:100FC00070BDDF48005D085CDD4E365D0E4476780E
:100FD00040EA062505B907E01046521C23F81050D8
:100FE000601C04460D28E8DB00BF087800F04000D4
:100FF00030B1FF2A01DB0020E2E7002023F81200D5
:101000000120DDE7F0B504461D464D730F27CF7272
:1010100000270F738F76BC4681F81BC0571E07EB65
:10102000870C0CEBC706002738463B4600BF4FF63F
:10103000FF77B84203D03746761C34F81700DFF844
:1010400000C31CF803C001F80C000712DFF8F0C25F
:101050001CF803C08C448CF8017008B94FF6FF707F
:101060005F1C3B460D2FE2DB4FF6FF77B84202D004
:1010700034F816700FB942F040020A70F0BD2DE945
:10108000FC470546894690461E460B22494628469F
:10109000FFF7E3FB052E0BDD00BF701000EBC63140
:1010A00038F8022B881886B2B8F800000028F4D16E
:1010B000072700BF0A2096FBF0F100FB11603030DB
:1010C000C2B238467F1E0DF800200A2096FBF0F0D1
:1010D00086B2002EEED17E200DF80700002411E02C
:1010E000285D812802DB285D9F2805DD285DE0283A
:1010F00007DB285DFC2804DC781EA04200D106E056
:10110000641C641CBC4202DA285D2028E8D100BFC0
:1011100000BF082F04DA38467F1C1DF8000000E0ED
:1011200020202146641C6854082CF2DBBDE8FC87B3
:1011300030B5014600200B2200BF431003EBC01462
:1011400011F8015B6319D8B2531E1A1EF5D130BDD8
:101150002DE9F05F044600212046FFF718FE804687
:10116000B8F1000F02D04046BDE8F09FFF27BB4614
:10117000A069C07A00F0010A00BF21692068FFF76A
:10118000A0FB8046B8F1000F00D052E065692E78D0
:1011900016B94FF004084CE0E87A00F03F09E52E5C
:1011A00005D009F0080020B1B9F10F0F01D0FF27D9
:1011B00037E0B9F10F0F1DD1E06980B306F04000B0
:1011C00030B195F80DB006F0BF063746E0882084B0
:1011D000BE420CD1687B584509D1BAF1000F04D04A
:1011E0002946E069FFF7ACFE08B1781E00E0FF2059
:1011F000C7B216E027B92846FFF79AFF584502D034
:101200004FF6FF702084BAF1000F01D047B910E00B
:101210000B222846A169FFF737FB08B909E000E077
:10122000FF2700212046FFF700FE8046B8F1000F9F
:10123000A3D000BF404697E72DE9F04704464FF0A2
:10124000FF09CA4604274CE021692068FFF739FBF3
:10125000074607B148E0666935780DB9042743E0D1
:10126000F07A00F03F08E52D07D02E2D05D008F0CC
:10127000080028B1B8F10F0F02D04FF0FF0929E0A4
:10128000B8F10F0F1AD105F0400030B196F80DA05B
:1012900005F0BF05A946E08820844D450AD1707B42
:1012A000504507D13146E069FFF77BFE10B1A9F147
:1012B000010000E0FF2000F0FF090BE0B9F1000F92
:1012C00004D13046FFF734FF504502D04FF6FF708F
:1012D000208409E000212046FFF7A7FD074607B15B
:1012E00002E020690028AFD100BF0FB100202061CB
:1012F0003846BDE8F0872DE9F04F85B00446D4F8B4
:101300001880D4F81CB00C22414601A8FFF7A5FABA
:1013100000BF9DF80F0000F0010040B3002088F8E6
:101320000B00E06101270FE03B465A4601A9404609
:10133000FFF7A5FE2046FFF70BFF054615B105E0B8
:10134000AC760008781C87B2642FEDDB00BF642FF9
:1013500003D1072005B0BDE8F08F042D01D0284649
:10136000F8E79DF80F0088F80B00C4F81CB09DF852
:101370000F0000F0020070B1002601E0701C86B280
:101380003BF816000028F9D106F119000D2190FB59
:10139000F1F086B200E0012600212046FFF7F7FCBD
:1013A00005460DB12846D5E700200746049000BF4A
:1013B00021692068FFF785FA054605B119E06069E3
:1013C00090F80090B9F1E50F02D0B9F1000F08D103
:1013D0000FB9E0880490781C80B20746B04201D172
:1013E00007E0002701212046FFF71FFD0546002DDD
:1013F000DED000BF4DBB012E27DD20460499FFF74C
:10140000C6FC05460DBBA069FFF792FE0090701E5A
:1014100086B200BF21692068FFF753FA054605B17F
:1014200012E0F2B26169E069009BFFF7EBFD012079
:101430002168087100212046FFF7F7FC05461DB919
:10144000701E80B2061EE5D100BFD5B921692068A3
:10145000FFF737FA0546A5B9D4F814A020220021D9
:101460005046FFF707FA0B225046A169FFF7F5F93E
:10147000A069C07A00F018008AF80C0001202168E9
:101480000871284666E770B50446E688208C4FF65A
:10149000FF72904201D1304600E0208C0146204688
:1014A000FFF775FC0546E5B900BF21692068FFF725
:1014B00008FA054605B110E0E520616908700120D1
:1014C00021680871E088B04200DB06E00021204678
:1014D000FFF7ABFC0546002DE7D000BF042D00D17F
:1014E0000225284670BD2DE9F34F83B081460020C8
:1014F00005460746049800680190D9F81CA000BF73
:1015000038467F1C01990C5C202C03DB2F2C01D06A
:101510005C2C00D131E0FF2D03DB062005B0BDE8D7
:10152000F08FE4B2812C02DBE0B29F2805DDE0B24F
:10153000E02814DBE0B2FC2811DC38467F1C019A5D
:10154000115C402901DB7E2905DD802901DBFC29B6
:1015500001DD0620E2E701EB042084B200BF802C0D
:1015600006DA2146F8A0FFF7A2F908B10620D5E770
:1015700028466D1C2AF81040C2E700BF0198C11927
:1015800004980160202C01DA042000E000200646C7
:1015900008E0681E3AF81040202C02D02E2C00D013
:1015A00002E06D1E002DF4D100BF0DB90620B5E795
:1015B00000202AF815000B222021D9F81800FFF787
:1015C00059F9002700E07F1C3AF817002028FAD0CC
:1015D0003AF817002E28F6D00FB146F0030600E0C7
:1015E0006D1E25B1681E3AF810002E28F8D14FF074
:1015F0000008CDF808804FF0080B00BF38467F1C6C
:101600003AF8104004B965E0202C03D02E2C04D108
:10161000AF4202D046F00306F0E70298584501DADF
:10162000AF4216D1BBF10B0F02D146F0030651E0D9
:10163000AF4201D046F00306AF4200DD4AE02F463C
:10164000082002904FF00B0B4FEA88604FEA1068B9
:10165000D4E7802C09DB204601F081FD00210090B9
:1016600001F080FD044646F00206FF2C11DDABF1CF
:1016700001000299884204DC46F00306CDF808B068
:10168000BCE72212D9F818300298411C02911A5472
:1016900019E024B12146AFA0FFF709F918B15F2482
:1016A00046F003060FE0412C04DB5A2C02DC48F024
:1016B000020808E0612C06DB7A2C04DC48F0010803
:1016C000A4F1200084B2D9F818300298411C02918C
:1016D0001C5493E700BFD9F818000078E52803D11F
:1016E0000520D9F818100870BBF1080F03D14FEA94
:1016F00088604FEA106808F00C000C2803D008F04E
:101700000300032801D146F0020606F0020058B992
:1017100008F00300012801D146F0100608F00C0083
:10172000042801D146F00806D9F81800C672002036
:10173000F4E62DE9FC5F81460F4607F10908D9F868
:101740001000002851D0D9F81440207B01900025CA
:1017500014E0665D202E00D112E0052E00D1E526B2
:10176000019800F0080030B1412E04DB5A2E02DC53
:1017700006F12000C6B208F8016B6D1C082DE8DBED
:1017800000BF207A202819D02E2008F8010B082548
:1017900011E0665D202E00D10FE0019800F01000EE
:1017A00030B1412E04DB5A2E02DC06F12000C6B215
:1017B00008F8016B6D1C0B2DEBDB00BFE07A387273
:1017C000E07F0106A07F41EA0041607F41EA0020FE
:1017D000217F08433860217E607E41EA0020B88086
:1017E000A17DE07D41EA0020F880002088F800001B
:1017F000D7F818A0BAF1000F36D00025D9F810009C
:1018000070B3B9F820004FF6FF71884228D0D9F89C
:101810001C0000901CE00021584601F0A3FC834608
:10182000BBF1000F01D1002519E0BBF1FF0F05DD71
:101830004FEA2B2228466D1C0AF80020F869401E4A
:10184000A84201DC00250AE028466D1C0AF800B019
:10185000009830F8021BB1F1000B0090DBD100BF03
:1018600000200AF8050000BFBDE8FC9F2DE9F34108
:101870000446019800782F2803D0019800785C284E
:1018800002D10198401C01900020A06001980078CE
:10189000202807D200212046FFF779FA06460020CB
:1018A00060612BE000BF01A92046FFF71CFE064641
:1018B00006B122E02046FFF74BFC0646A069C07A3D
:1018C00000F0040726B1042E01D107B9052614E063
:1018D00007B112E06569E87A00F0100008B9052642
:1018E0000BE0A97EE87E41EA00212A7D687D42EA7C
:1018F000002041EA0040A060D5E700BF3046BDE8C7
:10190000FC8170B504460D46607801232A4604F137
:101910003001FEF720FF08B1032070BD94F82E12AD
:1019200094F82F0241EA00204AF65521884201D05E
:101930000220F2E70322094904F16600FEF7A4FF42
:1019400070B90020E9E70000222A3A3C3E3F7C7F44
:10195000000000002B2C3B5B3D5D0000B9760008C9
:101960000322FE4904F18200FEF78EFF30B994F89D
:10197000580000F0800008B90020CEE70120CCE735
:101980002DE9F74F84B00498D0F800B09BF8000020
:10199000A0F13009B9F1090F09D89BF801003A28E4
:1019A00005D10BF1020B0498C0F800B001E04FF034
:1019B0000009B9F1000F03D00B2007B0BDE8F08F8C
:1019C000E74850F82940059804600CB90C20F4E76A
:1019D000207878B16078FEF7BBFE804608F0010001
:1019E00040B9069820B108F0040008B10A20E4E7E5
:1019F0000020E2E70020207084F801906078FEF774
:101A000091FE804608F0010008B10320D5E7069852
:101A100020B108F0040008B10A20CEE74FF0000A18
:101A200051462046FFF76DFF0546012D13D104F501
:101A3000F777387978B1F87A0106B87A41EA004147
:101A4000787A41EA0020397A40EA010A5146204674
:101A5000FFF757FF0546032D01D10120ADE745B93A
:101A60003B20015D94F83C0041EA0020B0F5007F86
:101A700001D00D20A1E74620015D94F8470041EA1E
:101A8000002676B994F85700010694F8560041EA0A
:101A9000004194F8550041EA002094F8541040EABF
:101AA0000106A6614020005DE070E07846433E20DC
:101AB000015D94F83F0041EA0020504420623D203F
:101AC000005DA0704120015D94F8420041EA0020D1
:101AD00020814320015D94F8440041EA00200290F7
:101AE000029870B994F85300010694F8520041EA44
:101AF000004194F8510041EA002094F85010084346
:101B000002903E20015D94F83F0041EA00210298D6
:101B1000401A801B2189A0EB1110A178B0FBF1F0D5
:101B2000801C0190E061012540F6F7710198884220
:101B300000D302254FF6F7710198884200D30325A0
:101B4000032D0FD194F85F00010694F85E0041EA7E
:101B5000004194F85D0041EA002094F85C100843CD
:101B6000606202E0206A30446062206A3044218969
:101B700000EB1110A0624FF0FF30206100202071B7
:101B8000032D5CD1A07294F8601094F8610041EAD2
:101B90000020504460616078012304F130016269E3
:101BA000FEF7D9FDF0BB94F82E1294F82F0241EA0B
:101BB00000204AF65521884241D13320005D0106BC
:101BC0003220005D41EA00413120005D41EA002001
:101BD00094F8301008436349884230D194F81702D2
:101BE000010694F8160241EA004194F8150241EA10
:101BF000002094F8141208435B4988421FD194F8DE
:101C00001F02010694F81E0241EA004194F81D02E9
:101C100041EA002094F81C120843E06094F81B028B
:101C2000010600E00BE094F81A0241EA004194F842
:101C3000190241EA002094F8181208432061257027
:101C40000020E06249480088401C80B24749088073
:101C5000E080002003900398AFE670B504460D467F
:101C600024B1207810B1E088A84201D0092070BDCD
:101C70006078FEF76DFD00F0010008B10320F6E783
:101C80000020F4E70246012A01DB0B2070473448AC
:101C900050F822300BB10020187009B100200870F4
:101CA0002F4840F822100020F0E72DE9F747ADF566
:101CB0000D7D054616460DF1040A0020286006F049
:101CC0001F0606F01E0284A98EA8FFF759FE0746DC
:101CD00027B138460DF5107DBDE8F08781A88A90C0
:101CE000CDF82CA284A88E99FFF7C0FD074606F018
:101CF0001C00002874D067B1042F03D184A8FFF71B
:101D0000FAFA07460FB13846E4E746F00806899C20
:101D10004CE006F0040008B10820DBE7899C1CB108
:101D2000E07A00F0110008B10720D3E706F00800C0
:101D300078B3A17EE07E41EA0021227D607D42EA07
:101D4000002041EA00490020207500216175A0763D
:101D5000E17620776177A177E17709E0B97600082D
:101D60001C0000205252614172724161200000202B
:101D70000120849908718498D0F82C80B9F1000F63
:101D80000CD049468498FEF766FF074617B13846DF
:101D9000A0E70BE0A9F101008499C860414684984E
:101DA000FEF78FFD07460FB1384693E706F00800AF
:101DB000A0B10020E072FEF74DFD804684F80E8051
:101DC0004FEA1821E1734FEA184121744FEA186174
:101DD000617401208499087146F0200614E0FFE741
:101DE0000FB1384676E7899C1CB1E07A00F010000C
:101DF00008B104206EE706F0020028B1E07A00F096
:101E0000010008B1072065E78498C06AE8618998F5
:101E10002862AE71A17EE07E41EA0021227D607DD4
:101E200042EA002041EA00402861E07F0106A07FED
:101E300041EA0041607F41EA0020217F0843E860D9
:101E40000020A860FF20E8710020A8618498286025
:101E50008498C088A88000203CE72DE9FF4F83B01C
:101E6000044615469946DDF810A00020C9F8000088
:101E7000A1882068FFF7F1FE0290029818B102983D
:101E800007B0BDE8F08FA07900F0800008B1022013
:101E9000F6E7A07900F0010008B90720F0E7D4E9DF
:101EA0000210401A01900198854200D9019DB8E0C6
:101EB0002089C0F3080000287BD1E0792168897867
:101EC00088421EDBA06808B9206903E061692068C8
:101ED000FEF795FD8346BBF1010F05D8A07940F0D0
:101EE0008000A0710220CBE70BF1010028B9A07996
:101EF00040F08000A0710120C2E7C4F814B00020B7
:101F0000E07161692068FEF735FF06462EB9A079B9
:101F100040F08000A0710220B2E7E07906444FEA69
:101F20005528B8F1000F31D0E07940442168897814
:101F3000884204D920688078E179A0EB010808F094
:101F4000FF032168487832465146FEF704FC28B169
:101F5000A07940F08000A071012091E7A07900F005
:101F6000400068B1A069801B404509D2A169891B66
:101F70000AEB41204FF4007204F12401FEF76DFCDE
:101F8000E0794044E0714FEA482740E0A07900F052
:101F9000400098B121684878012304F12401A26926
:101FA000FEF7FDFB30B1A07940F08000A071012068
:101FB00066E719E0A07920F04000A071A069B04266
:101FC0000ED0216848780123324604F12401FEF73F
:101FD000C2FB28B1A07940F08000A07101204FE73A
:101FE000A661E079401CE0712089C0F30800C0F5CB
:101FF0000077AF4200D92F462089C0F3080204F1D0
:10200000240011183A465046FEF727FC00BFBA4498
:10201000A0683844A060D9F800003844C9F800002E
:10202000ED1B002D7FF444AF002029E72DE9FF4F81
:1020300081B0044615469A46DDF808B00020CAF87B
:102040000000A1882068FFF708FE0090009818B1F2
:10205000009805B0BDE8F08FA07900F0800008B1CD
:102060000220F6E7A07900F0020008B90720F0E7A7
:10207000E0682844E168884200D20025CEE020894B
:10208000C0F30800002875D1E0792168897888427A
:102090002CDBA06858B9D4F81090B9F1000F0BD11F
:1020A00000212068FEF70BFE8146206104E0616993
:1020B0002068FEF704FE8146B9F1000F00D1B0E0C0
:1020C000B9F1010F05D1A07940F08000A071022084
:1020D000BFE709F1010028B9A07940F08000A071A4
:1020E0000120B6E7C4F814900020E071A07900F058
:1020F000400090B121684878012304F12401A269CD
:10210000FEF74DFB28B1A07940F08000A0710120BE
:102110009FE7A07920F04000A07161692068FEF778
:1021200029FE06462EB9A07940F08000A071022059
:102130008FE7E07906444FEA5528B8F1000F32D016
:10214000E079404421688978884204D92068807801
:10215000E179A0EB010808F0FF03216848783246D6
:102160005946FEF71CFB30B1A07940F08000A07109
:1021700001206EE731E0A069801B40450DD2A069C7
:10218000801B0BEB40214FF4007204F12400FEF79A
:1021900064FBA07920F04000A071E0794044E07138
:1021A0004FEA482730E0A069B04212D0D4E90201DA
:1021B00088420ED2216848780123324604F1240176
:1021C000FEF7C9FA28B1A07940F08000A071012083
:1021D0003FE7A661E079401CE0712089C0F3080068
:1021E000C0F50077AF4200D92F462189C1F308021C
:1021F00004F1240150183A465946FEF72EFBA07907
:1022000040F04000A07100BFBB44A0683844A0600B
:10221000DAF800003844CAF80000ED1B002D7FF406
:102220002EAF00BFD4E90201884201D9A068E06066
:10223000A07940F02000A07100200AE72DE9F041CC
:102240000446A1882068FFF708FD0746002F4FD1FC
:10225000A07900F0200000284AD0A07900F04000CA
:1022600078B121684878012304F12401A269FEF7BE
:1022700096FA10B10120BDE8F081A07920F040006D
:10228000A071E1692068FEF71CFB0746002F2FD1E3
:10229000256AE87A40F02000E872207B2877A08940
:1022A000010A6977E068010CA977E068010EE97717
:1022B000207CA876208A010AE9762069000C28751E
:1022C0002069010E6975FEF7C5FA0646AE75310A3A
:1022D000E975310C2976310E6976A07920F020005D
:1022E000A0710120216808712068FEF723FB0746D2
:1022F0003846C0E770B504462046FFF79FFF054605
:102300000DB900202060284670BD2DE9F047044635
:102310000E46A1882068FFF7A0FC8246BAF1000FA4
:1023200002D05046BDE8F087A07900F0800008B1E7
:102330000220F7E7E068B04204D2A07900F0020082
:1023400000B9E668D4F808904FF00008C4F8088097
:10235000FF20E071002E7DD0206880784702B9F11F
:10236000000F11D0701EB0FBF7F1A9F10100B0FB16
:10237000F7F0814208D3A9F10100791E8843A060DB
:10238000A068361A656918E02569ADB90021206892
:10239000FEF795FC0546012D05D1A07940F080009F
:1023A000A0710220BEE7681C28B9A07940F0800027
:1023B000A0710120B6E725616561002D4AD029E0B2
:1023C000A07900F0020038B129462068FEF777FCBA
:1023D000054635B93E461FE029462068FEF70FFB4B
:1023E0000546681C28B9A07940F08000A071012042
:1023F00098E7012D03D92068C069A84205D8A079C3
:1024000040F08000A07102208CE76561A06838442C
:10241000A060F61BBE42D3D800BFA0683044A060C5
:10242000C6F34720E071C6F3080068B1294620686A
:10243000FEF7A0FC8046B8F1000F06D1A07940F06D
:102440008000A07102206DE704E0E0798044E0792B
:10245000401CE0712089C0F3080050B3A0694045DA
:1024600027D0A07900F0400090B12168487801237E
:1024700004F12401A269FEF792F928B1A07940F095
:102480008000A07101204DE7A07920F04000A071EC
:10249000216848780123424604F12401FEF75BF9E4
:1024A00028B1A07940F08000A07101203AE7C4F87B
:1024B0001880D4E90201884205D9A068E060A079BB
:1024C00040F02000A07150462CE7F3B5ADF5037D38
:1024D00004466F460022214684A8FFF751FA0646BB
:1024E0003EBB80A8A061E76120468499FFF7BEF952
:1024F0000646DEB9656985B1E87A00F0100058B18A
:10250000A97EE87E41EA00212A7D687D42EA00201A
:1025100041EA0040A06000E005263EB92068C0887E
:10252000A08000212046FEF732FC0646042E00D192
:10253000052630460DF5057DF0BDF0B5ADF5037D02
:1025400004460E466F46A1882068FFF786FB0546C5
:102550000DBB80A8A061E7612EB900212046FEF7DF
:1025600016FC054617E02046FEF766FE0546042DDC
:1025700002D10020206100256DB931462046FFF7C9
:10258000D8F800212046FEF750FC0546042D02D164
:1025900000202061002528460DF5037DF0BD73B5B0
:1025A000ADF50C7D0D466E46002283A98CA8FFF781
:1025B000E7F9044684B980A889908A9683A88C9903
:1025C000FFF754F904463CB9889820B1294683A8FE
:1025D000FFF7AFF800E0062420460DF50E7D70BD34
:1025E0002DE9F74F82B08B4614460022214602A8FF
:1025F000FFF7C6F90190019818B1019805B0BDE840
:10260000F08F20680169C069801E814205D820686A
:102610000069CBF800000020F0E7206890F800A0E7
:102620000026BAF1010F1BD1022700BF39462068EE
:10263000FEF7E5F9804608F1010008B90120DDE761
:10264000B8F1010F01D10220D8E7B8F1000F00D195
:10265000761C781C07462168C9698842E6D33BE0AE
:102660002068C7692068006A00904FF000090025C3
:1026700000BFB9F1000F10D1009A531C114600930E
:102680002068FEF71EF90190019808B10198B5E79E
:10269000206800F130054FF40079BAF1020F09D13A
:1026A0002878697840EA012000B9761CAD1CA9F1B0
:1026B00002090EE0E8780006A97840EA014069784E
:1026C00040EA01202978084300B9761C2D1DA9F1A4
:1026D0000409781E071ECCD120680661BAF1030FE9
:1026E00002D1012021688872CBF80060002085E7C4
:1026F00070B50446A1882068FFF7AFFA06460EB110
:10270000304670BDA07900F0800008B10220F8E7E3
:10271000A07900F0020008B90720F2E7D4E902101E
:1027200088422DD9A068E060A07940F02000A07117
:10273000A06838B921692068FEF78DFA06460020A6
:1027400020611DE061692068FEF759F90546002601
:10275000681C00B90126012D00D1022686B9206827
:10276000C069A8420CD96FF0704261692068FEF719
:10277000CFF9064626B929462068FEF76CFA0646C8
:102780001EB1A07940F08000A0713046B9E7F1B5E4
:10279000ADF5167D01AF01228DA996A8FFF7F0F8DF
:1027A00004461CB120460DF5177DF0BD81A893901D
:1027B00094978DA89699FFF759F8044600BF0CB17D
:1027C0002046F0E7929D0DB90620ECE7E87A00F08C
:1027D000010008B10720E6E7A97EE87E41EA002172
:1027E0002A7D687D42EA002041EA0046E87A00F04E
:1027F0001000D8B1022E01D20220D4E724228DA9E4
:1028000084A8FEF72AF88696002184A8FEF7BFFA6E
:1028100004460CB12046C6E784A8FEF70DFD044629
:1028200004B90724042C01D02046BCE78DA8FEF78C
:102830002AFE044654B926B131468D98FEF70BFAAC
:1028400004461CB98D98FEF775F804462046AAE7A1
:102850002DE9F14FADF50C7DEB46012283A98CA843
:10286000FFF78EF8074627B138460DF50D7DBDE818
:10287000F08F80A88990CDF828B283A88C99FEF7B4
:10288000F5FF074607B9082700BF042F01D03846D7
:10289000EBE700218398FEF712FA0546002705B9F9
:1028A0000727012D00D10227681C00B9012727B98D
:1028B00000218398FEF705F807460FB13846D4E7A4
:1028C00029468398FEF756FA8246839800F1300431
:1028D0004FF4007200212046FDF7CCFF0B2220218F
:1028E0002046FDF7C7FF2E2020701020E072FDF774
:1028F000B1FF0646A675310AE175310C2176310E1D
:102900006176A576290AE176280C2075290E617575
:102910002022214604F12000FDF79FFF2E2084F89D
:102920002100DDF8148283980078032805D183986C
:10293000406A404501D14FF0000884F83A804FEAE0
:10294000182184F83B10C8F30741342001554FEAA1
:10295000186184F835104FF0000919E08398C0F829
:102960002CA00AF1010A01208399087100218398A3
:10297000FDF7A7FF07460FB1384676E74FF4007220
:1029800000212046FDF776FF09F1010000F0FF0964
:10299000839880784845E1DC83A8FEF7ACFC0746C5
:1029A00027B129468398FEF756F917E0889C102036
:1029B000E072A675310AE175310C2176310E61762F
:1029C000A576290AE176280C2075290E617501206B
:1029D000839908718398FDF7ADFF0746384644E7B1
:1029E0002DE9F741ADF50D7D0F4614460DF10408B4
:1029F000012284A98DA8FEF7C3FF0646EEB981A87F
:102A00008A90CDF82C8284A88D99FEF72FFF064678
:102A100000BF96B9899D0DB906260EE004F0270483
:102A200007EA0400E97AA1430843E8720120849987
:102A300008718498FDF77EFF064630460DF5107D3F
:102A4000BDE8F081F3B5ADF50D7D0D4601AF012276
:102A500084A98DA8FEF794FF0646F6B981A88A904E
:102A60008B9784A88D99FEF701FF064600BFA6B993
:102A7000899C0CB9062610E0A879A075E888011297
:102A8000E17528792076A888011261760120849961
:102A900008718498FDF74EFF064630460DF50F7D10
:102AA000F0BD2DE9F341ADF51C7D0F460DF11C087D
:102AB00087A89990CDF86882012293A99CA8FEF777
:102AC0005FFF05463DB993988A9093A89C99FEF7BD
:102AD000CDFE054600BF25B128460DF51E7DBDE89B
:102AE000F081989808B90420F7E7989800F10B0155
:102AF000152201A8FDF7B1FE242293A98AA8FDF7AB
:102B0000ACFE39468AA8FEF7B1FE054605B9082590
:102B1000042D59D18AA8FEF7EEFB0546002D53D1AE
:102B20008F9C13220DF1060104F10D00FDF795FEB7
:102B30009DF8040040F02000E07201209399087194
:102B4000E07A00F01000002834D0237D627D43EA53
:102B5000022294F81AC0E37E4CEA032342EA0301FE
:102B60008A98FEF707F906460EB9022522E031469B
:102B70008A98FDF7A6FE05468A9800F15004CDB963
:102B800060782E2816D18A980078032806D18A9971
:102B90008C98496A884201D1002000E08C98064652
:102BA000A676310AE176300C2075310E6175012070
:102BB0008A99087145B993A8FEF765FC05461DB9C9
:102BC0009398FDF7B7FE0546284686E72DE9F843BA
:102BD00006460F469046002534460FE06B4601221C
:102BE00021464046FFF739F90098012800D008E057
:102BF0006D1C14F8011B0A2900D102E0781EA842BE
:102C0000ECDC00BF0020207015B13046BDE8F88331
:102C10000020FBE77CB505460C460CB928467CBD78
:102C2000E8B2009001AB012269462046FFF7FEF9A9
:102C3000019808B12846F2E74FF0FF30EFE770B592
:102C400004460E4600250AE020783146FFF7E2FFF1
:102C5000401C10B94FF0FF3070BD641C6D1C207813
:102C60000028F1D12846F7E70FB42DE9F04F87B0DF
:102C7000834612A80690002080460190BAE0119881
:102C800010F8014B119004B9B9E0252C0AD059462F
:102C90002046FFF7BFFF804608F1010008B14FF062
:102CA0000108A4E0002006468246119810F8014B66
:102CB0001190302C04D10126119810F8014B11907D
:102CC00009E0A4F130000AEB8A0100EB410A1198F7
:102CD00010F8014B1190302C01DB392CF1DD6C2CFC
:102CE00005D146F00206119810F8014B1190732C93
:102CF00007D1069901C906915946FFF7A0FF804602
:102D000075E0632C0CD1069901C906915946FFF76D
:102D100081FF804608F1010008B14FF0010866E02C
:102D20004FF00009642C01D14FF00A09752C01D134
:102D30004FF00A09582C01D14FF01009B9F1000FDA
:102D400000D15CE006F0020018B1069880C8069039
:102D50000DE0642C05D1069800680699091D0691BE
:102D600004E0069800680699091D06910746642C40
:102D700005D107F0004010B17F4246F004060F2550
:102D8000002002A9485500BFB7FBF9F009FB1070FD
:102D90003030C4B2392C01DDE01DC4B2681E0546D6
:102DA00002A90C54B7FBF9F70DB1002FECD13DB1DE
:102DB00006F0040020B12D21681E054602AA115418
:102DC000CAF10F0A09E006F0010008B1302100E065
:102DD0002021681E054602AA11540DB15545F2DCAA
:102DE00002A948195946FFF72AFF804600BF0198FB
:102DF0004044019008F1010000287FF440AF00BF7B
:102E00000020069008F1010028B9404607B0BDE84F
:102E1000F00F5DF814FB0198F8E7000010B56FF0B3
:102E2000040002F0ACFD2E4800682E49B0FBF1F022
:102E30002D4908700846007800EB4001C1EBC01036
:102E40004FF6FF7101EAC0002849088010BD014615
:102E5000254A12784A434FF0E0235A6100229A61D2
:102E60001A46126942F001021A6100BF4FF0E022D7
:102E7000106900F001021AB100F48032002AF5D086
:102E80004FF0E022126922F001024FF0E0231A61B4
:102E900000229A6170470146144A12884A434FF053
:102EA000E0235A6100229A611A46126942F0010237
:102EB0001A6100BF4FF0E022106900F001021AB160
:102EC00000F48032002AF5D04FF0E022126922F09F
:102ED00001024FF0E0231A6100229A61704700005E
:102EE0007000002000127A00220000202400002040
:102EF00070B50546002405E0601CC4B2C82C01DD95
:102F0000002070BD02212F4803F019FF0028F3D0E4
:102F100029462C4803F0C0FE002405E0601CC4B222
:102F2000C82C01DD0020ECE70121264803F007FF53
:102F30000028F3D0234803F0B1FEC0B2E1E708B5A2
:102F4000012141F2040003F05DFCE020ADF8000037
:102F500018208DF8030003208DF8020069461A48F6
:102F600003F094F9E021184803F03DFA00201749D6
:102F700008804FF482704880002088800220C8803A
:102F80000120088140024881382088810020C881C2
:102F9000072008820B4803F0A9FD0121094803F02E
:102FA0004AFEFF20FFF7A4FF08BD10B504460748FE
:102FB00084810146034803F099FD0121014803F093
:102FC0003AFE10BD00300140000801400C11002005
:102FD000014600BF704700BF4B4A128802F0400212
:102FE000002AF9D0C2B2484B1B1D1A80704710B599
:102FF00086B004460121082003F004FC0121880466
:1030000003F00DFC4FF48060ADF8140003208DF840
:10301000160018208DF8170005A93C4803F036F972
:103020004FF40060ADF8140004208DF8170005A9D6
:10303000364803F02BF927208DF8000003208DF887
:1030400001008DF8020001208DF80300684602F0AF
:103050004CFC01940020ADF80800ADF80A00ADF872
:103060000C00ADF810000C20ADF80E0001A92648A8
:1030700003F0DFFE012240F22551234803F071FFE7
:103080000121214803F061FF06B010BD10B540F2E8
:1030900025511D4804F04AF810B31B4803F0C6FF41
:1030A000C4B21B48008800F40040C8B91848008822
:1030B00000F4804060B10A2C03D00020144908803D
:1030C00020E01348008840F400401149088019E0CE
:1030D0000D2C06D10E48008840F480400C49088031
:1030E00010E00B480088C0F30D000A490C54084852
:1030F0000088401C0649088008460088C72801DD72
:103100000020088010BD000000480040000C014075
:103110002C0000201E11002010B502460B460AB9F3
:10312000012010BD1446002102E044F82110491C82
:10313000B1EB930FF9D30020F3E700BFFEE703E004
:1031400011F8012B00F8012B0A78002AF8D102703F
:10315000704710B50446184610BD00BFFEE7014693
:103160000020704702460020704708B531208DF8D6
:10317000000000208DF801008DF8020001208DF87C
:103180000300684602F0B1FB08BD10B594B0FFF72C
:10319000ECFF4FF4A06002F0A3FB00F0F9FA044644
:1031A0002A2C03D1684600F024FB04462A2C05D1C2
:1031B000BDF84C10080400F045FE04462A2C03D14B
:1031C000002000F0D8FD04462A2C03D1002000F096
:1031D0001AFE0446204614B010BD000070B52A2522
:1031E000FE48446B01E0FD48446B04F045000028B4
:1031F000F9D004F0040028B10325042003F035FCC5
:10320000284670BD04F0010028B10125012003F01B
:103210002CFC2846F5E740F2FF5003F026FC284638
:10322000EFE72DE9F04106460F464FF02A08EB483C
:10323000456B01E0E948456B05F045000028F9D0F1
:1032400005F0040038B14FF00308042003F00DFC32
:103250004046BDE8F08105F0010030B14FF00108B3
:10326000012003F002FC4046F3E703F097FBB04275
:1032700003D04FF010084046EBE740F2FF5003F058
:10328000F4FB002003F08EFB044604F4604018B900
:10329000200C38804046DCE704F4005008B11320CD
:1032A000D7E704F4804008B11020D2E704F40040CE
:1032B00008B10F20CDE74046CBE738B52A240120DE
:1032C000009003F03CFB10B92524204638BDC448CB
:1032D0000068042829D00020C24908600220486004
:1032E000C02088600020C8604FF4806008610846F4
:1032F00003F03AFBFFF772FF04462A2C01D0204668
:10330000E4E7002003F04EFBB7490860042003F017
:1033100049FBB5494860082003F044FBB249886086
:103320000C2003F03FFBB049C860AD48006858B1BD
:10333000AB480068012807D0A9480068062803D0D8
:10334000A7480068022817D10020A649086003207A
:103350004860402088600020C8604FF480600861A9
:10336000084603F001FB69460320FFF75AFF0446B5
:103370002A2C01D02046A9E79948006804282FD0BC
:10338000BDF8000099490860BDF8000000049549A7
:10339000086009204860C02088600020C8604FF4A1
:1033A00080600861084603F0DFFAFFF717FF044664
:1033B0002A2C01D0204689E7002003F0F3FA8C493B
:1033C0000860042003F0EEFA89494860082003F001
:1033D000E9FA874988600C2003F0E4FA8449C86060
:1033E0002A24204672E770B52A257C48446B01E008
:1033F0007A48446B04F045000028F9D004F004003A
:1034000028B10325042003F030FB284670BD40F2AC
:10341000FF5003F02AFB2846F8E72DE9F041064665
:103420002A276E48456B01E06C48456B05F0450066
:103430000028F9D005F0040030B10327042003F080
:1034400014FB3846BDE8F08105F0010028B10127E2
:10345000012003F00AFB3846F4E703F09FFAB0427C
:1034600002D010273846EDE740F2FF5003F0FDFA96
:10347000002003F097FA04465E48204008B9384619
:10348000E0E704F0004008B11C20DBE704F08040D6
:1034900008B10920D6E704F0005008B10A20D1E7AE
:1034A00004F0805008B10B20CCE704F0006008B1B4
:1034B0000C20C7E704F0806008B10D20C2E704F0DB
:1034C000807008B10E20BDE704F4000008B10F20A1
:1034D000B8E704F4800008B11020B3E704F400104A
:1034E00008B11120AEE704F4801008B11220A9E75A
:1034F00004F4002008B11320A4E704F4802008B1EC
:1035000014209FE704F4003008B115209AE704F472
:10351000803008B1162095E704F4004008B1172068
:1035200090E704F4804008B118208BE704F40050C1
:1035300008B1192086E704F0080008B11A2081E7D5
:1035400038467FE770B52A2642F210752348446B4F
:1035500002E06D1E2148446B04F0450008B9002DBF
:10356000F7D115B104F0040028B10326042003F0BC
:103570007CFA304670BD04F0400028B12A26402075
:1035800003F073FA3046F5E73046F3E770B52A25C5
:1035900042F2107400E0641E24B1802003F05BFA54
:1035A0000028F8D014B90325284670BD40F2FF501A
:1035B00003F05BFA2846F8E72DE9F0412A240026BB
:1035C000002500274FF00008B2200B4908750020A5
:1035D000086048608860C86008610FE000800140B2
:1035E0003000002020120020F811002034000020BC
:1035F000E811002008E0FFFD08120020084603F053
:1036000073F9032003F090F9012003F08AF90020F8
:10361000FE49086048608860C8604FF480600861B7
:10362000084603F0A1F9FFF7B1FF04462A2C02D0A7
:103630002046BDE8F0814FF4D570F44908600820B9
:103640004860402088600020C8604FF480600861B6
:10365000084603F089F9FFF775FF04462A2C05D1C7
:103660000120EB4908604FF0804812E00020E74954
:10367000086037204860402088600020C8604FF410
:1036800080600861084603F06FF93720FFF7C5FE38
:1036900004460020DD4908603720486040208860EB
:1036A0000020C8604FF480600861084603F05CF9B0
:1036B0003720FFF7B2FE04462A2C4CD138E0002018
:1036C000D249086037204860402088600020C860E8
:1036D0004FF480600861084603F046F93720FFF791
:1036E0009CFE04462A2C01D02046A2E7C94848EA9D
:1036F0000000C649086029204860402088600020FA
:10370000C8604FF480600861084603F02DF9FFF7A8
:103710006AFE04462A2C01D020468AE7002003F0E6
:1037200041F90646012080EAD67080F001076D1C41
:103730001FB94FF6FF708542C1D34FF6FF70854227
:1037400002D31B24204674E706F08040061E02D0F8
:103750000220AF49086020466BE708B50121302000
:1037600003F050F84FF4F850ADF8000003208DF846
:10377000020018208DF803006946A74802F086FD74
:103780000420ADF800006946A44802F07FFD08BDA2
:1037900010B52A24FFF7E1FF0121880203F025F884
:1037A0000121022003F021F803F090F8FFF704FF55
:1037B00004462A2C01D0204610BDFFF77EFD0446AA
:1037C0002A2C01D02046F7E70120954908750020F2
:1037D000086048608860C8600861084603F084F8A3
:1037E0002046E9E710B52A24002003F09DF8204682
:1037F00010BD30B501462A200022854B1B7881F888
:103800004E30884B1B88A1F84C30874B1B681A0E32
:1038100093090B70C2F383034B7002F003038B70A8
:10382000814B1B68C3F30742CA707F4B1B88C3F3ED
:1038300007220A717C4B1A784A715B681A0E1301D1
:10384000CB80794B5B68C3F30742CB8843EA121302
:10385000CB8002F00F030B72734B9B88C3F30722DC
:10386000D3094B72C2F380138B72C2F34013CB7235
:10387000C2F300130B7300234B73654B1B681BB122
:10388000634B1B68012B3CD193071B0D0B61664BEF
:103890001A790B6943EA82030B61634B9B681A0E2A
:1038A0000B6943EA92130B61C2F3C2030B7502F07A
:1038B00007034B755C4B9B68C3F3074253098B7539
:1038C000C2F38203CB7593075B0F0B76564B1B89B4
:1038D000C3F307220B7E43EAD2130B760B695B1C02
:1038E0004B640C7E4B6CA41C0125A5406B434B64C0
:1038F0000C7A0123A3408B64D1E9113463434B64F8
:1039000021E0434B1B68022B1DD1474B1A799306CC
:103910009B0A0B61444B9B681A0E0B6943EA022316
:103920000B61414B9B68C3F307420B6913430B6167
:103930003D4B1B89C3F307220B695B1CDB044B6403
:103940004FF400738B64C2F3801301F8193F9306A0
:103950005B0E4B70344B1A7A4B7843EAD2134B70A0
:1039600002F07F038B70304BDB681A0ED309CB70EB
:10397000C2F341130B71C2F382034B7193071B0F08
:103980008B71294BDB68C3F307428B7943EA9213AF
:103990008B71C2F34013CB7100230B7202F0010351
:1039A0004B72214B9B89C3F30722D3098B72C2F35D
:1039B0008013CB72C2F340130B73C2F300134B732B
:1039C000C2F381038B7302F00303CB73164B1A7B94
:1039D00053080B7401234B74144B1B681A0ECA74E2
:1039E0001939124B1B68C3F307421402CC850F4BE5
:1039F0001B88C3F30722CB8D1343CB850B4B1A785F
:103A000014060C635B681A0E0B6B11E02012002089
:103A10003000002000001080001001400014014020
:103A20000812002034000020E8110020F8110020C6
:103A300043EA02440C63F94B5B68C3F307420B6B28
:103A400043EA02240C63F54B9B88C3F307220B6BFC
:103A500013430B63F14B1A7934235A54EF4B9B6891
:103A60001A0E35235A54ED4B9B68C3F307421406D4
:103A70008C63EA4B1B89C3F307228B6B43EA024436
:103A80008C63E64B1A7A8B6B43EA02248C63E34B1C
:103A9000DB681A0E8B6B13438B63E04BDB68C3F35D
:103AA00007423C235B5C43EA12143C235C5413073B
:103AB0001C0DCC87D94B9B89C3F30722CB8F1343B3
:103AC000CB87D64B1A7B540840235C5401244123F6
:103AD0005C5430BD2DE9FC4107460D4600262A24E2
:103AE0000020009001900820CD4908601020486017
:103AF000402088600020C8604FF48060086108465C
:103B000002F032FF1020FFF788FC04462A2C02D076
:103B10002046BDE8FC81C34800880004C049086015
:103B200037204860402088600020C8604FF48060E3
:103B30000861084602F018FF3720FFF76EFC0446C4
:103B40002A2C01D02046E4E7B748B849086008208D
:103B50004860302088600220C86000200861012091
:103B60004861084602F029FF0020AD490860332073
:103B70004860402088600020C8604FF48060086181
:103B8000084602F0F1FE3320FFF747FC04462A2CDA
:103B900001D02046BDE709E04FF4001002F05BFFC2
:103BA00020B102F02CFF4DF82600761CA048406B97
:103BB00040F22A6108400028EED0082002F04BFFB6
:103BC00028B1082002F051FF04242046A1E702207A
:103BD00002F041FF28B1022002F047FF02242046F4
:103BE00097E7202002F037FF28B1202002F03DFFA8
:103BF000062420468DE74FF4007002F02CFF30B110
:103C00004FF4007002F031FF0724204681E740F2B4
:103C1000FF5002F02AFF00980006009901F47F414E
:103C200040EA0120009901F47F0140EA1120009947
:103C300040EA1160686001980006019901F47F4133
:103C400040EA0120019901F47F0140EA1120019925
:103C500040EA1160286020465BE77CB505462A24CF
:103C600000200090019002F09DFE00F0007010B165
:103C70000E2420467CBD6B49098888B26946FFF74F
:103C800029FF04462A2C01D02046F3E7012D38D124
:103C9000019800F48020002830D062480088000499
:103CA0005F49086037204860402088600020C86075
:103CB000A8020861084602F057FE3720FFF7ADFB67
:103CC00004462A2C01D02046D4E70220544908603B
:103CD00006204860402088600020C8604FF4806063
:103CE0000861084602F040FE0620FFF796FB0446F6
:103CF0002A2C01D02046BDE72046BBE725242046DC
:103D0000B8E7019800F4803078B346480088000492
:103D10004349086037204860402088600020C86020
:103D20004FF480600861084602F01EFE3720FFF75E
:103D300074FB04462A2C01D020469BE7002038491A
:103D4000086006204860402088600020C8604FF46A
:103D500080600861084602F007FE0620FFF75DFB61
:103D600004462A2C02D0204684E701E0204681E761
:103D7000252420467EE770B504462A252D48006894
:103D8000032802D12725284670BD2A48006838B18B
:103D900028480068012803D026480068022830D14E
:103DA000B4F5805F02D127252846EDE7B4F5006F12
:103DB00015D10120FFF751FF05462A2D21D1012001
:103DC0001D49087500200860486088604FF4006055
:103DD000C86000200861084602F086FD11E000205E
:103DE000FFF73BFF05462A2D0BD10120124908752C
:103DF0000020086048608860C8600861084602F0DA
:103E000073FD2846C0E701462A2019B1012901D0D7
:103E1000022915D1094A116013E00000F8110020B1
:103E20002012002034000020FFFF0F003412002079
:103E300000800140300000200812002038000020DF
:103E40002620704770B504462A25FE4804600720E6
:103E5000FC494860402088600020C8604FF48060C2
:103E60000861084602F080FD0720FFF7D6FA0546F4
:103E7000284670BD30B58BB005460C46F24801F0BF
:103E800099FE0021F14801F066FEF148009001958D
:103E900000200290A008039000200490802005904C
:103EA0008000069080000790002008904FF400509A
:103EB000099000200A906946E44801F021FE0121A2
:103EC000E24801F048FE0BB030BD0146002002E0A0
:103ED0004910421CD0B20129FAD170472DE9F047B0
:103EE00080460E4614464FF02A0900253746AA465A
:103EF00026B94FF026094846BDE8F0872A20D54963
:103F000008700020D4490860D4490860D448D549D5
:103F10000860002048608860C86008614861084601
:103F200002F04BFD002002F01CFD002002F03AFDE3
:103F300000F0007018B14FF00E094846DCE7CA489F
:103F40000068022802D104024FEA5828002C21DD23
:103F5000B4F5006F1EDC601E2040D8B92046FFF784
:103F6000B4FF8246B74804601020B649486040203C
:103F700088600020C8604FF480600861084602F045
:103F8000F3FC1020FFF749FA8146B9F12A0F05D05A
:103F90004846B1E74FF026094846ADE7B048B14979
:103FA0000860084644604FEA0A1088600220C86032
:103FB0000020086101204861084602F0FEFCA74885
:103FC00004600020A9490860A94806609D48C0F81F
:103FD000008011209B494860402088600020C86014
:103FE0004FF480600861084602F0BEFC1120FFF724
:103FF00014FA8146B9F12A0F01D048467CE79D4862
:104000000068022855D10EE04FF4004002F023FD75
:1040100048B1002504E002F0F2FC47F825006D1CD1
:10402000082DF8D320378A488038406B40F22A6147
:1040300008400028E8D0082002F00DFD30B108202B
:1040400002F013FD4FF00409484655E7022002F044
:1040500002FD30B1022002F008FD4FF0020948468F
:104060004AE7202002F0F7FC30B1202002F0FDFCEE
:104070004FF0060948463FE74FF4007002F0EBFCB2
:1040800038B14FF4007002F0F0FC4FF007094846D9
:1040900032E703E002F0B3FC38603F1D4FF400103C
:1040A00002F0D9FC0028F5D140F2FF5002F0DDFC0F
:1040B00033E070480068012813D1012148F22A300A
:1040C00002F042FC00BF6448006818B961480078FB
:1040D0002A28F8D05F4800782A281ED05D4800784A
:1040E0000AE764480068C0B9012140F22A3002F0B2
:1040F0002BFC012002F035FC21463046FFF7BAFECA
:104100006FF07F4500E06D1E5B4801F03FFD08B990
:10411000002DF8D10DB92920EEE64846ECE62DE950
:10412000F05F81460E4614461D464FF02A084FF0B8
:10413000000A37464FF0000B26B94FF026084046DC
:10414000BDE8F09F2A2043490870002042490860DA
:10415000424908604248434908600020486088603E
:10416000C86008614861084602F027FC002002F0A0
:10417000F8FB002002F016FC00F0007018B14FF0C0
:104180000E084046DCE738480068022802D10402E5
:104190004FEA5929002C21DDB4F5006F1EDC601EAA
:1041A0002040D8B92046FFF790FE8346254804609A
:1041B000102024494860402088600020C8604FF4E7
:1041C00080600861084602F0CFFB1020FFF725F958
:1041D0008046B8F12A0F05D04046B1E74FF02608D7
:1041E0004046ADE7012D7DD905FB04F0B0F1007F1D
:1041F00003D34FF026084046A2E705FB04F0174919
:1042000008600120194908601948066014481549DA
:10421000086005FB04F048604FEA0B10886002203C
:10422000C8600020086101204861084602F0C5FB13
:104230000448C0F80090122002494860402088607D
:1042400000201BE02012002000F000104404024077
:10425000808001404C000020500000203C000020E5
:10426000FFFF0F003412002030000020400000202B
:10427000480000203800002000200010C8604FF4E3
:1042800080600861084602F06FFB1220FFF7C5F856
:104290008046B8F12A0F01D0404651E7FE48006839
:1042A00002287CD111E04FF4004002F0D4FB60B151
:1042B0004FF0000A05E002F0A2FB47F82A000AF1DD
:1042C000010ABAF1080FF6D32037F448406B40F2E8
:1042D0002A3108400028E6D0082002F0BCFB40B19B
:1042E000082000E09EE002F0C0FB4FF004084046CA
:1042F00026E7022002F0AFFB30B1022002F0B5FB4E
:104300004FF0020840461BE7202002F0A4FB30B12A
:10431000202002F0AAFB4FF00608404610E74FF4B9
:10432000007002F098FB38B14FF4007002F09DFB72
:104330004FF00708404603E703E002F060FB3860F7
:104340003F1D4FF4001002F086FB0028F5D14FF41A
:10435000807002F080FB18B3D148006838B1D048B3
:104360000068022803D0CE480068012818D1002038
:10437000CC4908600C204860402088600020C8605C
:104380004FF480600861084602F0EEFA0C20FFF757
:1043900044F88046B8F12A0F02D04046D0E604E047
:1043A00040F2FF5002F061FB3CE0BB48006801288E
:1043B00013D1012148F22A3002F0C6FA00BFBA48F0
:1043C000006818B9B94800782A28F8D0B7480078AA
:1043D0002A2827D0B5480078B2E6AF48006808BB65
:1043E000012140F22A3002F0AFFA012002F0B9FABE
:1043F00005FB04F13046FFF73DFD00BFAC4801F07E
:10440000C5FB0028FAD000BFA748006818B9A74824
:1044100000782A28F8D0A54800782A2802D0A34896
:1044200000788DE640468BE67CB504462A250020C0
:10443000019000909F48008800049A4908600D2070
:104440004860402088600020C8604FF480600861A8
:10445000084602F089FA9148406B009002E08F48CC
:10446000406B0090009800F045000028F7D00098BD
:1044700000F0040028B10325042002F0F6FA2846D3
:104480007CBD009800F0010028B10125012002F058
:10449000ECFA2846F4E702F081FA009000980D2823
:1044A00002D010252846EBE740F2FF5002F0DDFA7B
:1044B000002002F077FA01900198C0F343202070A9
:1044C0007D490198084008B92846D9E7019800F0CD
:1044D000004008B11C20D3E7019800F0804008B1EB
:1044E0000920CDE7019800F0005008B10A20C7E785
:1044F000019800F0805008B10B20C1E7019800F04E
:10450000006008B10C20BBE7019800F0806008B1A2
:104510000D20B5E7019800F0807008B10E20AFE7DC
:10452000019800F4000008B10F20A9E7019800F4F9
:10453000800008B11020A3E7019800F4001008B132
:1045400011209DE7019800F4801008B1122097E730
:10455000019800F4002008B1132091E7019800F4BD
:10456000802008B114208BE7019800F4003008B1D6
:10457000152085E7019800F4803008B116207FE708
:10458000019800F4004008B1172079E7019800F481
:10459000804008B1182073E7019800F4005008B17A
:1045A00019206DE7019800F0080008B11A2067E7AC
:1045B000284665E730B58BB005460C463F4801F00C
:1045C000F9FA00213E4801F0C6FA344880300090E4
:1045D000019510200290A0080390002004908020F4
:1045E00005908000069080000790002008904FF40E
:1045F0000050099000200A906946314801F080FA85
:1046000001212F4801F0A7FA0BB030BD2DE9FF5F63
:1046100082460F4614462A250020039002908346C6
:104620000026019080460090B94627B926252846E5
:1046300004B0BDE8F09F2A201C49087000201A49E8
:104640000860204908602048204908600020486030
:104650008860C86008614861084602F0AEF9002031
:1046600002F07FF9002002F09DF900F0007010B117
:104670000E252846DCE70A480068022802D1040219
:104680004FEA5A2A002C3EDDB4F5006F3BDC601E79
:104690002040B8BB20461BE03800002000800140CD
:1046A0003000002020120020500000204C0000208C
:1046B000002000103400002008E0FFFD00F0001092
:1046C000440402403C000020FFFF0F003412002091
:1046D000FFF7FBFB0390FE4804601020FC49486094
:1046E000402088600020C8604FF480600861084660
:1046F00002F03AF91020FEF790FE05462A2D05D06B
:10470000284695E7FFE72625284691E7F1480088E7
:104710000004EF4908600D204860402088600020B8
:10472000C8604FF480600861084602F01DF90D2052
:10473000FEF773FE05462A2D01D0284678E70020B3
:1047400002F030F90190DFF890B31EE0ABF1010BFD
:10475000E04800880004DE4908600D2048604020E1
:1047600088600020C8604FF480600861084602F04D
:10477000FBF80D20FEF751FE05462A2D01D02846F4
:1047800056E7002002F00EF90190019800F48070C5
:1047900010B9BBF1000FD9D1BBF1000F01D1292015
:1047A00046E7CB48C0F800A01820C949486040201F
:1047B00088600020C8604FF480600861084602F0FD
:1047C000D3F81820FEF729FE05462A2D01D02846E9
:1047D0002EE7C24804600020C1490860C148076054
:1047E000BD48C149086008464460039800018860DC
:1047F0000020C860086101204861084602F0DDF829
:10480000BA48006802286BD139E04FF4804002F0CA
:1048100022F9A0B3B1480068801B202820D2AF48FD
:104820000078801B00F0030020B9AC480068801BB2
:10483000800804E0A9480068801B8008401C0090A4
:104840004FF0000808E0D9F8000002F0DCF808F1A9
:10485000010809F10409361D009880450FD2F2E7DE
:104860004FF0000805E059F8280002F0CCF808F1F4
:104870000108B8F1080FF6D309F1200920369C4849
:10488000406B40F21A6108400028BED0082002F0B8
:10489000E2F828B1082002F0E8F804252846C7E627
:1048A000022002F0D8F828B1022002F0DEF802253A
:1048B0002846BDE6102002F0CEF828B1102002F004
:1048C000D4F805252846B3E64FF4007002F0C3F88B
:1048D000F0B34FF4007002F0C8F807252846A7E6A9
:1048E00082480068012813D1012144F21A3002F0F5
:1048F0002BF800BF7F48006818B97F4800782A2845
:10490000F8D07D4800782A2828D07B4800788FE6A8
:1049100076480068E0B9012140F21A3002F014F83C
:1049200021463846FFF746FE012002F01AF800BF84
:10493000724801F02BF90028FAD000BF6D480068DA
:1049400018B96D4800782A28F8D06B48007800E044
:1049500004E02A2802D06848007869E640F2FF5057
:1049600002F083F802A8FFF75FFD054603E002A806
:10497000FFF75AFD05462A2D07D19DF808000728A4
:10498000F5D09DF808000628F1D0284650E62DE91C
:10499000FE4F8346884614461E462A250020029074
:1049A0000190002781460090C246B8F1000F03D164
:1049B00026252846BDE8FE8F2A204F490870002092
:1049C0004C49086045490860434847490860002051
:1049D00048608860C86008614861084601F0EDFFE2
:1049E000002001F0BEFF002001F0DCFF00F00070AD
:1049F00010B10E252846DDE741480068022802D1A3
:104A000004024FEA5B2B002C20DDB4F5006F1DDCA7
:104A1000601E2040D0B92046FFF757FA02902C487C
:104A2000046010202A494860402088600020C86047
:104A30004FF480600861084601F096FF1020FEF7F1
:104A4000ECFC05462A2D04D02846B3E72625284647
:104A5000B0E72048008800041D4908600D20486028
:104A6000402088600020C8604FF4806008610846DC
:104A700001F07AFF0D20FEF7D0FC05462A2D01D06B
:104A8000284697E7012E76D906FB04F0B0F1007FA7
:104A900002D3262528468DE71948006838B1184802
:104AA0000068012803D01648006802284BD1094845
:104AB000008800040649086037204860402088606C
:104AC0000020C8604FF48060086108461AE00000CA
:104AD0002012002034000020FFFF0F003C000020C7
:104AE0004000002044000020341200203800002044
:104AF00000800140500000204C00002000200010E9
:104B00003000002001F030FF3720FEF786FC05461C
:104B10002A2D01D028464DE7F74806601720F649B0
:104B20004860402088600020C8604FF480600861C1
:104B3000084601F019FF1720FEF76FFC05462A2DE5
:104B400001D0284636E7EC48C0F800B01920EA4901
:104B50004860402088600020C8604FF48060086191
:104B6000084601F001FF1920FEF757FC05462A2DE3
:104B700002D028461EE7F1E006FB04F0DF4908609A
:104B80000120DF490860DF48C0F80080DE48DF49C7
:104B9000086006FB04F0486002980001886000206D
:104BA000C860086101204861084601F006FFD84846
:104BB000006802287ED139E04FF4804001F04BFFBD
:104BC000A0B3CE480068C01B20280FD34FF00009C7
:104BD00005E05AF8290001F016FF09F10109B9F1C1
:104BE000080FF6D30AF1200A20371FE0C3480078E7
:104BF000C01B00F0030020B9C0480068C01B80083B
:104C000004E0BE480068C01B8008401C00904FF0C4
:104C1000000908E0DAF8000001F0F5FE09F10109E9
:104C20000AF1040A3F1D00988145F3D3B948406B4F
:104C300040F21A3108400028BED0082001F00BFFD6
:104C400028B1082001F011FF04252846B2E6022011
:104C500001F001FF28B1022001F007FF02252846DC
:104C6000A8E6102001F0F7FE28B1102001F0FDFEAB
:104C7000052528469EE64FF4007001F0ECFE30B1A9
:104C80004FF4007001F0F1FE0725284692E64FF43C
:104C9000807001F0E0FE002860D09F48006838B1C5
:104CA0009D480068012803D09B480068022855D120
:104CB000002000E015E0904908600C20486040208A
:104CC00088600020C8604FF480600861084601F0E9
:104CD0004BFE0C20FEF7A1FB05462A2D3ED02846B0
:104CE00068E68B480068012813D1012144F21A308C
:104CF00001F02AFE00BF8948006818B9884800788A
:104D00002A28F8D0864800782A2827D084480078B6
:104D100050E67F48006808BB012140F21A3001F0DC
:104D200013FE012001F01DFE06FB04F14046FFF7D3
:104D300041FC00BF7B4800F029FF0028FAD000BFEB
:104D40007648006818B9764800782A28F8D0744860
:104D500000782A2802D0724800782BE640F2FF50F3
:104D600001F083FE01A8FFF75FFB054603E001A801
:104D7000FFF75AFB05462A2D07D19DF804000728A6
:104D8000F5D09DF804000628F1D0284612E66148C7
:104D9000406B00F4405008B1012070470020FCE750
:104DA00010B52A240020544908600C204860402097
:104DB00088600020C8604FF480600861084601F0F8
:104DC000D3FD0C20FEF729FB0446204610BD2DE93B
:104DD000FC4105460E462A24002700200190009041
:104DE00051484068202101EA105018B92524204676
:104DF000BDE8FC8147484068C0B2801C4B49B1FB0C
:104E0000F0F00190002001F0CDFD00F0007010B135
:104E10000E242046ECE740480068022801D16D0AC4
:104E2000760A3D48006838B13B480068012803D045
:104E30003948006802282DD12F48056020202E49CE
:104E40004860402088600020C8604FF4806008619E
:104E5000084601F089FD2020FEF7DFFA04462A2CDF
:104E600001D02046C4E7244806602120224948603A
:104E7000402088600020C8604FF4806008610846C8
:104E800001F072FD2120FEF7C8FA04462A2C01D059
:104E90002046ADE7002018490860262048604020E1
:104EA00088600020C8604FF480600861084601F007
:104EB0005BFD2620FEF7B1FA04462A2C01D02046DD
:104EC00096E7002700E07F1C01988742FBD36846E5
:104ED000FFF7AAFA044603E06846FFF7A5FA04467E
:104EE0002A2C07D19DF800000728F5D09DF8000076
:104EF0000628F1D020467BE7201200203C0000204D
:104F00004000002044000020FFFF0F00341200206A
:104F100038000020008001403000002050000020B8
:104F20004C00002000200010E81100204019010072
:104F300070B504462A2514B92625284670BDFE48BA
:104F400000880004FD4908600D204860402088600A
:104F50000020C8604FF480600861084601F004FD3D
:104F60000D20FEF75AFA05462A2D01D02846E5E71E
:104F7000002001F017FD20602846DFE770B50446E9
:104F80002A260025002001F00DFD00F0007010B170
:104F90000E26304670BD4020E84908601020486069
:104FA000402088600020C8604FF480600861084697
:104FB00001F0DAFC1020FEF730FA06462A2E01D066
:104FC0003046E7E7DC4800880004DC490860372009
:104FD0004860402088600020C8604FF4806008610D
:104FE000084601F0C1FC3720FEF717FA06462A2EC4
:104FF00001D03046CEE7D248D24908604020486010
:10500000602088600220C86000200861012048619B
:10501000084601F0D2FC0020C84908600D20486015
:10502000402088600020C8604FF480600861084616
:1050300001F09AFC0D20FEF7F0F906462A2E01D069
:105040003046A7E70EE04FF4004001F004FD48B100
:10505000002504E001F0D3FC44F825006D1C082D68
:10506000F8D32034B848406B40F22A610840002849
:10507000E9D0082001F0EFFC28B1082001F0F5FC90
:105080000426304686E7022001F0E5FC28B1022024
:1050900001F0EBFC022630467CE7202001F0DBFC2F
:1050A00028B1202001F0E1FC0626304672E74FF4DB
:1050B000007001F0D0FC30B14FF4007001F0D5FC6D
:1050C0000726304666E703E001F099FC2060241DC6
:1050D0004FF4001001F0BFFC0028F5D140F2FF5062
:1050E00001F0C3FC403C002515E014F82500000643
:1050F00034F8251001F47F4140EA012054F82510CE
:1051000001F47F0140EA112054F8251040EA1160B3
:1051100044F825006D1C102DE7D330463AE770B5F2
:105120000024002589480068012867D1C00301F0E8
:105130009FFCA8B100BF06E001F061FC844909684A
:1051400041F82400641C082CF6D381480068203004
:105150007F4908607F48006820307E4908604DE044
:105160004FF4804001F084FC002847D07A48006862
:1051700078490968401A20282BD277480078754969
:105180000968401A00F0030030B97348006871499B
:105190000968401A800806E06F4800686D49096890
:1051A000401A8008401C054600240FE06B4909683E
:1051B000086801F028FC641C68480068001D674905
:1051C000086064480068001D62490860AC42EDD385
:1051D00014E0002406E06149096851F8240001F058
:1051E00012FC641C082CF6D35C48006820305B4934
:1051F0000860584800682030564908604FF48070B5
:1052000001F036FCD8B351480068D0B10EE001F08F
:10521000F6FB4F49096808604D480068001D4C497D
:1052200008604C480068001D4A4908604FF40010AF
:1052300001F011FC28B147480068474909688842D5
:10524000E5D347480068012804D1FFF7A9FD454987
:10525000087002E02A20434908704FF4807001F082
:1052600011FC00214CF23A3001F06EFB01203E4966
:1052700008600020374908603A48007870BDFFE7B1
:10528000022001F0F5FB70B1022001F0FBFB0021D0
:105290004CF23A3001F058FB00202E490860022001
:1052A00030490870EAE7082001F0E2FB70B10820FD
:1052B00001F0E8FB00214CF23A3001F045FB002000
:1052C00024490860042027490870D7E7202001F00E
:1052D000CFFB70B1202001F0D5FB00214CF23A3019
:1052E00001F032FB00201B49086006201D490870B0
:1052F000C4E7102001F0BCFB70B1102001F0C2FB2C
:1053000000214CF23A3001F01FFB002011490860E7
:10531000052014490870B1E74FF4007001F0A8FBB4
:1053200050B34FF4007001F0ADFB00214CF23A3065
:1053300001F00AFB002019E03400002020120020B8
:10534000FFFF0F00341200200080014038000020D1
:1053500048000020540000203C00002044000020B1
:10536000400000204C00002050000020034908604D
:1053700007200349087081E72A207FE754000020B6
:105380004C00002008B50121102001F03BFA082054
:10539000ADF8000048208DF803006946F74800F09A
:1053A00075FF08BD10B51021F54801F002F808B1ED
:1053B000002010BD0120FCE710B504462046FDF793
:1053C00097FD10BD10B53820FDF7EFFD10BD10B5ED
:1053D0000020FDF7EAFD10BD08B50121042001F011
:1053E00011FA1020ADF800008DF8030003208DF8AD
:1053F00002006946E24800F049FF1021E04800F051
:10540000F4FFFDF79CFD0120DE49086008BD10B5E2
:105410000120DC490860FF20FFF7CEFF10BD10B56A
:10542000002400BFFF20FFF7C7FFFF2801D10020A5
:1054300010BD641C6FF07F408442F3D30120F7E776
:1054400010B50020CF490860FFF7E9FF08B9002038
:1054500010BDFFF7DCFF0120FAE770B505464FF6F7
:10546000FF7401E0601E84B2FF20FFF7A5FFA84291
:1054700001D0002CF6D10CB9FF2070BD0020FCE754
:1054800070B504460D46FE20FFF7E7FF08B1012086
:1054900070BD04E0FF20FDF72BFD2070641C281E6A
:1054A000A5F101018DB2F5D1FF20FFF785FFFF20A7
:1054B000FFF782FF0020EBE770B506460D46FFF7C9
:1054C000AEFF08B1012070BD2846FFF775FFFD2D26
:1054D00019D0002404E0305DFDF70AFD601C84B2A1
:1054E000B4F5007FF7DBFF20FFF766FFFF20FFF733
:1054F00063FFFF20FFF760FF044604F01F0005284C
:1055000001D00220DFE70020DDE72DE9F04105466C
:105510000C4617464FF00008FFF779FFFFF790FFA2
:1055200010B1FF20BDE8F08145F04000FFF744FFD7
:10553000200EFFF741FFC4F30740FFF73DFFC4F320
:105540000720FFF739FFE0B2FFF736FF3846FFF7D5
:1055500033FF0C2D02D1FF20FFF72EFF4FF01F0865
:1055600000BFFF20FFF728FF064606F0800030B19D
:10557000B8F10000A8F1010101F0FF08F1D13046B7
:10558000D0E770B50546012200210A20FFF7BDFFD4
:10559000044624B910212846FFF772FF0446FFF79E
:1055A00036FF0CB1012070BD0020FCE770B5054648
:1055B000012200210920FFF7A8FF044624B9102189
:1055C0002846FFF75DFF0446FFF721FF0CB10120DD
:1055D00070BD0020FCE77FB56846FFF7E7FF10B11C
:1055E000002004B070BD9DF8000000F0C00040280D
:1055F00009D19DF809009DF8081000EB0120401C1E
:1056000084B2A50220E09DF8050000F00F009DF88F
:105610000A1000EBD1109DF8091001F0030100EB16
:105620004100861C9DF8080080119DF8071000EBD2
:1056300081009DF8061001F0030100EB8120441C5D
:10564000A6F1090004FA00F52846CAE7F8B5FFF705
:10565000C3FEFFF7B7FE002504E0FF20FFF7ACFE16
:10566000681C85B20A2DF8DB142600BF95220021A4
:105670000846FFF74AFF0446012C04D0301EA6F16D
:1056800001018EB2F2D100203F490870012C4AD1AD
:1056900087224FF4D5710820FFF737FF012847D143
:1056A000002506E0FF20FFF787FE0DF80500681CC7
:1056B00085B2042DF6DB9DF802000128E7D19DF8A4
:1056C0000300AA287ED14FF6FE7600BF01220021FA
:1056D0003720FFF71AFF012291072920FFF715FF56
:1056E000044624B1301EA6F101018EB2EED1002E87
:1056F00068D0012200213A20FFF707FF002861D17E
:10570000002506E0FF20FFF757FE0DF80500681C96
:1057100085B2042DF6DB9DF8000000F0400018B1C2
:105720000620194908704DE004201749087049E027
:10573000012200213720FFF7E8FE01220021292065
:10574000FFF7E3FE0446012C20DC02200E4908701E
:105750004FF6FE7600BF012200213720FFF7D5FE6D
:10576000012200212920FFF7D0FE044604B3301E99
:10577000A6F101018EB2EED11AE000000010014046
:1057800000080140900121425800002001205349A7
:1057900008704FF6FE7600BF012200211046FFF789
:1057A000B4FE044624B1301EA6F101018EB2F3D13D
:1057B0002EB1012251021020FFF7A7FE10B10020E8
:1057C00046490870FFF723FEFFF701FE43480078C3
:1057D00008B10020F8BD0CB12046FBE7AA20F9E78C
:1057E0002DE9F04106460F4615463C48007806284C
:1057F00000D07F02012D0CD1012239461120FFF784
:1058000084FE0446FCB969023046FFF739FE0446BF
:1058100019E0012239461220FFF777FE044600BF47
:105820004FF400713046FFF72BFE044606F5007674
:10583000681EC0B2051E01D0002CF1D0012200214B
:105840000C20FFF762FEFFF7E2FD2046BDE8F08185
:105850002DE9F04106460F461546204800780628F7
:1058600000D07F02012D0CD1012239461820FFF70C
:105870004CFE04466CBBFE213046FFF71DFE04467D
:1058800027E016480078012809D00122002137209E
:10589000FFF73BFE012229461720FFF736FE0122C3
:1058A00039461920FFF731FE044694B900BFFC21A8
:1058B0003046FFF701FE044606F50076681EC0B2CA
:1058C000051E01D0002CF2D0FD210020FFF7F4FDD1
:1058D0000446FFF79CFD2046BDE8F08158000020FB
:1058E00031490143314A1160704770B500210023EE
:1058F0000F22C47804B32D4C246804F4E064C4F58A
:10590000E064210AC1F10403CA40447804FA03F1B7
:105910008478144021430901254C0678A155047868
:1059200004F01F050124AC4005786D11AD0005F1B0
:10593000E025C5F8004109E0047804F01F050124C2
:10594000AC401C4D0678761145F8264070BD1A4AC9
:105950000A400243154B1B1F1A60704739B1134AA6
:10596000121D12680243114B1B1D1A6006E00F4AFC
:10597000121D126882430D4B1B1D1A6070470428CC
:1059800008D14FF0E021096941F004014FF0E02215
:10599000116107E04FF0E021096921F004014FF0A7
:1059A000E0221161704700000000FA050CED00E0F4
:1059B00000E400E080E100E080FFFF1F01684FF697
:1059C000FE72114001600021016041608160C16090
:1059D0008D49884208D18C490839496841F00F0146
:1059E000894A083A51608AE087491431884208D1CF
:1059F00085490839496841F0F001834A083A516005
:105A00007DE081492831884208D17F4908394968B9
:105A100041F470617C4A083A516070E07A493C3147
:105A2000884208D178490839496841F47041764A7A
:105A3000083A516063E074495031884208D1724994
:105A40000839496841F470216F4A083A516056E0BC
:105A50006D496431884208D16B490839496841F47D
:105A60007001694A083A516049E0674978318842D3
:105A700008D165490839496841F07061624A083ABD
:105A800051603CE06149884206D1011F096841F03C
:105A90000F01021F116032E05C491431884208D1C5
:105AA0005A49091F096841F0F001584A121F116054
:105AB00025E056492831884208D15449091F096810
:105AC00041F47061514A121F116018E04F493C3196
:105AD000884208D14D49091F096841F470414B4A79
