:020000040800F2
:1000000098180020C15C00089102000893020008C3
:1000100095020008970200089902000800000000FD
:100020000000000000000000000000009B0200082B
:100030009D020008000000009F020008A1020008C5
:10004000DB5C0008DB5C0008DB5C0008DB5C0008B4
:10005000DB5C0008DB5C0008DB5C0008DB5C0008A4
:10006000DB5C0008DB5C0008DB5C0008DB5C000894
:10007000DB5C0008DB5C0008DB5C0008DB5C000884
:10008000DB5C0008DB5C0008DB5C0008DB5C000874
:10009000DB5C0008DB5C0008DB5C0008DB5C000864
:1000A000DB5C0008DB5C0008DB5C0008DB5C000854
:1000B000DB5C0008DB5C0008DB5C0008DB5C000844
:1000C000DB5C0008DB5C0008DB5C0008DB5C000834
:1000D000DB5C0008DB5C0008DB5C0008CF27000865
:1000E000DB5C0008DB5C0008DB5C0008DB5C000814
:1000F000DB5C0008DB5C0008DB5C0008DB5C000804
:10010000DB5C0008DB5C0008DB5C0008DB5C0008F3
:10011000DB5C0008DB5C0008DB5C0008DB5C0008E3
:10012000DB5C0008DB5C0008DB5C0008DB5C0008D3
:1001300000F002F800F03FF80AA090E8000C8244BA
:100140008344AAF10107DA4501D100F034F8AFF297
:10015000090EBAE80F0013F0010F18BFFB1A43F0A5
:1001600001031847B45E0000D45E0000103A24BFBB
:1001700078C878C1FAD8520724BF30C830C144BF0C
:1001800004680C607047000000230024002500264E
:10019000103A28BF78C1FBD8520728BF30C148BFEA
:1001A0000B607047782905F0ED85002070471FB57A
:1001B0001FBD10B510BD05F0E1FE1146FFF7F7FFBA
:1001C00000F01EF805F0FFFE03B4FFF7F2FF03BCDA
:1001D00002F0A4FA30BF72B662B680F308887047A6
:1001E000EFF30980704780F309887047EFF30880C8
:1001F000704780F30888704740BA7047C0BA7047AC
:1002000010B505F001FD02F0CDF94FF4E13002F038
:100210008FFA41F2883002F0F3F909A005F072FD7F
:1002200000F048FA00F0EDF928B10BA005F06AFDE6
:10023000164800F037F800F0BAF8002010BD0000B2
:10024000476F696E6720746F20626F6F74202E2E67
:100250002E200D0A0000000046415420696E69748A
:10026000206661696C202C20626F6F74696E672054
:1002700066726F6D206F6C64206669726D77617253
:1002800065202E2E2E200D0A0000000000800008A0
:100290007047FEE7FEE7FEE7FEE7704770477047EE
:1002A000704700002DE9F843784D044600212846A8
:1002B00005F06AFB40F227763146284605F044FCFB
:1002C00040F226673946284605F03EFC40F22558A4
:1002D0004146284605F038FC00223146284605F004
:1002E0005DFB00224146284605F058FB00223946B6
:1002F000284605F053FB00214FF4802005F046F816
:10030000634D0021284605F0FDF9284605F05AF90D
:100310000121082005F031F848268DF803600325F7
:100320008DF802504FF6FF77ADF8007069465948D6
:1003300004F03DFE0121042005F01FF88DF8036054
:100340008DF80250ADF800706946534804F02FFE56
:100350000121102005F011F88DF803604F4E8DF843
:100360000250ADF800706946304604F020FE0121CD
:10037000102005F002F828208DF803008DF80250B7
:100380000820ADF800006946304604F010FE2068F1
:1003900043490840B0F1005F07D16068414D2860D3
:1003A0002068FFF71AFF28688047BDE8F883F8B592
:1003B0003DA005F0A7FC012243A1474801F0C6F982
:1003C000464D40B1294646A005F09CFC2846FFF763
:1003D00069FF0020F8BD4CA005F094FC4FF4967026
:1003E00002F00EF94FF400762C466B4632464C492B
:1003F000394801F04CFA18B14AA005F083FC19E025
:100400000098082816D30EE04549204600F07CF9F4
:100410000028DFD100986B460444324640492E48FC
:1004200001F035FA30B9009A002AEDD12A4801F0DE
:10043000EBFB08B10120F8BD40A142A001F012FF82
:1004400010B144A005F05EFC294647A005F05AFC17
:100450002846FFF727FF4FF4FA64204602F0D0F851
:100460004AA005F04FFCF8E770B504464FF0006075
:10047000844200D88000211A04F0F8F9D4E900057C
:10048000FFF7B7FEA847012070BD000000480040FC
:1004900000300140000C0140000801400010014004
:1004A0000000FE2F00000020426F6F74204669722A
:1004B0006D7761726520636865636B696E67202E76
:1004C0002E2E200D0A000000303A2F6669726D77DB
:1004D0006172652E62696E006C0000200080000869
:1004E000426F6F74696E672066726F6D206F6C6407
:1004F000206669726D7761726520307825782E2EBE
:100500002E2E2E0D0A0000004C6F6164696E67206C
:100510006669726D77617265202E2E2E0D0A0000BD
:10052000900200206669726D776172652072656164
:1005300064206661696C200D0A0000006F6C642EF7
:1005400062696E006669726D776172652E62696EAE
:10055000000000004261642072656E616D65202EAE
:100560002E2E0D0A00000000426F6F74696E672026
:1005700066726F6D206E6577206669726D77617245
:100580006520307825782E2E2E0D0A00426F6F746C
:10059000206661696C2E2E2E0D0A000008B50A2215
:1005A00022A1264801F0D2F8D8B96B460D2224A129
:1005B000224801F016FAA0B9204801F025FB80B9C5
:1005C00001221AA11D4801F0C1F850B96B460D2255
:1005D0001F491A4801F05BF918B9184801F014FBDB
:1005E00008B1012008BD1A4915A005F0F9FB18B1A2
:1005F00018A005F087FBF4E719A005F083FB0020A5
:1006000008BD10B519A005F07DFB002000F0BCF876
:1006100008B11CA006E02149002001F07DF8002867
:1006200003D01FA005F06EFB012010BD303A2F68EB
:10063000656C6C6F2E74787400000000C00600209A
:1006400048656C6C6F20576F726C640A0000000084
:10065000E4080020666174206661696C0D0A000080
:1006600066617420676F6F640D0A0000496E6974DB
:1006700069616C697A696E67206469736B2E2E2ECE
:100680000D0A0000496E697469616C697A652064BD
:1006900069736B206661696C0D0A0000900400208C
:1006A0004D6F756E74207364636172642066616956
:1006B0006C0D0A0010B504F0FCF9002010BD70B5F7
:1006C00004460E46400504D1204604F02CFA0428C6
:1006D00013D1C4F30A00251A05F50065264406E087
:1006E000284604F020FA042807D105F50065AE423B
:1006F000F6D805E02068401C01D0012070BD241D03
:10070000A642F7D8002070BD2DE9F0410D461646EF
:1007100007461146FFF7D3FFA8B9002408E055F8B3
:10072000241007EB840004F09CFA04280BD1641C0D
:10073000B4EB960FF3D3002009E057F8201055F8DA
:100740002020914202D00120BDE8F081401CB0EB96
:10075000960FF2D30020F7E710B54FF4006421465E
:10076000074802F069F8042806D1224604490548E2
:10077000FFF7CAFF042801D0012010BD002010BDE2
:10078000F40800200000070810B52EA005F0BAFA02
:1007900003F00BFF002807D003F0DAFDFF2003F081
:1007A000D5FD03F0D8FD012010BD0020704770B5C5
:1007B00014460D4680B97BB11A462146284603F0FF
:1007C000AFFF002807D003F0C3FDFF2003F0BEFDFC
:1007D00003F0C1FD012070BD042070BD70B514464A
:1007E0000D4648B943B11A462146284603F0CCFFCE
:1007F000002800D0012070BD042070BD10B5144643
:10080000E8B939B1012917D002290FD0032910D036
:10081000042010BD124C0020C4F8900103F0C0FD6C
:1008200000B101200121C4F8901110BD4FF40070F7
:1008300000E00820108002E003F080FE206000202D
:1008400010BD0000496E697469616C697A696E67F0
:1008500020736463617264202E2E2E0D0A00000046
:10086000000021424FF00F3070472DE9F041C56A7A
:100870000F460446BD422BD0217904F13008D9B18E
:10088000607801232A464146FFF7A8FFE0B900201F
:100890002071A169206A0844A8420DD9E67809E0D0
:1008A000A0690123054460782A464146FFF796FF78
:1008B000761EF6B2012EF3D857B1607801233A467E
:1008C0004146FFF774FF10B10120BDE8F081E762F7
:1008D0000020FAE72DE9F04104460021FFF7C5FFAB
:1008E000050050D12078032846D1A07AF0B3002625
:1008F00004F130004FF4007231460746E66201F021
:100900000DFE552084F82E02AA2084F82F025220D2
:1009100084F8300084F83100612284F832204120CC
:1009200084F83300722184F8141284F8151284F8C4
:10093000160284F81722206984F81802010A84F844
:100940001912010C84F81A12000E84F81B02E068D8
:1009500084F81C02010A84F81D12010C000E84F8B0
:100960001E1284F81F026078012300E004E039467B
:100970006269FFF733FFA672002260781146FFF725
:100980003DFF00B1012528469FE72DE9F0410C46C7
:100990000546022902D3E869A04201D8012094E764
:1009A00028782E6A012804D0022824D0032833D1C5
:1009B0002CE004EB540706EB57212846FFF755FFC0
:1009C00050BBC7F3080028447F1C90F8308006EB2A
:1009D00057212846FFF749FFF0B9C7F3080028441C
:1009E00090F8301048EA0120E10701D000096CE7D7
:1009F000C0F30B0069E706EB14212846FFF735FF2B
:100A000050B9E0B205EB4000008E5EE706EBD41172
:100A10002846FFF72AFF10B14FF0FF3055E74FF49B
:100A2000FE7000EA8400284490F83010D0F83100BD
:100A300041EA002020F0704047E72DE9F0471646D4
:100A40000C460546022902D3E869A04202D80220DA
:100A5000BDE8F08728782F6A06F0FF094FF0010AF9
:100A6000012809D0C6F30728022836D0032843D02E
:100A7000022085F804A0EBE704EB540807EB5821AB
:100A80002846FFF7F2FE0028F3D1C8F308002844F7
:100A90003030E10703D0017869F31F1100E03146DF
:100AA000017008F1010885F804A007EB58212846D9
:100AB000FFF7DBFE0028DCD1C8F308012944303100
:100AC000E20702D0C6F3071205E00A78C6F3032353
:100AD00002F0F0021A430A70CBE707EB1421284614
:100AE000FFF7C3FE0028C4D1E1B205EB410181F854
:100AF000309081F83180BCE707EBD4112846FFF72E
:100B0000B4FE0028B5D14FF4FE7101EA84012944F6
:100B1000320C01F8309F81F801808A70320ECA7061
:100B2000A7E72DE9F0410F460546022918D3E869E9
:100B3000B84215D900264FF001081DE03946284675
:100B4000FFF723FF04001AD0012C09D0601C09D044
:100B5000002239462846FFF770FF06000FD103E058
:100B600002260CE001260AE02869411C03D0401C43
:100B7000286185F80A802746E869B842DED8304601
:100B8000A3E62DE9F041C7695FEA0108064607D0F0
:100B900041463046FFF7F9FE022807D2012094E6CD
:100BA000F5680DB1BD4204D3012502E0B842F6D389
:100BB00045462C46641CBC4202D30224022D0AD3B3
:100BC00021463046FFF7E1FE38B1411CE7D001284D
:100BD000E5D0AC42EED1002077E66FF070422146BE
:100BE0003046FFF72AFF4FF0FF3540B95FEA0800B3
:100BF00007D0014622463046FFF71FFF08B12846BE
:100C000063E6F4603069411C03D0401E306101206E
:100C1000B072204659E670B50D46C1808168044621
:100C200001291ED02068C2698A421AD921B90278E6
:100C3000032A04D1416A11B18078060117E0E1600E
:100C40000189A9420DD9406A17E02068FFF79DFE8F
:100C50000146401C07D0022903D32068C06988429E
:100C600003D8022070BD012070BDA81B85B2B5421B
:100C7000EBD2E160206801F06CFC00EB1510206104
:100C800005F00F013022206802EB41110844606139
:100C9000002070BD2DE9F0410446C0880E46401C7E
:100CA00007043F0C2DD0206958B339075CD1401C94
:100CB0002061E168206829B18278521E12EA171F6C
:100CC00004D051E00089B8421BD94DE0FFF75DFE2A
:100CD0000546012819D9681C31D02068C169A9428C
:100CE0003CD876B1E168FFF74CFF05000BD0012D31
:100CF0000BD0681C23D000212068FFF7B6FDF0B9A7
:100D000005E00420E1E50720DFE50220DDE52068BD
:100D10004FF400723030002101F000FC29462068B9
:100D200001F017FC216800264FF00108C8620EE0B0
:100D300080F8048000212068FFF797FD08B10120AA
:100D4000C3E52068C16A491C761CF6B2C1622068FE
:100D50008178B142ECD8C16A891BC162E56029463D
:100D6000206801F0F6FB2061E78007F00F013022D8
:100D7000206802EB4111084460610020A5E57CB5C4
:100D800016461C4605460B2201F0C0FB052C09D96E
:100D9000600836F8021B00EBC430084484B2308887
:100DA0000028F5D107220A206B462146B4FBF0F457
:100DB00000FB141130319954521E002CF5D17E20C5
:100DC00000219854541E0AE0A0F181061E2E02D97B
:100DD000E0381C2802D8A14206D0491C491C914287
:100DE00002DA685C2028EFD1082A02DA985C521CEB
:100DF00000E020206854491C0829F5DB7CBD2DE962
:100E0000F84F05460021FFF706FF002874D1A869B6
:100E1000FF24A146C07A00F00100009029692868EB
:100E2000FFF723FD070066D16E69307848B1F17A8B
:100E3000E52801F03F0157D00A0704D50F2953D107
:100E400005E0042757E00F2901D0B4BB3AE0E96977
:100E5000A1B3420606D596F80D9000F0BF00EA88CF
:100E600004462A84A0422AD1727B4A4527D10098A1
:100E700008B330788B4600F0BF00401EB24600EB4E
:100E8000800101EBC0060027F748C15D01EB0A00B5
:100E9000008801F0ECFC8046FF2E10DA3BF81600CB
:100EA000761C01F0E4FC404509D17F1C0D2F02DACD
:100EB000B8F1000FE8D1641E02E008E015E0FF245D
:100EC000E4B212E0304601F050FB484502D04FF644
:100ED000FF702884009808B16CB105E00B22304601
:100EE000A96901F022FB30B1FF2400212846FFF759
:100EF000D1FE070092D03846BDE8F88F2DE9F041C9
:100F0000FF2504462F4604264FF000085CE02068C9
:100F1000FFF7ABFC06005BD16169087860B1CA7A63
:100F2000E52802F03F0205D02E2803D0130705D58F
:100F30000F2A07D0FF2537E0042649E00F2A01D009
:100F40007DBB38E0420605D54F7B00F0BF00E2884C
:100F500005462284A84225D1487BB84222D1087890
:100F6000DFF804C300F03F00401E00EB800202EBFC
:100F7000C000E6690022FF2814DA1CF802300B4496
:100F80001B882BB126F81030401C521C0D2AF2DBB6
:100F90000978490603D5FF2804DA26F810806D1E6B
:100FA00001E00DE0FF25EDB200212046FFF772FEC3
:100FB000060009D00CE0084601F0D7FAB84209D083
:100FC0004FF6FF70208405E0216900299FD10EB102
:100FD000C4F81080304678E42DE9FF5F04460C2207
:100FE000D4E906763946684601F090FA9DF80B0080
:100FF000C00719D00020F8720125E0612B46324667
:1010000069463846FFF7BBFE2046FFF7F8FE18B9E1
:101010006D1CADB2642DF1D3642D0BD004280AD120
:101020009DF80B00F872E6619DF80B00800711D562
:10103000002005E0072004B0BDE8F09F401C80B20E
:1010400036F810100029F9D119300D21B0FBF1F05C
:1010500087B200E0012700212046FFF7DCFD0028D1
:10106000E9D10025A84621692068FFF7FEFB0600AC
:101070000BD160690078E52808D038B1002501213E
:101080002046FFF707FE0600EDD075E00DB9B4F875
:1010900006806D1CADB2BD42F1D1012F53D941463E
:1010A0002046FFF7B8FD060066D1A06901F05DFAA1
:1010B0007F1EBDB24FF6FF7A039021692068FFF7CB
:1010C000D4FB060058D16169D4F81C90039848738A
:1010D0000F20C872002008738876EEB2C876701EA2
:1010E00000EB800202EBC0030022DFF87CB101F1CB
:1010F000010801E0504502D039F813005B1C1BF8D1
:1011000002C001F80C001BF802704FEA102C07F81F
:1011100008C000B95046521C0D2AEBDB504502D0E6
:1011200039F8130008B946F040060E702168012016
:10113000087100212046FFF7ADFD06001CD16D1E91
:101140002D042D0CB9D121692068FFF78EFB060014
:1011500012D1656920220021284601F0DFF90B2217
:101160002846A16901F0D2F9A069C07A00F0180000
:10117000287321680120087130465CE72DE9F041B1
:10118000018C0446C588A1F57F40FF3800D129466F
:101190002046FFF740FD002816D1E52601272169EA
:1011A0002068FFF762FB60B961690E7021680F71FA
:1011B000E188A94208D200212046FFF76BFD0028F4
:1011C000EDD0042800D1022011E42DE9F35F0024C2
:1011D00000980F688846D0F81CB025467E5D6D1CCF
:1011E000202E23D32F2E21D05C2E1FD0FF2C46DAA9
:1011F000A6F181001E2802D95F381C280BD8785D23
:101200006D1CA0F140013F2902D340397D2936D21F
:1012100000EB062086B2802E04D2314613A001F0E6
:1012200090F900BB2BF81460641CD7E77919C8F853
:101230000010202E01D204251FE000251DE00BEB3D
:10124000440030F8020C202816D02E2814D054B1B7
:1012500000212BF8141000980B222021806901F046
:101260005DF900270FE00AE0E05F0008222A3A3C1F
:101270003E3F7C7F00000000641E002CDFD1062072
:10128000BDE8FC9F7F1C3BF817002028FAD02E28D1
:10129000F8D01FB145F0030500E0641E2CB10BEB44
:1012A000440030F8020C2E28F7D14FF00008C14658
:1012B0004FF0080A3BF817607F1C06B3202E03D0BE
:1012C0002E2E04D1A74202D045F00305F2E7D04507
:1012D00001DAA74219D1BAF10B0F0ED0A74201D003
:1012E00045F003050BDC4FEA896027464FF00808FC
:1012F0004FF00B0A4FEA1069DCE745F00305009850
:1013000080690178E5293DD03EE0802E08D3304643
:1013100001F0ADFA002101F0ACFA064645F00205F5
:10132000FF2E0FD9AAF10100804503DB45F003052C
:10133000D046BFE70098310A826902F8081008F128
:10134000010818E026B13146FAA001F0FAF818B108
:101350005F2645F003050EE0A6F14100192802D8EA
:1013600049F0020907E0A6F16100192803D8203EE0
:1013700049F00109B6B20098816901F8086008F1E6
:10138000010897E705210170BAF1080F03D14FEA70
:1013900089604FEA1069C9F38100032803D06FEA1E
:1013A0000901890701D145F00205A90709D409F00F
:1013B0000301012901D145F01005012801D145F0B3
:1013C000080500988069C572002059E72DE9F041B1
:1013D0000E4601F109050169C1B3416900230C7B87
:1013E000CA5C202A0FD0052A00D1E522270705D59F
:1013F000A2F14107192F01D82032D2B25B1C05F8A7
:10140000012B082BECDB0A7A202A13D02E2205F8B8
:10141000012B0823CA5C202A0CD0E70605D5A2F1CF
:101420004107192F01D82032D2B25B1C05F8012BDD
:101430000B2BEFDBCA7A32720A7FD1F81D3042EAF9
:10144000032232600A8BB280C98AF1804FF0000813
:1014500085F80080B569002D20D001690024D9B13C
:10146000018CA1F57F42FF3A16D0C76910E0002138
:1014700001F0FFF940B1FF2802D9010A2955641C87
:10148000F169491EA14201DC002405E02855641CD5
:1014900037F8020B0028EAD105F8048032E473B56E
:1014A0000446019908782F2801D05C2801D1491CF5
:1014B00001910025A56001980078202805D200211F
:1014C0002046FFF7A8FB65617CBD01A92046FFF718
:1014D0007CFE0028F8D12046FFF791FCA169C97A6B
:1014E00001F0040128B10428EED10029ECD1052037
:1014F0007CBD0029FCD16069C17AC906F7D5818A13
:10150000408B61F31F40A060DFE710B504460A4638
:101510004078012304F13001FFF749F908B10320B5
:1015200010BDB4F82E02A0F52A41553901D0022091
:1015300010BD0322814904F1660000F0F6FF002887
:10154000F6D003227D4904F1820000F0EEFF28B9B5
:1015500094F85800000601D4002010BD012010BDF1
:101560002DE9F0410B46016815460A78303A092A00
:1015700007D84C783A2C04D1891C01600AB10B20A1
:1015800029E56F4804681C6084B1207820B1607838
:10159000FFF70BF9C1070BD000272770384667709B
:1015A000FFF7F2F8C10708D0032014E50C2012E57C
:1015B0000DB1400704D400200DE51DB1400701D551
:1015C0000A2008E5002631462046FFF79EFF012845
:1015D0000CD104F5F770017999B1017AD0F80900BE
:1015E00041EA002631462046FFF78FFF032801D04D
:1015F00038B901E00120EEE4B4F83B00B0F5007F1B
:1016000001D00D20E7E4B4F8460028B994F854005E
:10161000D4F8551040EA0120A06194F84010E17020
:10162000B4F83EC041430CEB0603236294F83D50EE
:10163000A570B4F841202281B4F8430028B994F889
:101640005000D4F851E040EA0E20A0EB0C00401A04
:10165000A0EB1210B0FBF5F0801C012540F6F77CE2
:10166000E061604500D302254FF6F77C604501D369
:1016700003250EE0032D0CD05818606201EB121008
:101680001844A0624FF0FF3020612771032D07D06E
:1016900038E094F85C00D4F85DC040EA0C20ECE738
:1016A000A772B4F86000012382196261607804F1C6
:1016B0003001FFF77CF828BBB4F82E02A0F52A41D0
:1016C00055391FD194F83000D4F8311040EA012088
:1016D0001C49884216D194F81402D4F8151240EA35
:1016E0000120194988420DD194F81C02D4F81D122A
:1016F00040EA0120E06094F81802D4F8191240EA98
:10170000012020610E492570091FE7620888401CEE
:101710000880E08038465EE408B10B207047084B33
:101720000022186800B1027001B10A70002019602F
:10173000704700002B2C3B5B3D5D0000DC5F000828
:101740000800002052526141727241612DE9F74751
:10175000ADF50D7D4FF00008064602F01F05C0F8FC
:1017600000806C4605F01E0280A98EA8FFF7F8FEE7
:1017700000281CD189A8CDE9860480A88E99FFF79E
:101780008EFE15F01C0F56D04FF0010960B10428F1
:101790000DD180A8FFF720FC002808D145F00805EE
:1017A000859C280739D455E0680704D508200DF535
:1017B000107DBDE8F087859CE4B3E07A10F0110F4E
:1017C00046D1280746D5A08A678B84F8148084F810
:1017D000158084F81A8084F81B8084F81C8084F8B3
:1017E0001D8084F81E8084F81F80809960F31F4755
:1017F00081F804908098D0F82CA047B139468098A1
:10180000FFF78FF90028D2D180987F1EC76051461C
:101810008098FFF72AF80028C9D184F80B800F20A0
:10182000A073E07320746074809945F0200581F8FE
:1018300004900FE00CE00028B9D1859C14B1E07A47
:10184000C10601D50420B2E7A90703D5C00701D01E
:101850000720ACE78098C06AF06185983062B57166
:10186000A18A608B61F31F403061207FD4F81D1086
:1018700040EA0120C6E90280FF21F171C6F8188014
:10188000809830608098C088B08000208FE72DE974
:10189000F05F4FF0000A8846C3F800A00446818834
:1018A00099461646006800F06DFE002803D1A07925
:1018B000010602D50220BDE8F09FC00708D0D4E998
:1018C0000210401A04F1240B864200D9064683E038
:1018D0000720F0E7A068C10566D12268E179937816
:1018E00099420BD308B310466169FFF74EF80128FF
:1018F0001DD9411C4ED0606184F807A06169206841
:1019000000F027FE98B1E1790F18750A28D02068F9
:101910004B198278934200D9551AEBB240783A4677
:101920004146FEF744FFA8BB06E02069DFE7A07947
:1019300040F08000A071BDE7A07940060AD5A069FB
:10194000C01BA84206D208EB40204FF40072594653
:1019500000F0DCFDE0792844E0714FEA452531E0F4
:10196000A07940060BD52068012359464078A2692A
:10197000FEF734FF70B9A07920F04000A071A06993
:10198000B8420DD0206801233A4640785946FEF708
:101990000EFF28B1A07940F08000A07101208AE7F5
:1019A000A761E079401CE0712089C0F30800C0F510
:1019B0000075B54200D93546011924312A46404602
:1019C00000F0A4FDA068A8442844A060D9F8000055
:1019D0004119761BC9F80010002E7FF47BAF002060
:1019E00069E72DE9F05F4FF0000A8846C3F800A0D0
:1019F0000446818899461646006800F0C3FD002819
:101A000003D1A079010601D5022054E7800701D453
:101A1000072050E7E06804F1240B8219824275D355
:101A200096E0A068C10577D12268E1799378994260
:101A30000DD3C0B110466169FFF7A3F8002865D047
:101A4000012834D0411C5BD0606184F807A0A079E4
:101A5000400615D52068012359464078A269FEF753
:101A6000BDFEE8BB08E020690028E9D1002110464E
:101A7000FFF787F82061E1E7A07920F04000A0712E
:101A80006169206800F065FD88B1E1790F18750A79
:101A900027D020684B198278934200D9551AEBB2AF
:101AA00040783A464146FEF799FEC8B904E0A0796D
:101AB00040F08000A071A7E7A069C01BA8420AD22D
:101AC00008EB40214FF40072584600F01FFDA0794A
:101AD00020F04000A071E0792844E0716D022DE013
:101AE0000EE0A069B84213D0D4E9020188420FD2B7
:101AF000206801233A4640785946FEF758FE38B12F
:101B0000A07940F08000A0710120D4E623E003E03A
:101B1000A761E079401CE0712089C0F30800C0F59E
:101B20000075B54200D93546204424302A46414646
:101B300000F0ECFCA07940F04000A071A068A8443F
:101B40002844A060D9F800004119761BC9F800109C
:101B5000002E7FF466AFD4E90201884200D9E0602C
:101B6000A07940F02000A0710020A4E610B5044642
:101B70008188006800F006FD00280ED1A1798A0650
:101B80000BD548060ED52068012304F124014078C6
:101B9000A269FEF723FE08B1012010BDA07920F054
:101BA0004000A071E1692068FEF75FFE0028F4D1D3
:101BB000206AC17A41F02001C172217B0177A1899D
:101BC000090A4177E168090C8177E168090EC1775C
:101BD000217C8176218A090AC1762169090C017567
:101BE0002169090E41750F218175C1750176417614
:101BF000A07920F02000A0712168012008712068E0
:101C0000BDE81040FEF766BE10B50446FFF7AEFF14
:101C1000002801D10021216010BD2DE9F0410D46C1
:101C200004468188006800F0ADFC5FEA000803D13B
:101C3000A179080601D5022030E4E068A84202D26A
:101C4000890700D405460027A068FF21A760E1713D
:101C5000FDB1226891784E0268B1691E401EB1FB49
:101C6000F6F1B0FBF6F3994205D3711E8843A060EC
:101C70002D1A61690CE0216949B900211046FEF76F
:101C800080FF0146012844D0481C53D02161616186
:101C9000D1B92BE0A0798007206805D5FEF771FF48
:101CA000010004D1354611E0FEF76FFE0146481CE5
:101CB00040D001292DD92068C069884229D96161A5
:101CC000A068AD1B3044A060B542E3D8A0682844AA
:101CD000A060C5F34720E071E80507D0206800F058
:101CE00038FCB0B1E1790F18491CE1712089C005B9
:101CF00027D0A269BA4224D0A07904F12405400675
:101D000010D52068012329464078FEF767FD88B981
:101D100004E0A07940F08000A0718CE7A07920F069
:101D20004000A071206801233A4640782946FEF71A
:101D30003EFD28B1A07940F08000A07101201FE491
:101D4000A761D4E90201884204D9E060A07940F09B
:101D50002000A071404613E433B5ADF5037D044681
:101D600001466D46002284A8FFF7FAFB00281BD12C
:101D700080A8C4E9060520468499FFF790FB80B946
:101D8000606938B1C17AC9060DD5818A408B61F38B
:101D90001F40A06020680021C088A0802046FEF778
:101DA0003AFF042800D105200DF5057D30BD70B542
:101DB0000E46ADF5047D044681886D46006800F04E
:101DC000E1FB002817D180A8C4E90605B6B120467A
:101DD000FFF794F80025042815D000280BD13146D0
:101DE0002046FFF7F3FA00212046FEF753FF0428B0
:101DF00001D1002025610DF5047D70BD0021204634
:101E0000FEF709FFF7E72561E9E773B5ADF50C7D4E
:101E10000E466D46002280A98CA8FFF7A1FB0400A6
:101E200010D189A8CDE9860580A88C99FFF737FBEA
:101E3000040007D1859820B1314680A8FFF7C6FA83
:101E400000E006240DF50E7D204670BD2DE9F74318
:101E500015468946002229466846FFF781FB00287F
:101E60001CD12868C7690169BA1E914202D8C9F815
:101E7000001049E090F800800024B8F1010F01D073
:101E8000066A17E0022631462868FEF77EFD411CEF
:101E900003D0012804D028B105E00120BDE8FE836D
:101EA0000220FBE7641C2868761CC0698642EAD3DE
:101EB00020E051B93146761C2868FEF7D6FC002890
:101EC000ECD128684FF400713030B8F1020F06D021
:101ED0000278D0F8013052EA032206D006E00288E8
:101EE00002B9641C801C891E02E0641C001D091FCD
:101EF0007F1EDED12868B8F1030F046102D1296882
:101F000001208872C9F800400020C7E770B5044678
:101F10008188006800F036FB050003D1A17908062E
:101F200001D5022070BD880701D4072070BDD4E917
:101F30000202824230D941F02001E060A17150B12B
:101F400061692068FEF721FD0646401C0BD0012E7A
:101F50000BD065B11CE021692068FEF7E2FD054663
:101F60000020206113E0012512E0022510E0206826
:101F7000C169B14210D96FF070426169FEF75DFD31
:101F8000050005D131462068FEF7CBFD05461DB1A1
:101F9000A07940F08000A071284670BD11B5ADF564
:101FA000157D6C46012280A995A8FFF7D9FA002873
:101FB0000FD192A8CDE9860480A89599FFF76FFA12
:101FC000002806D1859818B1C17ACA0730D103E03C
:101FD00006200DF5167D10BD828A448BC80662F37B
:101FE0001F4415D5022C01D20220F2E7242280A939
:101FF00089A800F08BFA002189A88B94FEF70BFECC
:102000000028E6D189A8FEF779FF88B10428E0D13D
:1020100080A8FFF7B3F80028DBD12CB121468098C7
:10202000FEF77FFD0028D4D18098FEF753FCD0E75F
:102030000720CEE72DE9F14FADF50E7D6C4601226C
:1020400080A98EA8FFF78CFA002815D18BA8CDE9BE
:10205000860480A88E99FFF722FA60B104280BD17C
:1020600000218098FEF78DFD05004FF0000007D09D
:10207000012D07D007E008200DF50F7DBDE8F08F9A
:10208000072000E00220691C41D00028F4D1002183
:102090008098FEF7EAFB0028EED12946809800F0F0
:1020A00058FA809C064630344FF4007200212046D6
:1020B00000F034FA0B222021204600F02FFA2E27C0
:1020C00027701020E0720F20A075E07520766076F2
:1020D000E8B28A90A076C5F307208990E076C5F330
:1020E000074B84F814B04FEA156A4FF00F3884F8A4
:1020F00015A02022214604F1200000F007FA84F800
:102100002170809982980978032902D006E0012085
:10211000B2E78099496A814200D100203434010A33
:10212000A071E171010C2170000E6070343C002739
:102130004FF0010913E08098C6628099761C81F8FF
:10214000049000218098FEF790FB002894D14FF472
:1021500000720021204600F0E1F97F1CFFB2809858
:102160008078B842E7D880A8FEF736FF040004D094
:1021700029468098FEF7D5FC1CE085981021C17295
:1021800080F816804FEA1821C1754FEA1841017690
:102190004FEA186141768A9981768999C17680F8EB
:1021A00014B080F815A0809981F804908098FEF70B
:1021B00091FB044620465FE777B5ADF50D7D1546EA
:1021C0000C466E46012280A98DA8FFF7C9F90028A8
:1021D00017D189A8CDE9860680A88D99FFF75FF908
:1021E00000280ED1859878B105F02702C17A1440F5
:1021F00091430C43C4728099012008718098FEF7C6
:1022000069FB0DF5107D70BD0620FAE733B5ADF51D
:102210000D7D0C466D46012280A98DA8FFF7A0F91F
:1022200000281AD189A8CDE9860580A88D99FFF7E5
:1022300036F9002811D1859890B1A1798175E1888E
:10224000090AC17521790176A188090A4176809928
:10225000012008718098FEF73DFB0DF50F7D30BD24
:102260000620FAE733B5ADF51B7D0C46694698A804
:10227000CDE98601012280A99BA8FFF771F900280A
:1022800049D18098899080A89B99FFF708F9002888
:1022900041D18598E0B300F10B01152292A800F01E
:1022A00035F9242280A989A800F030F9214689A8AF
:1022B000FFF7F5F868B304282DD189A8FEF78CFE46
:1022C000002828D18E9C13220DF24A2104F10D0022
:1022D00000F01CF99DF84802012540F02000E07252
:1022E00080980571E07AC00631D5A18A608B0143E0
:1022F000899800F02EF9010012D08998FEF7B5FAFE
:1023000089995031002806D148782E280AD01EE03D
:1023100000E003E004200DF51D7D30BD0820FAE744
:102320000220F8E789980078032806D1899A8B98CB
:10233000526A904201D1002000E08B988876020A10
:10234000CA76020C0A75000E48758998057180A836
:10235000FEF714FF0028DED18098FEF7BBFADAE71B
:102360002DE9F84300259046074604464E1E0DE031
:102370006B46012221464046FFF789FA0098012862
:1023800006D114F8010B6D1C0A2801D0B542EFDB11
:102390000020207015B13846BDE8F8830020FBE727
:1023A0007CB50D0004460AD08DF804406B4601222E
:1023B00001A92846FFF715FB009808B120467CBD0F
:1023C0004FF0FF307CBD70B50E460446002506E098
:1023D0003146FFF7E5FF401C06D0641C6D1C2078D9
:1023E0000028F5D1284670BD4FF0FF3070BD0FB406
:1023F0002DE9FF47002581460EAC2F46A8466E46C4
:1024000078E00D9A12F8010B0D92002874D025285F
:1024100007D04946FFF7C4FF0746401C69D0012793
:1024200067E0002012F8011B03460D9230290AD103
:10243000012005E003EB830201EB42030D9A303BE0
:1024400012F8011B0D92A1F13002092AF2D96C2970
:1024500005D10D9A40F0020012F8011B0D9273296C
:102460000ED063290ED0002264290DD075290BD01F
:1024700058290BD08AB3870780CC642908D00CE098
:1024800001CC32E001CCC4E70A22F4E71022F2E7E3
:10249000002F02DA7F4240F004000F218DF80F80F8
:1024A000B7FBF2FC02FB1C773037FFB2392F02D9A1
:1024B00007F10707FFB2491E7754674606D0002F81
:1024C000EED1420702D52D22491E7254C3F10F03EB
:1024D00007E0C20702D0302201E00DE02022491EB1
:1024E000725409B19942F4DC70184946FFF76BFF4A
:1024F00007463D44781C84D1781C05D0284604B09A
:10250000BDE8F0075DF814FB3846F8E703E011F882
:10251000013B00F8013B521EF9D27047C9B201E0FD
:1025200000F8011B521EFBD2704710B50023521E4B
:1025300005D310F8013B11F8014B1B1BF7D01846CF
:1025400010BD00E0401C02780AB18A42FAD1D0B234
:102550007047C269891E921E8A4201D800207047C6
:10256000826A807801FB00207047014600200B2220
:10257000430803EBC01011F8013B521E1844C0B2CF
:10258000F6D1704710B520B1027812B1C2888A42E4
:1025900001D0092010BD4078FEF707F9C007F9D037
:1025A000032010BD10B56FF0040002F070F9204850
:1025B00020490068B0FBF1F01F49C0B200EB4002B7
:1025C0000870C2EBC0104FF6FF7202EAC0004880EC
:1025D00010BD1949097848434FF0E02148610023B4
:1025E0008B61086940F0010008610869C20701D0E9
:1025F000C003FAD5086920F0010008618B617047BB
:102600000D49498848434FF0E021486100238B6120
:10261000086940F0010008610869C20701D0C003E1
:10262000FAD5086920F0010008618B61704700004D
:102630005800002000127A000C00002070B50646F9
:102640000024334D03E0641CE4B2C82C0FD80221EF
:10265000284603F0C3F80028F5D03146284603F099
:1026600079F8002405E0641CE4B2C82C01D90020EC
:1026700070BD0121284603F0B1F80028F3D02846A8
:1026800003F06AF8C0B270BD38B5012141F2040010
:1026900002F073FEE020ADF8000018208DF8030072
:1026A00003201C4C8DF802006946204602F07FFC96
:1026B000E021204602F0E3FC174800214FF482722B
:1026C0000180428081800222C28001220281520266
:1026D000428138228281C181072101820C4C01464E
:1026E000204602F093FF0121204603F00BF8FF2063
:1026F000FFF7A4FF38BD10B50749054C8881204677
:1027000002F084FF2046BDE81040012102F0FABF2C
:102710000030014000080140F41000207047424999
:102720000A885206FCD5404AC1B2121D118070477A
:1027300070B5054686B00121082002F01EFE012179
:10274000880402F023FE4FF48060ADF810000324EB
:102750008DF812401820354E8DF8130004A930462C
:1027600002F025FCF014ADF8100004208DF81300E1
:1027700004A9304602F01BFC27208DF814008DF8C8
:1027800015408DF8164001208DF8170005A802F0BD
:1027900040F80020ADF80400ADF80600ADF80800E0
:1027A000ADF80C000C20204CADF80A0000956946ED
:1027B000204603F071F8012240F22551204603F033
:1027C000EDF80121204603F0DFF806B070BD70B5CA
:1027D000154C40F22551204603F097F900280ED001
:1027E000204603F02BF9124AC1B21088030406D424
:1027F00044044FF0000306D50A2901D0138070BDB0
:1028000040F400400DE00D2909D0C0F30D04094D3E
:10281000401C80B229551080C728EFD870BD40F405
:102820008040108070BD000000480040000C014056
:10283000100000200611002008B1002204E0012051
:10284000704740F82220521CB2EB910FF9D30020C0
:102850007047FEE702E000F8012B491C0A78002AC5
:10286000F9D100210170704718467047FEE700203B
:1028700070470020704708B531208DF80000002017
:102880008DF801008DF8020001208DF803006846E4
:1028900001F0BFFF08BD00B595B0FFF7ECFF4FF4A6
:1028A000A06001F0B1FF00F005FA2A2813D16846B4
:1028B00000F04EFA2A280ED1BDF84C00000400F0BA
:1028C000B0FC2A2807D1002000F065FC2A2802D19C
:1028D000002000F09AFC15B000BD000010B5FF4AC2
:1028E0002A24516B11F0450FFBD0480702D5032471
:1028F000042003E0C80705D00124204602F049FE69
:10290000204610BD40F2FF50F8E72DE9F84F0120B6
:102910002A24ADF8000002F0B4FDB8B3DFF8C0938C
:10292000D9F8040004286ED0EE4D4FF0C00A0026FE
:102930000220C5F808A0C5E900604FF48068C5E929
:102940000368284602F0AEFDFFF7C8FF04462A28B8
:102950001ED1002002F0C2FDA5F128073860042036
:1029600002F0BCFD7860082002F0B8FDB8600C20D1
:1029700002F0B4FDF860D9F804004F4650B10128C8
:1029800008D0062806D0022804D015E0FFE725204D
:10299000BDE8F88F0320C5E9006005F1080140207B
:1029A000A1E84101CF4802F07DFD6946032001F016
:1029B00072FC04462A28EBD17868042823D0BDF89D
:1029C0000000B860000428600920C5E9010AC5E9D3
:1029D0000368C44802F066FDFFF780FF04462A281A
:1029E000D6D1002002F07AFDBE4D383D286004208B
:1029F00002F074FD6860082002F070FDA8600C20F1
:102A000002F06CFDE8602046C2E770B5B3490546A8
:102A10002A24486B10F0450FFBD0410702D5032450
:102A2000042003E0C00704D00124204602F0B1FDD9
:102A300059E002F04FFDA8422BD140F2FF5002F0C6
:102A4000A8FD002002F04AFDA74908424BD000280B
:102A500001DA1C2070BD410001D5092070BD810044
:102A600001D50A2070BDC10001D50B2070BD010148
:102A700001D50C2070BD410101D50D2070BDC101F3
:102A800001D50E2070BD010201D50F2070BD41029D
:102A900001D5102070BD810201D5112070BDC10289
:102AA00001D5122070BD010301D5132070BD410373
:102AB00001D5142070BD810301D5152070BDC1035F
:102AC00001D5162070BD010401D5172070BD410449
:102AD00001D5182070BD810401D5192070BD0007F3
:102AE00001D51A2070BD204670BD2DE9F84F002792
:102AF0007C48B2211838BB46017507604760876083
:102B0000C7603D463E46B8465C46076102F091FC10
:102B1000032002F0ADFC012002F0A7FCDFF8C4A105
:102B20004FF480615046CAF80040CAF80440CAF821
:102B30000840CAE9034102F0B5FC4FF02A0942F20D
:102B4000107401E0641E26D0802002F01AFD0028D7
:102B5000F8D004B340F2FF5002F01BFD48462A288B
:102B60007ED14FF4D570CAF800000820CAF80400DE
:102B7000D9460AF1080140204FF4806BA1E8010A10
:102B80005446584802F08EFC544B2A2242F21070F0
:102B9000596B9A4605E00320E1E7DAF83410A0F11A
:102BA000010011F0450F06D008B1480706D50322F1
:102BB0000420009207E00028EFD1F8E7480605D589
:102BC0002A224020009202F0E4FC009A2A2A21D016
:102BD0003721C4E900914021C4F810B0C4E90219BA
:102BE000404802F05FFC3720FFF70FFF3D4800220E
:102BF0003721C0E900214FF04009C0F810B0C0E90A
:102C0000029202F04FFC3720FFF7FFFE04462A280D
:102C10003DD04DE0324801214FF080484160E5E76A
:102C2000304C00263720C4F80890C4E90060C4E99D
:102C3000036B5F46204602F035FC3720FFF7E5FEC8
:102C40002A280DD1294948EA010020602920C4E939
:102C50000109C4E90367204602F024FC2A2400E0AD
:102C60001FE05146486B10F0450FFBD0400702D5DE
:102C70000324042001E040F2FF5002F08AFC2A2CD9
:102C800016D1002002F02AFCC60F07466D1C1EB9A3
:102C90004FF6FF708542C3D34FF6FF70854201D3D4
:102CA0001B2075E617F0804F02D00D4802214160CD
:102CB00020466DE638B50121302002F05EFB4FF46E
:102CC000F850ADF8000003208DF8020018208DF8B0
:102CD00003006946064802F06AF90BE000800140F3
:102CE000180000200812002008E0FFFD00001080FE
:102CF000001001400420ADF800006946FA4802F0D7
:102D000056F90121880202F02FFB0121022002F076
:102D10002BFB02F081FBFFF7E8FE2A2810D1FFF71A
:102D2000F4FD04462A280BD1F04801210175002149
:102D3000016041608160C160016102F07AFB204660
:102D400038BD10B52A24002002F092FB204610BDA9
:102D50002DE9F047E649DFF894834FF02A0C4B68E1
:102D600080F84E300989A8F12008A0F84C10D8F856
:102D700000100A0E94090470C2F38304447002F038
:102D8000030282700A0CC2700A0A02714171D8F8FB
:102D90000420110E0901C180C488C2F3074144EA2E
:102DA0001114C48001F00F010172C2F30721CC0994
:102DB0004472C1F380148472C1F34014C472C1F32D
:102DC000001404734FF0000980F80D9044464FF052
:102DD000010AA468260EC4F30745C4F3072723B1EC
:102DE000012B02D0022B2BD03CE08907090D016199
:102DF000D1B2026942EA81010161016941EA961199
:102E00000161C6F3C201017506F007014175690948
:102E10008175C5F38201C175A907490F0176027E4C
:102E2000394642EAD11202760369027E5B1C921C8B
:102E3000057A93400AFA05F25343C0E9113211E0D2
:102E40009106890A0161016941EA0621016101696E
:102E50002943016102693946521CD20442644FF48D
:102E6000007282641C30C1F3801200F8032C8906C2
:102E7000490E00F8021C10F8022CE1B242EAD1120D
:102E800000F8022C01F07F0100F8011CD8F80C209A
:102E9000110ECB090370C1F341134370C1F38203D8
:102EA00083708907090FC170C378C2F3074143EAF1
:102EB0009113C370C1F34013037180F8059001F0C2
:102EC00001018171C2F30721CB09C371C1F38013E2
:102ED0000372C1F340134372C1F300138372C1F351
:102EE0008103C37201F003010173C2F34601417310
:102EF000534680F80EA07D4A103A11680C0E0474F7
:102F0000C1F3074424024482458AC1F307242543C0
:102F1000458209064161516845690C0E45EA044441
:102F200044614569C1F3074445EA042444614569A5
:102F3000C1F3072425434561017691680C0E447660
:102F4000C1F307442406C461C569C1F3072445EAF7
:102F50000444C461C469C9B244EA0121C161D168B1
:102F6000C46944EA1164C46190F82040C1F3074287
:102F700044EA121480F820401207120D4284448C57
:102F8000C1F3072214434484C1F3460180F824109E
:102F900080F825306046BDE8F0872DE9FC5F534F8F
:102FA0000024183700944FF4806801944025C7F836
:102FB0001080C7E902540E464FF0080B1021C7E9F4
:102FC00000B1A146384602F06DFA1020FFF71DFD52
:102FD0002A2844D14648AA464D4600890004386054
:102FE0003720C7E9010AC7E90398384602F05AFAC0
:102FF0003720FFF70AFD2A2831D107F114003D4997
:10300000C0E9001B302181600221C0E903150121C4
:10301000416102F06AFA3320C7F808A0C7E90050FE
:10302000C7E90358384602F03DFA3320FFF7EDFCBC
:1030300005462A2813D1DFF8C0804FF4001A6F46E6
:1030400040F22A69D8F8340010EA090F09D00820A4
:1030500002F097FA80B1082002F09BFA0420BDE844
:10306000FC9F504602F08DFA0028EBD002F05DFA8A
:1030700047F82400641CE5E7022002F082FA20B140
:10308000022002F086FA0220E9E7202002F079FA15
:1030900020B1202002F07DFA0620E0E74FF4007412
:1030A000204602F06EFA20B1204602F072FA0720A4
:1030B000D5E740F2FF5002F06CFA009800BA706059
:1030C000019800BA30602846C9E72DE9FC47002482
:1030D000814600942046019402F000FA80010DD54B
:1030E0000E20BDE8FC87000000140140F011002014
:1030F00018000020FFFF0F0000800140F94D6946D5
:10310000288980B2FFF749FF2A28EAD13720F64EF6
:1031100001994FF0060A4FF040084FF48067B9F16B
:10312000010F1ED0C90334D52989C6F808800904C7
:10313000C6E90010C6E90347304602F0B3F937206C
:10314000FFF763FC2A28CCD1C6F80880C6E9004AFC
:10315000C6E90347E44802F0A5F90620FFF755FC4D
:10316000BFE7490315D52989C6F808800904C6E9CF
:103170000010C6E90347DC4802F094F93720FFF756
:1031800044FC2A28ADD10220C6F80880C6E9000A0E
:10319000DEE72520A5E72DE9F0410146D1482A24A4
:1031A0004068032816D018B1012801D002282AD17E
:1031B000B1F5805F0ED0CC4D4FF40068002601279A
:1031C000183D41450FD10120FFF77FFF04462A2813
:1031D00003D018E02720BDE8F0812F752E606E60C7
:1031E000C5E902680AE00020FFF76FFF04462A28BD
:1031F00009D12F752E606E60AE60EE60BA482E6108
:10320000183802F016F92046E5E72A2130B10128E6
:1032100004D0022802D0262108467047B14AD06067
:10322000FAE7B14910B5086007204860402088607F
:103230000020C8604FF480600861084602F032F94F
:10324000BDE810400720FFF7E0BB70B504468CB026
:103250000E46A64801F0EDFBA54D0021284601F0E1
:10326000C2FBA448CDE900040020B108CDE9020169
:103270008021CDE90401890006918900CDE907107C
:103280008900CDE909106946284601F082FB012139
:10329000284601F0A8FB0CB070BD2DE9F84F15468B
:1032A0000C00064633D0DFF83C922A2089F8000053
:1032B0000027C9F81870DFF830828F4908F1140828
:1032C000C9F81070C8E90017C8F80870C8F80C7081
:1032D000C8F810704046C8F8147002F006F90020D3
:1032E00002F0DDF8002002F0F9F8800101D50E208F
:1032F000D7E47C484FF4007B4068022801D15D464A
:10330000760A681EB0F5006F01D2054201D0262072
:10331000C7E4284600F0F5FFDFF8CC91009048465E
:103320001021C0E900514FF0400AC9E902A7890104
:10333000C9F8101002F0B6F81020FFF766FB2A2833
:10334000D6D16D48C8E9000500980001C8F808000A
:103350000220C8E903070120C8F8140009F114008D
:1033600002F0C3F8DFF87C8148461121C8E9045710
:10337000C8F82440C0E90061C9E902A74FF48061A0
:10338000C9F8101002F08EF81120FFF73EFB064638
:103390002A28ADD1D8F80C004746022811D00128C0
:1033A0004FD098B372E0484602F0EBF878B10025B0
:1033B00002F0BBF844F825006D1C082DF8D320342A
:1033C00005E04C4F4FF40049803F40F22A68786B8B
:1033D00010EA080FE7D0082002F0D3F820B1082047
:1033E00002F0D7F804205CE4022002F0CAF820B111
:1033F000022002F0CEF8022053E4202002F0C1F8AF
:1034000028B1202002F0C5F806204AE428E05D46F5
:10341000584602F0B6F840B1284602F0BAF8072044
:103420003FE402F082F801C401E04FF400152846A1
:1034300002F0A7F80028F4D140F2FF5002F0A9F8FA
:1034400024E0012148F22A3002F020F8B86910B9CE
:1034500038782A28FAD038782A2817D0387820E403
:10346000012140F22A3002F011F8012002F017F891
:1034700029462046FFF7E9FE6FF07F441F4D00E02C
:10348000641E284601F0C7FA10B11CB1304608E4AA
:10349000002CF5D1292004E42DE9F84F1E461746EB
:1034A0000C00804658D0DFF83C902A2189F80010A3
:1034B0000025C9F818500C480F491430C9F81050AD
:1034C000C0E900158560C5600561456102F00DF831
:1034D000002001F0E4FF002002F000F880010FD589
:1034E0000E2005E7180000200812002000F0001050
:1034F0004404024080800140FFFF0F0000200010C4
:10350000D9F80400022802D107024FEA5828781E91
:10351000B0F5006F20D207421ED1384600F0F1FE10
:10352000DFF834B4009058461021C0E90071402102
:10353000CBE902150901AA46CBF8101001F0B2FF41
:103540001020FFF762FA05462A28CAD1012E3CD97D
:103550007E43B6F1007F01D32620C9E64F46C9F865
:1035600024400121FC48C7E904611430FB4AC0E94A
:103570000026009AD146120182600222C260C0E990
:1035800004A1554601F0B1FF4146CBF80010584662
:10359000D84612214FF0400BC560C0E9011B4FF423
:1035A000806AED48C8F810A001F07CFF1220FFF7F8
:1035B0002CFA05462A2894D1F86840F22A320228CB
:1035C00012D0012866D0002874D08BE04FF4004060
:1035D00001F0D7FF40B1002601F0A7FF44F8260014
:1035E000761C082EF8D32034DD48406B40F22A3197
:1035F0000842EBD0082001F0C4FF20B1082001F000
:10360000C8FF042074E6022001F0BBFF20B10220B5
:1036100001F0BFFF02206BE6202001F0B2FF20B1D5
:10362000202001F0B6FF062062E64FF40076304617
:1036300001F0A7FF40B1304601F0ABFF072057E68D
:1036400001F073FF01C401E04FF40016304601F0B1
:1036500098FF0028F4D14FF4807001F092FFA0B1E0
:10366000786818B1022801D001280ED149460C22F1
:1036700088E80608C8E9039AB74801F013FF0C2050
:10368000FFF7C3F905462A28BCD140F2FF5001F0EC
:1036900080FF27E0012148F22A3001F0F7FEB869E7
:1036A00010B938782A28FAD038782A281AD03878E9
:1036B0001EE6FFE70121104601F0E8FE012001F0BF
:1036C000EEFE31462046FFF7C0FDA64C204601F035
:1036D000A2F90028FAD0B8690028E5D138782A285C
:1036E000F9D0E1E7284603E67CB5044600219E4870
:1036F0000091019100892A250204974802600D2259
:1037000042604022C0E902211101016101F0CAFEBC
:103710009349486B019002E04A6B0192104610F009
:10372000450FF9D00198400702D50324042004E096
:103730000198C00705D00124204601F02AFF204649
:103740007CBD01F0C7FE01900D2838D140F2FF503A
:1037500001F01FFF002001F0C1FE0090C0F34320E4
:1037600020708249009808425DD00098002801DA54
:103770001C207CBD400001D509207CBD0098800044
:1037800001D50A207CBD0098C00001D50B207CBD6E
:103790000098000101D50C207CBD0098400101D5A6
:1037A0000D207CBD0098C00101D50E207CBD009885
:1037B000000201D50F207CBD0098400201D51020E9
:1037C0007CBD0098800201D511207CBD0098C0020C
:1037D00001D512207CBD0098000301D513207CBDCB
:1037E0000098400301D514207CBD0098800301D5CA
:1037F00015207CBD0098C00301D516207CBD009823
:10380000000401D517207CBD0098400401D5182084
:103810007CBD0098800401D519207CBD009800076C
:1038200001D51A207CBD28467CBD70B504468CB0FD
:103830000D464F4801F0FDF84E4E0021304601F094
:10384000D2F8474880218030CDE900041020029052
:10385000A80803900020CDE90401890006918900A1
:10386000CDE907108900CDE909106946304601F01D
:1038700090F80121304601F0B6F80CE52DE9FC5F27
:103880004FF0000617460C0080468DF80060354664
:103890002BD0DFF8D4902A2189F80010C9F81860DD
:1038A0002D482E491430C9F81060C0E90016866012
:1038B000C6600661466101F018FE002001F0EFFDD0
:1038C000002001F00BFE800102D50E20BDE8FC9F18
:1038D000D9F80400022802D107024FEA5828781EBE
:1038E000B0F5006F01D2074201D02620EEE738463E
:1038F00000F007FDDFF860A0019050461021C0E9FC
:1039000000714FF0400BCAE902B68901CAF81010E5
:1039100001F0C8FD1020FFF778F82A28D6D1124808
:103920004FF00D09008901048AE8020A0021CAF853
:103930000C104FF480615046CAF8101001F0B2FD2F
:103940000D20FFF762F82A28C0D1002001F0C6FD43
:10395000024E4FF000090FE008120020FFFF0F0099
:1039600000800140002000101800002008E0FFFD4A
:1039700000F0001044040240DFF8F8B319E0BBF88F
:103980000800761E0104CAF800100D21CAF80410C0
:103990004021CAE902190901F748CAF8101001F0DC
:1039A00081FD0D20FFF731F82A288FD1002001F08A
:1039B00095FDC00502D4002EE1D12EE06EB3504635
:1039C0001821C0E900814021CAE902190901EA4829
:1039D000CAF8101001F066FD1820FFF716F82A2823
:1039E00084D15E46E448CBF82040C6E9047914301F
:1039F000E24AC0E90027019A01211201C0E9022927
:103A0000C0E90491D84601F070FDF06802282BD07F
:103A10004546012858D0C8B37EE0292056E74FF428
:103A2000804001F0AEFD18B3D8F81000401B2028EC
:103A30000FD281074FEA900700D07F1C002605E0D7
:103A4000206801F076FD761C241D2D1DBE420FD28C
:103A5000F6E7002654F8260001F06BFD761C082ED0
:103A6000F8D32034203503E0DFF8149340F21A6ACB
:103A7000D9F8340010EA0A0FD1D0082001F081FDF6
:103A800028B1082001F085FD04201FE72BE002206B
:103A900001F077FD20B1022001F07BFD022015E747
:103AA000102001F06EFD20B1102001F072FD052004
:103AB0000CE74FF40074204601F063FD60B320462C
:103AC00001F067FD072001E7012144F21A3001F0FF
:103AD000DDFCA86910B928782A28FAD028782A2885
:103AE0001AD02878F2E6012140F21A3001F0CEFC1B
:103AF00039462046FFF799FE012001F0D0FCA14C89
:103B0000204600F088FF0028FAD0A8690028E5D1F7
:103B100028782A28F9D0E1E740F2FF5001F039FD7A
:103B20006846FFF7E1FD2A28AFD19DF8001007296C
:103B3000F6D00629F4D0C9E62DE9FC5F81464FF0A6
:103B40000000984617460C008DF8000005465CD032
:103B5000884E2A2131708246B0618749874A1431E4
:103B60003061C1E900208860C8600861486108468A
:103B700001F0BBFC002001F092FC002001F0AEFC43
:103B8000800101D50E20A1E67068022802D107024B
:103B90004FEA5929781EB0F5006F36D2074234D16A
:103BA000384600F0AEFBDFF8D0B101905846102146
:103BB000C0E900714021CBE9021A0901CBF81010CD
:103BC00001F070FC1020FEF720FF2A28DBD16948A5
:103BD000008901045846D34601600D2141604FF42D
:103BE000806A4021C0F810A0C0E9021B01F05AFC15
:103BF0000D20FEF70AFF2A28C5D1B8F1010F67D9B9
:103C000008FB07F6B6F1007F01D326205EE659488F
:103C1000406818B1012801D0022823D15548564FD9
:103C2000008900043860372078604020C7F810A071
:103C3000C7E9020B384601F035FC3720FEF7E5FEF8
:103C40002A28A0D11720C7E900804020C7F810A07B
:103C5000C7E9020B384601F025FC1720FEF7D5FE18
:103C60002A2890D14946DFF810914846C9F800103B
:103C70001921C9F804104021C9E9021B0901C9F83A
:103C8000101001F00FFC1920FEF7BFFE2A28BDD14D
:103C9000DFF8E08001224746C8F82040C7E9046207
:103CA00009F114003549C0E900160199DA46090105
:103CB000C0E9021BC0E904B201F017FCF86840F249
:103CC0001A3202282AD0454601287ED000287BD00F
:103CD000A4E04FF4804001F054FC00B3D8F8100089
:103CE000401B20280AD3002654F8260001F021FCAE
:103CF000761C082EF8D32034203510E081074FEAD7
:103D0000900700D07F1C002605E0206801F011FC20
:103D1000761C241D2D1DBE4201D2F6E7934618489D
:103D2000416B11EA0B0FD4D0082001F02AFC20B11E
:103D3000082001F02EFC0420C8E5022001F021FC3F
:103D400020B1022001F025FC0220BFE5102001F087
:103D500018FC20B1102001F01CFC0520B6E54FF442
:103D60000074204601F00DFC70B1204601F011FCFA
:103D70000720ABE51800002008120020FFFF0F000D
:103D800000800140002000104FF4807001F0F9FB2A
:103D9000F0B3D8F8040018B1012801D002283DD1B1
:103DA00048460C22C0E900A24022C9E9022A1101BA
:103DB000FE48C9F8101001F075FB0C20FEF725FE37
:103DC0002A28B9D12AE000E00EE0012144F21A309D
:103DD00001F05CFBA86910B928782A28FAD0287865
:103DE0002A281BD0287871E50121104601F04EFBEE
:103DF000012001F054FB31462046FFF716FDEC4C44
:103E0000204600F008FE0028FAD0A869002800E04B
:103E100004E0E4D128782A28F7D0E0E740F2FF5008
:103E200001F0B7FB6846FFF75FFC2A2884D19DF8B4
:103E300000100729F6D00629F4D047E5DD48406B8D
:103E400010F4405000D001207047D84810B5002130
:103E50000C22C0E900124022C0E9022111010161D7
:103E600001F020FBBDE810400C20FEF7CEBD2DE98F
:103E7000FC470646CD480024383800948DF80440AD
:103E800040680D464FEA10502746800602D4252090
:103E9000BDE8FC87C7484068C749C0B2801CB1FB79
:103EA000F0F00090002001F019FB800101D50E20F8
:103EB000EEE7C248DFF8F4824FF0400A40684FF462
:103EC0008069022805D030B1012804D0022802D030
:103ED00020E0760A6D0A2020C8E9006008F1080198
:103EE0005646A1E8C002B14801F0DCFA2020FEF7F6
:103EF0008CFD2A28CCD108F104012120C8F80050FB
:103F0000A1E8C102A94801F0CDFA2120FEF77DFD0C
:103F10002A28BDD140462621C0E90071C8E902A780
:103F2000A248C8F8109001F0BDFA2620FEF76DFDFA
:103F30002A28ADD100E0641C00988442FBD301A87C
:103F4000FFF7D2FB2A28A3D19DF804100729F6D049
:103F50000629F4D09CE770B505001BD0974800896E
:103F60000104924801600D214160402181600021DF
:103F7000C1604FF48061016101F094FA0D20FEF7F9
:103F800044FD04462A2804D1002001F0A7FA286045
:103F9000204670BD262070BD2DE9F0470446002064
:103FA00001F09CFA800102D50E20BDE8F0877F4E1B
:103FB00040271020C6E900704FF480680025C6F83D
:103FC0001080C6E90275304601F06CFA1020FEF749
:103FD0001CFD2A28E9D17948008900043060372087
:103FE000C6E90107C6E90358304601F05BFA3720FD
:103FF000FEF70BFD2A28D8D106F114007049C0E95C
:104000000017602181600221C0E90315012141618F
:1040100001F06BFA0D20C6E90050C6F81080C6E921
:104020000275304601F03EFA0D20FEF7EEFC064622
:104030002A28BAD15F4F4FF4004940F22A68786BC2
:1040400010EA080F08D0082001F09BFA98B1082068
:1040500001F09FFA0420A8E7484601F092FA0028F0
:10406000EDD0002501F061FA44F825006D1C082D03
:10407000F8D32034E3E7022001F083FA20B10220D4
:1040800001F087FA022090E7202001F07AFA20B1AF
:10409000202001F07EFA062087E74FF400752846BD
:1040A00001F06FFA40B1284601F073FA07207CE76F
:1040B00001F03BFA01C401E04FF40015284601F07D
:1040C00060FA0028F4D140F2FF5001F062FA403C5F
:1040D000002054F8201009BA44F82010401C102881
:1040E000F7D3304661E72DE9F041344D0024E8680C
:1040F000012840D1C00301F04FFA58B101F015FA80
:10410000696A41F82400641C082CF7D3686A2030DF
:1041100068622DE04FF4804001F03EFA58B3E9693F
:104120002869411A202918D2E969411A8907E969E1
:10413000A0EB01004FEA90060CD0761C0AE0286A3A
:10414000006801F0F6F9286A641C001D2862E8691D
:10415000001DE861B442F2D30DE0286A50F8240053
:1041600001F0E7F9641C082CF7D3286A2030286294
:10417000E8692030E8614FF48076304601F00CFAAF
:1041800000244CF23A3898B3E868F8B1770338461F
:1041900001F0F7F9D0B1E8692969884216D201F037
:1041A000C4F90146686A02C068620BE00812002088
:1041B000002000100080014040190100180000207C
:1041C000FFFF0F00E869001DE861E0E7686901286A
:1041D0000FD02A202870304601F0E6F90021404631
:1041E00001F054F90120A861EC612878BDE8F08164
:1041F00002E0FFF72AFEEDE7022001F0CDF950B111
:10420000022001F0D1F90021404601F03FF9EC61B4
:1042100002202870EAE7082001F0BEF950B108201A
:1042200001F0C2F90021404601F030F9EC610420B0
:104230002870DBE7202001F0AFF950B1202001F019
:10424000B3F90021404601F021F9EC610620287005
:10425000CCE7102001F0A0F950B1102001F0A4F932
:104260000021404601F012F9EC6105202870BDE7FD
:104270004FF40076304601F08FF950B1304601F02E
:1042800093F90021404601F001F9EC610720287004
:10429000ACE72A20AAE770B50C461E4906462A2537
:1042A000486B10F0450FFBD0410702D503240420D2
:1042B00003E0C00705D00124204601F06AF920463A
:1042C00070BD01F007F9B04213D140F2FF5001F088
:1042D00060F9002001F002F910F4604F03D081046E
:1042E00005D5132070BD4FEA1040208007E041043F
:1042F00001D5102070BD000401D50F2070BD2846E7
:1043000070BD002102E04008491CC9B20128FAD161
:10431000084670470080014008B50121102001F0D7
:104320002CF80820ADF8000048208DF803006946FD
:10433000F74800F03CFE08BD10B51021F54800F02C
:104340008AFE08B1002010BD012010BDFEF776B92D
:104350003820FEF7D0B90020FEF7CDB938B50121DD
:10436000042001F00AF81020ADF800008DF80300D9
:104370000320E84C8DF802006946204600F017FE45
:104380001021204600F07DFEFEF77EF9E249012073
:10439000086038BDE04901200860FF20FEF74EB9F3
:1043A00070B500246FF07F45FF20FFF7CFFFFF2897
:1043B00004D0641CAC42F7D3012070BD002070BD56
:1043C000D54910B500200860FFF7EAFF002802D0A9
:1043D000FFF7E0FF012010BD70B505464FF6FF74F2
:1043E00001E0641EA4B2FF20FFF7B0FFA84202D094
:1043F000002CF6D102E00CB1002070BDFF2070BD92
:1044000070B504460D46FE20FFF7E6FF28B10120F7
:1044100070BDFEF713F904F8010B2800A5F10105A2
:10442000ADB24FF0FF00F4D1FEF708F9FF20FEF720
:1044300005F9002070BD70B50C460546FFF7B0FFCA
:1044400008B1012070BD2046FEF7F8F8FD2C18D009
:1044500000244FF40076285DFEF7F0F8641CA4B247
:10446000B442F8D3FF20FEF7E9F8FF20FEF7E6F8A4
:10447000FF20FFF76BFF00F01F00052801D002208E
:1044800070BD002070BD70B516460C460546FFF79E
:1044900081FFFFF795FF08B1FF2070BD45F0400098
:1044A000FEF7CCF8200EFEF7C9F8C4F30740FEF77C
:1044B000C5F8C4F30720FEF7C1F8E0B2FEF7BEF876
:1044C0003046FEF7BBF80C2D02D1FF20FEF7B6F800
:1044D0001F24FF20FFF73AFF0106DED52100A4F1DB
:1044E0000104E4B2F5D170BD70B50546012200218A
:1044F0000A20FFF7C8FF040004D110212846FFF767
:104500007FFF0446FFF746FF0CB1012070BD00207D
:1045100070BD70B50546012200210920FFF7B3FFE9
:10452000040004D110212846FFF76AFF0446FFF774
:1045300031FF0CB1012070BD002070BD1FB5684671
:10454000FFF7E7FF10B1002004B010BD9DF8001088
:104550000120B0EB911F09D19DF808209DF80910AA
:1045600000EB0220084400048009EDE79DF80500F7
:104570009DF80A1000F00F0000EBD1109DF8091013
:104580009DF8072001F0030100EB41019DF80800B0
:10459000800900EB82009DF8062002F0030200EB88
:1045A0008220401CC91F8840CEE72DE9F843FFF761
:1045B000D5FE3820FEF79FF80024FF20FEF73EF8D6
:1045C000641CA4B20A2CF8D31424002195220846B6
:1045D000FFF759FF0546012804D02000A4F101048B
:1045E000A4B2F2D14D4E0027012D377068D1872239
:1045F0004FF4D5710820FFF746FF4FF6FE780128EB
:1046000020D0012200213720FFF73DFF01220021A9
:104610002920FFF738FF012853D802203070444684
:10462000012200213720FFF72EFF0122002129203F
:10463000FFF729FF050053D02000A4F10104A4B224
:10464000EED14DE000246F46FF20FFF77FFE385586
:10465000641CA4B2042CF7D39DF80200012847D1B2
:104660009DF80300AA2843D144464FF08048012218
:1046700000213720FFF707FF012241462920FFF7DD
:1046800002FF050004D02000A4F10104A4B2EED181
:10469000B4B1012200213A20FFF7F5FE80B90024D1
:1046A000FF20FFF753FE3855641CA4B2042CF7D347
:1046B0009DF80000400601D5062000E0042030707F
:1046C00016E0012030704446012200211046FFF719
:1046D000DAFE050004D02000A4F10104A4B2F3D155
:1046E0002CB1012251021020FFF7CDFE00B137702E
:1046F000FFF750FE0020FDF7FEFF307810B10020DC
:10470000BDE8F8830DB12846FAE7AA20F8E70000D3
:1047100000100140000801409001214240000020AB
:104720002DE9F0410646374815460078062800D0A6
:1047300049024FF40077012D4FF0010219D01220E9
:10474000FFF7A1FE39463046FFF75AFE6D1E0446BC
:1047500006F5007615F0FF0501D0002CF2D00122FD
:1047600000210C20FFF78FFEFFF714FE2046BDE866
:10477000F0811120FFF787FE0400F5D1394630465D
:10478000FFF73EFE0446EFE770B506461D481546A6
:104790000C460078062800D04C02012D13D00128C9
:1047A00009D0012200213720FFF76DFE01222946A2
:1047B0001720FFF768FE012221461920FFF763FE4C
:1047C00004000AD01AE0012221461820FFF75BFE00
:1047D000040013D1FE2130460DE0FC213046FFF7E6
:1047E0002AFE6D1E06F5007615F0FF0501D00028A3
:1047F000F3D0FD210020FFF71EFE0446FFF7CAFD9F
:10480000204670BD40000020274908432749086022
:10481000704770B50F23C278017801244FF0E0256E
:10482000DAB1224A126802F4E062C2F5E062120ACA
:10483000C2F10406D3404278B24086781E401C4B39
:1048400016433201CA54007800F01F018C40400921
:1048500005EB8000C0F8004170BD01F01F008440EE
:10486000480905EB8000C0F8804170BD114A114035
:1048700001430E48001F016070470C4A121D0029B9
:10488000116801D0014300E08143116070474FF08F
:10489000E0210428086903D020F004000861704773
:1048A00040F00400FAE700000000FA050CED00E01B
:1048B00000E400E080FFFF1F01684FF6FE72114028
:1048C00001600021016041608160C1606A496A4AFB
:1048D0000839904203D1486840F00F0006E0664A6C
:1048E0001432904204D1486840F0F00048607047AC
:1048F000614A2832904203D1486840F47060F5E77D
:104900005D4A3C32904203D1486840F47040EDE784
:10491000594A5032904203D1486840F47020E5E78C
:10492000554A6432904203D1486840F47000DDE794
:10493000514A7832904203D1486840F07060D5E720
:104940004E4A111F904203D1086840F00F0006E064
:104950004A4A1432904204D1086840F0F0000860DE
:104960007047464A2832904203D1086840F470608C
:10497000F5E7424A3C32904203D1086840F4704067
:10498000EDE73E4A50329042EAD1086840F4702088
:10499000E5E730B5026847F6F0739A430C6A8B6816
:1049A0002343D1E904452C4323438C692343CC6939
:1049B00023434C6A23438C6A234313430360CA682E
:1049C00042600A6882604968C16030BD00210160B0
:1049D00041608160C160016141618161C1610162C9
:1049E0004162816270470029016802D041F00101F3
:1049F00002E04FF6FE72114001607047002A026823
:104A000001D00A4300E08A4302607047416070476A
:104A1000406880B2704702460020D10002D5174995
:104A2000083901E0144908390968114200D0012011
:104A30007047C10003D51149091F086070470E492E
:104A400008394860704702460020D10002D50B4962
:104A5000083901E0084908390968114200D00120ED
:104A60007047C10003D50549091F08607047024916
:104A700008394860704700000800024008040240FE
:104A8000FD4A116801F03801014311607047FA498D
:104A90000A6822F008020A600A6802430A60704746
:104AA000F5490A6822F010020A600A6802430A60A7
:104AB0007047F148F1494160F14941607047EE4863
:104AC000EE494160EE4941607047EB48016941F0B1
:104AD000800101617047E848016941F0800101618E
:104AE0007047E5490420CA68D20701D00120704709
:104AF000CA68520701D502207047C968C906FBD5AC
:104B00000320704700B50346FFF7EBFF02E0FFF715
:104B1000E8FF5B1E012803D0002B00D1052000BD5B
:104B2000002BF4D1FAE770B505464FF43026304635
:104B3000FFF7E8FF042811D1CF4C206940F00200B4
:104B400020616561206940F0400020613046FFF738
:104B5000D9FF216941F6FD721140216170BD30B568
:104B60004FF430252846FFF7CDFF042810D1C24C62
:104B7000206940F004002061206940F0400020617D
:104B80002846FFF7BFFF216941F6FB721140216102
:104B900030BD00B50346FFF7A4FF02E0FFF7A1FF19
:104BA0005B1E012803D0002B00D1052000BD002B87
:104BB000F4D1FAE730B54FF430252846FFF7E9FF86
:104BC000042810D1AC4C206940F004002061206919
:104BD00040F0400020612846FFF7DBFF216941F6E5
:104BE000FB721140216130BDA3490020C9698907CA
:104BF00000D50120704770B5A525FFF7F5FF00B17E
:104C000000254FF430263046FFF77CFF042827D1DB
:104C1000994C9A48A0609A48A060206940F0200012
:104C20002061206940F0400020613046FFF76AFFB4
:104C300041F6EF7604280ED1206941F6DF71084075
:104C40002061206940F0100020618E4805804FF4FB
:104C50000050FFF757FF052802D02169314021613C
:104C600070BDF8B5064600204FF4005C00900D467C
:104C70006046FFF747FF042816D17F4C206940F0BB
:104C80000100206135806046FFF73CFF41F6FE776A
:104C9000042806D1B61C280C009630806046FFF729
:104CA00031FF216939402161F8BDF0B506464FF466
:104CB00000570D463846FFF725FF04280CD16E4CEF
:104CC000206940F00100206135803846FFF71AFF67
:104CD0002169BA1E11402161F0BDF0B506464FF4BE
:104CE00000570D463846FFF70DFF042813D1624CDC
:104CF0006248A0606248A060206940F01000206116
:104D000035803846FFF7FEFE052804D0216941F6BC
:104D1000EF7211402161F0BD2DE9F041C043C7B2EF
:104D2000C0F30726C0F30745040E4FF40058404671
:104D3000FFF7E8FE04283CD1DFF83CC14F49CCF82E
:104D400008104F49CCF80810DCF8101041F01001A1
:104D5000CCF81010FF2F07D04A4808300780404693
:104D6000FFF7D0FE04281BD1FF2E07D045480A309C
:104D700006804046FFF7C6FE042811D1FF2D07D05C
:104D800040480C3005804046FFF7BCFE042807D1A0
:104D9000FF2C07D03B480E3004804046FFF7B2FEA0
:104DA000052806D0DCF8101041F6EF721140CCF85F
:104DB0001010BDE8F08170B505464FF4302630463E
:104DC000FFF7A0FE042818D12B4C2C48A0602C48DB
:104DD000A060206940F020002061206940F0400080
:104DE00020613046FFF78EFE41F6DF71042805D0C2
:104DF000052802D022690A40226170BD206908405E
:104E00002061206940F0100020611E480DB1002192
:104E100000E0A52101803046FFF774FE0528ECD0A4
:104E2000216941F6EF721140216170BDF0B5124C5D
:104E30000746124816460D46A0601148A0604FF480
:104E4000005C6046FFF75EFE042814D1206940F044
:104E50001000206135430B493D43891C45F0F800A3
:104E600008806046FFF74EFE052804D0216941F610
:104E7000EF7211402161F0BD00200240230167451F
:104E8000AB89EFCD00F8FF1F1C48C0698008704750
:104E90001A48006A7047194900200968890600D538
:104EA00001207047154A0029116901D0014300E033
:104EB00081431161704701460020104A012903D047
:104EC000D2680A4203D17047D169C907FBD00120DB
:104ED00070470A49C860704708490420CA68D20769
:104EE00001D001207047CA68520701D502207047DF
:104EF000C968C906FBD503207047000000200240A6
:104F00008E4910B5884206D10121042000F047FAED
:104F1000002104203BE08A49884206D10121082073
:104F200000F03DFA0021082031E08649884206D190
:104F30000121102000F033FA0021102027E08249DF
:104F4000884206D10121202000F029FA00212020EA
:104F50001DE07E49884206D10121402000F01FFA61
:104F60000021402013E07A49884206D101218020A7
:104F700000F015FA0021802009E0764988420AD124
:104F800084150121204600F00AFA00212046BDE8E0
:104F9000104000F004BA10BD10B50121084600F021
:104FA000FEF90021BDE81040012000F0F8B9F0B58D
:104FB000CC78002204F00F03E40601D58C7823435B
:104FC0000C784FF00F0C4FF0010EDCB105680E8825
:104FD0000EFA02F42640A64210D196000CFA06F70B
:104FE00025EA070703FA06F5CE783D43282E02D0BE
:104FF000482E02D002E0446100E00461521C082AFD
:10500000E5D305600A88FF2A1CD94468002202F112
:1050100008060EFA06F50E882E40AE420ED1960016
:105020000CFA06F7BC4303FA06F7CE783C43282E69
:1050300000D14561CE78482E00D10561521C082A66
:10504000E5D34460F0BD4FF6FF710180022181700D
:105050000421C17070470246002092680A4200D0C5
:1050600001207047806880B2704702460020D268F5
:105070000A4200D001207047C06880B270470161C9
:105080007047416170470AB10161704741617047E3
:10509000C160704741F480328261816182618169BF
:1050A000806970472C4B10B51A684FF68074224007
:1050B00042EA00100843186010BD2849C8617047D3
:1050C000F0B5254C002801DAE36900E06368450D7E
:1050D0002E0185B2C0F30157B540C0F30342032F40
:1050E00005D0C6020AD503269640B34307E023F055
:1050F0007062636823F07063636002E0AB4343F067
:10510000706201B12A43002801DAE261F0BD6260F9
:10511000F0BD10B58A0721F003040F49120F214496
:105120000F238C6893409C438C608B6890400343B2
:105130008B6010BD0949DC310860704700080140F0
:10514000000C014000100140001401400018014013
:10515000001C0140002001400000014000002042EE
:10516000A548016841F0010101604168A34A11406E
:1051700041600168A24A11400160016821F4802168
:105180000160416821F4FE0141604FF41F0181601C
:10519000704799490A6822F480320A600A6822F44A
:1051A00080220A60B0F5803F07D0B0F5802F03D190
:1051B000086840F4A02008607047086840F4803018
:1051C000F9E70346002059098B4A01290AD0022930
:1051D0000AD0516A03F01F02012393400B4200D012
:1051E000012070471168F5E7116AF3E718B5002050
:1051F0004FF4A06400903120FFF7E3FF0099491CB1
:105200000091A14201D00028F5D03120FFF7D9FF4D
:10521000002800D0012018BD774A116821F0F8015C
:1052200041EAC00010607047764908607047724BD1
:105230005A68084322F47C12104358607047714941
:10524000086670476C4A516821F0030101435160C0
:1052500070476948406800F00C007047664A516822
:1052600021F0F001014351607047634A516821F415
:10527000E0610143516070475F4A516821F4605119
:1052800041EAC000506070475B4A0029517A01D062
:10529000014300E08143517270475A49D831086098
:1052A0007047554A516821F44041014351607047AD
:1052B0005149002281F8202081F82020012802D0C5
:1052C000042802D1052081F8200070474E4908606B
:1052D000704749490A6A02430A6270474A49443999
:1052E0000860704730B5444A5168484B11F00C01D2
:1052F00003D0042901D0082901D0036012E05168CD
:10530000536801F470114FF0020413F4803F04EB72
:10531000914102D053689B0301D53D4B00E03B4BCC
:105320005943016051680F2303EA1111394B5C5C4A
:105330000168E14041605468072505EA14241C5DBA
:1053400021FA04F48460546805EAD4241B5DD94032
:10535000C1605268032303EA92322E4B1B1F9A5CF2
:10536000B1FBF2F1016130BD234A0029516901D03E
:10537000014300E08143516170471F4A0029916950
:1053800001D0014300E08143916170471A4A00292E
:10539000D16901D0014300E08143D1617047164AD1
:1053A0000029D16801D0014300E08143D1607047FA
:1053B000114A0029116901D0014300E081431161C4
:1053C000704711494039086070470E49C8647047FA
:1053D0000949C87170470848416A41F080714162CB
:1053E0007047054A0146002092680A4200D0012019
:1053F0007047014988727047001002400000FFF8B2
:10540000FFFFF6FE000042428004424200127A0092
:1054100000093D0045000020654800210160416011
:105420008160C16041628162C162624A8263C1631C
:10543000704730B55E4B5A6847F6FF618A43017D7D
:105440008468C568214344682C432143046800698B
:10545000214301431143596030BD002101750160B2
:1054600041608160C16001617047534908607047C5
:105470004F490A6822F003020A600A6802430A6080
:1054800070474B48006800F003007047484A002905
:10549000D16B01D0014300E08143D163704747499C
:1054A0000860704710B5424902688A60CA68D0E94E
:1054B00001342343D0E9034004436FF30A0223433A
:1054C0001343CB6010BD0021016041608160C16069
:1054D0000161704736480069C0B27047344908B569
:1054E000143108440090006808BD10B530490268C6
:1054F0004A6242688A62CA6AD0E902342343D0E928
:105500000440044322F0F70223431343CB6210BD4F
:105510004FF0FF310160002141608160C160016195
:10552000416170472248006B704721488030006815
:1055300070471F498031086070471D48806C704774
:105540001E491431086070471C49183108607047C3
:105550001A491C31086070471849203108607047AB
:105560001749086070471649091D086070470121F6
:105570008143134808300160704711490C310860BD
:1055800070470B4A01460020526B0A4200D00120AE
:105590007047074988637047054A01460020526BEF
:1055A0000A4200D00120704701498863704700001B
:1055B00000800140FF07C000A00030428C0530424F
:1055C000AC013042994910B588420AD184140121B6
:1055D0002046FFF7E4FE2046BDE810400021FFF71B
:1055E000DEBE9349884202D10121041404E09149AE
:1055F00088420AD10121C4132046FFF7D9FE204674
:10560000BDE810400021FFF7D3BE10BD30B50288C1
:105610004C8802F441530A88CD8822438C882C435D
:1056200022430C8922434C8922438C892243CC8912
:1056300022431A430280828B22F400628283098A09
:10564000018230BDF0B505460C4602200021AA8B30
:1056500085B001264FF240031A40AA832884AF8BFD
:10566000A268022A21D0A08800B102266846FFF76E
:1056700039FEE1880098B1F5007F2CD07101B0FBB4
:10568000F1F000EB8000A1684000B0FBF1F0401D9C
:1056900080B20A21B0FBF1F000F00101401A4FF690
:1056A000FF72C0F34F0002EA0121821EFE2A01D3DD
:1056B00002200021E288084302432A84208861886E
:1056C000A2890843A18811430843384340F400608D
:1056D000A88305B0F0BD000AD3E700210180418016
:1056E0008180C180018141818181C1810721018245
:1056F00070470021018041808180C1800222826048
:10570000818170470029018802D041F0400101E009
:1057100021F04001018070470029818B02D041F4C3
:10572000806101E021F480618183704709090123D0
:105730008B40002A828899B201D00A4300E08A4354
:1057400082807047002A828801D00A4300E08A43A1
:10575000828070478181704780897047A1F57E42C1
:105760000188FF3A02D041F4807101E021F4807198
:10577000018070470029818802D041F0040101E0D6
:1057800021F0040181807047028822F400620280C7
:1057900002880A4302807047018841F480510180E9
:1057A00070470029018802D041F4005101E021F442
:1057B000005101807047012901D0008B7047808A19
:1057C0007047008A7047B1F5804F018803D021F4FB
:1057D00080410180704741F48041FAE70246002091
:1057E00012890A4200D001207047C94301817047E5
:1057F00030B501F00F030125024605FA03F400203D
:10580000A3B2090905FA01F49188A4B212892140D2
:105810001A4202D0002900D0012030BD01F00F0251
:1058200001219140C94301817047000000300140CF
:1058300000380040003C0040C64910B588420AD1FB
:1058400001218C032046FFF7AAFD2046BDE8104049
:105850000021FFF7A4BDC049884202D101214C04B8
:1058600010E0BE49884202D101218C040AE0BC4903
:10587000884202D10121CC0404E0BA4988420AD10D
:1058800001210C052046FFF793FD2046BDE810409E
:105890000021FFF78DBD10BD30B50446008A85B0EC
:1058A0000D464CF6FF710840E98801432182A0892A
:1058B0004EF6F3110840A9882A8911436A890243E8
:1058C0001143A181A08A4FF6FF410840A9890143F5
:1058D000A1826846FFF706FD9E48844201D10398E5
:1058E00000E00298A1890904002900EBC00101EB46
:1058F0000010296802DA4FEA410101E04FEA810114
:10590000B0FBF1F06422B0FBF2F14FEA01114FEA73
:1059100011136FF018056B4300EB8300A3891D047E
:105920004FF0320306D503EBC000B0FBF2F000F0FD
:10593000070005E003EB0010B0FBF2F000F00F00F1
:105940000843208105B030BD4FF41651016000219D
:105950008180C18001810C2242818181704710B514
:10596000028A4FF2FF031A400B884C8823438C882D
:10597000C9880C4323431343038210BD00210180D7
:1059800041808180C18070470029818902D041F423
:10599000005101E021F400518181704710B5C1F33D
:1059A000421301F01F040121A140012B07D0022B5B
:1059B00007D01430002A026805D00A4304E00C30F6
:1059C000F8E71030F6E78A43026010BD002A828AA9
:1059D00001D00A4300E08A4382827047028A22F0A3
:1059E0000F020282028A0A4302827047828922F4ED
:1059F0000062828182890A438281704700298189FD
:105A000002D041F0020101E021F0020181817047E2
:105A1000028A22F020020282028A0A43028270472E
:105A20000029018A02D041F4804101E021F4804143
:105A300001827047C1F30801818070478088C0F3FC
:105A400008007047818941F0010181817047028B14
:105A5000D2B20283028B42EA012101837047028B9A
:105A600002F47F420283028B0A43028370470029BB
:105A7000818A02D041F0200101E021F020018182E1
:105A800070470029818A02D041F0100101E021F025
:105A90001001818270470029818A02D041F00801FB
:105AA00001E021F00801818270470029818902D03C
:105AB00041F4004101E0C1F30E01818170470029EA
:105AC000818A02D041F4006101E021F40061818209
:105AD0007047828A22F004028282828A0A4382828A
