:020000040800F2
:1000000000500020250200082B0200082F020008E3
:10001000470200084B0200086302000800000000CD
:100020000000000000000000000000007B0200084B
:100030007F0200080000000083020008C9240008B5
:100040002102000821020008210200082102000804
:1000500021020008210200082102000821020008F4
:1000600021020008210200082102000821020008E4
:1000700021020008210200082102000821020008D4
:1000800021020008210200082102000821020008C4
:1000900021020008210200082102000821020008B4
:1000A00021020008210200082102000821020008A4
:1000B000E1320008210200082102000821020008A4
:1000C0002102000815320008652C000821020008F2
:1000D0002102000821020008210200082102000874
:1000E000210200082102000821020008000000008F
:1000F0000000000000000000000000000000000000
:1001000000000000000000005FF808F100B583B0B7
:1001100002F0C0F9304B314A1360314A1360314B61
:10012000314A32498B4204D21168196004330432D7
:10013000F7E72A4B1A682E4B9A4200D0FEE7284B6D
:100140001A682C4B9A42F9D1234B2B4A13602B4A45
:1001500013602B4B02E000221A600433294A9342B9
:10016000F9D3254B1B6813B9244B1B6803B1FEE779
:1001700002F09CF9694601A800F0CAF8224C234B12
:10018000E41AA4100025AC4214DC214C214BE41AE3
:10019000A4100025AC4213DC0099019803F0C2FBC7
:1001A00005461D4C1D4BE41AA410002C0EDC2846FD
:1001B00000F086F8154B53F8253098470135E2E7F3
:1001C000144B53F8253098470135E3E7013C134BB6
:1001D00053F824309847E8E7BABADECA0000002096
:1001E0001802002000000020408900081C020020A6
:1001F00078563412325476981C0200207005002084
:100200001C02002074050020BC020008BC0200088B
:10021000BC020008BC020008BC020008BC020008C6
:1002200000BEFEE708B5FFF771FF00BEFEE71EF057
:10023000040F0CBFEFF30880EFF309807146124AF8
:10024000104700BEFEE700BEFEE71EF0040F0CBF25
:10025000EFF30880EFF3098071460C4A104700BEA7
:10026000FEE71EF0040F0CBFEFF30880EFF30980E8
:100270007146074A104700BEFEE700BEFEE700BE1B
:10028000FEE700BEFEE77047430200085F02000879
:0402900077020008E9
:1002940040890008000000201C020020408900085A
:1002A40000000000000000001C0200207405002073
:0802B400000000000000000042
:1002C000FEE708B50120FFF7FBFF000008B5034675
:1002D0000C4A12685AB10B4A1068033323F0030327
:1002E0000344094A934206D8064A136008BD054AEA
:1002F00006491160EFE704F02FFB0C2303604FF079
:10030000FF30F3E720020020004C0020740500209D
:1003100001230360014B0B60704700BF0400002005
:1003200008B5FFF7CEFF000082B0002301930093D1
:100330002C4A136843F4803313602A4B1B6803F480
:1003400000330093019B01330193009B1BB9019B78
:10035000B3F5A06FF1D1234B1B6813F4003F06D017
:1003600001230093009B012B04D002B070470023AF
:100370000093F7E71C4B1A6842F010021A601A68E3
:1003800022F003021A601A6842F002021A60A3F512
:1003900080535A685A605A685A605A6842F48062B8
:1003A0005A605A6822F47C125A605A6842F4E81281
:1003B0005A601A6842F080721A600A4B1B6813F088
:1003C000007FFAD0074B5A6822F003025A605A683D
:1003D00042F002025A60034B5B6803F00C03082BE7
:1003E000F9D1C2E7001002400020024008B5FFF733
:1003F0009BFF08BD08B5104B1A6842F001021A6055
:1004000059680E4A0A405A601A6822F0847222F42F
:1004100080321A601A6822F480221A605A6822F424
:10042000FE025A604FF41F029A60FFF7DFFF044B91
:100430004FF000629A6008BD001002400000FFF813
:1004400000ED00E01F4B5B6803F00C03042B15D09C
:10045000082B17D01BB11C4B1C4A1A6002E01A4B28
:100460001A4A1A60174B5B68C3F30313184AD35C2C
:10047000DAB215490B68D3400B607047124B134A30
:100480001A60EFE70F4A53685268C3F3834302339D
:1004900012F4803F0AD00B4A526812F4003F0BD08E
:1004A0000C4A02FB03F3084A1360DBE7094A02FB2C
:1004B00003F3054A1360D5E7044A02FB03F3024A3B
:1004C0001360CFE7001002401C00002000127A00E9
:1004D0000C00002000093D0010B50446B0F5E06FA7
:1004E0000FD0B0F5C06F0CD0B0F5A06F09D0B0F54B
:1004F000806F06D0B0F5407F03D063210448FFF73A
:100500000FFF44F0BF6444F40034024BDC6010BDC4
:100510005081000800ED00E010B50446C378012BBF
:1005200012D863780F2B14D8A3780F2B16D8E37842
:10053000CBB9237803F01F015B0901228A402033E5
:10054000184941F8232010BD75211748FFF7E8FE30
:10055000E7E776211448FFF7E3FEE5E77721124845
:10056000FFF7DEFEE3E7114BDA68D243C2F3022263
:10057000C2F104000F2323FA02F261788140A378CC
:1005800013400B431B012278DBB206490A4482F870
:100590000033237803F01F005B090122824041F8F9
:1005A0002320D0E700E100E05081000800ED00E0EA
:1005B00010B504461C4B98420BD003F5806398425B
:1005C00007D003F5A053984203D0BC211748FFF78A
:1005D000A7FE154B9C4206D0154B9C420ED0154BE6
:1005E0009C4216D010BD01214FF4007001F058F963
:1005F00000214FF4007001F053F9F3E701214FF4AB
:10060000806001F04DF900214FF4806001F048F95D
:10061000E8E701214FF4004001F042F900214FF4D6
:10062000004001F03DF9DDE7002401407881000839
:1006300000280140003C014038B505460C46484BB7
:1006400098420BD003F58063984207D003F5A0537E
:10065000984203D0E5214348FFF762FE2368D3B1F7
:10066000B3F5803F17D0B3F5003F14D0B3F5403F4A
:1006700011D0B3F5802F0ED0B3F5A02F0BD0B3F56A
:10068000C02F08D0B3F5E02F05D0B3F5002F02D06E
:10069000B3F5102F46D12379012B48D86379012B6C
:1006A0004AD8A368A3B1B3F5003F11D0B3F5802FAA
:1006B0000ED0B3F5C02F0BD0B3F5002F08D0B3F593
:1006C000202F05D0B3F5402F02D0B3F5602F38D1DD
:1006D000E36813B1B3F5006F38D1237C013BDBB283
:1006E0000F2B38D86A6822F4702222F480722368B3
:1006F000217943EA012313436B60AB681A4A1A401D
:10070000E368A1680B43617943EA41031343AB609B
:10071000EB6A23F47003227C013AD2B243EA02531B
:10072000EB6238BDE6210F48FFF7FAFDB3E7E7219A
:100730000C48FFF7F5FDB1E7E8210A48FFF7F0FDA7
:10074000AFE7E9210748FFF7EBFDC1E7EA210548DC
:10075000FFF7E6FDC1E7EB210248FFF7E1FDC1E746
:100760000024014078810008FDF7F1FF38B5044608
:100770000D46114B98420CD003F58063984208D087
:1007800003F5A053984204D04FF49A710B48FFF739
:10079000C7FD012D05D855B9A36823F00103A36057
:1007A00038BD40F235110548FFF7BAFDF3E7A368FD
:1007B00043F00103A360F3E70024014078810008BF
:1007C00038B504460D460F4B984208D003F5C05388
:1007D000984204D040F24D110B48FFF7A1FD012DC6
:1007E00005D855B9A36823F48073A36038BD4FF4CE
:1007F000A7710548FFF794FDF3E7A36843F48073FE
:10080000A360F3E7002401407881000810B5044696
:100810000A4B98420CD003F58063984208D003F548
:10082000A053984204D04FF4C2710548FFF778FDF9
:10083000A36843F00803A36010BD00BF002401407B
:100840007881000810B504460B4B98420CD003F594
:100850008063984208D003F5A053984204D04FF427
:10086000C9710648FFF75CFDA36813F0080F01D1BA
:10087000002010BD0120FCE7002401407881000821
:1008800010B504460A4B98420CD003F58063984299
:1008900008D003F5A053984204D04FF4D571054811
:1008A000FFF73EFDA36843F00403A36010BD00BF43
:1008B000002401407881000810B504460B4B984293
:1008C0000CD003F58063984208D003F5A0539842FA
:1008D00004D04FF4DC710648FFF722FDA36813F043
:1008E000040F01D1002010BD0120FCE700240140CD
:1008F0007881000838B504460D46114B98420CD05B
:1009000003F58063984208D003F5A053984204D0C1
:100910004FF4E9710B48FFF703FD012D05D855B9D8
:10092000A36823F4A003A36038BD40F2D3110548A7
:10093000FFF7F6FCF3E7A36843F4A003A360F3E733
:100940000024014078810008F8B505460E4614469B
:100950001F46374B98420CD003F58063984208D06D
:1009600003F5A053984204D04FF416713148FFF7B5
:10097000D7FC112E24D8631EDBB20F2B26D8072FED
:100980002AD8092E2ED9EA68A6F10A0303EB4303FD
:100990000721994022EA01029F401743EF60062C8D
:1009A0002BD90C2C36D9EB6A0D3C04EB84041F22A6
:1009B000A24023EA020306FA04F41C43EC6228E096
:1009C00040F259211B48FFF7ABFCD4E740F25A2113
:1009D0001848FFF7A5FCD2E740F25B211548FFF766
:1009E0009FFCCEE72B6906EB460107228A4023EAEB
:1009F00002038F401F432F61D1E76B6B013C04EB77
:100A000084041F22A24023EA020306FA04F41C43D2
:100A10006C63F8BD2B6B073C04EB84041F22A240DF
:100A200023EA020306FA04F41C432C63F1E700BF37
:100A3000002401407881000810B504464F4B9842CD
:100A400025D01433984222D0143398421FD0143347
:100A500098421CD01433984219D01433984216D0BF
:100A60001433984213D003F5627398420FD01433B5
:100A700098420CD01433984209D01433984206D0CF
:100A80001433984203D06F213D48FFF749FC236897
:100A900023F001031B041B0C23600023236063600D
:100AA000A360E360354B9C4226D0364B9C4229D054
:100AB000354B9C422CD0354B9C422FD0344B9C4222
:100AC00032D0344B9C4235D0334B9C4238D0334BE0
:100AD0009C423BD0324B9C423ED0324B9C4241D058
:100AE000314B9C4244D0314B9C420AD1304A53682E
:100AF00043F47023536004E02E4A536843F00F031D
:100B0000536010BD2B4A536843F0F0035360F8E77D
:100B1000284A536843F470635360F2E7254A5368E8
:100B200043F470435360ECE7224A536843F4702364
:100B30005360E6E71F4A536843F470035360E0E7ED
:100B40001C4A536843F070635360DAE7184A5368ED
:100B500043F00F035360D4E7154A536843F0F003A2
:100B60005360CEE7124A536843F470635360C8E79A
:100B70000F4A536843F470435360C2E708000240D1
:100B8000A88100081C0002403000024044000240DE
:100B9000580002406C0002408000024008040240FD
:100BA0001C04024030040240440402405804024045
:100BB000000402400000024038B505460C46574B81
:100BC000984225D01433984222D0143398421FD033
:100BD000143398421CD01433984219D014339842DD
:100BE00016D01433984213D003F5627398420FD095
:100BF000143398420CD01433984209D014339842DD
:100C000006D01433984203D0CF214548FFF788FB24
:100C1000A368102B01D0002B53D1E368013B4FF6A2
:100C2000FE72934252D82369402B01D0002B52D13F
:100C30006369802B01D0002B52D1A3692BB1B3F58E
:100C4000807F02D0B3F5007F4FD1E3692BB1B3F5BC
:100C5000806F02D0B3F5006F4CD1236A202B01D0F6
:100C6000002B4CD1636AB3F5405F07D0B3F5005F4A
:100C700004D0B3F5805F01D0002B45D1A36AB3F552
:100C8000804F01D0002B44D12A6822F4FF4222F089
:100C90007002A368216A0B4321690B4361690B430E
:100CA000A1690B43E1690B43616A0B43A16A0B43E2
:100CB00013432B60E3686B602368AB606368EB6091
:100CC00038BDD0211648FFF72BFBA6E7D1211448E9
:100CD000FFF726FBA7E7D2211148FFF721FBA7E783
:100CE000D3210F48FFF71CFBA7E7D4210C48FFF7DF
:100CF00017FBAAE7D5210A48FFF712FBADE7D6217B
:100D00000748FFF70DFBADE7D7210548FFF708FBC4
:100D1000B4E7D8210248FFF703FBB5E7080002401B
:100D2000A881000838B504460D461F4B984226D0CE
:100D30001433984223D01433984220D0143398426D
:100D40001DD0143398421AD01433984217D014335C
:100D5000984214D003F56273984210D0143398422D
:100D60000DD0143398420AD01433984207D014336C
:100D7000984204D040F229110C48FFF7D1FA012D16
:100D800007D865B9236823F001031B041B0C2360FB
:100D900038BD4FF495710548FFF7C2FAF1E72368B3
:100DA00043F001032360F3E708000240A881000834
:100DB000F8B505460C46494B98421BD003F58063B5
:100DC000984217D003F58063984213D003F58063EF
:100DD00098420FD003F5806398420BD003F58063EF
:100DE000984207D003F58063984203D0B2213C4873
:100DF000FFF796FAE3786BB1042B0BD0282B09D0C0
:100E0000482B07D0142B05D0102B03D01C2B01D05E
:100E1000182B14D12388BBB1E37803F00F063046BA
:100E200013F0100F06D0A378013BDBB2022B10D8D1
:100E3000A078304323785BB32E68002310E0B32101
:100E40002748FFF76DFAE5E7B4212548FFF768FA70
:100E5000E2E7BB212248FFF763FAE9E76A61013361
:100E6000072B14D801229A40218832EA0101F6D1D9
:100E700099000F278F4026EA070600FA01F10E437A
:100E8000E1782829EAD04829E9D12A61E7E72E60EC
:100E90002388FF2B20D96E68002303E06A6116E0E7
:100EA0002A610133072B16D803F1080101228A4079
:100EB000218832EA0101F4D199000F278F4026EAF8
:100EC000070600FA01F10E43E1782829E6D0E1781F
:100ED0004829E6D1E4E76E60F8BD00BF0008014094
:100EE000D881000838B504460D462A4B98421CD0DC
:100EF00003F58063984218D003F58063984214D0BC
:100F000003F58063984210D003F5806398420CD0BB
:100F100003F58063984208D003F58063984204D0BB
:100F20004FF48F711C48FFF7FBF96B1E9BB2012B2E
:100F300023D9042D21D0082D1FD0102D1DD0202DF8
:100F40001BD0402D19D0802D17D0B5F5807F14D03F
:100F5000B5F5007F11D0B5F5806F0ED0B5F5006FF7
:100F60000BD0B5F5805F08D0B5F5005F05D0B5F5BD
:100F7000804F02D0B5F5004F04D1A3681D4207D1C0
:100F8000002038BD40F21F110348FFF7C9F9F4E70C
:100F90000120F6E700080140D881000838B5044672
:100FA0000D46144B98421CD003F58063984218D02C
:100FB00003F58063984214D003F58063984210D003
:100FC00003F5806398420CD003F58063984208D003
:100FD00003F58063984204D040F269110648FFF798
:100FE0009FF90DB1256138BD4FF4B5710248FFF787
:100FF00097F9F7E700080140D881000838B50446A2
:101000000D46144B98421CD003F58063984218D0CB
:1010100003F58063984214D003F58063984210D0A2
:1010200003F5806398420CD003F58063984208D0A2
:1010300003F58063984204D040F279110648FFF727
:101040006FF90DB1656138BD4FF4BD710248FFF70E
:1010500067F9F7E700080140D881000838B5044671
:101060000D46431E012B40F29080042800F08D8035
:10107000082800F08A80644B984200F08680203374
:10108000984200F08280614B98427ED08033984233
:101090007BD05F4B984278D003F58073984274D030
:1010A00003F58073984270D05A4B98426DD003F587
:1010B0008063984269D0B0F5805F66D0B0F5EA1FD2
:1010C00063D0B0F5EB1F60D0B0F5004F5DD0524B50
:1010D00098425AD00133984257D00233984254D0A4
:1010E0000433984251D0083398424ED0B0F1201FBB
:1010F0004BD03033984248D0484B984245D003F506
:101100008073984241D003F5007398423DD0444B20
:1011100098423AD003F57063984236D0B0F5011F7B
:1011200033D0404B984230D0013398422DD0023317
:1011300098422AD00433984227D00833984224D0CA
:101140001033984221D0203398421ED04033984229
:101150001BD08033984218D003F58073984214D086
:1011600003F50073984210D003F5806398420CD0C9
:1011700003F50063984208D003F58053984204D0E9
:1011800040F22A212848FFF7CBF8012D16D8002C71
:101190001ADB264B5B68C4F30340A2B204F440118F
:1011A000B1F5401F13D014F4801F21D0032101FAA0
:1011B00000F023EA000343F070630FE040F22B21BC
:1011C0001948FFF7ADF8E2E7184BDB69E3E723F0D6
:1011D00070631648416821F0706141601DB1610D76
:1011E00009018A401343002C0BDB104A536038BDC1
:1011F000610D090102FA01F123EA010343F0706372
:10120000ECE70A4AD361F2E7100014004000160030
:101210000001180000081A00010020000001300041
:101220000011200001000080D8810008000001406A
:1012300010B50446114B984207D003F580639842DD
:1012400003D0A5210E48FFF76BF80C4B9C420AD047
:1012500001214FF4800000F049FB00214FF4800091
:1012600000F044FB10BD01214FF4001000F03EFBE4
:1012700000214FF4001000F039FBF3E70054004068
:101280000C820008F0B587B004460D46554B9842D5
:1012900007D003F58063984203D0C6215248FFF778
:1012A0003FF82B68013B514A934257D8AB881BB19A
:1012B000022B01D00A2B56D1EB88B3F5804F03D017
:1012C0004BF6FF72934253D12B89B3F5806F54D202
:1012D0006B89B3F5806F01D0002B53D1AB89B3F587
:1012E000804F02D0B3F5404F51D1A688B6B226F058
:1012F0003F06B6B201A800F003FA03983C4AA2FBED
:101300000032920C97B23E43A680218889B221F028
:10131000010189B221802B6836498B423CD85B00A1
:10132000B0FBF3F39BB2032B00D8042301372784CF
:10133000A383238843F00103238023889BB223F4F3
:10134000816323F00203AA8869890A431343238037
:10135000AB892A891343238107B0F0BDC7212248F6
:10136000FEF7DEFFA2E7C8211F48FEF7D9FFA3E77B
:10137000C9211D48FEF7D4FFA6E7CA211A48FEF787
:10138000CFFFA5E7CB211848FEF7CAFFA6E7CC217F
:101390001548FEF7C5FFA8E7EE884BF6FF718E42B1
:1013A0001AD003EB830303EB8303B0FBF3F39BB28D
:1013B00043F48043C3F30B0109B943F0010343F441
:1013C00000434FF4967102FB01F20B4981FB0212BC
:1013D000921101322284ABE703EB4303B0FBF3F33A
:1013E0009BB2E7E7005400400C8200087F1A060019
:1013F00083DE1B43A0860100D34D621038B504463E
:101400000D46104B984208D003F58063984204D0F3
:101410004FF4A9710C48FEF783FF012D07D865B979
:1014200023889BB223F001039BB2238038BD40F296
:1014300053110548FEF774FFF1E7238843F00103D9
:101440002380F3E7005400400C82000870B5044686
:101450000D461646134B984208D003F58063984218
:1014600004D04FF40F711048FEF75AFF012E0FD829
:1014700025F4E0639BB203B925B940F23E210A4846
:10148000FEF74EFF56B9A38823EA0505A58070BD77
:1014900040F23D210448FEF743FFE9E7A3881D43DE
:1014A000A580F4E7005400400C82000838B50546DA
:1014B0000C46074B984208D003F58063984204D04D
:1014C00040F255210348FEF72BFFA4B22C8238BD11
:1014D000005400400C82000810B50446074B9842A7
:1014E00008D003F58063984204D040F2622104489A
:1014F000FEF716FF208AC0B210BD00BF00540040A6
:101500000C82000810B50446094B984208D003F538
:101510008063984204D040F267410648FEF700FF1E
:10152000A08A238B40EA034020F07F4010BD00BF1B
:10153000005400400C82000838B505460C46284B84
:10154000984208D003F58063984204D040F20F51CE
:101550002448FEF7E5FE244B9C422BD0A3F58043A4
:101560009C4227D0A3F540539C4223D0A3F50063AF
:101570009C421FD0A3F580639C421BD0A3F500734F
:101580009C4217D0B4F1012F14D0184B9C4211D0BB
:10159000403B9C420ED0164B9C420BD0083B9C42D9
:1015A00008D0043B9C4205D0023B9C4202D0013B48
:1015B0009C420AD1AB8803EA144303F4E063AA8A8D
:1015C000144208D04BB9002006E04FF4A261054850
:1015D000FEF7A6FEEEE7002038BD0120FCE700BFC5
:1015E000005400400C8200080080000180000006CA
:1015F0001000000238B505460C460E4B984208D044
:1016000003F58063984204D040F24A510A48FEF73D
:1016100087FE42F2FF031C4200D124B940F24B5135
:101620000548FEF77DFE24F07F44E443A4B2AC827B
:1016300038BD00BF005400400C82000810B50446BD
:1016400045F25553984200D010B9044B1C6010BDB0
:101650005F210348FEF764FEF7E700BF003000405B
:101660003C82000810B50446062802D8034B5C6093
:1016700010BD73210248FEF753FEF7E7003000402B
:101680003C82000810B50446B0F5805F02D2044BDE
:101690009C6010BD80210348FEF742FEF7E700BFC3
:1016A000003000403C820008024B4AF6AA221A6031
:1016B000704700BF00300040024B4CF6CC421A602D
:1016C000704700BF0030004010B5044668B1B0F567
:1016D000804F0AD0B0F5004F07D0B0F5404F04D08E
:1016E00040F202310448FEF71BFE044A536823F41B
:1016F00040431C43546010BD70820008001002403B
:1017000010B4294B5B6803F00C03042B2BD0082B7F
:101710002CD013B1254B036001E0244B0360224918
:101720004B68C3F30313224CE35CDAB20368D34083
:1017300043604A68C2F30222A25CD2B223FA02F2E8
:1017400082604A68C2F3C222A25CD2B2D340C360B4
:101750004A68C2F3813217498A5CD2B2B3FBF2F312
:10176000036110BC7047114B0360D8E70E4A536801
:101770005268C3F38343023312F4803F09D00A4A0C
:10178000526812F4003F09D00B4A02FB03F30360D6
:10179000C5E7094A02FB03F30360C0E7034A02FB03
:1017A00003F30360BBE700BF0010024000127A00A1
:1017B000240000202000002000093D0038B5044628
:1017C0000D4620F4AA6323F0070303B920B940F2C1
:1017D0002B410B48FEF7A4FD012D06D85DB9094A3F
:1017E000536923EA0404546138BD40F22C41044893
:1017F000FEF796FDF2E7034A53691C435461F3E791
:10180000708200080010024038B504460D460E4BA9
:10181000034003B920B940F24A410C48FEF780FD6D
:10182000012D06D85DB90A4A936923EA040494613C
:1018300038BD40F24B410548FEF772FDF2E7044A1D
:1018400093691C439461F3E70200C0FF70820008B3
:101850000010024038B504460D460E4B184200D128
:1018600020B940F269410C48FEF75AFD012D06D817
:101870005DB90A4AD36923EA0404D46138BD40F251
:101880006A410548FEF74CFDF2E7044AD3691C4360
:10189000D461F3E700360181708200080010024035
:1018A00038B504460D460E4B034003B920B940F24B
:1018B000A4410C48FEF734FD012D06D85DB90A4A53
:1018C000D36823EA0404D46038BD40F2A54105483A
:1018D000FEF726FDF2E7044AD3681C43D460F3E721
:1018E0000200C0FF708200080010024038B50446B4
:1018F0000D460E4B184200D120B940F2C3410C48AE
:10190000FEF70EFD012D06D85DB90A4A136923EAD8
:101910000404146138BD40F2C4410548FEF700FDDF
:10192000F2E7044A13691C431461F3E700360181AE
:10193000708200080010024010B50446944B984293
:1019400042D0B0F1804F3FD0A3F5943398423BD0C2
:1019500003F58063984237D003F58063984233D013
:1019600003F5806398422FD003F5806398422BD013
:1019700003F59033984227D003F5C053984223D003
:1019800003F5806398421FD003F5806398421BD013
:10199000A3F59E33984217D003F58063984213D085
:1019A00003F5806398420FD003F5903398420BD033
:1019B00003F58063984207D003F58063984203D013
:1019C0007D217448FEF7ACFC714B9C4240D0B4F1D1
:1019D000804F48D0704B9C424ED0704B9C4254D0AC
:1019E0006F4B9C425AD06F4B9C4260D06E4B9C42D6
:1019F00066D06E4B9C426CD06D4B9C4274D06D4B4C
:101A00009C427CD06C4B9C4200F084806B4B9C428F
:101A100000F08B806A4B9C4200F09080694B9C42A6
:101A200000F09580684B9C4200F09C80674B9C4284
:101A300000F0A380664B9C4214D101214FF480201A
:101A4000FFF72EFF00214FF48020FFF729FF09E068
:101A500001214FF40060FFF723FF00214FF40060E5
:101A6000FFF71EFF10BD01210846FFF73FFF0021D1
:101A70000120FFF73BFFF5E701210220FFF736FFCA
:101A800000210220FFF732FFECE701210420FFF7DD
:101A90002DFF00210420FFF729FFE3E701210820A3
:101AA000FFF724FF00210820FFF720FFDAE70121DC
:101AB0001020FFF71BFF00211020FFF717FFD1E7D1
:101AC00001212020FFF712FF00212020FFF70EFF49
:101AD000C8E701214FF40050FFF7E2FE00214FF468
:101AE0000050FFF7DDFEBDE701214FF40020FFF7B6
:101AF000D7FE00214FF40020FFF7D2FEB2E701210C
:101B00004FF48010FFF7CCFE00214FF48010FFF758
:101B1000C7FEA7E701214FF40010FFF7C1FE002127
:101B20004FF40010FFF7BCFE9CE701214020FFF7B7
:101B3000DDFE00214020FFF7D9FE93E70121802040
:101B4000FFF7D4FE00218020FFF7D0FE8AE70121B5
:101B50004FF48070FFF7CAFE00214FF48070FFF74A
:101B6000C5FE7FE701214FF48030FFF799FE002189
:101B70004FF48030FFF794FE74E701214FF40030FA
:101B8000FFF78EFE00214FF40030FFF789FE69E772
:101B9000002C0140A0820008000400400008004022
:101BA000000C0040001000400014004000340140D0
:101BB000004C01400050014000540140001800401A
:101BC000001C004000200040004001400044014053
:101BD0000048014038B504460D46534B984242D068
:101BE000B0F1804F3FD0A3F5943398423BD003F53A
:101BF0008063984237D003F58063984233D003F571
:101C0000806398422FD003F5806398422BD003F570
:101C10009033984227D003F5C053984223D003F560
:101C2000806398421FD003F5806398421BD0A3F5D0
:101C30009E33984217D003F58063984213D003F582
:101C4000806398420FD003F5903398420BD003F590
:101C50008063984207D003F58063984203D0E72160
:101C60003248FEF75DFB6B883BB1102B05D0202B73
:101C700003D0402B01D0602B4CD1EB882BB1B3F5B6
:101C8000807F02D0B3F5007F49D123889BB2264ADA
:101C9000944212D002F5006294420ED0B4F1804F0B
:101CA0000BD0A2F59832944207D002F5806294429C
:101CB00003D002F58062944203D123F070036A8856
:101CC00013431B4A944208D002F58062944204D028
:101CD00023F440739BB2EA8813432380AB88A38527
:101CE0002B882385104B9C420FD003F500639C4248
:101CF0000BD003F540639C4207D003F580639C4200
:101D000003D003F580639C4201D12B7A2386012303
:101D1000A38238BDE8210548FEF702FBADE7E921C3
:101D20000248FEF7FDFAB0E7002C0140A08200084F
:101D3000001000402DE9F04104460D463F4B98420B
:101D400017D0B0F1804F14D0A3F59433984210D03F
:101D500003F5806398420CD003F58063984208D065
:101D600003F59433984204D04FF404713448FEF7DD
:101D7000D7FA2B884BB1102B07D0202B05D0302B56
:101D800003D0602B01D0702B40D16B88012B43D83E
:101D90002B890BB1022B45D1238C9BB223F48053AA
:101DA0009BB22384268CB6B2B4F804801FFA88F85C
:101DB000A78BBFB227F4E6472B881B029BB21F43B9
:101DC00026F400562B891B039BB233436E883603DF
:101DD000B6B21E43194B9C4203D003F500639C42EC
:101DE0000BD1AB89B3F5807F00D00BBB28F48048C2
:101DF000AB899B019BB248EA0308A4F80480A7833F
:101E0000EB88A4F840302684BDE8F08140F211212F
:101E10000B48FEF785FAB8E740F212210848FEF7B2
:101E20007FFAB5E740F213210548FEF779FAB3E7E8
:101E30004FF40C710248FEF773FAD7E7002C01400B
:101E4000A08200080023038043808380C380038135
:101E500043818381C381704738B504460D462E4BBC
:101E6000984243D0B0F1804F40D0A3F594339842CC
:101E70003CD003F58063984238D003F580639842E4
:101E800034D003F58063984230D003F580639842E4
:101E90002CD003F59033984228D003F5C0539842D4
:101EA00024D003F58063984220D003F580639842E4
:101EB0001CD0A3F59E33984218D003F58063984256
:101EC00014D003F58063984210D003F59033984204
:101ED0000CD003F58063984208D003F580639842E4
:101EE00004D040F229310D48FEF71AFA012D07D827
:101EF00065B923889BB223F001039BB2238038BDD0
:101F000040F22A310548FEF70BFAF1E7238843F047
:101F100001032380F3E700BF002C0140A0820008EA
:101F200038B504460D46174B984214D003F50063AC
:101F3000984210D003F5406398420CD003F58063BB
:101F4000984208D003F58063984204D040F24231B1
:101F50000D48FEF7E5F9012D07D865B9B4F844300E
:101F6000C3F30E03A4F8443038BD40F243310648B1
:101F7000FEF7D6F9F1E7B4F8443043F40043A4F88F
:101F80004430F1E7002C0140A082000870B50446FF
:101F90000D461646304B984243D0B0F1804F40D0AA
:101FA000A3F5943398423CD003F58063984238D02F
:101FB00003F58063984234D003F58063984230D0B3
:101FC00003F5806398422CD003F59033984228D0D3
:101FD00003F5C053984224D003F58063984220D083
:101FE00003F5806398421CD0A3F59E33984218D025
:101FF00003F58063984214D003F58063984210D0B3
:1020000003F5903398420CD003F58063984208D0D2
:1020100003F58063984204D040F26B310F48FEF71D
:102020007FF915F47F4F00D125B94FF45B710B4850
:10203000FEF776F9012E05D856B9A38923EA0505DE
:10204000A58170BD40F26D310448FEF769F9F3E7F0
:10205000A3891D43A581F4E7002C0140A08200085C
:1020600010B50446164B984223D0B0F1804F20D0D3
:10207000A3F5943398421CD003F58063984218D09E
:1020800003F58063984214D003F59433984210D03E
:1020900003F5C05398420CD0A3F59A33984208D068
:1020A00003F59433984204D04FF478710548FEF755
:1020B00037F923899BB223F007039BB2238110BD1C
:1020C000002C0140A082000838B504460D462E4B76
:1020D000984243D0B0F1804F40D0A3F5943398425A
:1020E0003CD003F58063984238D003F58063984272
:1020F00034D003F58063984230D003F58063984272
:102100002CD003F59033984228D003F5C053984261
:1021100024D003F58063984220D003F58063984271
:102120001CD0A3F59E33984218D003F580639842E3
:1021300014D003F58063984210D003F59033984291
:102140000CD003F58063984208D003F58063984271
:1021500004D040F284510D48FEF7E2F8012D07D873
:1021600065B923889BB223F080039BB2238038BDDE
:1021700040F285510548FEF7D3F8F1E7238843F094
:1021800080032380F3E700BF002C0140A0820008F9
:1021900038B505460C46164B984217D0B0F1804F23
:1021A00014D0A3F59433984210D003F5806398427D
:1021B0000CD003F58063984208D003F5943398421D
:1021C00004D040F232610B48FEF7AAF8082C00D088
:1021D00044B9A98B89B221F400612402A4B221433D
:1021E000A98338BD40F233610248FEF799F8F0E761
:1021F000002C0140A082000838B504460D460F4B64
:10220000984217D0B0F1804F14D0A3F59433984280
:1022100010D003F5806398420CD003F58063984298
:1022200008D003F59433984204D040F62C110448AA
:10223000FEF776F8A4F8405038BD00BF002C0140EE
:10224000A082000838B505460C462A4B984243D078
:10225000B0F1804F40D0A3F5943398423CD003F5C1
:102260008063984238D003F58063984234D003F5F8
:102270008063984230D003F5806398422CD003F5F8
:102280009033984228D003F5C053984224D003F5E8
:102290008063984220D003F5806398421CD0A3F558
:1022A0009E33984218D003F58063984214D003F50A
:1022B0008063984210D003F5903398420CD003F518
:1022C0008063984208D003F58063984204D040F6BA
:1022D00036210948FEF724F814F4614F00D124B9DF
:1022E00040F637210448FEF71BF8E443A4B22C82E1
:1022F00038BD00BF002C0140A082000838B504465C
:102300000D46344B984243D0B0F1804F40D0A3F5F6
:10231000943398423CD003F58063984238D003F55B
:102320008063984234D003F58063984230D003F53F
:10233000806398422CD003F59033984228D003F55F
:10234000C053984224D003F58063984220D003F50F
:10235000806398421CD0A3F59E33984218D003F5B1
:102360008063984214D003F58063984210D003F53F
:10237000903398420CD003F58063984208D003F55F
:102380008063984204D040F658211348FDF7C8FFF7
:102390006B1E9BB2012B0BD9042D09D0082D07D041
:1023A000102D05D0202D03D0402D01D0802D07D138
:1023B000228AA3892B40154208D04BB9002006E0A1
:1023C00040F659210448FDF7ABFFF1E7002038BD86
:1023D0000120FCE7002C0140A082000838B505462A
:1023E0000C462A4B984243D0B0F1804F40D0A3F521
:1023F000943398423CD003F58063984238D003F57B
:102400008063984234D003F58063984230D003F55E
:10241000806398422CD003F59033984228D003F57E
:10242000C053984224D003F58063984220D003F52E
:10243000806398421CD0A3F59E33984218D003F5D0
:102440008063984214D003F58063984210D003F55E
:10245000903398420CD003F58063984208D003F57E
:102460008063984204D040F682210948FDF758FF66
:1024700014F47F4F00D124B940F683210448FDF7BE
:102480004FFFE443A4B22C8238BD00BF002C0140B2
:10249000A082000808B5FDF7ADFF024A024B9A6022
:1024A00008BD00BF0000000800ED00E008B5FDF722
:1024B000C9FF08BD034B1B681BB1024A1368013BEF
:1024C00013607047F002002008B5FFF7F3FF08BD66
:1024D0002DE9F041054600210B4607E003EB4302DE
:1024E0002A44304830F81220114401331F2BF5DD07
:1024F0004C09A1B22C4B002243F82520AF2018E054
:1025000001F0C2FF8046A0B2381A01F0BDFF0446B8
:10251000B81B01F0B9FF0146204602F0BDF80146A4
:10252000404601F0FDFE204B43F82500BDE8F08158
:102530001846B0F5917F0BDA431C1C4A32F8136041
:102540008E42F5D832F810708F42D9D21846F0E793
:10255000002017E001F098FF8046A0B2381A01F081
:1025600093FF0446B81B01F08FFF0146204602F09E
:1025700093F80146404601F0D3FE0B4B43F825008B
:10258000D4E71846B3280BDC431C084A32F8136022
:102590008E42F6D832F810708F42DBD21846F1E73F
:1025A0000020C3E71403002034000020D08200087C
:1025B00070B594B001210846FFF700F95C4C204645
:1025C000FEF73AFA5B4B09935B4B0A9300260B9696
:1025D00060230C930D9680230E934FF480730F931A
:1025E0004FF480631093202311934FF40053129300
:1025F000139609A92046FEF7DFFA01212046FEF7CF
:1026000091FB01214FF40070FFF7FEF84B4C204680
:10261000FDF7CEFF049601258DF814508DF8155066
:1026200007964FF46023069303268DF8206004A9D3
:102630002046FEF701F84FF40040FFF745F8072366
:102640002A4608212046FEF77FF9072302220921A6
:102650002046FEF779F90723324602212046FEF78D
:1026600073F929462046FEF7ABF829462046FEF7C7
:102670007DF82046FEF7CAF83048FEF7E3F8002858
:10268000FAD12E48FEF7FCF82C48FEF715F9002881
:10269000FAD101212948FEF72DF901212448FEF73E
:1026A00041FB01210846FFF7D5F84FF4C060FDF764
:1026B00013FF1C238DF80C3000258DF80D500423DA
:1026C0008DF80E3001248DF80F4003A8FDF724FF8C
:1026D0004FF08040FFF730F94FF08040FFF7C0FC2B
:1026E00040F2CF23ADF80030ADF80650ADF80250FF
:1026F0006423ADF8043069464FF08040FFF76AFA72
:1027000021464FF08040FFF79DFD29464FF0804065
:10271000FFF7DAFC224621464FF08040FFF736FCF7
:1027200021464FF08040FFF797FB14B070BD00BF0B
:10273000080002404C240140140300200024014002
:10274000094B00221A635A6308490A6008490A6063
:1027500008490A600848186108499961084A1A62DC
:102760005861D9615A627047DC030020540400208C
:10277000D40300204C0400200000A0419C50883964
:1027800000BC3E452DE9F04706468A461746984666
:10279000DDF8209000241C70C9F80040304602F09B
:1027A00063FDA04210DD3519504602F05DFD024682
:1027B0005146284602F060FD08B10134EEE750466C
:1027C00002F052FD044401E04FF0FF34002C3DDBE9
:1027D000384602F049FD90B12546304602F044FDEE
:1027E000A84217DD06EB050A384602F03DFD024619
:1027F0003946504602F040FD70B10135EDE7311920
:10280000404602F029FD304602F02EFDC9F80000D6
:1028100000201CE04FF0FF35002D0ADA3119404648
:1028200002F01AFD304602F01FFDC9F8000000203A
:102830000DE02F1B3A463119404602F093F8002371
:1028400008F80730C9F80050022000E00120BDE878
:10285000F0870000000000002DE9F04F83B004462F
:102860006B4E56F8200001F0F1F90022694B01F09F
:1028700091FB07468846CDE90078A31C56F8230053
:1028800001F0E4F90022634B01F084FB82468B46A1
:1028900002460B463846414601F09AF801F0EAFC40
:1028A000054604F1080356F8230001F0F1F954A39A
:1028B000D3E9002301F044FA80468946564E56F883
:1028C000240001F0E5F902460B465046594601F056
:1028D0007FF802460B464046494601F031FA8046F1
:1028E00089464E4F57F8240001F0D2F946A3D3E9A8
:1028F000002301F025FA02460B464046494601F006
:1029000069F801F0B7FC804647F824005046594664
:1029100001F0B0FC46F824004149284601F0C4FF0C
:10292000002846D13F49284601F0A0FF002848D1A1
:1029300000220023DDE9000101F06AFC002840D1FB
:10294000394B1B5733B1394B002243F82420364B07
:1029500000221A552E4E231D56F82310284601F04A
:10296000E7FD8246314F57F82410284601F0D8FC85
:10297000814647F82400A31D56F8231001F0D8FD26
:102980000146504601F0CCFC414601F0C7FC06462A
:10299000274901F089FFC8B10021284601F084FFD2
:1029A00050B32946484601F0B9FC47F82400204EB0
:1029B00003E01D4B01221A551D4E304603B0BDE801
:1029C000F08F194B01221A550026F6E700213046F8
:1029D00001F04CFF0028F0D00021284601F046FF0E
:1029E00008B90026E9E72946484601F097FC0F4B55
:1029F00043F824000026E0E70D4EDEE7AFF3008049
:102A0000A09999999999A93F666666666666EE3FB0
:102A1000DC030020000024403402002028020020B3
:102A200000002041000020C1300200203C020020B4
:102A300000007F4310B52F4B1A695A619A69DA6119
:102A40001A6A5A622C4B1B78012B20D12B4A13781F
:102A50000133DBB213707E2B35D9134600221A7076
:102A6000274B1B7813B1234B9B6803BB4FF480515A
:102A70002448FEF7C3FA224B5B7813B11D4BDB6889
:102A8000DBB94FF480512048FEF7B8FA10BD0020A2
:102A9000FFF7E2FE01F012FF4010194C20700120F8
:102AA000FFF7DAFE01F00AFF40106070CEE74FF446
:102AB00080511448FEF772FADDE74FF48051124856
:102AC000FEF76CFAE2E70E4A127893420BD20C4BF7
:102AD0005A780A4B1B789A42D8D84FF480510A484A
:102AE000FEF78CFAD2E74FF480510648FEF786FADB
:102AF000EDE700BFDC0300202502002032020020A9
:102B0000F4020020000C01400008014000B583B031
:102B100001210520FEF778FE4FF40063ADF8043084
:102B200018238DF8073003238DF8063001A90348D8
:102B3000FEF73EF903B05DF804FB00BF000801405A
:102B400010B582B001210820FEF75EFE0323ADF828
:102B5000043000248DF8074001A90948FEF728F940
:102B600001210420FEF750FE0423ADF804308DF857
:102B700007400DEB03010348FEF71AF902B010BD40
:102B8000000C014000080140014B1868704700BF6D
:102B9000D002002000B583B021238DF8043001233A
:102BA0008DF805308DF806308DF8073001A8FDF757
:102BB000B3FC03B05DF804FB10B586B0012108201A
:102BC000FEF722FE4FF44063ADF8143003238DF876
:102BD00016301C238DF8173005A92048FEF7E8F8B9
:102BE00001214FF48000FEF735FE01214FF48000F3
:102BF000FEF730FE01214FF48000FEF777FE002142
:102C00004FF48000FEF772FE154C2046FEF710FBD5
:102C10000223ADF808304BF6FF73ADF80A30782385
:102C2000ADF80C304FF48063ADF80E304FF48043B4
:102C3000ADF8103006A949F6404341F8143D20464E
:102C4000FEF720FB01212046FEF7D8FB01224FF4BE
:102C5000C0612046FEF7FAFB06B010BD000C014033
:102C60000058004008B50B490B48FEF765FC30B929
:102C70004FF001210848FEF75FFC28B908BD05495F
:102C80000548FEF7B7FCF3E74FF001210248FEF7D5
:102C9000B1FCF3E7000400010058004070B588B0B3
:102CA000FFF734FF01214FF40060FEF7ADFD44F65D
:102CB0001F63ADF818304723ADF814300025ADF888
:102CC0001A50ADF816508DF81C50164C05A9204628
:102CD000FEF780FF01A8FFF7B5F86023ADF80430D8
:102CE0000126ADF806604FF47A73ADF80A30ADF8FE
:102CF0000C50ADF8105001A92046FFF71BF8082131
:102D00002046FFF745FA31462046FFF7DDF9314608
:102D10002046FFF705F931462046FFF79DF808B039
:102D200070BD00BF002C014008B581B20148FFF71B
:102D300063FA08BD002C014010B5044602F094FA75
:102D4000002302E00138225C53400028FAD12246D9
:102D50000249034802F060FA10BD00BF2C8500084C
:102D600044020020F0B599B0054600228A4244DAB8
:102D70001446AB56742B27D0542B40D0502B58D030
:102D80004B2B67D0492B77D0442B00F08780462B04
:102D900000F09680622B00F0B580672B00F0CC80AD
:102DA000472B00F00A81682B00F02281772B00F07E
:102DB0003681722B00F03881612B00F045814D2B5C
:102DC00000F0B7810132D1E7501C284401F0BFFD6B
:102DD000024600EB80014B00AB490B6040F6B83176
:102DE0008B4202D9A84B00211960A84CA849204663
:102DF00002F012FA2046FFF79FFF19B0F0BD501CF9
:102E0000284401F0A4FD024600EB80014B009E49DE
:102E10004B6040F6B8318B4202D99B4B0021596080
:102E20009A4C9B49204602F0F7F92046FFF784FFB1
:102E3000E3E7501C284401F08AFD0546FFF774FFC4
:102E4000924C2A469249204602F0E6F92046FFF7C6
:102E500073FFD2E7501C284401F076FD01F00AFA16
:102E6000894A42F8100F894C8A49204602F0D4F969
:102E70002046FFF761FFC0E7501C284401F064FDC5
:102E800001F0F8F9804A42F8180F804C8149204639
:102E900002F0C2F92046FFF74FFFAEE7501C28446E
:102EA00001F052FD01F0E6F9774A42F8200F774C25
:102EB0007849204602F0B0F92046FFF73DFF9CE735
:102EC000AB1893F90160303ED01C284401F03FFD5F
:102ED000024656B96C4B98636C4C6D49204602F023
:102EE0009BF92046FFF728FF87E7012E04D0032E29
:102EF00005D0654B9865EFE7634B9864ECE7624B50
:102F00001866E9E7501C284401F021FD024600EB59
:102F100080014B0060490B6040F6B8318B4202D90A
:102F20005D4B00211960594C5949204602F074F953
:102F30002046FFF701FF60E7584E4FF480413046CE
:102F4000FDF7D0FF47004FF400513046FDF7CAFFB0
:102F50000743601C284401F0FAFCC0B203283FF686
:102F60004CAF494B98684C4A5568DE684C4AA2FB06
:102F70000013DB08454CA2FB06C1C90801EB810E1A
:102F80004FEA4E0CA6EB0C0604960391A2FB051229
:102F9000D20802EB820671006D1A0295019203EBD2
:102FA00083014A00801A00903A463E49204602F0CA
:102FB00033F92046FFF7C0FE1FE7501C284401F0FC
:102FC000C6FCC0B203283FF618AF334B5968344AE9
:102FD000A2FB0132D20802EB820043002B4CCB1A39
:102FE0003149204602F018F92046FFF7A5FE04E714
:102FF0002A4C4FF480412046FDF774FF45004FF402
:1030000000512046FDF76EFF204C45EA000227499B
:10301000204602F001F92046FFF78EFEEDE6244936
:10302000244802F0F9F8E8E6012383F31388BFF39C
:103030004F8F2149CA6802F4E062204B1343CB60F2
:10304000BFF34F8F00BFFDE70023079301342C44EB
:10305000204601F07CFC01F017FA0B4B986107AB9E
:10306000009308AB164A17492046FFF78BFB08A8C8
:1030700001F06DFC144B1860012829D913490D4843
:1030800002F0CAF8B9E600BFDC030020EC0400201F
:103090001886000820860008F80200200008014079
:1030A000CDCCCCCC28860008448600085086000889
:1030B000548600084402002000ED00E00400FA05F8
:1030C00064860008688600086C0500206C8600088D
:1030D000204E07AD009508AB32461F492046FFF74A
:1030E00051FB08A801F033FC1C4B1860009508AB9D
:1030F00032461B492046FFF745FB08A801F027FC94
:10310000184B1860009508AB174A18492046FFF77E
:1031100039FB08A801F01BFC154B18603338F82860
:1031200002D8144B01221A601349144802F074F8B3
:1031300063E6501C284401F00AFCC0B26C2804D09D
:103140000D490E4802F068F857E60D4B00221A7040
:10315000F6E700BF648600084C860008580400208B
:103160007C860008E8040020808600088486000829
:103170005C040020DC020020888600084402002055
:10318000E002002038B53B280CD0204B1A68511CB7
:1031900019601A44107201225A603C2901DD002294
:1031A0001A6038BD194803685A1C026003440022A3
:1031B0001A72022343602A21083002F06FF8054694
:1031C000D0B1134BC31ADBB2002407E0013BDBB2E2
:1031D0000E4A1A4492F908205440E4B2002BF5D16B
:1031E0000A220021681C02F01DFFA04204D0074BF8
:1031F00000225A601A60D4E7044C204650F8081B9D
:10320000FFF7B0FD002363602360CAE7600400207D
:103210006804002038B52D48FEF774F910F0020F4D
:1032200015D010F0800F04D1284B00229A821A8307
:1032300038BD274C274D2B68E15C2448FEF736F952
:103240002B68E35C002BEFD100222270ECE710F03A
:10325000800F12D010F0040FE6D11E4C236801330A
:1032600023601B4DE95C1948FEF720F92368EB5CED
:10327000002BD9D100222A70D6E700F05003502B42
:103280000ED010F0400F17D110F0100FCCD00F4A15
:10329000138843F4805313800E4B00221A60C3E757
:1032A0000A4C2046FEF718F940B2FFF76BFF23885F
:1032B00043F480532380B7E70448FEF70DF940B28A
:1032C0000828B1D0FFF75EFFAEE700BF005800400E
:1032D00044020020C40200200028FDD170470000F5
:1032E00010B57A4A13680133136001214FF0804012
:1032F000FFF704F8002800F0E780744B1B6813F018
:10330000030F79D0724B9B68002B00F09380704BB9
:10331000DB68002B00F094806E4B5B68002B00F0A4
:1033200095806B4B9B68B3F5167F40F295804FF408
:1033300080716948FDF732FE684B1B78644A926BD6
:10334000934200F08F80002B00F09280634A137844
:1033500001331370624B1B785D4A926D934200F00B
:103360008D80002B00F090805D4A1378013313703C
:103370005C4B1B78564A926C934200F08B80002B7A
:1033800000F08D80574A137801331370514B5B68FE
:103390004BB1504A1268934240F286804FF400517C
:1033A0005148FDF72BFEFFF745FB494B9B68002B6F
:1033B00000F08580464A12680A2A03D94B48016802
:1033C000013101604949086842F21071884276DD96
:1033D000464900200860D21A642A70D9444A12680B
:1033E0009A1A1E2A66D843490A6801320A60012ADD
:1033F00063DD0A46106060E00020FFF769F83E498F
:1034000001F096F8324C01F07FFAA0600220FFF73D
:103410005FF8394901F08CF801F076FAE06001209C
:10342000FFF756F8344901F083F801F06DFA294BA3
:10343000586067E74FF480512B48FDF7DFFD66E7E2
:103440004FF480512448FDF7D9FD65E74FF4005152
:103450002548FDF7D3FD64E74FF480711E48FDF762
:10346000CDFD69E74FF400711B48FDF7C7FD6DE71F
:103470004FF400711848FDF791FD67E74FF4806144
:103480001548FDF7BBFD6FE74FF480611248FDF76B
:1034900085FD69E780211448FDF7B0FD72E78021C2
:1034A0001148FDF77BFD6DE74FF400510E48FDF725
:1034B00075FD78E70F4A002111600D4A1360012164
:1034C0004FF08040FEF78AFF10BD00BFD002002001
:1034D000DC030020F802002000080140CC0200209C
:1034E000CE020020CD020020000C0140D8020020B6
:1034F000D4020020C802002000002041F0B583B0B3
:1035000001210820FEF780F910278DF807700324A9
:103510008DF8064002AE4FF4425326F8043D1D4D8F
:1035200031462846FDF744FC4FF480512846FDF70C
:1035300065FD4FF400512846FDF760FD0121042090
:10354000FEF762F98DF807708DF806404FF4B85316
:10355000ADF80430104C31462046FDF729FC4FF4FD
:1035600080712046FDF74AFD4FF400712046FDF7BB
:1035700045FD4FF480612046FDF740FD802128463F
:10358000FDF73CFD4FF480512046FDF737FD03B0B9
:10359000F0BD00BF000C01400008014000B583B041
:1035A00001210420FEF730F901210C48FDF756FDFA
:1035B00001210B48FDF752FD48238DF80730032306
:1035C0008DF8063002A94FF4C04321F8043D0548A8
:1035D000FDF7EEFB03B05DF804FB00BF0002300016
:1035E000000430000008014008B545F25550FEF7D0
:1035F00025F80420FEF736F840F6C410FEF742F82E
:10360000FEF752F8FEF758F808BD08B5FEF74CF87B
:1036100008BD0000000000002DE9F04F9BB082467D
:1036200011910E92FFF7B0FAAD4B01221A700023F0
:10363000179318931993BAF58F7F1ADA0546A9499B
:10364000A94801F0E9FD7F23A84A119953544FF08E
:103650000108A74A82F800800D95A946AB46A54A05
:103660000C9200220B9210930F930027139746465B
:103670007EE0A1499C4801F0CFFDF5E0FFF7C5FFD2
:103680000D9484E0EB230F930F9BC3F1FE03109383
:1036900002E014230F931093022F3FDD109800F0E7
:1036A000F3FE4FF0814100F043FF00F0F1FACDE965
:1036B00014010C990B9800F031FE00F0E9FA86A392
:1036C000D3E9002300F03CFB00228C4B00F038FBD8
:1036D00002460B46DDE9140100F05CFC00F0CAFD77
:1036E0000646484600F0D0FE854900F021FF81469D
:1036F0008449304600F01CFF06461790494600F00A
:1037000017FF4FF0785100F013FF19903146304603
:1037100000F006FE494600F0BFFF18900F9B109A7C
:1037200013445B10714A119953540137129B0C9347
:10373000A14646460AF11E0000F0A6FE0A9901F0D5
:1037400095F8002840F08980631B002B01DB04F50D
:10375000FA65A4EB0B03A4EB09041C446A4B9C42DE
:1037600000F385800E9BBB4202DA022F00F38480B7
:103770005F4B93F80080B8F1000F72D0FFF704FAA6
:1037800004460D9BC31AB3F57A7F7FF577AF5F4B85
:10379000986800F05BFA00225D4B00F0FBFB00F044
:1037A00069FD0A9001460B9801F060F808B10A9B88
:1037B0000B930A990C9801F077F808B10A9B0C93C7
:1037C000E6B1504600F060FE12900A9901F04EF802
:1037D000A0B1A4EB0903A3F59C53083B002B0DDB20
:1037E0000F9B109A9B1A5B10404A11995354A4EBFB
:1037F00009031393129B0B93A3460026002E99D125
:10380000504600F041FE12900A9901F04DF8002850
:1038100090D0A4EB0B03A3F59C53083B002B89DB52
:10382000A4EB0B09002F7FF779AF139AA2EB0903E2
:10383000109901FB03F1914491FBF9F30F9A1A449B
:103840000F92132A7FF725AFEB2A3FF71BAF7F2A92
:103850003FF71AAF0F9B10931EE72E49224801F045
:10386000DBFC1F4B00221A701BB0BDE8F08F2A4909
:103870001D4801F0D1FCF4E7179800F009FA04465E
:103880000D46189800F004FA06460F46199800F005
:10389000FFF980468946DFF850A0CDE90289CDE9DD
:1038A000006722462B461D49504601F0B5FC4FF4F7
:1038B0007A70FFF711FDCDE90889CDE90667CDE9FA
:1038C0000445CDE90289CDE9006722462B4614491B
:1038D000504601F0A1FCC4E7182D4454FB210940D7
:1038E000250200205885000844020020F402002030
:1038F000E002002000401C46388500080000E03F40
:103900006F12833A9A99193F804F1200DC0300200E
:1039100000002440708500088C850008A085000800
:10392000D085000810B5FFF735F9FFF7B7F9FFF7B5
:1039300007F9FFF7E3FDFEF73BFEFFF73DF9FEF762
:10394000FFFE194B00241C605C601C669C659C6437
:103950009C631649164801F05FFC164B1C60FFF78C
:1039600043FE04E0134B1B6863B9FFF74EFE002CC7
:10397000F8D10D4B1B68B3F5966FF3D9FFF70EFE28
:103980000124EFE70C4B1B68003318BF01230B4ADF
:1039900012780B4909680B480068FFF73DFE054B9C
:1039A00000221A60E1E700BFDC0300208C860008DB
:1039B00044020020DC020020E8040020580400201B
:1039C0006C0500205C04002081F0004102E000BF93
:1039D00083F0004330B54FEA41044FEA430594EACF
:1039E000050F08BF90EA020F1FBF54EA000C55EA0A
:1039F000020C7FEA645C7FEA655C00F0E2804FEADB
:103A00005454D4EB5555B8BF6D420CDD2C4480EABC
:103A1000020281EA030382EA000083EA010180EAEC
:103A2000020281EA0303362D88BF30BD11F0004F3A
:103A30004FEA01314FF4801C4CEA113102D0404270
:103A400061EB410113F0004F4FEA03334CEA1333AB
:103A500002D0524263EB430394EA050F00F0A780C3
:103A6000A4F10104D5F1200E0DDB02FA0EFC22FABE
:103A700005F2801841F1000103FA0EF2801843FAB2
:103A800005F359410EE0A5F120050EF1200E012AA3
:103A900003FA0EFC28BF4CF0020C43FA05F3C018E1
:103AA00051EBE37101F0004507D54FF0000EDCF15A
:103AB000000C7EEB00006EEB0101B1F5801F1BD303
:103AC000B1F5001F0CD349085FEA30004FEA3C0C07
:103AD00004F101044FEA445212F5800F80F09A80FD
:103AE000BCF1004F08BF5FEA500C50F1000041EB01
:103AF000045141EA050130BD5FEA4C0C404141EB05
:103B0000010111F4801FA4F10104E9D191F0000F2B
:103B100004BF01460020B1FA81F308BF2033A3F1AE
:103B20000B03B3F120020CDA0C3208DD02F1140CA5
:103B3000C2F10C0201FA0CF021FA02F10CE002F1E0
:103B40001402D8BFC2F1200C01FA02F120FA0CFCD9
:103B5000DCBF41EA0C019040E41AA2BF01EB045122
:103B6000294330BD6FEA04041F3C1CDA0C340EDC20
:103B700004F11404C4F1200220FA04F001FA02F363
:103B800040EA030021FA04F345EA030130BDC4F121
:103B90000C04C4F1200220FA02F001FA04F340EA16
:103BA0000300294630BD21FA04F0294630BD94F0C7
:103BB000000F83F4801306BF81F480110134013DAE
:103BC0004EE77FEA645C18BF7FEA655C29D094EA1F
:103BD000050F08BF90EA020F05D054EA000C04BF9D
:103BE0001946104630BD91EA030F1EBF0021002088
:103BF00030BD5FEA545C05D14000494128BF41F027
:103C0000004130BD14F580043CBF01F5801130BD8A
:103C100001F0004545F0FE4141F470014FF0000015
:103C200030BD7FEA645C1ABF194610467FEA655CC6
:103C30001CBF0B46024650EA013406BF52EA033568
:103C400091EA030F41F4002130BD00BF90F0000F56
:103C500004BF0021704730B54FF4806404F1320492
:103C60004FF000054FF0000150E700BF90F0000F4B
:103C700004BF0021704730B54FF4806404F1320472
:103C800010F0004548BF40424FF000013EE700BF42
:103C900042004FEAE2014FEA31014FEA02701FBFD2
:103CA00012F07F4393F07F4F81F06051704732F004
:103CB0007F4208BF704793F07F4F04BF41F400215B
:103CC000704730B54FF4607401F0004521F00041B9
:103CD0001CE700BF50EA010208BF704730B54FF043
:103CE00000050AE050EA010208BF704730B511F044
:103CF000004502D5404261EB41014FF4806404F17C
:103D000032045FEA915C3FF4D8AE4FF003025FEA01
:103D1000DC0C18BF03325FEADC0C18BF033202EB85
:103D2000DC02C2F1200300FA03FC20FA02F001FADF
:103D300003FE40EA0E0021FA02F11444BDE600BF82
:103D400070B54FF0FF0C4CF4E06C1CEA11541DBF31
:103D50001CEA135594EA0C0F95EA0C0F00F0DEF8FC
:103D60002C4481EA030621EA4C5123EA4C5350EAE1
:103D7000013518BF52EA033541F4801143F4801332
:103D800038D0A0FB02CE4FF00005E1FB02E506F0C3
:103D90000042E0FB03E54FF00006E1FB03569CF018
:103DA000000F18BF4EF0010EA4F1FF04B6F5007F1E
:103DB00064F5407404D25FEA4E0E6D4146EB060690
:103DC00042EAC62141EA55514FEAC52040EA5E5019
:103DD0004FEACE2EB4F1FD0C88BFBCF5E06F1ED8C3
:103DE000BEF1004F08BF5FEA500E50F1000041EBFA
:103DF000045170BD06F0004646EA010140EA0200A7
:103E000081EA0301B4EB5C04C2BFD4EB0C0541EAC8
:103E1000045170BD41F480114FF0000E013C00F3DD
:103E2000AB8014F1360FDEBF002001F0004170BD01
:103E3000C4F10004203C35DA0C341BDC04F114041A
:103E4000C4F1200500FA05F320FA04F001FA05F2A6
:103E500040EA020001F0004221F0004110EBD37073
:103E600021FA04F642EB06015EEA430E08BF20EA9F
:103E7000D37070BDC4F10C04C4F1200500FA04F342
:103E800020FA05F001FA04F240EA020001F00041D4
:103E900010EBD37041F100015EEA430E08BF20EA47
:103EA000D37070BDC4F1200500FA05F24EEA020E8F
:103EB00020FA04F301FA05F243EA020321FA04F0BE
:103EC00001F0004121FA04F220EA020000EBD37075
:103ED0005EEA430E08BF20EAD37070BD94F0000F75
:103EE0000FD101F00046400041EB010111F4801FA9
:103EF00008BF013CF7D041EA060195F0000F18BF5A
:103F0000704703F00046520043EB030313F4801F95
:103F100008BF013DF7D043EA0603704794EA0C0F4F
:103F20000CEA135518BF95EA0C0F0CD050EA410665
:103F300018BF52EA4306D1D181EA030101F00041E2
:103F40004FF0000070BD50EA410606BF104619460A
:103F500052EA430619D094EA0C0F02D150EA013616
:103F600013D195EA0C0F05D152EA03361CBF104657
:103F700019460AD181EA030101F0004141F0FE41F6
:103F800041F470014FF0000070BD41F0FE4141F47A
:103F9000780170BD70B54FF0FF0C4CF4E06C1CEA7A
:103FA00011541DBF1CEA135594EA0C0F95EA0C0F2F
:103FB00000F0A7F8A4EB050481EA030E52EA0335EA
:103FC0004FEA013100F088804FEA03334FF080550B
:103FD00045EA131343EA12634FEA022245EA111538
:103FE00045EA10654FEA00260EF000419D4208BFE9
:103FF000964244F1FD0404F5407402D25B084FEA96
:104000003202B61A65EB03055B084FEA32024FF441
:1040100080104FF4002CB6EB020E75EB030E22BF9E
:10402000B61A754640EA0C005B084FEA3202B6EB5E
:10403000020E75EB030E22BFB61A754640EA5C000D
:104040005B084FEA3202B6EB020E75EB030E22BF9D
:10405000B61A754640EA9C005B084FEA3202B6EB9E
:10406000020E75EB030E22BFB61A754640EADC005D
:1040700055EA060E18D04FEA051545EA16754FEABF
:1040800006164FEAC30343EA52734FEAC2025FEADD
:104090001C1CC0D111F4801F0BD141EA00014FF06C
:1040A00000004FF0004CB6E711F4801F04BF01433D
:1040B0000020B4F1FD0C88BFBCF5E06F3FF6AFAE59
:1040C000B5EB030C04BFB6EB020C5FEA500C50F1E9
:1040D000000041EB045170BD0EF0004E4EEA11316C
:1040E00014EB5C04C2BFD4EB0C0541EA045170BD73
:1040F00041F480114FF0000E013C90E645EA060EB7
:104100008DE60CEA135594EA0C0F08BF95EA0C0FE4
:104110003FF43BAF94EA0C0F0AD150EA01347FF42C
:1041200034AF95EA0C0F7FF425AF104619462CE703
:1041300095EA0C0F06D152EA03353FF4FDAE104666
:10414000194622E750EA410618BF52EA43067FF4B7
:10415000C5AE50EA41047FF40DAF52EA43057FF447
:10416000EBAE12E74FF0FF3C06E000BF4FF0010C52
:1041700002E000BF4FF0010C4DF804CD4FEA410CB6
:104180007FEA6C5C4FEA430C18BF7FEA6C5C1BD083
:1041900001B050EA410C0CBF52EA430C91EA030F04
:1041A00002BF90EA020F0020704710F1000F91EA61
:1041B000030F58BF994208BF90422CBFD8176FEA2F
:1041C000E37040F0010070474FEA410C7FEA6C5CFD
:1041D00002D150EA013C07D14FEA430C7FEA6C5C04
:1041E000D6D152EA033CD3D05DF8040B704700BF30
:1041F0008446104662468C461946634600E000BF7E
:1042000001B5FFF7B7FF002848BF10F1000F01BD4F
:104210004DF808EDFFF7F4FF0CBF012000205DF81A
:1042200008FB00BF4DF808EDFFF7EAFF34BF01209F
:1042300000205DF808FB00BF4DF808EDFFF7E0FF38
:1042400094BF012000205DF808FB00BF4DF808ED89
:10425000FFF7CEFF94BF012000205DF808FB00BFF0
:104260004DF808EDFFF7C4FF34BF012000205DF8D2
:1042700008FB00BF4FEA4102B2F1E04324BFB3F5AF
:10428000001CDCF1FE5C0DD901F0004C4FEAC002CD
:104290004CEA5070B2F1004F40EB830008BF20F0B1
:1042A0000100704711F0804F21D113F13872BCBF6B
:1042B00001F00040704741F480114FEA5252C2F1C0
:1042C0001802C2F1200C10FA0CF320FA02F018BF09
:1042D00040F001004FEAC1234FEAD32303FA0CFC5C
:1042E00040EA0C0023FA02F34FEA4303CCE77FEAEB
:1042F000625307D150EA01331EBF4FF0FE4040F435
:104300004000704701F0004040F0FE4040F40000E3
:10431000704700BF80F0004002E000BF81F0004124
:1043200042001FBF5FEA410392EA030F7FEA226C5B
:104330007FEA236C6AD04FEA1262D2EB1363C1BFEB
:10434000D218414048404140B8BF5B42192B88BF5A
:10435000704710F0004F40F4000020F07F4018BF7D
:10436000404211F0004F41F4000121F07F4118BF9D
:10437000494292EA030F3FD0A2F1010241FA03FC45
:1043800010EB0C00C3F1200301FA03F100F000432D
:1043900002D5494260EB4000B0F5000F13D3B0F1F5
:1043A000807F06D340084FEA310102F10102FE2A64
:1043B00051D2B1F1004F40EBC25008BF20F00100D4
:1043C00040EA03007047490040EB000010F4000F82
:1043D000A2F10102EDD1B0FA80FCACF1080CB2EB15
:1043E0000C0200FA0CF0AABF00EBC2505242184374
:1043F000BCBFD0401843704792F0000F81F4000119
:1044000006BF80F400000132013BB5E74FEA4103EB
:104410007FEA226C18BF7FEA236C21D092EA030F57
:1044200004D092F0000F08BF0846704790EA010FD1
:104430001CBF0020704712F07F4F04D1400028BFFE
:1044400040F00040704712F100723CBF00F50000E0
:10445000704700F0004343F0FE4040F40000704716
:104460007FEA226216BF08467FEA236301464202C2
:1044700006BF5FEA412390EA010F40F480007047D5
:104480004FF0000304E000BF10F0004348BF40427B
:104490005FEA000C08BF704743F0964301464FF0B7
:1044A00000001CE050EA010208BF70474FF0000313
:1044B0000AE000BF50EA010208BF704711F0004354
:1044C00002D5404261EB41015FEA010C02BF844624
:1044D0000146002043F0B64308BFA3F18053A3F583
:1044E0000003BCFA8CF2083AA3EBC25310DB01FACA
:1044F00002FC634400FA02FCC2F12002BCF1004F4E
:1045000020FA02F243EB020008BF20F001007047DE
:1045100002F1200201FA02FCC2F1200250EA4C0032
:1045200021FA02F243EB020008BF20EADC70704778
:104530004FF0FF0C1CEAD0521EBF1CEAD15392EA86
:104540000C0F93EA0C0F6FD01A4480EA010C400262
:1045500018BF5FEA41211ED04FF0006343EA5010BC
:1045600043EA5111A0FB01310CF00040B1F5000FFE
:104570003EBF490041EAD3715B0040EA010062F1AD
:104580007F02FD2A1DD8B3F1004F40EBC25008BF97
:1045900020F00100704790F0000F0CF0004C08BFB5
:1045A00049024CEA502040EA51207F3AC2BFD2F182
:1045B000FF0340EAC250704740F400004FF0000390
:1045C000013A5DDC12F1190FDCBF00F000407047CA
:1045D000C2F10002410021FA02F1C2F1200200FA08
:1045E00002FC5FEA310040F1000053EA4C0308BFCF
:1045F00020EADC70704792F0000F00F0004C02BF20
:10460000400010F4000F013AF9D040EA0C0093F09A
:10461000000F01F0004C02BF490011F4000F013BF4
:10462000F9D041EA0C018FE70CEAD15392EA0C0F62
:1046300018BF93EA0C0F0AD030F0004C18BF31F0CD
:10464000004CD8D180EA010000F00040704790F0A3
:10465000000F17BF90F0004F084691F0000F91F047
:10466000004F14D092EA0C0F01D142020FD193EA0D
:104670000C0F03D14B0218BF084608D180EA010095
:1046800000F0004040F0FE4040F40000704740F071
:10469000FE4040F4400070474FF0FF0C1CEAD0523F
:1046A0001EBF1CEAD15392EA0C0F93EA0C0F69D09B
:1046B000A2EB030280EA010C49024FEA402037D006
:1046C0004FF0805343EA111143EA10130CF00040FD
:1046D0008B4238BF5B0042F17D024FF4000C8B42ED
:1046E00024BF5B1A40EA0C00B3EB510F24BFA3EBCD
:1046F000510340EA5C00B3EB910F24BFA3EB91039D
:1047000040EA9C00B3EBD10F24BFA3EBD10340EAF6
:10471000DC001B0118BF5FEA1C1CE0D1FD2A3FF63C
:1047200050AF8B4240EBC25008BF20F001007047F1
:104730000CF0004C4CEA50207F32C2BFD2F1FF0394
:1047400040EAC250704740F400004FF00003013AC5
:1047500037E792F0000F00F0004C02BF400010F469
:10476000000F013AF9D040EA0C0093F0000F01F07D
:10477000004C02BF490011F4000F013BF9D041EA9F
:104780000C0195E70CEAD15392EA0C0F08D14202D2
:104790007FF47DAF93EA0C0F7FF470AF084676E7A5
:1047A00093EA0C0F04D14B023FF44CAF08466EE77E
:1047B00030F0004C18BF31F0004CCAD130F000424C
:1047C0007FF45CAF31F000437FF43CAF5FE700BFA4
:1047D0004FF0FF3C06E000BF4FF0010C02E000BFCD
:1047E0004FF0010C4DF804CD4FEA40024FEA41036F
:1047F0007FEA226C18BF7FEA236C11D001B052EA25
:10480000530C18BF90EA010F58BFB2EB030088BFEA
:10481000C81738BF6FEAE17018BF40F00100704759
:104820007FEA226C02D15FEA402C05D17FEA236C3B
:10483000E4D15FEA412CE1D05DF8040B704700BF82
:10484000844608466146FFE70FB5FFF7C9FF002819
:1048500048BF10F1000F0FBD4DF808EDFFF7F4FF52
:104860000CBF012000205DF808FB00BF4DF808EDEB
:10487000FFF7EAFF34BF012000205DF808FB00BF0E
:104880004DF808EDFFF7E0FF94BF012000205DF830
:1048900008FB00BF4DF808EDFFF7D2FF94BF0120E1
:1048A00000205DF808FB00BF4DF808EDFFF7C8FFDA
:1048B00034BF012000205DF808FB00BF4FEA400232
:1048C000B2F1FE4F0FD34FF09E03B3EB12620DD93E
:1048D0004FEA002343F0004310F0004F23FA02F0A8
:1048E00018BF404270474FF00000704712F1610F4F
:1048F00001D1420205D110F0004008BF6FF0004026
:1049000070474FF00000704742000ED2B2F1FE4FE8
:104910000BD34FF09E03B3EB126209D44FEA00238E
:1049200043F0004323FA02F070474FF00000704755
:1049300012F1610F01D1420202D14FF0FF307047F6
:104940004FF00000704700BF002101F0DDBA0A22DD
:10495000002101F067BB0000014B1868704700BFE1
:104960004800002010B5431E0A44914200D110BDFA
:1049700011F8014B03F8014FF7E7002B2DE9F04741
:104980001E46BBBF03F100431E4600232D2388B003
:10499000149FDDE9121A27F02007462F1446109DB8
:1049A0000B7004D0452F00D10135022300E0032312
:1049B00007AA049206AACDE902A2CDE90035224653
:1049C000334601F0D5FB472F804602D1119BDB0710
:1049D00026D5462F08EB050911D198F80030302B69
:1049E0000AD10022002320463146FFF711FC18B9F6
:1049F000C5F10105CAF80050DAF8003099440022E8
:104A0000002320463146FFF703FC38B93022079BCC
:104A10004B4505D2591C07911A70F8E7CDF81C9048
:104A20004046079B159AA3EB0803136008B0BDE846
:104A3000F087F7B50029B4BF2D232B230446B8BF58
:104A40004942092904F8022B437021DD0DF10703C7
:104A50001F460A2691FBF6F506FB1511092D01F1FB
:104A6000300103F8011C03F1FF32294609DC303123
:104A7000023B02F8011CBB42224604D3101A03B0C9
:104A8000F0BD1346E6E713F8012B04F8012BF2E71B
:104A9000302319448370021DC170EFE72DE9F04FF8
:104AA00091B00C461A9F93461E46054602F042FC02
:104AB00003681846099300F0D7FB00230E933B6868
:104AC0000A90073323F0070303F1080294F81880D3
:104AD000D4F800A03A60D3E90023C4E91223D4E952
:104AE000127929F000430B934FF0FF32A64B384662
:104AF0000B9903F0CFFA68BB4FF0FF32A24B384658
:104B00000B99FFF799FB28BB002200233846494642
:104B1000FFF788FB10B12D2384F843309B4F9C4B4B
:104B2000B8F1470F98BF1F4603234FF000092361D8
:104B30002AF00403236000965B460FAA214628460C
:104B400000F0E2F9013040F090804FF0FF3011B0FA
:104B5000BDE8F08F3A464B463846494603F09AFA8C
:104B600010B18C4F8C4BDBE763684AF48062591CB0
:104B70000DA80EA940D1062363604FF0000C0DF183
:104B80003303CDE9012363682260CDE90308009374
:104B90003A464B46CDE9051C2846FFF7EEFE08F0E5
:104BA000DF03472B074609D10D9BD81C02DB626847
:104BB000934247DDA8F102085FFA88F8B8F1650F63
:104BC0000D9924D80139424604F150000D91FFF7A8
:104BD00030FF0E9A81461318012A236102DC2268F5
:104BE000D10701D5013323619DF83330002BA2D0CA
:104BF0002D2384F843309EE7B8F1670F00F06E81F3
:104C0000B8F1470FB9D1002BB7D10123B4E7B8F100
:104C1000660F19D1002963680CDD216113B9226880
:104C2000D20702D501330B4423610D9B4FF00009DD
:104C3000A365D9E713B92268D00701D50233F3E79A
:104C40000123F1E74FF06708DDE90D32934205DB00
:104C500022682361D107E8D50133E5E7002BCCBFFB
:104C60000123C3F102031344DEE723685A0507D486
:104C700023693A4659462846B047013029D164E7AE
:104C8000B8F1650F40F2D780D4E912010022002369
:104C9000FFF7BEFA88B30123404A59462846B04779
:104CA00001303FF452AFDDE90D239A4202DB236865
:104CB000D8070ED5DDE9092359462846B04701300B
:104CC0003FF443AF002704F11A080E9B013BBB429F
:104CD00009DC23689F0700F1FD80E0680F9B984284
:104CE000B8BF184633E70123424659462846B04725
:104CF00001303FF42AAF0137E7E70D9B002B2BDC97
:104D00000123264A59462846B04701303FF41DAFDB
:104D10000D9B23B90E9B13B92368D907D9D5DDE9BB
:104D2000092359462846B04701303FF40EAF4FF0F3
:104D3000000804F11A090D9B5B42434501DC0E9B00
:104D400097E701234A4659462846B04701303FF4C9
:104D5000FCAE08F10108EEE70E9AA36D9A42A8BFD7
:104D60001A46002A904607DD134659463A46284619
:104D7000B04701303FF4E9AE04F11A034FF0000AE6
:104D800028EAE8780B9315E0FFFFEF7F988600088C
:104D900094860008A08600089C860008A486000867
:104DA00001230B9A59462846B04701303FF4CDAE57
:104DB0000AF1010AD4F85890A9EB08035345EFDC37
:104DC000DDE90D239A424F4414DB2368DA0711D43E
:104DD0000E9B0D99A3EB0902A3EB01099145A8BF16
:104DE0009146B9F1000F0DDC002729EAE97904F1B9
:104DF0001A0818E0DDE9092359462846B047013072
:104E0000E6D1A2E64B463A4659462846B04701301D
:104E1000EAD19AE60123424659462846B047013076
:104E20003FF493AE0137DDE90D239B1AA3EB090391
:104E3000BB42EFDC4DE70E9A012A01DCDB0738D5D7
:104E400001233A4659462846B04701303FF47DAE2B
:104E5000DDE9092359462846B047013007F101072B
:104E60003FF473AED4E912010E9B002203F1FF3828
:104E70000023FFF7CDF9C0B943463A4659462846C4
:104E8000B04701300DD160E601234246594628461D
:104E9000B04701303FF459AE01370E9B013BBB4296
:104EA000F2DC4B4604F15002E4E6002704F11A0854
:104EB000F3E70123E1E70123424659462846B0477C
:104EC00001303FF442AE0137E3680F9A9B1ABB42B0
:104ED000F1DC02E7002704F11908F5E7002B3FF4A5
:104EE00094AE4FF0000CCDE9051C0DF133012260AA
:104EF000CDE90308CDE9012100933A464B46284607
:104F0000FFF73BFD07464FE62DE9F04791461F4668
:104F10008A680B6906469342B8BF1346C9F8003049
:104F200091F843200C46DDF8208012B10133C9F816
:104F300000302368990642BFD9F800300233C9F81F
:104F40000030256815F0060507D104F1190AE36859
:104F5000D9F800209B1AAB4229DC94F84330226830
:104F6000003318BF012392062ED404F143023946C0
:104F70003046C047013021D02368E56803F00603BE
:104F8000042B18BF0025D9F800204FF0000908BFF6
:104F9000AD1AA368226908BF25EAE5759342C4BF2C
:104FA0009B1AED181A344D451AD1002008E0012350
:104FB000524639463046C047013003D14FF0FF30EA
:104FC000BDE8F0870135C2E73020E11881F84300E1
:104FD0005A1C94F845102244023382F84310C4E767
:104FE0000123224639463046C0470130E6D009F158
:104FF0000109D8E72DE9F04301F1430C0C46097E85
:1050000085B06E291746064698460C9A00F0B38084
:1050100022D8632936D00AD8002900F0B98058294F
:1050200000F0838004F1420584F8421032E06429E4
:1050300001D06929F6D120681368050603F104013F
:105040002AD51B681160002B03DA2D225B4284F8FD
:1050500043206F480A2239E0732900F09D8008D868
:105060006F2920D07029DDD1236843F0200323600D
:1050700003E0752917D07829D4D17823654884F8BE
:10508000453055E0136804F14205191D1B68116095
:1050900084F8423001238CE01B6810F0400F11604F
:1050A00018BF1BB2CFE713682568181D10602806CB
:1050B00001D51B6802E06806FBD51B886F2914BF69
:1050C0000A2208225248002184F843106568002D06
:1050D000A560C0F29580216821F004012160002BB9
:1050E0003DD1002D40F08E806546082A0BD1236803
:1050F000DB0708D5236962689A42DEBF302305F8D2
:10510000013C05F1FF35ACEB05032361CDF80080D0
:105110003B4603AA21463046FFF7F6FE01304DD14B
:105120004FF0FF3005B0BDE8F083394884F84510F2
:10513000136821681D1D1B6815600A060BD5CA0778
:1051400044BF41F0200121601BB9226822F02002F7
:1051500022601022B7E74D0648BF9BB2EFE76546D5
:10516000B3FBF2F102FB1133C35C05F8013D0B46C2
:105170000029F5D1B9E713682568181D6169106029
:1051800028061B6801D5196002E06A06FBD5198064
:10519000002365462361B9E71368191D11601D6876
:1051A00062680021284602F0EDF808B1401B6060FB
:1051B00063682361002384F84330A7E723692A4604
:1051C00039463046C0470130AAD023689B0713D424
:1051D000E068039B9842B8BF1846A3E701234A46FC
:1051E00039463046C04701309AD00135E368039A0A
:1051F0009B1AAB42F2DCEBE7002504F11909F5E755
:10520000002BACD1037804F1420584F842306CE7FE
:10521000A6860008B78600080EB46FF0004100B5FE
:105220009CB01DAB02900690079104910848094973
:1052300053F8042B0591006802A9019302F0B6FD12
:105240000022029B1A701CB05DF804EB03B070479B
:10525000480000200802FFFF034611F8012B03F865
:10526000012B002AF9D17047034613F8012B002ABD
:10527000FBD1181A0138704710B56AB1013984188A
:1052800010F8013B11F8012F934203D1A04201D045
:10529000002BF5D1981A10BD1046FCE738B503462F
:1052A0000D4669B9BDE8384002F088BE0446431C8B
:1052B0002946184602F082FE0028F7D1204638BD64
:1052C0000024F5E72DE9F0410F46904602F032FB4D
:1052D00004460D46B8F1000F11D0C7F30A53C3F1CD
:1052E0006B03002B0BDD00241B0503F17F5505F537
:1052F000401522462B46FEF723FD04460D46204668
:105300002946BDE8F08100002DE9F04F1F4600233B
:10531000A1B0834638460E4617921C9302F007F858
:1053200080460068FFF7A0FF4FF0000904464FF0E9
:10533000000A1B961B9B1A780D2A32D8092A36D2EE
:10534000002A3ED000230D931B9D2B78302B40F07C
:10535000AC806B78582B01D0782B67D10D9B0297CE
:1053600001931CAB0093894A1DAB1BA9584601F061
:1053700003FD10F00704064605D0062C2BD10023B0
:1053800001351B950D93179B002B40F0A6850D9BB7
:10539000E3B14A460AF100431046194621B0BDE880
:1053A000F08F2B2A15D02D2A04D0202ACAD1013300
:1053B0001B93BFE701220D925A1C1B925B78002BB6
:1053C000C2D1179B1B96002B40F085854A46534659
:1053D000E2E70022EFE71C9A3AB135211EA802F05D
:1053E0009CFB1C99584602F00FF8013C042C06D88F
:1053F000DFE804F00A0314170A00DDE91E9A3107FA
:10540000C1D54AF0004ABEE71D9ADDE91E9302F2BB
:10541000334223F4801343EA025AF0E7DFF870A125
:10542000EDE76FF0004A4FF0FF39E8E71B9B5A1C8D
:105430001B925B78302BF9D0002BA4D001230025E0
:105440000A2207931B9B0695089304951B980778DF
:10545000A7F13003D9B2092929D92246D8F800107A
:10546000FFF70AFF002831D000203B460246049C8B
:105470000590652B01D0452B14D124B910B9079B99
:10548000002B9ED000241B9E731C1B9373782B2B28
:1054900078D02D2B70D04FF0000CA3F13007092FDE
:1054A0007CD91B964FF0000E9AE00023C7E70499C1
:1054B00001300829D7BF069902FB053502FB0133ED
:1054C0000693049B1B9001330493BFE71B9B1A199F
:1054D0001B92049A1B5D002A37D00246049CA3F15C
:1054E0003001092913D901210591C2E71B9B013025
:1054F0005A1C1B925B78302BF8D0A3F13102082A9A
:1055000000F2F0841B9A0892024600200446B3F190
:10551000300E00F1010112D00A440A27214600EBA7
:10552000040C8C4513D12118082904F1010404440A
:1055300019DC0A21069B01FB03E3069300211B9B58
:10554000581C1B905B780846C9E70498D3E70829E4
:1055500001F1010103DC069B7B430693E1E710297F
:10556000D8BF7D43DDE7102CDCBF0A2101FB05E538
:10557000E4E70123059381E74FF0010CB31C1B9373
:10558000B3788AE74FF0000CF8E700BFC886000840
:105590000000F07F1B9B5F1C1B975B78302BF9D0C2
:1055A000A3F13107082F3FF67DAFA3F1300E1B9B0F
:1055B00009931B9B5F1C1B975B78A3F13008B8F124
:1055C000090F37D909997F1A082F44F61F6737DC6E
:1055D000BE45A8BFBE46BCF1000F01D0CEF1000E03
:1055E000002C51D100287FF4CEAE079A002A7FF418
:1055F000CAAE059A002A7FF4E4AE4E2B27D021DCF8
:10560000492B7FF4DEAEA4491BA801F0E9FD002878
:105610003FF4D7AE1B9BA149013B1BA81B9301F094
:10562000DFFD10B91B9B01331B93DFF884A24FF001
:105630000009A8E60A2101FB0E3EAEF1300EB8E7E4
:10564000BE46C8E7692BDED06E2B7FF4BAAE944914
:105650001BA801F0C5FD00283FF4B3AE1B9B1B78CF
:10566000282B0ED11EAA8F491BA801F0CDFD0528BD
:1056700007D11F9BDDF8789043F0FF4A4AF4E00A17
:1056800081E6DFF834A2D2E7AEEB02030793049B76
:105690000698002B08BF2346102C0493A046A8BFF1
:1056A0004FF01008FEF7D2FA092C81468A4613DC27
:1056B000079B002B3FF467AE079B7EDD162B65DC56
:1056C000794A02EBC30E4A46DEE900015346FEF773
:1056D00037FB81468A4656E6734B03EBC80353E912
:1056E0001223FEF72DFB064628460F46FEF7AEFABC
:1056F00002460B4630463946FEF76CF90F2C8146C0
:105700008A46D5DD079BA4EB08089844B8F1000F42
:1057100040F39A8018F00F030AD063494A4601EB20
:10572000C301D1E900015346FEF70AFB81468A46D0
:1057300038F00F0877D0B8F59A7F4BDD4FF00008AE
:10574000CDF81080CDF82080CDF8188022234FF0BE
:105750000009DFF85CA1CBF80030089B002B3FF478
:1057600012AE1C99584601F04FFE0699584601F0BA
:105770004BFE0499584601F047FE0899584601F03F
:1057800043FE4146584601F03FFEFCE5079AC4F14E
:1057900025039342B6DB444DC4F10F0405EBC4016D
:1057A0004A46D1E900015346FEF7CAFA079B1C1B83
:1057B00005EBC405D5E9002389E713F1160FA1DB3A
:1057C000394A4846A2EBC302D2E900235146FEF70C
:1057D000E1FB7EE70023484651461D46334E4FEA23
:1057E0002818B8F1010F21DC0BB181468A462F4BF6
:1057F000AAF1547A03EBC5054A46D5E900015346A0
:10580000FEF79EFA2A4B0A460B402A4981468B42F4
:1058100094D8A1F580118B4286BF4FF0FF39DFF895
:105820009CA002F1547A002305937BE018F0010F4D
:1058300006D006EBC503D3E90023FEF781FA012366
:1058400001354FEA6808CCE7EDD0C8F1000818F040
:105850000F020AD0144B484603EBC2035146D3E96A
:105860000023FEF797FB81468A465FEA2818DAD0C4
:10587000B8F11F0F24DD4FF00008CDF81080CDF8EF
:105880002080CDF8188022234FF000094FF0000A45
:10589000CBF8003061E700BF998600081B8700083D
:1058A000A1860008DC8600085887000830870008B9
:1058B0000000F07F0000A07C0000F8FFFFFFEF7FFA
:1058C00018F0100318BF6A23484605935146002379
:1058D000A14DB8F1000F00F313810BB181468A4648
:1058E000059BBBB1CAF30A53C3F16B03002B5146AE
:1058F00010DD1F2B40F31081342BD8BF4FF0FF3247
:105900004FF00009CFBF4FF05C7A203B02FA03F35F
:1059100003EA010A0022002348465146FEF778FCBC
:105920000028A8D1069B049A00930899234658465C
:1059300001F0BCFD089000283FF400AF079A079BD8
:10594000002AC3F10003A8BF00234FF000080E9304
:1059500022EAE2731693CDF81080089B58465968E6
:1059600001F01EFD069000283FF4F0AE089B0C30BD
:105970001A6903F10C0102329200FEF7F3FF1EAB2D
:1059800001931DAB00934A4653465846CDE90A9A07
:1059900002F046F81C9000283FF4D8AE012158468A
:1059A00001F010FE0490034600283FF4CFAE1D9D89
:1059B0001E9A002DABBF0E9B169BEE185C1B059B21
:1059C000A8BF169CA5EB03051544644B05F1FF35F4
:1059D000B8BF0E9E9D42C2F1360280F2AF805B1BC3
:1059E0001F2BA2EB03024FF0010700F39C80002560
:1059F00007FA03F30F93B718059BBE4214441C44E7
:105A00003346A8BF3B46A342A8BF2346002BC2BFD4
:105A1000FF1AE41AF61A0E9BBBB11A4604995846AF
:105A200001F06EFE049000283FF490AE01461C9AEF
:105A3000584601F0D0FD099000283FF487AE1C992C
:105A4000584601F0E1FC099B1C93002F7ADC079B70
:105A5000002B08DD169A0699584601F051FE069073
:105A600000283FF473AE002C08DD22460699584604
:105A700001F094FE069000283FF468AE002E08DD89
:105A800032460499584601F089FE049000283FF4FC
:105A90005DAE069A1C99584601F0EEFE804600283D
:105AA0003FF454AE0024C3680499C4600C9301F021
:105AB000C9FEA04254DA0C9BF3B9B9F1000F1BD117
:105AC000CAF31303C3B92AF000431B0D1B05B3F13E
:105AD000D66F11D9D8F814301BB9D8F81030012B73
